:020000040800F2
:10000000F03F002099010008035D00085B550008DF
:10001000015D0008F7080008F56F00080000000007
:1000200000000000000000000000000001010008C6
:10003000130F00080000000045010008F1620008ED
:10004000B3010008B3010008B301000855610008BE
:10005000B3010008B301000851140008B3010008FF
:10006000B3010008B3010008B3010008B3010008A0
:10007000A10E0008AD0E0008B90E0008C50E00085C
:10008000D10E0008DD0E0008B3010008B30100081E
:10009000B3010008B3010008B3010008B301000870
:1000A000B301000889660008B3010008B301000825
:1000B000B3010008B301000895660008B301000809
:1000C000B3010008B3010008B3010008B301000840
:1000D000B3010008B96F0008D16F0008E96F00088C
:1000E000B3010008B3010008B3010008DFF80CD029
:1000F00000F0DAFB00480047DD7F0008F03F0020F9
:10010000224B19680868B0E8F00F80F30988BFF344
:100110006F8F4FF0000080F311884EF00D0E704786
:100120000000000006480068006880F3088862B696
:1001300061B6BFF34F8FBFF36F8F00DF00BF00BF0B
:1001400008ED00E0EFF30980BFF36F8F0F4B1A68E3
:1001500020E9F00F106008B54FF0500080F31188CF
:10016000BFF34F8FBFF36F8F09F0B2F94FF000006C
:1001700080F31188BDE8084019680868B0E8F00FFE
:1001800080F30988BFF36F8F704700BF1400002011
:10019000EFF3058070470000064880470648004797
:1001A000FEE7FEE7FEE7FEE7FEE7FEE7FEE7FEE727
:1001B000FEE7FEE785630008ED000008202A04DB67
:1001C000203A21FA02F00021704721FA02F3D040D0
:1001D000C2F12002914008431946704740EA0103EA
:1001E0009B0703D009E008C9121F08C0042AFAD2ED
:1001F00003E011F8013B00F8013B521EF9D27047B1
:10020000D2B201E000F8012B491EFBD27047002258
:10021000F6E710B513460A4604461946FFF7F0FF05
:10022000204610BD30B505462A460B4612F8010B94
:1002300013F8014B08B1A042F8D01CB1002802D03D
:100240006D1CF1E7284630BD10B5002200E0521CBD
:10025000835C8C5CA34201D1002BF8D1D8B2E1B20F
:10026000401A10BD2DE9FE4F804681EA0300C00F01
:100270000C46009021F0004123F00045B8EB02004D
:10028000A94105D24046214690461C460B460246EF
:1002900023F00040104347D0270DC7F30A00C3F3F3
:1002A0000A510290401A019040286BDAC3F3130000
:1002B00040F4801B0098924620B10023D2EB030A41
:1002C00063EB0B0B01985946C0F14002504600F019
:1002D00096F906460D4650465946019A00F09EF999
:1002E00010EB08006141002487EA115284EAE773A9
:1002F0001A4340D0009A62B3019A012A4FEA07528A
:1003000015DC001B61EB02014FF0004202EA0752CC
:10031000CDE90042001C41F5801132462B4600F029
:10032000D5F903B0BDE8F08F40462146F9E7001B40
:1003300061EB0201001C41F5801300185B4120189D
:10034000A2F5001747EB030140EAD570B6196D41DD
:1003500011E06D084FEA360645EAC0754FEA0752CC
:10036000001B61EB0201001C41F5801149084FEAB6
:1003700030000019514132462B4603B0BDE8F04F22
:1003800000F095B90098012240000023D0EB020252
:1003900063EBE073009821464FEAE074B8EB00008D
:1003A00061EB0401E9E783F000435BE781F0004182
:1003B00058E72DE9FE4F81EA030404F0004421F0E0
:1003C000004100944FF0000B23F0004350EA010479
:1003D0005ED052EA03045BD0C3F30A54C1F30A555A
:1003E0002C44A4F2F3340194A0FB0254C1F3130192
:1003F00041F48011C3F3130343F4801301FB02445F
:1004000000FB034E840A970A44EA815447EA835763
:10041000A4FB076802958D0A05FB07854FEA932C1C
:1004200004FB0C542705029D4FEA065847EA16378D
:10043000B5EB08056EEB070C870E920E47EA8117A5
:1004400042EA8312A7FB0201B6EB0B0164EB000446
:100450002B0D43EA0C335E1844EB1C50DA46514630
:10046000E7FB0201C5F313044FEA0B3343EA1453CD
:100470004FEA0432019C43EA0603A4F10C040294FF
:10048000009CCDE900B400F021F903B0BDE8F08F85
:1004900000200146F9E770B521F0004303430CD07A
:1004A000C1F30A550024D5EB040564EB0403D61709
:1004B000AD1AB34102DB0020014670BD201841EBAC
:1004C000025170BD0EB540F2334102910021CDE9D9
:1004D00000110A460B4600F0F9F803B000BD00F029
:1004E000004220F00040C10DC0F3160040F40000AF
:1004F0007F2901DA00207047962903DCC1F19601BB
:10050000C84001E096398840002AF4D04042704744
:1005100020F00040C10DC0F3160040F400007F2918
:1005200001DA00207047962903DCC1F19601C8402A
:10053000704796398840704701F0004330B421F08D
:10054000004150EA010206D00A0DA2F56072C1F323
:100550001301002A02DC30BC00207047440F44EA3B
:10056000C104C100E01830BC00EBC25000F068B814
:1005700030B50B46014600202022012409E021FA73
:1005800002F59D4205D303FA02F5491B04FA02F570
:100590002844151EA2F10102F1DC30BD2DE9F05F07
:1005A0000546002092469B468846064681464024E2
:1005B0001BE02846414647462246FFF7FFFD5346CB
:1005C0005A46C01A914110D311461846224600F0EF
:1005D00016F82D1A67EB01084F462246012000212C
:1005E00000F00DF817EB00094E41201EA4F10104A4
:1005F000DFDC484631462A464346BDE8F09F202AC4
:1006000004DB203A00FA02F1002070479140C2F169
:10061000200320FA03F3194390407047202A06DB99
:10062000CB17203A41FA02F043EAE07306E041FAC0
:1006300002F3D040C2F120029140084319467047AE
:100640000029A8BF7047401C490008BF20F00100E6
:10065000704710B4B0FA80FC00FA0CF050EA0104C4
:1006600004BF10BC704749B1CCF1200421FA04F456
:1006700011FA0CF118BF012121430843A3EB0C012F
:10068000CB1D4FEA00614FEA102042BF002010BC92
:10069000704700EBC35010440029A4BF10BC704742
:1006A000401C490008BF20F0010010BC704710B585
:1006B000141E73F1000408DA401C41F10001921885
:1006C0005B411A4301D120F0010010BD2DE9F04D2E
:1006D00092469B4611B1B1FA81F202E0B0FA80F283
:1006E00020329046FFF78BFF04460F4640EA0A008F
:1006F00041EA0B0153465A46084313D0114653EAC8
:10070000010019D0C8F140025046FFF757FD0546D9
:100710000E46504659464246FFF771FF084305D042
:10072000012004E020463946BDE8F08D0020054355
:1007300046EAE0762C4337430A986305E40AA0EBC7
:1007400008000022FD0A44EA47540A3002D500207E
:100750000146E9E7010510196941DDE9084500197D
:100760006941BDE8F04DA2E72DE9F04D81EA0304AF
:1007700004F0004B21F0004514464FF0000A23F02E
:10078000004150EA050220D054EA01021DD0C5F311
:100790000A570246C5F31303C1F31300C1F30A5607
:1007A00040F4801543F48013A7EB0608101BD646CF
:1007B00008F2FD3873EB050002D308F1010801E0EF
:1007C00092185B41B8F1000F03DA00200146BDE842
:1007D000F08D00204FF48011064684460EE0171B72
:1007E00073EB050705D3121B63EB050306434CEAC5
:1007F000010C49084FEA300092185B4150EA0107AA
:10080000EDD152EA030012D082EA040083EA050126
:10081000084305D0101BAB4106D20122002306E09D
:1008200000224FF0004302E06FF0010253101AEB78
:1008300006004CEB085110EB0A0041EB0B01BDE840
:10084000F04DFFF734BFC1F30A52C1F3130140F278
:10085000FF3341F480119A4202DA002001467047CA
:1008600040F233439A42A2F2334202DC5242FFF793
:10087000A5BCFFF7C4BE000030B5041E71F1000432
:1008800004DB4FF00044404264EB0101141E73F19D
:10089000000405DB1C464FF00043524263EB0403A7
:1008A000994208BF904230BD064C074D06E0E06813
:1008B00040F0010394E8070098471034AC42F6D3A7
:1008C000FFF718FC94AC0008B4AC0008A0F13001AC
:1008D000092901D8C8B27047A0F14101052901D802
:1008E000373804E0A0F16101052902D85738C0B2B9
:1008F0007047FF207047FEE770B5044600200246AF
:1009000031250FE0A35C58400823060602D585EA8E
:10091000400000E040005B1EC0B213F0FF03F4D1C2
:10092000521CD2B28A42EDD370BD30B54179032951
:1009300005D20C314BB2C188491E0AB203E090F9CE
:100940000530B0F90620642492FBF4F192FBF4F533
:1009500004FB1522D41702EB947409B202EBA40233
:10096000CC1701EB947402EBA4021A245B1C6343C2
:100970000A2493FBF4F3494203EB4101C3781A4480
:100980001144491E49B207228C3191FBF2F302FB5C
:100990001311017130BD00002DE9FF410178491CA0
:1009A000C9B201703C290ED3002101704278521C5B
:1009B000D2B242703C2A06D341708278521CD2B225
:1009C0008270182A03D2002004B0BDE8F081817043
:1009D000C17818A3491CCCB2C470E8CB4179C28855
:1009E0008DE8E800022911D01DF80130A34209D298
:1009F0000123491CC9B2C37041710D2902D343714F
:100A0000521CC280FFF791FF0120DDE7930705D15B
:100A10006425B2FBF5F605FB162343B94FF4C87500
:100A2000B2FBF5F605FB16230BB11C23DEE71D23F5
:100A3000DCE70000001F1C1F1E1F1E1F1F1E1F1EA5
:100A40001F000000014804F085BC00005839002058
:100A50000BA005F087F94FF0FF35174C2E0A2B46F7
:100A600000223146206807F04FFBC007F7D013483B
:100A700000F0E0F90028F2D011A005F073F9EEE7DC
:100A8000496E666F3A20205B646973706C61795FB0
:100A90007363616E5F7461736B5D20646973706C06
:100AA0006179207363616E207461736B20656E746D
:100AB0006572210D0A0000008C00002058390020CA
:100AC000496E666F3A20205B646973706C61795F70
:100AD0007363616E5F7461736B5D20476574207230
:100AE0006762207363616E20646174612065727255
:100AF0006F72210D0A00000070B50A4C4FF0FF35EF
:100B0000606868B9002007F0A7FA206040B1064A83
:100B10000021064807F048FC606008B1002070BD65
:100B2000284670BD8C00002074A20008510A0008FD
:100B3000064810B5406807F089FC08B104A000E041
:100B400011A0BDE8104005F00DB900008C00002098
:100B50004572726F723A205B646973706C61795F81
:100B60007363616E5F7461736B5D20646973706C35
:100B70006179207363616E207461736B2072657399
:100B8000756D650D0A000000496E666F3A20205BA6
:100B9000646973706C61795F7363616E5F746173B4
:100BA0006B5D20646973706C6179207363616E2082
:100BB0007461736B20726573756D650D0A000000BA
:100BC00001460248006807F069BA00008C00002066
:100BD000064810B5406807F055FC08B104A000E0D5
:100BE00011A0BDE8104005F0BDB800008C00002049
:100BF0004572726F723A205B646973706C61795FE1
:100C00007363616E5F7461736B5D20646973706C94
:100C10006179207363616E207461736B20737573E7
:100C200070656E640D0A0000496E666F3A20205BA5
:100C3000646973706C61795F7363616E5F74617313
:100C40006B5D20646973706C6179207363616E20E1
:100C50007461736B2073757370656E640D0A0000A8
:100C6000012007F0DFF9FBE7ADF5487D52A005F064
:100C700079F85CA35EA261A162A005F073F84FF45D
:100C8000467A51466846FFF7C2FA082000F000F99C
:100C9000654D06AE4FF0FF3B0DF10E08B71F4FF448
:100CA00096795B4600226FF07F41286807F02CFAA6
:100CB0000446C0072CD0C6A8FFF76EFE18B1C6A91F
:100CC000404600F013FCC6A9684604F0DBFB68460A
:100CD00004F0D2FA78B1554802F0D2FF534802F03E
:100CE00043FF0021384604F0E5FA06F033FC05F036
:100CF00043FCFFF76DFF684604F010FC00231A4622
:100D00003146686807F0F2FA10B90120FFF758FF82
:100D1000A00702D505A805F0A9FB600706D5C6A85F
:100D200006F082FBC6A9404600F0E0FB200719D57B
:100D3000BDF81200B0B904F00FFC51466846FFF749
:100D400066FA4946384604F0B5FA384802F01EFF04
:100D5000364802F039FFC6A800F07EFBC6A940461F
:100D600000F0C4FBE0069CD5314804F0FBFFBDF861
:100D7000120020B14946384604F09CFA91E706F08B
:100D800091FB05F0ABFBFFF7D3FE082000F080F8E5
:100D9000C6A9684604F076FB684604F0BFFB002352
:100DA0001A463146686807F0A1FA0028E6D101200A
:100DB000FFF706FF75E70000496E666F3A20205B7B
:100DC000646973706C61795F7461736B5D206469D1
:100DD00073706C6179207461736B20656E746572D9
:100DE0000D0A00004A756E20203120323032320068
:100DF00031303A30393A3533000000005631303165
:100E000000000000496E666F3A20205B64697370D1
:100E10006C61795F7461736B5D2025732C20257381
:100E20002C2025730D0A0000940000209001002062
:100E3000E0AA00080146034800231A46406807F06C
:100E4000DDB900009400002070B50E4C4FF0FF3566
:100E5000A068A8B9002007F0FFF8206080B1002248
:100E60004FF44071012007F007FA606040B1064A74
:100E70000021064807F098FAA06008B1002070BD74
:100E8000284670BD9400002098A20008690C000854
:100E900001460248006807F001B9000094000020F4
:100EA000014800F031BC0000F8030020014800F0C8
:100EB0002BBC0000B4030020014800F025BC00005A
:100EC000E8020020014800F01FBC0000A40200203E
:100ED000014800F019BC00002C030020014800F07C
:100EE00013BC00007003002030B590F8405001247E
:100EF000AC40C56B6C60046863604368102B03688A
:100F000003D099600068C26030BD9A600068C1601B
:100F100030BD70472DE9F04F624B421803EB0108DA
:100F200092F898C198F8108006784478C77890F8BD
:100F300004A0457990F806B090F802904CEA081C9D
:100F400082F898C113F8018003EBC6064CEA580CEE
:100F500082F898C192F8A8C113F8018003EBC40489
:100F60004CEAC81C82F8A8C1765C4CEA860682F876
:100F7000A86114F801C046EADC0682F8A8610826D8
:100F800000EB061C8C44761C9CF81881F6B28CF899
:100F900018800A2EF4D392F8B800665C40EA461036
:100FA00082F8B80092F8B801645C40EA44163D4CFF
:100FB00082F8B8619834601890F850C046EA9C06F0
:100FC00082F8B86192F8C86190F850C046EA8C1671
:100FD000F6B282F8C86107B90B2703EBC70792F88E
:100FE000C8C017F801804CEA480C82F8C8C07F5C82
:100FF00046EA470682F8C86103EBCA0692F8D87041
:1010000016F801C047EA0C1782F8D87092F8D87128
:10101000765C47EA061682F8D86190F8487046EA8E
:10102000570682F8D86192F8E86190F8487046EA6D
:10103000C716F7B282F8E87105B90B2503EBC505B1
:1010400012F8E86F15F801C003EBCB0346EA8C06F3
:1010500016706D5C47EA850582F800515F5C46EAD0
:10106000D70616705E5C45EAD60582F8005112F884
:10107000105F5E5C45EA461502F8105B5B5C92F817
:10108000F05045EA431382F8F03090F840000343F3
:1010900082F8F03004EBC9031078595C08431070F3
:1010A000BDE8F08FBCA20008F0B5C37B0A22B3FBF9
:1010B000F2F502FB1536057CB3FBF2F4B5FBF2F753
:1010C000B5FBF2F302FB1757A1F10802264DD2B28D
:1010D0000844154490F8981195F838C041EA0C017D
:1010E00080F8981104B90B241F4990F8A8C09839CA
:1010F00001EBC40401EBC606A45C4CEA041480F8BE
:10110000A84016F802C044EA5C0480F8A84090F8B1
:10111000B840B65C44EAC61480F8B84090F8B841CC
:1011200095F8486044EA460480F8B84103B90B23B7
:1011300001EBC30310F8C84F9B5C01EBC70144EA05
:10114000031303708C5C43EA54030370037C895CD3
:1011500043EAC111017490F8101195F8402041EA5A
:10116000820180F81011F0BD54A300082DE9F0476A
:10117000A1F10802DFF828A1D3B2D5B2447C6426DD
:101180004FF0000C4FF00A09534442187CB1C78A53
:10119000B7FBF6FCB7FBF6F406FB1C7C4E46BCFB2B
:1011A000F6F9B7FBF6FC06FB1C77E4B21DE0B0F9DC
:1011B0001440002C05DAE443641C4FF0010CA7B284
:1011C00000E0878ABCF1000FB7FBF6F8B7FBF6F436
:1011D00006FB18784E46B8FBF6F9B7FBF6F806FBA7
:1011E0001877E4B201D01CB103E094B90B2410E0ED
:1011F0000C2492F8D86093F860C046EA9C1682F8F6
:10120000D86092F8E86093F860C046EA8C0682F8ED
:10121000E8600AEBC40492F8E8C0645D0AEBC70614
:101220004CEA54040AEBC90C82F8E8401CF805802B
:1012300044EAD81482F8E84092F8F8401CF805C057
:1012400044EA4C0482F8F84093F868C044EA1C145D
:1012500082F8F84092F8F8C193F868804CEA181CBC
:1012600082F8F8C1775D44EA571482F8F84092F8A2
:101270000841755D44EAC50482F80841447C08448D
:1012800090F8080244B193F8781000BF40EAD1000A
:1012900082F80802BDE8F08793F87010F6E70000C6
:1012A000ACA300082DE9F047C379077A467A857A1E
:1012B00090F80B9090F80CA0447B03B90A23624A83
:1012C000084402EB031310F818CF13F8018002EB67
:1012D00004144CEA080C00F811CB13F8018090F8C4
:1012E000EFC04CEA080C80F8EFC090F8EFC15B5CEF
:1012F0004CEA030C80F8EFC102EB071310F801CCA5
:101300005F5C4CEA570700F8017C90F8FF7013F817
:1013100001C047EA5C0780F8FF7090F8FF7113F88E
:1013200001C047EA5C0780F8FF71C77B13F801C072
:1013300047EACC17C77390F80FC113F801804CEA45
:10134000C81C80F80FC190F80FC25B5C4CEAC31355
:1013500080F80F3214F801C047EA0C07C773675CC6
:101360003B4380F80F3202EB0613C77F5E5C02EB53
:1013700005123743C77790F81F615F5C3E4380F8E2
:101380001F6190F81F625B5C1E4380F81F6290F83B
:101390002F30555C43EA550380F82F3090F82F31F9
:1013A000555C43EA550380F82F3190F82F32555C95
:1013B00043EA550380F82F3290F83F30555C43EAFA
:1013C000C51380F83F3090F83F51565C45EAC6158A
:1013D00080F83F5190F83F52525C45EAC21280F8C3
:1013E0003F22655C2B4380F83F30635C1A43174B08
:1013F00080F83F2203EB091290F84F40555C2C43D4
:1014000080F84F4090F84F41555C2C4380F84F4195
:1014100090F84F42525C144380F84F4203EB0A129B
:1014200090F85F40535C1C4380F85F4090F85F3158
:10143000545C234380F85F3190F85F32515C0B437A
:1014400080F85F32BDE8F0872CA40008FCA50008F6
:10145000012000F025BB704770B586B0044600221D
:1014600004A9134801F098FF002203A9104801F0D5
:1014700047FF9DF8126026709DF8115065709DF829
:101480001000A0709DF80E30E3709DF80D20627181
:101490009DF80C1021719DF80F1001F5FA61E180A3
:1014A0008DE8610003A004F05DFC06B070BD000093
:1014B00034010020496E666F3A20205B74696D65C7
:1014C0005F72756E5D206765742074696D653A2082
:1014D00025642D25642D256420253032643A25307D
:1014E00032643A25303264200D0A0000F0B5CA8813
:1014F000DFF82CC14B790CEB8204A4F50054C978B9
:10150000D4F84C42C4F3411604F01F05012E0BD051
:101510001E35444E491E06EB430636F8026C314434
:1015200089B2960703D006E06D1EADB2F1E7022B3B
:1015300001D9491C89B24FF40023A94229D3491B80
:101540008DB2012100270E4614F4002F03D100BFF5
:101550004FF01D0E01E04FF01E0E754516D3A5EBA2
:101560000E05761CC4F3035EADB2F6B28E4503D110
:10157000FF4317F0FF0701D1491CC9B2A6F1010EC4
:1015800023FA0EFE14EA0E0FE5D1E1E76D1CEBB273
:1015900034E0691A521E92B20CEB8204A4F5005496
:1015A0008EB2D4F84C520C2115F4700F02D00D24D9
:1015B000002717E00C24FBE74FF01D0E02E000BFF0
:1015C0004FF01E0E764515D9A6EB0E06641EB6B278
:1015D000E4B20FB9491EC9B2C5F3035E8E4501D10D
:1015E000FF43FFB2A4F1010E23FA0EFE15EA0E0F1F
:1015F000E6D1E1E7AEEB06035B1CDBB202704170A3
:1016000083700CEB8200A0F50050D0F84C02C0F3C0
:101610000350884201D10120F0BD0020F0BD000040
:10162000E0A60008FCA9000810B590F821100022DF
:10163000022905D00421816380F82020012010BDFB
:1016400001680B6823F00E030B6001680B6823F040
:1016500001030B6090F84030C46B012101FA03F3E1
:10166000636080F8211080F82020104610BD000033
:1016700010B590F821100024022903D004218163C1
:1016800001243DE001680A6822F00E020A60016848
:101690000A6822F001020A601A4A0168914201D1E7
:1016A000012121E0174A1432914201D110211BE09F
:1016B000144A2832914201D1891515E0114A3C3271
:1016C000914201D189140FE00E4A5032914202D169
:1016D0004FF4803108E00B4A6432914202D14FF45A
:1016E000801101E04FF08071064A083A51600121F3
:1016F00080F82110002180F82010416B01B188474B
:10170000204610BD080002402DE9F05FC16B0C6857
:1017100001680B68D0F840C0042202FA0CF2494D6F
:10172000DFF824A1494E4A4FDFF828B1DFF828E15D
:1017300022422CD05A072AD50A68920603D40A6896
:1017400022F004020A600168A94201D1042219E0D2
:10175000514501D1402215E0B14202D14FF48062DF
:1017600010E0B94202D14FF480420BE0594502D15A
:101770004FF4802206E0714502D14FF4800201E06F
:101780004FF080622F4908394A60C16A3BE04FF050
:10179000020808FA0CF818EA040F4FF000094FF09D
:1017A000010235D05FEA837832D50B689B0605D4F9
:1017B0000B6823F00A030B6080F821200168A9421E
:1017C00001D1022219E0514501D1202215E0B14298
:1017D00002D14FF4007210E0B94202D14FF400522E
:1017E0000BE0594502D14FF4003206E0714502D1B9
:1017F0004FF4001201E04FF00072124908394A60BC
:1018000080F82090816A00291AD0BDE8F05F08476F
:10181000082505FA0CF5254212D01B0710D50B68D8
:1018200023F00E030B6090F84010C36B02FA01F135
:101830005960826380F8212080F82090016BE2E7F4
:10184000BDE8F09F080002401C000240300002404A
:1018500044000240580002406C00024070B5040091
:101860007ED04A49206888421BD0484914318842BA
:1018700017D046492831884213D044493C31884228
:101880000FD04249503188420BD0404964318842E0
:1018900007D03E497831884203D09A213CA006F017
:1018A00090FB606840B1102806D0B0F5804F03D09F
:1018B0009B2137A006F085FBA068402804D018B112
:1018C0009C2133A006F07DFBE068802804D018B18D
:1018D0009D212FA006F075FB206948B1B0F5807FEF
:1018E00006D0B0F5007F03D09E2129A006F069FB49
:1018F000606948B1B0F5806F06D0B0F5006F03D0D5
:101900009F2123A006F05DFBA06928B1202803D009
:10191000A0211FA006F055FBE06960B1B0F5805F23
:1019200009D0B0F5005F06D0B0F5405F03D0A1212B
:1019300017A006F046FB04CC144814214042104482
:10194000B0FBF1F08000E06310480838A06302208B
:101950006077116843F6F0708143D4E9000300E03A
:1019600012E01843D4E902352B4318432369184386
:1019700063691843A369184308431060002060633B
:1019800001216177207770BD012070BD0800024001
:101990002E2E2F447269766572732F53544D333255
:1019A000463178785F48414C5F4472697665722FA2
:1019B0005372632F73746D3332663178785F686168
:1019C0006C5F646D612E63002DE9F041884604462A
:1019D0000025581E4FF6FF711E461746884204D355
:1019E00040F26F111DA006F0ECFA94F820000128D7
:1019F0000DD0012084F8200094F821100020012946
:101A000007D084F8200002252846BDE8F081022096
:101A1000FBE7022184F82110A0632068016821F00F
:101A20000101016033463A4641462046FFF75CFA21
:101A3000E06A00282068016802D041F00E0106E04B
:101A400021F0040101602068016841F00A01016091
:101A50002068016841F001010160D5E72E2E2F4476
:101A60007269766572732F53544D333246317878EC
:101A70005F48414C5F4472697665722F5372632FE1
:101A800073746D3332663178785F68616C5F646D52
:101A9000612E6300012802D11020FFF7F9B97047C9
:101AA000044910B50A68024202D00860FFF7F2FF4D
:101AB00010BD0000140401402DE9F84F0026DFF8A6
:101AC0009CB20D460446B14658450FD0A448844206
:101AD0000CD0A448844209D0A348844206D0A3482D
:101AE000844203D0BD21A2A006F06BFA286801044D
:101AF000090C01D0000C03D0BE219DA006F061FAB4
:101B00006868DFF8A8A200281ED00128FCD01128A0
:101B1000FAD00228F8D01228F6D05045F4D0A449C3
:101B20008842F1D0A3498842EED0A3498842EBD045
:101B3000A2498842E8D0A2498842E5D00328E3D0F0
:101B4000BF218BA006F03DFA00E1012000FA06F863
:101B500007EA080747456FD15C450FD080488442AB
:101B60000CD08048844209D07F48844206D07F4808
:101B7000844203D0CD217EA006F023FA6868A0EB52
:101B80000A02504559D00EDC032875D006DC002827
:101B900053D0012819D0022869D131E0112821D071
:101BA000122864D13AE0B2F5881F46D006DCB2F5BF
:101BB000803F42D0B2F5801F59D13EE0B2F5001F00
:101BC0003BD0B2F5041F52D137E0E868022807D0B5
:101BD000012805D0032803D0D52165A006F0F1F92E
:101BE000E8683EE0E868022807D0012805D003280D
:101BF00003D0DC215EA006F0E4F9E868001D30E0C7
:101C0000E868022807D0012805D0032803D0E32183
:101C100057A006F0D6F9E868083022E0E868022804
:101C200007D0012805D0032803D0EA2150A006F0F0
:101C3000C8F9E8680C3014E087E0A86880B1012892
:101C400011D0022807D0F72149A006F0BAF9A868F8
:101C500030B1012807D04FF00809C4F8148006E01D
:101C60000420814603E04FF00809C4F81080FF2FDC
:101C700005D8214605E0FFE74FF00000F1E704F149
:101C800004014FEA860001D9A0F120000B684FF053
:101C90000F0202FA00FC23EA0C0309FA00FC43EAF3
:101CA0000C030B606868C0004FD54648816941F05D
:101CB00001018161806926F0030100F001000090BC
:101CC00041480B189868B1074FEA117C02FA0CF2F0
:101CD00090435C4501D100210FE021498C4201D1A4
:101CE00001210AE01F498C4201D1022105E01E4971
:101CF0008C4201D1032100E0042101FA0CF10143DF
:101D000099606868C0033148016801D5394300E033
:101D1000B9430160686880032D48016801D53943E3
:101D200000E0B94301606868C0022A48016801D533
:101D3000394300E0B94301606868800226480168C1
:101D400001D5394300E0B9430160761C2F6837FAAA
:101D500006F07FF4FAAEBDE8F88F000000080140FD
:101D6000000C014000100140001401400018014027
:101D70002E2E2F447269766572732F53544D333271
:101D8000463178785F48414C5F4472697665722FBE
:101D90005372632F73746D3332663178785F686184
:101DA0006C5F6770696F2E63000000000000111007
:101DB000000021100000311000001210000022105D
:101DC00000003210001002400000014000040140F9
:101DD00004040140080401400C04014070B50C00EB
:101DE000054604D14FF4F67105A006F0EAF8E9685B
:101DF00024EA0100214040EA0140286170BD000052
:101E00002E2E2F447269766572732F53544D3332E0
:101E1000463178785F48414C5F4472697665722F2D
:101E20005372632F73746D3332663178785F6861F3
:101E30006C5F6770696F2E630000000070B5154617
:101E40000C00064604D14FF4EA7108A006F0B9F878
:101E500045B1012D04D040F2D51104A006F0B1F82F
:101E6000346170BD2004306170BD00002E2E2F44FF
:101E70007269766572732F53544D333246317878D8
:101E80005F48414C5F4472697665722F5372632FCD
:101E900073746D3332663178785F68616C5F677038
:101EA000696F2E63000000000148806870470000E1
:101EB0000400002070B504007ED089492068884263
:101EC00007D08849884204D040F2D11186A006F09C
:101ED00078F860689249401E884204D94FF4E9714D
:101EE00081A006F06EF8A0684FF4804530B1A8429A
:101EF00004D040F2D3117CA006F063F8E068800AB9
:101F000004D04FF4EA7178A006F05BF82069A8428B
:101F100007D0B0F5404F04D040F2D51172A006F0C2
:101F200050F8606930B1012804D04FF4EB716EA015
:101F300006F047F8A06930F0FE0004D040F2D71157
:101F400069A006F03EF8E06930B1402804D04FF4B3
:101F5000EC7165A006F035F8206A30B1802804D015
:101F600040F2D91160A006F02CF894F83D0000254D
:101F700020B984F83C50204600F094FA242084F8DC
:101F80003D002068016821F00101016020680168BE
:101F900041F4004101602068016821F400410160C2
:101FA00000F0DAFE5F4A6168914202D85E4901E0C2
:101FB00002E05E49884201D2012070BD5C4923687D
:101FC000B0FBF1F15E6826F03F060E435E60636889
:101FD000934206D94FF4967359434FF47A73B1FB89
:101FE000F3F12368491C1E6A26F03F06314319624B
:101FF0006168914210D84900401EB0FBF1F2521CBA
:10200000C2F30B02042A01D2042023E0B0FBF1F05A
:10201000401CC0F30B001DE0A368EBB301EBC10251
:1020200002EB0116421EB2FBF6F2521C42F4804251
:1020300012054AD08BB301EBC10202EB0111401E25
:10204000B0FBF1F0401CC0F30B0040F4804000BF37
:1020500040F400402168CA694CF6FF739A4310436C
:10206000C861D4E90701084321680A6822F0C00268
:1020700010430860D4E90310084321688A6848F2D5
:10208000FF339A4310438860D4E90501084321686F
:10209000CA6822F0FF0201E010E018E01043C860B7
:1020A0002068016841F0010101602564202084F866
:1020B0003D00256384F83E50002070BD01EB4106D1
:1020C000421EB2FBF6F2521CB2E70120C2E701EB5E
:1020D0004101401EB0FBF1F0401CC0F30B00B7E71C
:1020E00000540040005800402E2E2F44726976653F
:1020F00072732F53544D3332463178785F48414CD8
:102100005F4472697665722F5372632F73746D33F7
:1021100032663178785F68616C5F6932632E630084
:102120007F1A0600A086010080841E0000093D0081
:1021300040420F002DE9F84F0025DDF82890984621
:1021400017468A4604460095FFF7AEFE064694F809
:102150003D0020287AD11923012283492046009688
:1021600003F0FEFA0028F5D194F83C0001286DD068
:10217000012084F83C0020680168C90703D1016888
:1021800041F0010101602068016821F400610160F3
:10219000222084F83D00102084F83E002564676208
:1021A000A4F82A80608D20857048E06233464A4654
:1021B0005146204603F0EAF900287DD1208DDFF852
:1021C000B081202768B1012814D002282068016856
:1021D0001ED041F4806101602068416980690090EF
:1021E000B5E02068416981690091016841F400719E
:1021F0000160ACE02068016821F48061016072B682
:102200002068416981690091016841F400710AE028
:1022100041F40061016072B62068416981690091F2
:10222000016821F48061016062B690E0032868D8FB
:1022300001280CD002284B464FF0000241462046B0
:1022400000960FD003F08CFAB0BB10E08AE0324663
:102250004946204603F003FB70BB20680069616AB1
:1022600008706BE003F07CFA30BB72B634E0206893
:10227000016821F48061016072B620680069616ABA
:102280000870606A401C6062208D401E2085608D51
:10229000401E6085374846F2A8110068B0FBF1F097
:1022A000C0EBC00000EB80000090401E009008D002
:1022B00020684069C04300E029E040070CD5009841
:1022C000F3E744F8305F6773A573206940F020009E
:1022D000206162B625731AE02068016841F400713C
:1022E000016020680069616A0870606A401C606271
:1022F000218D491E2185618D491E618562B6216847
:102300001AE032464946204603F0A9FA10B10120EE
:10231000BDE8F88F20680069616A0870606A401C37
:102320006062218D491E2185618D491E618521686C
:102330004A69D24352070AD409690170606A401C95
:102340006062208D401E2085608D401E6085208D3E
:1023500000287FF46BAF84F83D7084F83E5084F819
:102360003C50D5E70220D3E7020010000000FFFF39
:1023700004000100100000202DE9F84F1F46904690
:102380008A460446DDF82890FFF78EFD054694F84E
:102390003D0020287FD11923012240492046009585
:1023A00003F0DEF9002876D194F83C00012872D0C1
:1023B000012084F83C0020680168C90703D1016846
:1023C00041F0010101602068016821F400610160B1
:1023D000212084F83D00102084F83E000026266469
:1023E000C4F824806785608D20852D48E0622B46E7
:1023F0004A465146204603F03FF990B920684169AA
:102400008069009036E02A464946204603F05AFA91
:1024100050B1206C042804D12068016841F4007197
:1024200001600120BDE8F88F606A216800780861CA
:10243000606A401C6062618D491E6185218D491E64
:1024400089B2218522685369DB435B070BD451B104
:1024500000781061606A401C6062608D401E60857B
:10246000208D401E20852A464946204603F052F919
:102470000028CED1208D0028C5D154F83D0B01682D
:1024800041F400710160202004F81E09E6776677A8
:102490000020C7E7FFE70220C4E7000002001000A9
:1024A0000000FFFF10B586B000210091019102915C
:1024B000039100680F4988421AD10F4CA06940F07F
:1024C0000800A061A069694600F008000490C020DF
:1024D000009012200190032003900848FFF7ECFAC7
:1024E000E06940F40010E061E06900F4001004903D
:1024F00006B010BD0054004000100240000C014026
:10250000024881680278114481607047040000200D
:10251000074810B5016841F010010160032000F088
:102520001FF90F2000F006F800F03EF8002010BD63
:102530000020024000B5014687B00022192000F0BB
:10254000BFF8192000F08AF81348816941F400614E
:102550008161806905A900F400600690684600F07A
:10256000B1FB00F009FC0D490D4AB0FBF1F10D483B
:10257000491E0260416040F2E7320021C0E90321B8
:10258000816001F06BFA10B1012007B000BD054871
:1025900001F01AFBF9E700000010024040420F0072
:1025A000002C01403C0400200F4808B5816941F02F
:1025B00001018161816901F001010091C16941F06E
:1025C0008051C161C069002200F0805000900F214D
:1025D000901E00F075F80548416821F0E06141F077
:1025E0000071416008BD0000001002400000014081
:1025F00010B5040003D5CE2109A005F0E2FC002CA3
:102600000DDB04F01F01012088406109890001F100
:10261000E021C1F88001BFF34F8FBFF36F8F10BD72
:102620002E2E2F447269766572732F53544D3332B8
:10263000463178785F48414C5F4472697665722F05
:102640005372632F73746D3332663178785F6861CB
:102650006C5F636F727465782E63000010B50400C0
:1026600003D5BE2107A005F0ACFC002C09DB04F06B
:102670001F01012088406109890001F1E021C1F8B2
:10268000000110BD2E2E2F447269766572732F5390
:10269000544D3332463178785F48414C5F4472691B
:1026A0007665722F5372632F73746D33326631788F
:1026B000785F68616C5F636F727465782E63000089
:1026C00070B515460C460646102A03D3AA2114A05D
:1026D00005F077FC102C03D3AB2111A005F071FCA1
:1026E0001E480068C0F30223C3F107022046042AF3
:1026F00000D90422191D072901D2002300E0DB1EA6
:10270000012404FA02F1491E014099409C40641ED4
:102710002C4021433046BDE8704004F0C9BF0000A2
:102720002E2E2F447269766572732F53544D3332B7
:10273000463178785F48414C5F4472697665722F04
:102740005372632F73746D3332663178785F6861CA
:102750006C5F636F727465782E6300000CED00E0AF
:1027600010B5044607280BD0062C09D0052C07D03D
:10277000042C05D0032C03D0922108A005F021FCE5
:10278000154904F0070208684FF6FF03184040EAB5
:102790000220124A1043086010BD00002E2E2F4464
:1027A0007269766572732F53544D3332463178789F
:1027B0005F48414C5F4472697665722F5372632F94
:1027C00073746D3332663178785F68616C5F636F04
:1027D000727465782E6300000CED00E00000FA05CD
:1027E000014901200862704700000E4270B52EA317
:1027F00006460FCB86B000258DE80F002EA000689E
:102800000490F00708D1B00706D4F00604D44FF4C2
:10281000CB712AA005F0D5FB374C012E21D0022E1A
:102820003AD0102E35D160682168C90131D5C0F386
:102830008342C0031DF8025009D5606804A9C0F3A3
:102840004040085C2D49B1FBF0F0454301E02C48C5
:102850004543606840021CD468000321B0FBF1F5D9
:1028600017E0216AC1F30120012803D1890701D5AE
:10287000C5030EE0022805D1616A890702D549F631
:10288000404506E0032804D12068800301D54FF2BB
:10289000244506B0284670BD00F06EFA6168C1F3A9
:1028A0008131491C4900D9E70203040506070809DC
:1028B0000A0B0C0D0E0F1010010200002E2E2F44DB
:1028C0007269766572732F53544D3332463178787E
:1028D0005F48414C5F4472697665722F5372632F73
:1028E00073746D3332663178785F68616C5F7263E0
:1028F000635F65782E6300000010024000127A00CA
:1029000000093D002DE9F84304460068504DC10719
:102910000AD181076FD4C0067ED46C214DA005F08A
:1029200050FB2078C00763D06068002660B1B0F526
:10293000807F09D0B0F5007F06D0B0F5407F03D08E
:10294000742144A005F03DFBE869C00008D4E869A3
:1029500040F08050E861E869012600F08050009066
:102960004B480168C90512D40168804641F4807162
:102970000160FFF799FA074605E000BFFFF794FAF8
:10298000C01B642823D8D8F80000C005F6D5286AF3
:1029900010F4407021D0A18801F4407181421CD014
:1029A000286A3C49012220F440700A6000220A6033
:1029B0002862C00711D0FFF777FA074641F288383E
:1029C00008E000BFFFF770FAC11B414502D90320A0
:1029D000BDE8F883286A8007F4D5286A616820F486
:1029E0004070084328621EB1E86920F08050E86119
:1029F0002078800716D5A06860B1B0F5804F09D067
:102A0000B0F5004F06D0B0F5404F03D0B92111A06A
:102A100005F0D7FA686800E007E0A16820F44040BC
:102A2000084368602078C0060FD5E068B0F5800FD5
:102A300005D020B140F2151106A005F0C2FA686871
:102A4000E16820F48000084368600020C0E70000CF
:102A5000001002402E2E2F447269766572732F5338
:102A6000544D3332463178785F48414C5F44726947
:102A70007665722F5372632F73746D3332663178BB
:102A8000785F68616C5F7263635F65782E630000D6
:102A900000700040400442422DE9F0470F46050017
:102AA00078D02868C1070AD1810708D4410706D425
:102AB000000704D44FF44E716FA005F082FA47B1BD
:102AC000012F06D0022F04D040F239316AA005F060
:102AD00078FA774E306800F00700B84209D23068C3
:102AE00020F0070038433060306800F00700B8423B
:102AF00077D128686F4C810729D5400703D56068D6
:102B000040F4E06060602878000703D5606840F416
:102B100060506060A868A0B1802812D0902810D0C2
:102B2000A0280ED0B0280CD0C0280AD0D02808D0B9
:102B3000E02806D0F02804D040F25F314EA005F026
:102B400040FA6068A96820F0F000084360602878C7
:102B5000C00737D0686868B101281CD002281DD092
:102B600040F2663144A005F02CFA6868012812D0C2
:102B7000022813D020688007002832DA606869686C
:102B800020F0030008436060FFF78EF9804641F2B1
:102B9000883910E025E020688003EDE72068800197
:102BA000EAE700BFFFF780F9A0EB0801494502D929
:102BB0000320BDE8F0876068696800F00C00B0EBA6
:102BC000810FEFD1306800F00700B8420BD93068B0
:102BD00020F0070038433060306800F00700B8424A
:102BE00001D00120E5E728784FF4806640074FF4D4
:102BF000A0674FF4C0684FF4E06914D5E86860B18D
:102C0000B0420AD0B84208D0404506D0484504D06A
:102C10004FF4697118A005F0D4F96068E96820F4F0
:102C2000E060084360602878000715D5286960B126
:102C3000B0420AD0B84208D0404506D0484504D03A
:102C400040F2AB310CA005F0BCF96068296920F4B2
:102C5000605040EAC100606000F09EF86168164A6A
:102C6000C1F30311515CC84014490860144800685E
:102C7000FFF760FC00209CE72E2E2F4472697665DA
:102C800072732F53544D3332463178785F48414C3C
:102C90005F4472697665722F5372632F73746D335C
:102CA00032663178785F68616C5F7263632E6300AF
:102CB00000200240001002405CA20008100000202A
:102CC0000800002070B50D46040004D140F22351E5
:102CD00011A005F076F925B940F224510EA005F0B7
:102CE00070F90F2020601A48416801F0030161600B
:102CF000416801F0F001A160416801F4E061E16028
:102D000040684FF4E06101EAD0002061114800689A
:102D100000F00700286070BD2E2E2F447269766582
:102D200072732F53544D3332463178785F48414C9B
:102D30005F4472697665722F5372632F73746D33BB
:102D400032663178785F68616C5F7263632E63000E
:102D5000001002400020024004480549006849680C
:102D6000044AC1F30221515CC840704710000020A2
:102D7000001002406CA20008044805490068496838
:102D8000044AC1F3C221515CC840704710000020C2
:102D9000001002406CA2000812A185B00FC98DE896
:102DA0000F0014A0144A006804905168134801F001
:102DB0000C03042B10D0082B0ED1C1F38343C9039D
:102DC0001DF803000AD5516804AAC1F34041515CC3
:102DD0000A4A5043B0FBF1F005B070470849484338
:102DE000FAE7000002030405060708090A0B0C0DA8
:102DF0000E0F1010010200000010024000127A00B5
:102E000000093D002DE9F84F04007DD0FA4EFB4D3E
:102E100020684FF0010A4FF000084FF4803960B18C
:102E2000C1070DD1810762D401076ED440076DD46C
:102E300040F26711F2A005F0C4F82078C00753D023
:102E400060684FF4A02740B1484506D0B84204D08E
:102E500040F26D11EAA005F0B4F86868C0F3810093
:102E6000012807D06868C0F38100022809D168688A
:102E7000C00306D52868800336D560680028C4D012
:102E800032E06068484503D1286840F4803009E0AA
:102E900008B1B8420DD0286820F480302860286836
:102EA00020F480202860606888B1FEF7FDFF0746A7
:102EB00009E0286840F480202860E5E7FEF7F4FF89
:102EC000C01B642877D828688003F7D50CE0FEF78C
:102ED000EBFF074605E000BFFEF7E6FFC01B6428D6
:102EE000F0D828688003F7D4207880074ED5206971
:102EF00030B1012804D040F2A111C1A005F061F861
:102F000060691F2808D902E096E042E07BE04FF4B8
:102F1000D171BBA005F055F8686810F00C0F07D010
:102F20006868C0F38100022809D16868C00306D42C
:102F30002868800714D5206901287DD110E0206918
:102F4000B0B1C6F800A0FEF7AFFF074605E000BF2E
:102F5000FEF7AAFFC01B0228B4D828688007F7D55F
:102F60002868616920F0F80040EAC10028600DE09F
:102F7000C6F80080FEF798FF074604E0FEF794FFCE
:102F8000C01B02289ED828688007F7D42078000745
:102F900036D5A94FA06920B3012806D04FF4F171AE
:102FA00097A005F00EF8A069D8B1C7F800A0FEF709
:102FB0007BFF074605E054E1FEF776FFC01B0228C1
:102FC0008ED8686A8007F7D59C484FF4FA5100689C
:102FD000B0FBF1F0009000BF0098411E0091FAD2C2
:102FE0000EE0C7F80080FEF75FFF074605E000BF70
:102FF000FEF75AFFC01B0228AED8686A8007F7D4D4
:10300000207840076ED5E068002740B1012806D03F
:10301000052804D040F2112179A004F0D2FFE8691C
:10302000C00008D4E86940F08050E861E8690127F1
:1030300000F08050009000E027E181480168C90558
:1030400012D4016841F480710160FEF72DFF8346C0
:1030500006E000BFFEF728FFA0EB0B00642891D824
:1030600077480068C005F5D5E06801280AD008B1A6
:10307000052811D0286A20F001002862286A20F073
:10308000040002E0286A40F001002862E068A8B16C
:10309000FEF70AFF83460DE0286A40F0040028622C
:1030A000F0E700BFFEF700FFA0EB0B0141F2883014
:1030B000814285D8286A8007F4D50EE0FEF7F4FE39
:1030C000834607E0FEF7F0FEA0EB0B0141F28830EB
:1030D000814291D8286A8007F4D41FB1E86920F0B2
:1030E0008050E861E06900287ED0012809D00228DC
:1030F00007D040F2AF2142A004F063FFE06900284E
:1031000072D06868C0F381000228E0696DD002289F
:1031100005D0C6F86080FEF7C7FE0446A4E0206A2A
:1031200030B1484504D04FF42E7135A004F049FF6A
:10313000606A70B3B0F5802F2BD0B0F5002F28D087
:10314000B0F5402F25D0B0F5801F22D0B0F5A01FDC
:103150001FD0B0F5C01F1CD0B0F5E01F19D0B0F5DE
:10316000001F16D0B0F5101F13D0B0F5201F10D0DF
:10317000B0F5301F0DD0B0F5401F0AD0B0F5501F8C
:1031800007D0B0F5601F04D040F2B9211CA004F0B4
:1031900018FFC6F86080FEF787FE074605E000BF0F
:1031A000FEF782FEC01B02285BD828688001F7D496
:1031B000206A48450FD1A06838B1B0F5003F04D06F
:1031C00040F2CF210EA004F0FCFE6868A16820F454
:1031D000003008436860D4E908010843696821F4B5
:1031E00074110843686001E051E041E0C6F860A056
:1031F000FEF75AFE04462AE0000042420010024058
:103200002E2E2F447269766572732F53544D3332CC
:10321000463178785F48414C5F4472697665722F19
:103220005372632F73746D3332663178785F6861DF
:103230006C5F7263632E63008004424210000020C2
:1032400000700040FEF730FE001B022809D82868F5
:103250008001F7D51BE000BFFEF726FE001B022809
:1032600002D90320BDE8F88F28688001F4D40EE06D
:103270000128F7D06868226A00F48031914204D1B5
:10328000616A00F47010884201D00120EAE7002052
:10329000E8E77047704710B5044600680168C90741
:1032A00017D04168C90714D040684007204607D5A9
:1032B000FFF7F0FF21686FF004004860042002E08F
:1032C000FFF7E7FF012060742068416821F00101E9
:1032D000416010BD80B1017C01290FD00121017432
:1032E000022242740268136843F0010313604174C0
:1032F0000021017408467047012070470220704782
:10330000F8B505004FF0000016460C4600900ED0B0
:103310006CB136B1012E04D040F20E4110A004F081
:1033200050FE00226946284600F036F808B1012018
:10333000F8BD287B2070E87BE070697B6170A97B19
:10334000A17056B102F06DFEE070607802F069FE87
:103350006070A07802F065FEA0700020F8BD00004B
:103360002E2E2F447269766572732F53544D33326B
:10337000463178785F48414C5F4472697665722FB8
:103380005372632F73746D3332663178785F68617E
:103390006C5F7274632E63002DE9F04717460C468C
:1033A0005FEA000952D0002C50D037B1012F04D071
:1033B00040F22D3131A004F004FED9F8000040683D
:1033C000400743D4484602F0DEFE4FF461620546F2
:1033D000B0FBF2F1B0FBF2F302FB13503C23B0FB65
:1033E000F3F0B5FBF2F6607002FB1650B0FBF3F29F
:1033F00003FB1200A070182930D31820B1FBF0F89D
:10340000B1FBF0F200FB12102070484602F0B4FE4F
:10341000411C03D0A84201D9461B01E04FF0FF3602
:10342000A8EB081000EB4000C0EB001005EBC01546
:103430002946484602F0F6FE40B9701C01D07119C9
:1034400000E03146484602F0D9FE10B10120BDE847
:10345000F0874146484602F0EFFD00E021705FB181
:10346000207802F0DEFD2070607802F0DAFD6070F6
:10347000A07802F0D6FDA0700020E8E72E2E2F44A1
:103480007269766572732F53544D333246317878B2
:103490005F48414C5F4472697665722F5372632FA7
:1034A00073746D3332663178785F68616C5F727403
:1034B000632E630070B5040026D036492068884228
:1034C00004D040F21D1134A004F07BFDA06860B16F
:1034D00080280AD0B0F5807F07D0B0F5407F04D0B7
:1034E0004FF48F712CA004F06CFD6068B0F5801F64
:1034F00006D3401C04D040F21F1127A004F061FD48
:10350000607C002610B105E0012070BD26742046C5
:1035100000F060F802206074204600F0FBF90425FA
:1035200078BB204602F0DFFD58BB2068416821F0DF
:1035300007014160A06820B12548016821F0010120
:1035400001602348001F0168A26821F460711143E3
:1035500001606068411C04D10120FFF747F980B188
:10356000401E21688A6822F00F0242EA10428A60F7
:103570002168CA6860F30F02CA60204602F0CEFDDF
:1035800008B16574C0E7E67301206073A0736074CE
:10359000002070BD002800402E2E2F4472697665F1
:1035A00072732F53544D3332463178785F48414C13
:1035B0005F4472697665722F5372632F73746D3333
:1035C00032663178785F68616C5F7274632E630075
:1035D000306C004008B500680D49884217D1FFF7EC
:1035E000FFF80C48C16941F00061C161C0690A4936
:1035F00000F00060009001200860002205210320F7
:10360000FFF75EF8BDE808400320FFF727B808BDC4
:1036100000280040001002403C0442422DE9F041E5
:1036200016460D4604006AD0002D68D036B1012E32
:1036300004D04FF467714EA004F0C3FC207C012835
:1036400060D04FF0010884F8108002206074E878A0
:10365000002E59D002F0DCFC632804D94FF46C71C1
:1036600043A004F0AEFC687802F0D2FC20B1687888
:1036700002F0CEFC0C2804D940F2B1313CA004F099
:10368000A0FCA87802F0C4FC20B1A87802F0C0FC2D
:103690001F2804D940F2B23135A004F092FCE8783A
:1036A00002F0B6FCE073687802F0B2FC6073A878B0
:1036B00002F0AEFCA073C2B2617BE07B02F073FD4E
:1036C00020732870204602F05EFD4FF46161B0FB6C
:1036D000F1F10025182946D91822B1FBF2F1A1EB2E
:1036E000011101EB4101C1EB011100EBC1163146A3
:1036F000204602F097FD0427002831D123E0012065
:10370000BDE8F0810220FBE7632804D940F2A5312F
:1037100017A004F056FC6878401E0B2804D940F22C
:10372000A63113A004F04DFCA878401E1E2804D931
:1037300040F2A7310EA004F044FCE878E07368780A
:103740006073A878B6E7204602F016FD411C0AD047
:10375000B04208D214490144204602F04FFD10B196
:1037600067742574CBE784F8118025740020C7E7BF
:103770002E2E2F447269766572732F53544D333257
:10378000463178785F48414C5F4472697665722FA4
:103790005372632F73746D3332663178785F68616A
:1037A0006C5F7274632E6300805101002DE9F0415B
:1037B00016460C4605004DD0002C4BD036B1012EDC
:1037C00004D040F2CA2144A004F0FBFB287C01286D
:1037D00043D04FF0010885F81080022068742078EB
:1037E000002E3CD002F014FC172804D940F2DD2151
:1037F00039A004F0E6FB607802F00AFC3B2804D90B
:1038000040F2DE2134A004F0DCFBA07802F000FCE2
:103810003B2804D940F2DF212FA004F0D2FB20780E
:1038200002F0F6FB4FF4616100FB01F6607802F0F4
:10383000EFFBC0EB001006EB8006A07802F0E8FB7F
:1038400034182146284602F0EDFC00260427002803
:103850003AD127E00120BDE8F0810220FBE71728DC
:1038600004D940F2D3211CA004F0ABFB60783B28C4
:1038700004D94FF4357118A004F0A3FBA0783B28BD
:1038800004D940F2D52114A004F09BFB20784FF41A
:10389000616148436178C1EB011100EB8100A178BF
:1038A0004418CEE72868416821F0050141602846A8
:1038B00002F062FC411C0AD0A04208D21449014423
:1038C000284602F09BFC10B16F742E74C2E785F895
:1038D00011802E740020BEE72E2E2F44726976656B
:1038E00072732F53544D3332463178785F48414CD0
:1038F0005F4472697665722F5372632F73746D33F0
:1039000032663178785F68616C5F7274632E630031
:103910008051010070B504000AD02068416821F090
:1039200008014160FEF7C0FA05464FF47A7608E0D8
:10393000012070BDFEF7B8FA401BB04201D9032048
:1039400070BD206840680007F4D5002070BD704746
:10395000704700002DE9F047044600682D4E2E4FB9
:10396000DFF8B8800D464FF08049B0420AD0484594
:1039700008D0B84206D0404504D040F2867128A055
:1039800004F01FFB286890B1102810D020280ED01A
:1039900030280CD040280AD0502808D0602806D003
:1039A000702804D040F287711DA004F00AFB6868FB
:1039B000802805D020B14FF4F16119A004F001FB7B
:1039C00094F83C00012823D0012284F83C200220F6
:1039D00084F83D00216848688B6820F0700C2868E6
:1039E00040EA0C0048602068B04205D0484503D04A
:1039F000B84201D0404504D1696823F080031943DF
:103A0000816084F83D20002084F83C00BDE8F08708
:103A10000220FBE7002C01400004004000080040A9
:103A20002E2E2F447269766572732F53544D3332A4
:103A3000463178785F48414C5F4472697665722FF1
:103A40005372632F73746D3332663178785F6861B7
:103A50006C5F74696D5F65782E63000010B50400BB
:103A60003AD03049206888420DD0B0F1804F0AD05A
:103A70002D49884207D02D49884204D040F21311C5
:103A80002BA004F09EFAA06860B110280AD020286C
:103A900008D0402806D0602804D04FF48A7124A0B2
:103AA00004F08FFA206950B1B0F5807F07D0B0F5EF
:103AB000007F04D040F215111DA004F082FAA06925
:103AC00030B1802804D04FF48B7119A004F079FA3A
:103AD00094F83D0010B107E0012010BD002084F8EB
:103AE0003C00204600F052F8022084F83D00211DE1
:103AF000206802F0D9FD012084F8460084F83E00D9
:103B000084F83F0084F8400084F8410084F84200C3
:103B100084F8430084F8440084F8450084F83D00AC
:103B2000002010BD002C01400004004000080040AF
:103B30002E2E2F447269766572732F53544D333293
:103B4000463178785F48414C5F4472697665722FE0
:103B50005372632F73746D3332663178785F6861A6
:103B60006C5F74696D2E630000680649884207D156
:103B70000548C16921F00401C1611E20FEF738BD6E
:103B800070470000000800400010024008B50068BF
:103B90000B49884212D10B48C16941F00401C1614F
:103BA000C069002200F00400009005211E20FEF7ED
:103BB00087FDBDE808401E20FEF750BD08BD00008F
:103BC00000080040001002402DE9F041074600685F
:103BD0001A4C1B4D1B4E4FF08048A0420AD0404566
:103BE00008D0A84206D0B04204D040F2CF1116A0AF
:103BF00004F0E7F997F83D00012802D00120BDE864
:103C0000F081022087F83D003868C16841F0010169
:103C1000C1603868A04205D0404503D0A84201D019
:103C2000B04204D1816801F00701062903D0016880
:103C300041F0010101600020E1E70000002C01409B
:103C400000040040000800402E2E2F447269766563
:103C500072732F53544D3332463178785F48414C5C
:103C60005F4472697665722F5372632F73746D337C
:103C700032663178785F68616C5F74696D2E6300BD
:103C800010B504460068144988420DD0B0F1804F49
:103C90000AD01249884207D01149884204D040F224
:103CA000F71110A004F08DF92068C16821F001011E
:103CB000C1602068016A41F21112114207D1016A04
:103CC0009210114203D1016821F00101016001202D
:103CD00084F83D00002010BD002C0140000400408D
:103CE000000800402E2E2F447269766572732F53A0
:103CF000544D3332463178785F48414C5F447269A5
:103D00007665722F5372632F73746D333266317818
:103D1000785F68616C5F74696D2E63002DE9F04710
:103D2000054690F83C000C4601283CD04FF00109B4
:103D300085F83C90022085F83D0020684FF48056BD
:103D40004FF40058B04215D0404513D090B1102820
:103D500010D020280ED030280CD040280AD050286F
:103D600008D0602806D0702804D041F23241A8A0C3
:103D700004F027F92868816821F0770121F47F4158
:103D80008160B2492368B048B14ACF134FF0804CEC
:103D9000502B7CD00FDC202B04D007DC002BFBD079
:103DA000102B4DD122E10220BDE8F087302BF9D055
:103DB000402BF6D1EFE0602B6AD04FF4405A702BC5
:103DC0004ED0B3423DD04345EBD12B6883420AD05D
:103DD000634508D08B4206D0934204D041F25D4146
:103DE0008BA004F0EEF8A06850B1B04208D0404576
:103DF00006D0504504D04FF4A35185A004F0E1F85B
:103E00006068B84209D040B1022806D00A2804D020
:103E100041F261417EA004F0D4F8E0680F2804D993
:103E200041F262417AA004F0CCF8D4E90121E368C0
:103E3000286802F0C1FC2868816841F480418160F3
:103E4000A3E02B688342FBD06345F9D08B42F7D0C7
:103E50009342F5D041F23E416DA004F0B2F894E0F7
:103E60002B6883420AD0634508D08B4206D0934228
:103E700004D041F2454166A004F0A3F8A06868B1FF
:103E8000B0420BD0404509D0504507D001E025E0B5
:103E90004FE041F248415EA004F093F86068B842F8
:103EA00009D040B1022806D00A2804D041F2494185
:103EB00057A004F086F8E0680F2804D941F24A417F
:103EC00053A004F07EF8D4E90121E368286802F0E9
:103ED00073FC2868816841F07701B0E72B68834262
:103EE0000AD0634508D08B4206D0934204D041F2F9
:103EF000714147A004F065F86068B84209D040B14C
:103F0000022806D00A2804D041F2744140A004F0EF
:103F100058F8E0680F2804D941F275413CA004F03C
:103F200050F8E2686168286802F0E0FD50212868D6
:103F300029E02B6883420AD0634508D08B4206D023
:103F4000934204D041F2814131A004F03AF8606814
:103F5000B84209D040B1022806D00A2804D041F264
:103F600084412BA004F02DF8E0680F2804D941F219
:103F7000854127A004F025F8E2686168286802F00E
:103F8000C6FD6021286802F021FC85F83D900020E4
:103F900085F83C0008E72B6883420AD0634508D0C7
:103FA0008B4206D0934204D041F2914118A004F014
:103FB00008F86068B84209D040B1022806D00A2843
:103FC00004D041F2944112A003F0FBFFE0680F28F7
:103FD00004D941F295410EA003F0F3FFE268616855
:103FE000286802F083FD40212868CCE72B688342D3
:103FF0000AD0634508D08B4206D0934204D041F2E8
:10400000A44103A003F0DDFF21682868BBE700009E
:104010002E2E2F447269766572732F53544D3332AE
:10402000463178785F48414C5F4472697665722FFB
:104030005372632F73746D3332663178785F6861C1
:104040006C5F74696D2E6300002C01400004004019
:1040500000080040704770B50446006801694FF0E1
:104060000005C943890715D4C168C943890711D41C
:10407000E91E0161012020772068806980072046C1
:1040800002D0FFF7E7FF04E000F0C8F8204600F098
:1040900055FA257720680169C943490717D4C168D3
:1040A000C943490713D46FF004010161022020774E
:1040B0002068806910F4407F204602D0FFF7CAFFD5
:1040C00004E000F0ABF8204600F038FA25772068CD
:1040D0000169C943090716D4C168C943090712D445
:1040E0006FF008010161042020772068C069800713
:1040F000204602D0FFF7AEFF04E000F08FF8204624
:1041000000F01CFA257720680169C943C90617D455
:10411000C168C943C90613D46FF0100101610820BA
:1041200020772068C06910F4407F204602D0FFF756
:1041300091FF04E000F072F8204600F0FFF92577C7
:1041400020680169C943C90708D1C168C943C907C3
:1041500004D1891E0161204600F006FB2068016938
:10416000C943090609D4C168C943090605D46FF0DB
:10417000800101612046FFF7EAFB20680169C9431D
:10418000490609D4C168C943490605D46FF0400106
:104190000161204600F0F2FA20680169C9438906EE
:1041A0000BD4C168C943890607D46FF020010161AF
:1041B0002046BDE87040FFF7CBBB70BD00B585B0B1
:1041C0000021009101910291039100680F498842FA
:1041D0001AD10F48816941F00801816180696946FF
:1041E00000F008000490102000900220019003903D
:1041F0000848FDF761FC0848416821F4406141F03E
:10420000E06141F40061416005B000BD0004004080
:1042100000100240000C0140000001407047000007
:104220002DE9F04116000D4604460CD0042E0AD0AC
:10423000082E08D00C2E06D03C2E04D041F22701C7
:1042400060A003F0BEFE2868602806D0702804D065
:1042500041F228015BA003F0B4FEA86830B1022847
:1042600004D041F2290157A003F0ABFE286930B118
:10427000042804D041F22A0152A003F0A2FE94F8CF
:104280003C0001280FD0012084F83C005B485C49C9
:104290005C4A4FF080474EB1042E28D0082E49D0FA
:1042A0000C2E46D167E00220BDE8F08123688342EE
:1042B0000AD0BB4208D08B4206D0934204D041F2D0
:1042C000340140A003F07DFE2946206802F086FA02
:1042D0002068816941F0080181612068816921F0CD
:1042E00004018161206881692A69114320E0236803
:1042F00083420AD0BB4208D08B4206D0934204D0FE
:1043000041F245012FA003F05CFE2946206802F02F
:10431000CBFA2068816941F400618161206881697C
:1043200021F480618161206881692A6941EA022162
:10433000816142E0236883420AD0BB4208D08B42AD
:1043400006D0934204D041F256011EA003F039FE7C
:104350002946206802F012FB2068C16941F008017B
:10436000C1612068C16921F00401C1612068C1698F
:104370002A69114320E0236883420AD0BB4208D057
:104380008B4206D0934204D041F267010DA003F0A6
:1043900018FE2946206802F05BFB2068C16941F4E1
:1043A0000061C1612068C16921F48061C161206838
:1043B000C1692A6941EA0221C161002084F83C00F8
:1043C00072E700002E2E2F447269766572732F53A8
:1043D000544D3332463178785F48414C5F447269BE
:1043E0007665722F5372632F73746D333266317832
:1043F000785F68616C5F74696D2E6300002C01400A
:10440000000400400008004010B504003AD03049D4
:10441000206888420DD0B0F1804F0AD02D498842E3
:1044200007D02D49884204D040F213512BA003F04D
:10443000C8FDA06860B110280AD0202808D0402804
:1044400006D0602804D040F2145124A003F0B9FD36
:10445000206950B1B0F5807F07D0B0F5007F04D05F
:1044600040F215511DA003F0ACFDA06930B18028C9
:1044700004D040F2165119A003F0A3FD94F83D00BA
:1044800010B107E0012010BD002084F83C00204658
:1044900000F040F8022084F83D00211D206802F061
:1044A00003F9012084F8460084F83E0084F83F00B8
:1044B00084F8400084F8410084F8420084F8430006
:1044C00084F8440084F8450084F83D00002010BDC5
:1044D000002C014000040040000800402E2E2F4414
:1044E0007269766572732F53544D33324631787842
:1044F0005F48414C5F4472697665722F5372632F37
:1045000073746D3332663178785F68616C5F74699B
:104510006D2E630008B500680649884208D1064838
:10452000C16941F00201C161C06900F00200009060
:1045300008BD000000040040001002407047000069
:104540002DE9F04705460068364E0227DFF8D8808F
:10455000DFF8D8900C464FF0804AB04206D154B3F1
:10456000042C2FD0082C34D00C2C1DD050450AD050
:10457000404506D1FCB1042C24D0082C29D00C2CA9
:1045800012D0484506D1B4B1042C1BD0082C20D041
:104590000C2C09D040F2995125A003F012FD54B122
:1045A000042C0FD0082C14D095F84100012817D006
:1045B0000120BDE8F08795F83E000128F8D185F884
:1045C0003E700FE095F83F000128F1D185F83F706B
:1045D00008E095F840000128EAD185F8407001E034
:1045E00085F8417001222146286802F093F8286876
:1045F000B04203D1416C41F4004141642868B042AB
:1046000005D0504503D0404501D0484504D18168CC
:1046100001F00701062903D0016841F001010160A2
:104620000020C6E7002C01400004004000080040C4
:104630002E2E2F447269766572732F53544D333288
:10464000463178785F48414C5F4472697665722FD5
:104650005372632F73746D3332663178785F68619B
:104660006C5F74696D2E630070B5054600682D4E51
:104670000C46B04206D10CB3042C1FD0082C1DD020
:104680000C2C1BD0B0F1804F0CD02749884206D1AA
:10469000A4B1042C12D0082C10D00C2C0ED023491D
:1046A000884206D154B1042C08D0082C06D00C2C1A
:1046B00004D040F2CD511EA003F083FC002221461D
:1046C000286802F027F841F2111128688A10B042D8
:1046D00009D1036A0B4206D1036A134203D1436C2A
:1046E00023F4004343642868036A0B4206D1016A3D
:1046F000114203D1016821F00101016001203CB1A8
:10470000042C08D0082C09D085F84100002070BD89
:1047100085F83E00FAE785F83F00F7E785F84000A6
:10472000F4E70000002C01400004004000080040B5
:104730002E2E2F447269766572732F53544D333287
:10474000463178785F48414C5F4472697665722FD4
:104750005372632F73746D3332663178785F68619A
:104760006C5F74696D2E630000680349884201D153
:10477000FDF7C6BE70470000002C0140704770472F
:1047800010B504460068416994F83D20C1F3C0119A
:10479000212A0BD151B1416921F080014161606B47
:1047A00008B1FCF741FF204602F091FA2068416908
:1047B00094F83E20C1F38011222A0BD151B14169F6
:1047C00021F040014161A06B08B1FCF72DFF2046AC
:1047D00002F065FA002010BD704710F83D1F4078C8
:1047E00008437047F8B5026804461068D1685369F9
:1047F00010F00F0F4FF0000553D003F0010601F445
:10480000907737435FD0C20705D0CA0503D5226C25
:1048100042F001022264420705D5DA0703D0226C78
:1048200042F002022264820705D5DA0703D0226C27
:1048300042F004022264020707D501F0200232434D
:1048400003D0226C42F008022264226C002A34D089
:10485000800604D5880602D5204602F041FA206879
:104860004069216CC0F38010090700D430B32046A2
:1048700002F015FA2068416949061BD5416921F00B
:1048800040014161A06BA8B158494163A06BFCF79E
:10489000EFFE002811D0A06B416B01B0BDE8F040E5
:1048A000084783060FD58B060DD52046BDE8F84096
:1048B00002F016BA2046FFF78FFFF8BD2046FFF73B
:1048C0008BFF2564F8BD266B2023012E52D1C6062E
:1048D00050D5CE064ED510685068009050694006FD
:1048E0002AD5A16B086840680004000CEAD0A68DA8
:1048F0008642E7D9E0858869202818D0D06820F45E
:104900008070D0602068416921F001014161206818
:10491000416921F04001416184F83E3025632068FF
:10492000C16821F01001C160A06BFCF77DFEA08D75
:10493000E18D401A81B219E0A08DE18D401A81B25B
:10494000E08D0028BED00029BCD0D06820F4907043
:10495000D0602068426922F00102426184F83E3052
:1049600025632068C26822F01002C2602046FFF76B
:1049700006FFF8BD05062BD50D0629D594F83D0098
:104980002128F6D1A068B0F5805F01D12069B0B1CF
:10499000206A411C2162216800784860E08C401E3A
:1049A0000004000CE084E4D12068C16821F080019B
:1049B000C1602068C16841F04001C160F8BD206A53
:1049C0000088C0F308005060206A801C2062E5E780
:1049D0004006F3D54806F1D5D168204621F04001C4
:1049E000D16084F83D3000F059FAF8BDD16B000871
:1049F00070B5040020D0A06930490028304A314BFE
:104A000020681BD088420AD0904208D0984206D035
:104A10004FF4B6712CA003F0D4FAA069C8B1A06914
:104A2000B0F5807F15D0B0F5007F12D0B0F5407F93
:104A30000FD040F26D1109E0012070BD884208D00E
:104A4000904206D0984204D040F271111EA003F0AB
:104A5000B8FAA06838B1B0F5805F04D040F27311A5
:104A600019A003F0AEFA94F83D00002520B984F8AF
:104A70003C50204600F046F8242084F83D00206891
:104A8000C16821F40051C160204602F085F9206818
:104A9000016921F4904101612068416921F02A01F6
:104AA00041612068C16841F40051C1602564202043
:104AB00084F83D0084F83E00002070BD00380140BD
:104AC00000440040004800402E2E2F447269766555
:104AD00072732F53544D3332463178785F48414CCE
:104AE0005F4472697665722F5372632F73746D33EE
:104AF00032663178785F68616C5F756172742E63BD
:104B0000000000002DE9F04385B0002500950195D7
:104B1000029503950446DFF85C82D0F800C0964801
:104B200002210322954B102780264FF48069C4454B
:104B30005AD1D0F818C04CF4804CC0F818C0D0F846
:104B400018C00CF4804CCDF810C0D0F818C04CF050
:104B5000040CC0F818C08069039200F004000490AF
:104B60000802CDE90001694698461846FCF7A4FF03
:104B7000CDE90095694640460295FCF79DFFDFF8B8
:104B800004827F494046B146C0E90015C0E902569B
:104B9000C8F81050C8F81450C8F81850C8F81C507D
:104BA000FCF75CFE08B1FCF756FC764E7448C4F87E
:104BB000388044361438C8F824403060C6E901759E
:104BC000C6E903957561B5613046F561FCF746FEAF
:104BD00008B1FCF740FC66630022052125207462C1
:104BE000FDF76EFD252065E0DFF89C81C44566D1A8
:104BF000D0F81CC04CF4003CC0F81CC0D0F81CC05D
:104C00000CF4003CCDF810C0D0F818C04CF0040CE7
:104C1000C0F818C08069039200F0040004900420DA
:104C2000CDE90001694698461846FCF745FF082083
:104C3000CDE90005A946694640460295FCF73CFFD0
:104C4000DFF840814E4908F1880840461431C0E938
:104C50000015C0E90256C8F81050C8F81450C8F83A
:104C60001850C8F81C50FCF7F9FD08B1FCF7F3FB2D
:104C7000444D4348C4F83880CC352830C8F8244027
:104C8000C5E90007C5E90296C5F81090C5F814906B
:104C9000C5F818902846C5F81C90FCF7DFFD08B150
:104CA000FCF7D9FB65630022052126206C62FDF725
:104CB00007FD2620FDF7D2FC05B0BDE8F083334B9D
:104CC0009C45F9D1C36943F48023C361C36903F4EC
:104CD00080230493836943F0080383618069CDE9ED
:104CE000009100F00800CDE90320DFF8A4806946B8
:104CF0004046FCF7E1FE4FF40060CDE9000569464F
:104D000040460295FCF7D8FEDFF888801C494046F3
:104D10002839C0E90015C0E90256C8F81050C8F893
:104D20001450C8F81850B146C8F81C50FCF796FD4E
:104D300008B1FCF790FB174E1148C4F83880443690
:104D40003C38C8F824403060C6E90175C6E90395CF
:104D50007561B5613046F561FCF780FD08B1FCF77F
:104D60007AFB66630022052127207462FDF7A8FC08
:104D700027209FE700380140001002400008014052
:104D800058000240A40200200044004000480040B7
:104D9000000C0140B403002090F83E30202B0ED1CF
:104DA00059B152B190F83C30012B08D0012380F862
:104DB0003C300023036302F095B8012070470220C5
:104DC00070470000054A0168914201D102F02EBCF3
:104DD000034A914201D101F0D7BE7047003801402B
:104DE00000440040704700002DE9F843044690F865
:104DF0003D001F4616460D4620284CD1C5B1BEB118
:104E000094F83C00012846D0012084F83C004FF083
:104E10000008C4F84080212084F83D00FDF744F8E4
:104E2000A6848146E684A068B0F5805F03D004E0E4
:104E30000120BDE8F883206928B12E465FF0000507
:104E400084F83C800EE00026FAE78021204602F03C
:104E500081F8A0B9AEB116F8010B21684860E08C6A
:104E6000401EE084E08C4B464FF000020097002883
:104E7000EBD14FF04001204602F06CF830B1032036
:104E8000D7E735F8020BC0F30800E6E7202084F8E6
:104E90003D000020CDE70220CBE70000054A016875
:104EA000914201D102F0C4BB034A914201D101F009
:104EB0006DBE704700380140004400403EB5E72019
:104EC0008DF804006424012301AA80211348009472
:104ED000FDF752FAD8B9012302AA81210F480094A4
:104EE000FDF728F998B9012003F09CF8E6208DF829
:104EF00004009DF80800022340F002008DF8050030
:104F000001AA802105480094FDF736FA20B104A0DB
:104F100000F028FF00203EBD01203EBDE000002043
:104F2000496E666F3A20205B6874753231645F6841
:104F3000775D206572726F722C204854553231446F
:104F40002066756E6374696F6E20696E69740D0AF0
:104F5000000000002DE9FE4F0446F5208DF8080002
:104F60006425012302AA802150480095FDF704FA28
:104F700000285BD13C2003F055F8032301AA8121CE
:104F80004A480095FDF7D6F800284FD1022101A824
:104F9000FBF7B2FC9DF80610884201D044A054E013
:104FA0009DF804004FF6FF7606EA00219DF8050003
:104FB000084320F00300FBF785FA6FF00F094A461B
:104FC000FBF769FA0022444BFBF7F3F90022434B4D
:104FD000FBF7E9F9DFF808A100225346FBF7E9F9EE
:104FE000FBF7AAFAFBF794FA80B24FF47A78608064
:104FF00040F2E737404500D367800A2003F012F8FB
:10500000F3208DF80800012302AA8021274800958B
:10501000FDF7B2F950B93C2003F004F8032301AACC
:10502000812122480095FDF785F828B12DA000F0D8
:1050300099FE00F0A5F80AE0022101A8FBF75CFC4C
:105040009DF80610884205D035A000F08BFE0020A8
:10505000BDE8FE8F9DF8040006EA00219DF80500DA
:10506000084320F00300FBF72DFA4A46FBF713FA3A
:10507000354A364BFBF79DF9354A364BFBF793F92A
:1050800000225346FBF795F9FBF756FAFBF727FA90
:1050900000B22080404500DB2780B4F90020618801
:1050A0002DA000F05FFE0120D2E70000E00000200C
:1050B000496E666F3A20205B6874753231645F68B0
:1050C000775D2068756D6920637263382065727240
:1050D0006F720D0A0000000000405F4000001840A1
:1050E00000002440496E666F3A20205B6874753278
:1050F00031645F68775D206572726F72212072651E
:1051000061642074656D706572617475726520618B
:105110006E642068756D69646974790D0A00000019
:10512000496E666F3A20205B6874753231645F683F
:10513000775D2074656D70206372633820657272CC
:105140006F720D0A00000000D7A3703D0AF765409A
:10515000CDCCCCCCCC6C4740496E666F3A20205BFE
:105160006874753231645F68775D2048756D693A9F
:105170002025642C2054656D703A2025640D0A00AA
:105180001CB500F0A1FC1548FDF78CF90A2002F0CF
:1051900049FFFE208DF8040064200090012301AA3D
:1051A00080210E48FDF7E8F880B10DA000F0DAFD8F
:1051B0000A2002F037FFFFF781FE48B112A000F08D
:1051C000D1FDBDE81C40642002F02CBF17A0EDE724
:1051D000BDE81C401FA000F0C5BD0000E00000209D
:1051E000496E666F3A20205B6874753231645F687F
:1051F000775D2048545532314420526573657420E0
:105200004E470D0A00000000496E666F3A20205B91
:105210006874753231645F68775D20485455323167
:105220004420496E6974204F4B0D0A00496E666F29
:105230003A20205B6874753231645F68775D20487E
:105240005455323144205265736574204F4B0D0A1A
:1052500000000000496E666F3A20205B687475326A
:1052600031645F68775D2048545532314420496E7F
:105270006974204E470D0A000D4900224B785B1CD3
:10528000DBB24B70012B04D900234B70417C41B140
:105290004374418A49B1491E0904090C418203D073
:1052A00003E001214174F4E7012210467047000039
:1052B000A000002010B50C00194A04800CD0012079
:1052C000C2F8840100211748FFF73AF92146BDE8EA
:1052D000104015A000F046BD0020C2F884011C4B10
:1052E000C3F8B401C3F8B801C3F8BC01C2F8A00107
:1052F000C3F89001C3F88C01C2F8BC01C2F8980150
:10530000C2F89401C2F89C01C2F8AC01C2F8B00125
:10531000C2F8900101460348FFF7A6F9D6E700005E
:105320000000214248010020496E666F3A20205B50
:105330006875623735645D20646973706C617920CB
:1053400074696D653A2025640D0A0D0A000000009D
:10535000008021422DE9F04FDFF81CE18246002059
:10536000CEF88C01DFF814B1454905469BF80030B2
:1053700080464FF00109802200260AEB0517FC1831
:10538000404694F880C01CEA020F00D0102094F828
:1053900080C11CEA020F01D040F0200094F880C2C6
:1053A0001CEA020F01D040F0400017F803C01CEACD
:1053B000020F01D040F0800094F800C11CEA020FF7
:1053C00001D040F4807094F800C21CEA020F01D0B2
:1053D00040F40070C0F3001C5208C1F898C1C0F33B
:1053E000401CC1F894C1C0F3801CC1F89CC1C0F33B
:1053F000C01CC1F8ACC1C0F3002CC1F8B0C14FEA69
:10540000502CC1F890C1C1F8BC81C1F8BC91761C88
:10541000F6B2082EB4D36D1CEDB2082DABD35A46AC
:10542000DC0701D040F001009C0701D540F00200EC
:105430005C0701D540F004001C0701D540F00800CE
:1054400000F00105CEF8B451C0F34005CEF8B851D4
:10545000C0F38005CEF8BC51C0F3C000C1F8A00174
:10546000CEF88C915B1CD8B21070102801D38BF849
:105470000080BDE8F08F000000802142A0000020E5
:105480000000214230B58B780A22B3FBF2F402FB14
:10549000143303728B78B3FBF2F3C3714B78B3FB15
:1054A000F2F402FB143383724B78B3FBF2F34372D2
:1054B0000B78B3FBF2F402FB143303730B78B3FBEA
:1054C000F2F3C372CB78B3FBF2F402FB14338371B3
:1054D000CB78B3FBF2F343714B79B3FBF2F402FBED
:1054E000143303714B79B3FBF2F3C370CC8864239C
:1054F000B4FBF3F503FB1544B4FBF2F502FB1544D2
:105500004470CC88B4FBF3F503FB1543B3FBF2F214
:105510000270097981700B21417330BD70B5054669
:105520004FF440711830FAF772FE002421462846E5
:10553000FBF7B8FE082C2146284602D2FBF7EAFC0E
:1055400005E0FBF7B1FD21462846FBF70FFE641C82
:10555000E4B2102CEAD370BD7047FEE701684A69D7
:10556000D24352050FD46FF480624A61002140F8A3
:10557000301F202242738173026942F004020261EB
:105580000173012070470020704700002DE9F84F9B
:105590000446C06A1E4693460D4621680A6842F4D6
:1055A00080620A60082807D0012805D010F5803FE6
:1055B00002D0206B112804D12068016841F4807169
:1055C00001604FF001195B460022494620460096D3
:1055D00000F0C6F84FF4007840B120680068C005BC
:1055E00001D5C4F840800320BDE8F88F2069DFF8BA
:1055F00084A0B0F5804F0FD00620216800EAD517AF
:1056000047F0F000086133465A460AF10601204689
:1056100000F0DAF858BB03E0E8B240F001001CE00B
:105620002168E8B2086133465A465146204600F0E8
:10563000CBF8E0B92068416981690091016841F4C3
:10564000807101605B46002249462046009600F0CA
:1056500087F80028C1D147F0F1002168086133467E
:105660005A465146204600F0AFF80028BCD0012031
:10567000BAE7000002000100F8B50446C06A1E4601
:105680000D461746082807D0012805D010F5803FA1
:1056900002D0206B122804D12068016841F4807187
:1056A0000160134600224FF001112046009600F0E1
:1056B00057F840B120680068C00502D54FF400706B
:1056C00020640320F8BD2069B0F5804F0ED006207D
:1056D000216800EAD51040F0F000086133463A46F0
:1056E0000B49204600F070F878B902E005F0FE00A2
:1056F00000E0E8B221680861054933463A46891F4F
:10570000204600F061F80028DCD00120F8BD000040
:105710000800010070B516460D4604460DE020460F
:10572000FFF71CFF08B1012070BD681C05D0FCF715
:10573000BBFB801BA84207D835B120684069C04335
:105740004007ECD4002070BD002044F8300F202129
:105750006173A073216941F0200121612073E2E7A8
:105760002DE9F0471E4690460D460446C1F3074713
:10577000DDF8209008E0701C06D0FCF795FBA0EB4C
:105780000900B0420FD876B12068012F18D0806987
:1057900025EA00000004000C14D000214145EAD0A5
:1057A0000020BDE8F087002044F8300F202161730D
:1057B000A073216941F02001216120730120F0E7ED
:1057C0004069E5E70121E9E72DE9F0479A4691466E
:1057D0000E46044600254FF02008C1F3074725E098
:1057E00020684069C043400514D42068016841F432
:1057F0000071016021686FF480604861256384F85E
:105800003D8084F83E50206C40F00400206484F811
:105810003C501FE0B9F1FF3F08D0FCF745FBA0EB7F
:105820000A0149450CD8B9F1000F09D02068012FB1
:1058300013D0806926EA00000004000C0BD0CFE7EB
:1058400044F8305F84F80D80A573206940F0200093
:10585000206125730120BDE8F0874069EAE72DE962
:10586000F041002590460E460446202717E0406987
:10587000C043C0060CD454F8301B6FF010004861D0
:1058800044F810596777A577206A2062257717E0DA
:10589000FCF70AFBA0EB0800B04208D83EB1206834
:1058A0004169C9434906E2D40020BDE8F08144F8CB
:1058B000305F6773A573206940F020002061257375
:1058C0000120F2E770B516460D4604460DE020466D
:1058D000FFF744FE08B1012070BD681C05D0FCF73D
:1058E000E3FA801BA84207D835B120684069C0435D
:1058F0000006ECD4002070BD002044F8300F2021B9
:105900006173A073216941F0200121612073E2E7F6
:105910001D4808B5416941F001014161406900221B
:1059200000F00100009005210C20FCF7C9FE0C20BE
:10593000FCF794FE002205210D20FCF7C1FE0D208E
:10594000FCF78CFE002205210E20FCF7B9FE0E208C
:10595000FCF784FE002205210F20FCF7B1FE0F208A
:10596000FCF77CFE002205211020FCF7A9FE102088
:10597000FCF774FE002205211120FCF7A1FEBDE812
:1059800008401120FCF76ABE0010024010B50C4A16
:1059900000210C4802F008FD0B490860FBF754FA9F
:1059A00000280BD1FBF7A8F8002807D100F068FD0C
:1059B000002803D1BDE8104001F040BD10BD00003B
:1059C00038A20008610C0008000000202DE9F04F0B
:1059D00085B00024374800940194029403948169AF
:1059E00041F010018161816901F010010491816928
:1059F00041F020018161816901F0200104918169F8
:105A000041F004018161816901F00401049181691F
:105A100041F0080181618069DFF89CA000F0080076
:105A200049F6F2180490002241465046FCF706FA67
:105A3000DFF888B04FF22B09002249465846FCF7A0
:105A4000FDF94FF400500327CDE9000769461C48D3
:105A5000FCF732F81B480125CDE9005002266946C3
:105A600002965046FCF728F8CDF800800396CDE961
:105A7000015469465046FCF71FF8CDF80090039694
:105A8000CDE9015469465846FCF716F84FF44170C9
:105A9000CDE9000769465846FCF70EF800220521BB
:105AA0000620FCF70DFE0620FCF7D8FD05B0BDE88A
:105AB000F08F00000010024000080140000C01407F
:105AC00000100140000011100D4810B50B49016095
:105AD0000C49416000214FF480428160C0E903120B
