:020000040800F2
:1000000000500020FDB70008010E0008050E000892
:10001000090E00080D0E0008110E00080000000077
:10002000000000000000000000000000D185000872
:10003000150E00080000000061860008A586000873
:1000400045B8000845B8000845B80008190E000872
:1000500045B8000845B800083D0E000845B800083E
:1000600045B8000845B8000845B8000845B800087C
:1000700045B8000845B80008450E0008510E0008B4
:100080005D0E0008690E000845B8000845B8000874
:1000900045B8000845B8000845B8000845B800084C
:1000A00045B80008750E000845B8000845B80008B6
:1000B00045B8000845B80008810E000845B800089A
:1000C00045B8000845B8000845B8000845B800081C
:1000D00045B80008950E0008AD0E000845B80008A8
:1000E00045B8000845B8000845B800080000000001
:1000F0000000000000000000000000000000000000
:0C01000000000000000000005FF808F1A3
:1001100010B5054C237833B9044B13B10448AFF341
:1001200000800123237010BDA0000020000000000B
:1001300084C2000808B5034B1BB103490348AFF361
:10014000008008BD00000000A400002084C2000858
:1001500010F8012B11F8013B012A28BF9A42F7D071
:10016000D01A704770B54FF0FF0C4CF4E06C1CEAED
:1001700011541DBF1CEA135594EA0C0F95EA0C0F9D
:1001800000F0DEF82C4481EA030621EA4C5123EA10
:100190004C5350EA013518BF52EA033541F480113F
:1001A00043F4801338D0A0FB02CE4FF00005E1FBF2
:1001B00002E506F00042E0FB03E54FF00006E1FB3C
:1001C00003569CF0000F18BF4EF0010EA4F1FF047F
:1001D000B6F5007F64F5407404D25FEA4E0E6D41BF
:1001E00046EB060642EAC62141EA55514FEAC520D0
:1001F00040EA5E504FEACE2EB4F1FD0C88BFBCF54C
:10020000E06F1ED8BEF1004F08BF5FEA500E50F1FC
:10021000000041EB045170BD06F0004646EA0101C2
:1002200040EA020081EA0301B4EB5C04C2BFD4EBF4
:100230000C0541EA045170BD41F480114FF0000EED
:10024000013C00F3AB8014F1360FDEBF002001F05B
:10025000004170BDC4F10004203C35DA0C341BDCD5
:1002600004F11404C4F1200500FA05F320FA04F0A7
:1002700001FA05F240EA020001F0004221F00041DB
:1002800010EBD37021FA04F642EB06015EEA430E4E
:1002900008BF20EAD37070BDC4F10C04C4F120057E
:1002A00000FA04F320FA05F001FA04F240EA020031
:1002B00001F0004110EBD37041F100015EEA430E02
:1002C00008BF20EAD37070BDC4F1200500FA05F222
:1002D0004EEA020E20FA04F301FA05F243EA0203A1
:1002E00021FA04F001F0004121FA04F220EA0200B0
:1002F00000EBD3705EEA430E08BF20EAD37070BDF6
:1003000094F0000F0FD101F00046400041EB0101D5
:1003100011F4801F08BF013CF7D041EA060195F0B7
:10032000000F18BF704703F00046520043EB030371
:1003300013F4801F08BF013DF7D043EA060370475E
:1003400094EA0C0F0CEA135518BF95EA0C0F0CD069
:1003500050EA410618BF52EA4306D1D181EA0301AF
:1003600001F000414FF0000070BD50EA410606BFA9
:100370001046194652EA430619D094EA0C0F02D1EE
:1003800050EA013613D195EA0C0F05D152EA033633
:100390001CBF104619460AD181EA030101F0004151
:1003A00041F0FE4141F470014FF0000070BD41F09A
:1003B000FE4141F4780170BD81F0004102E000BFD0
:1003C00083F0004330B54FEA41044FEA430594EA15
:1003D000050F08BF90EA020F1FBF54EA000C55EA50
:1003E000020C7FEA645C7FEA655C00F0E2804FEA21
:1003F0005454D4EB5555B8BF6D420CDD2C4480EA03
:10040000020281EA030382EA000083EA010180EA32
:10041000020281EA0303362D88BF30BD11F0004F80
:100420004FEA01314FF4801C4CEA113102D04042B6
:1004300061EB410113F0004F4FEA03334CEA1333F1
:1004400002D0524263EB430394EA050F00F0A78009
:10045000A4F10104D5F1200E0DDB02FA0EFC22FA04
:1004600005F2801841F1000103FA0EF2801843FAF8
:1004700005F359410EE0A5F120050EF1200E012AE9
:1004800003FA0EFC28BF4CF0020C43FA05F3C01827
:1004900051EBE37101F0004507D54FF0000EDCF1A0
:1004A000000C7EEB00006EEB0101B1F5801F1BD349
:1004B000B1F5001F0CD349085FEA30004FEA3C0C4D
:1004C00004F101044FEA445212F5800F80F09A8043
:1004D000BCF1004F08BF5FEA500C50F1000041EB47
:1004E000045141EA050130BD5FEA4C0C404141EB4B
:1004F0000101013C28BFB1F5801FE9D291F0000F46
:1005000004BF01460020B1FA81F308BF2033A3F1F4
:100510000B03B3F120020CDA0C3208DD02F1140CEB
:10052000C2F10C0201FA0CF021FA02F10CE002F126
:100530001402D8BFC2F1200C01FA02F120FA0CFC1F
:10054000DCBF41EA0C019040E41AA2BF01EB045168
:10055000294330BD6FEA04041F3C1CDA0C340EDC66
:1005600004F11404C4F1200220FA04F001FA02F3A9
:1005700040EA030021FA04F345EA030130BDC4F167
:100580000C04C4F1200220FA02F001FA04F340EA5C
:100590000300294630BD21FA04F0294630BD94F00D
:1005A000000F83F4801306BF81F480110134013DF4
:1005B0004EE77FEA645C18BF7FEA655C29D094EA65
:1005C000050F08BF90EA020F05D054EA000C04BFE3
:1005D0001946104630BD91EA030F1EBF00210020CE
:1005E00030BD5FEA545C05D14000494128BF41F06D
:1005F000004130BD14F580043CBF01F5801130BDD1
:1006000001F0004545F0FE4141F470014FF000005B
:1006100030BD7FEA645C1ABF194610467FEA655C0C
:100620001CBF0B46024650EA013406BF52EA0335AE
:1006300091EA030F41F4002130BD00BF90F0000F9C
:1006400004BF0021704730B54FF4806404F13204D8
:100650004FF000054FF0000150E700BF90F0000F91
:1006600004BF0021704730B54FF4806404F13204B8
:1006700010F0004548BF40424FF000013EE700BF88
:1006800042004FEAE2014FEA31014FEA02701FBF18
:1006900012F07F4393F07F4F81F06051704732F04A
:1006A0007F4208BF704793F07F4F04BF41F40021A1
:1006B000704730B54FF4607401F0004521F00041FF
:1006C0001CE700BF50EA010208BF704730B54FF089
:1006D00000050AE050EA010208BF704730B511F08A
:1006E000004502D5404261EB41014FF4806404F1C2
:1006F00032045FEA915C3FF4D8AE4FF003025FEA48
:10070000DC0C18BF03325FEADC0C18BF033202EBCB
:10071000DC02C2F1200300FA03FC20FA02F001FA25
:1007200003FE40EA0E0021FA02F11444BDE600BFC8
:100730004FEA4102B2F1E04324BFB3F5001CDCF103
:10074000FE5C0DD901F0004C4FEAC0024CEA50703B
:10075000B2F1004F40EB830008BF20F0010070476A
:1007600011F0804F21D113F13872BCBF01F000406D
:10077000704741F480114FEA5252C2F11802C2F19F
:10078000200C10FA0CF320FA02F018BF40F0010020
:100790004FEAC1234FEAD32303FA0CFC40EA0C00D2
:1007A00023FA02F34FEA4303CCE77FEA625307D10F
:1007B00050EA01331EBF4FF0FE4040F44000704746
:1007C00001F0004040F0FE4040F40000704700BFE0
:1007D0004FEA4002B2F1FE4F0FD34FF09E03B3EB4E
:1007E00012620DD94FEA002343F0004310F0004F8E
:1007F00023FA02F018BF404270474FF000007047E4
:1008000012F1610F01D1420205D110F0004008BF82
:100810006FF0004070474FF00000704742000ED26A
:10082000B2F1FE4F0BD34FF09E03B3EB126209D42B
:100830004FEA002343F0004323FA02F070474FF0E1
:100840000000704712F1610F01D1420202D14FF056
:10085000FF3070474FF00000704700BF012330B5F4
:100860004FF4803195B00520002402254FF48032EA
:10087000CDE90D334FF4E013CDE90A010AA8129235
:100880001393CDE90F44CDE90544CDE90744CDE903
:1008900001440C94049400941195039401F0BEFB60
:1008A0000F220223CDE9042300224FF4806329465E
:1008B00004A8CDE90623089401F028FE01224FF494
:1008C00080736846CDE9002301F0A0FF15B030BD6C
:1008D00008B501F07FFBFFF7C1FF00F029F800F039
:1008E0003DF900F00BFA00F02FFC00F013FB00F0D4
:1008F0002DFB00F095F9064800F06AF9044803F072
:10090000E7FA07F0BFF900F07FFC07F0D5F9FEE742
:1009100064010020034B02689A4200D0704701F046
:100920006BBB00BF002C0140704700BF704700BF89
:10093000F0B5002489B0CDE90444CDE90644384B34
:10094000384E9A69384D42F010029A619A693046E1
:1009500002F010020092009A9A6949F6F21142F0F0
:1009600020029A619A69022702F020020192019AFC
:100970009A6942F004029A619A6902F004020292B2
:10098000029A9A6942F008029A619B69224603F032
:1009900008030393039B02F025FA224628464FF2F0
:1009A0002B0102F01FFA4FF40052032304A91F4841
:1009B000CDE9042302F056F801221D4B3046CDE963
:1009C0000423022304A9069302F04CF8304649F6AA
:1009D000F2120123002604A9CDE90423CDE906671C
:1009E00002F040F84FF22B020123284604A9CDE97A
:1009F0000423CDE9066702F035F803234FF4417272
:100A0000284604A9CDE9042302F02CF8224605214A
:100A1000062002F041FC062002F088FC09B0F0BD7F
:100A20000010024000080140000C0140001001408D
:100A30000000111000234FF4804210B509480A4C01
:100A40000A49C0E90233C0E90041C0E90423C0E912
:100A50000633036200F04CFC00B910BDBDE8104045
:100A6000FFF762BFBC00002000540040A0860100D8
:100A700000234FF4804210B509480A4C0A49C0E9E6
:100A80000233C0E90041C0E90423C0E90633036230
:100A900000F02EFC00B910BDBDE81040FFF744BFC8
:100AA0001001002000580040801A06000023D0B535
:100AB0002649026888B08A42CDE90433CDE906337D
:100AC00004D0234B9A4220D008B0D0BD0322C026C8
:100AD0001227204C2048A36904A943F00803A3610E
:100AE000A369CDE9046703F008030093009B079214
:100AF00001F0B8FFE36943F40013E361E36903F431
:100B000000130193019B08B0D0BD03224FF440664F
:100B10001227104C1048A36904A943F00803A361ED
:100B2000A369CDE9046703F008030293029B0792CF
:100B300001F098FFE36943F48003E361E36903F4A0
:100B400080030393039B08B0D0BD00BF0054004056
:100B50000058004000100240000C014000234FF0FC
:100B6000FF314FF4807210B51648174C82B0C0E9BF
:100B700001120460ADF8003001938DF8023002F0EC
:100B80001FFEA0B90022082369460E48ADF80030C8
:100B90008DF8022002F0C4FE80B90C4B00220948F7
:100BA00001A9019302F0D2FF20B902B010BDFFF7F6
:100BB000BBFEE7E7FFF7B8FE02B010BDFFF7B4FEDB
:100BC000EBE700BF6401002000280040020101168D
:100BD000104B02689A4200D0704730B5012583B0AF
:100BE00002F0D2FB0C4B0D4CDA69032042F000629C
:100BF000DA61DB69002203F000630193019B0521A8
:100C0000C4F83C5402F048FB032003B0BDE8304078
:100C100002F08CBB0028004000100240000042425D
:100C2000002364218022D0B53048314C90B0206040
:100C30002046C4E90133CDE90933CDE90B33CDE9D1
:100C40000D3302930893E160A2612361039303F0E3
:100C50004DFB00BB00220023254802A9CDE9022359
:100C600004F08CF9E8B900226026502702232048BE
:100C700008A9CDE908670A930C9204F045F868B911
:100C800000231A4A2168CDE904339142CDE90633A5
:100C90000AD010B0D0BDFFF747FEDBE7FFF744FEF8
:100CA000EEE7FFF741FEDEE710260227022403F1FC
:100CB000804303F504339A690E4842F008029A61B2
:100CC0009B6904A903F008030193019BCDE9046724
:100CD000079401F0C7FE084A536823F4406343F0C9
:100CE000E06343F40063536010B0D0BD00040040E3
:100CF00078010020000C0140000001400023632126
:100D000010B580224FF42F74174886B0C0E9023125
:100D1000CDE9033302930093036105930193134BD1
:100D200044608261036003F0B7F990B94FF48053D7
:100D30000D4802A9029303F0EFFC88B900220023BA
:100D400069460948CDE9002304F018F920B906B036
:100D500010BDFFF7E9FDE9E7FFF7E6FD06B010BDBE
:100D6000FFF7E2FDEAE700BFC001002000080040F5
:100D7000094B02689A4200D0704703F50333DA69E1
:100D800082B042F00202DA61DB6903F002030193F0
:100D9000019B02B0704700BF000400400E4B026888
:100DA0009A4200D0704703F50233D96900B541F08B
:100DB0000401D961DB6983B003F0040301931E20B1
:100DC00000220521019B02F067FA1E2003B05DF8A6
:100DD00004EB02F0ABBA00BF00080040064B02680B
:100DE0009A4200D07047054A1E20D36923F00403BD
:100DF000D36102F0AFBA00BF00080040001002400B
:100E0000704700BFFEE700BFFEE700BFFEE700BF80
:100E1000FEE700BF704700BF08B5064803F074F84E
:100E200005484FF4805101F0F7FFBDE8084001206C
:100E300007F0F6BE64010020000C0140012002F022
:100E400001B800BF014802F075B900BF4C02002094
:100E5000014802F06FB900BF08020020014802F00B
:100E600069B900BF90020020014802F063B900BFD9
:100E7000D4020020014803F049BE00BFA4030020B3
:100E800008B5034803F042FEBDE8084007F05ABD2C
:100E9000C001002010B5044C204604F0BFFB2046E2
:100EA000BDE810400AF024BC1803002010B5044C23
:100EB000204604F0B3FB2046BDE8104009F04CBECC
:100EC0005C030020114B10B5986982B040F001001E
:100ED00098619C69002204F001040094009CDC6984
:100EE0000F2144F08054DC61DB696FF0010003F0F6
:100EF00080530193019B02F0CFF9054A536823F018
:100F0000E06343F00073536002B010BD0010024074
:100F10000000014000234FF4E1310C2210B50948D4
:100F2000094CC0E90113C0E90333C0E9052304609B
:100F3000C36104F0FBF800B910BDBDE81040FFF735
:100F4000F3BC00BF180300200038014000234FF419
:100F5000E1310C2210B50948094CC0E90113C0E980
:100F60000333C0E905230460C36104F0DFF800B96E
:100F700010BDBDE81040FFF7D7BC00BF5C030020E8
:100F80000044004070B50024634A036888B093426F
:100F90000546CDE90444CDE9064404D05F4A9342B6
:100FA00059D008B070BD5E4B5E489A695E4E42F4FF
:100FB00080429A619A6902F480420092009A9A698A
:100FC00042F004029A619B694FF4007203F004033B
:100FD0000193019903210223079104A9CDE9042378
:100FE00001F040FD4FF4806200234E4804A9CDE992
:100FF0000423069401F036FD80234C4A3046C6E9AE
:101000000024C6E90444C6E90644B460F36001F074
:1010100025FF002876D1002380221021444CAE63A6
:10102000C4E90232C4E90433C4E90633414B204623
:1010300075626160236001F011FF00285FD100221A
:10104000052125206C63656202F026F9252002F057
:101050006DF908B070BD324B3248DA69364E42F451
:101060000032DA61DA6902F400320292029A9A6975
:1010700042F004029A619B69042203F00403039383
:10108000039903210223079104A9CDE9042301F068
:10109000E9FC08220023234804A9CDE9042306948F
:1010A00001F0E0FC8023254A3046C6E90024C6E969
:1010B0000444C6E90644B460F36001F0CFFE20BBEF
:1010C0000023802210211E4CAE63C4E90232C4E921
:1010D0000433C4E906331B4B20467562616023600C
:1010E00001F0BCFEA0B90022052126206C636562D8
:1010F00002F0D2F8262002F019F908B070BDFFF70F
:1011000013FC9CE7FFF710FC85E7FFF70DFCD7E722
:10111000FFF70AFCE7E700BF003801400044004049
:101120000010024000080140080200205800024060
:101130004C02002044000240900200206C0002405B
:10114000D402002080000240174B00B5586983B0DC
:1011500040F0010058615B69002203F001030521A2
:1011600001930E20019B02F097F80E2002F0DEF8AA
:10117000002205210F2002F08FF80F2002F0D6F890
:1011800000220521102002F087F8102002F0CEF88E
:1011900011200022052102F07FF8112003B05DF834
:1011A00004EB02F0C3B800BF0010024010B44FF0CF
:1011B00000604FF41F040E4B0E4A196841F0010104
:1011C000196059680A405A601A680B4922F0847203
:1011D00022F480321A601A6822F480221A605A6857
:1011E00022F4FE025A609C6010BC8860704700BF09
:1011F000001002400000FFF800ED00E008B50120FB
:1012000006F036FEFBE700BF08B500210E4A0F4886
:1012100006F074FD0E4B186007F0CCFC00B108BD61
:1012200007F068FB0028FAD108F004FA0028F6D18C
:1012300009F000FA0028F2D10AF0B0F90028EED146
:10124000BDE8084008F048B9D0C20008FD11000808
:10125000A0030020224B70B59A6988B042F4006266
:101260009A619B6901A903F400630293064603A8EF
:10127000029B01F099FA01F087FA40F2E73500226B
:101280000346184C1849C4E90352216001F1467124
:1012900001F52C3101F28321A260A261A1FB03239D
:1012A0009B0C013B2046636002F0F6FE054610B140
:1012B000284608B070BD204602F0A2FF054600286F
:1012C000F6D1192002F032F80F2E01D90125EFE7EF
:1012D0002A463146192001F0DFFF044B1E60E7E784
:1012E00000100240A4030020002C01400800002050
:1012F000002800F0358138B59A4A036804469342C5
:1013000008D002F58062934204D040F2D111964891
:10131000FFF70CFB6368954A013B934200F207819B
:10132000A36833F4804340F0DD80E36823F47F73E7
:1013300023F00303002B40F0E280236923F40043F1
:10134000B3F5804F04D040F2D5118748FFF7EEFA8D
:101350006369012B00F2D980A36933F0FE0340F0EA
:10136000DE80E36933F0400304D04FF4EC717E4833
:10137000FFF7DCFA236A33F0800340F0A18094F891
:101380003D3003F0FF02002B00F0A68024222368EA
:1013900084F83D201A6822F001021A601A6842F4AB
:1013A00000421A601A6822F400421A6001F0DCF967
:1013B00063686F498B4251D86E4A904240F2B580C3
:1013C0006D4D5A00A5FB0035431EB3FBF2F340F60A
:1013D000FC7E2268A90C506801F1010C20F03F004E
:1013E00040EA95405060116A013321F03F0141EA23
:1013F0000C011162D16913EA0E0F21F44F4121F063
:10140000FF0140F09A8004230B43D3611168D4E9B3
:10141000073021F0C00103430B4313609168D4E906
:10142000030321F40341034321F0FF010B439360C5
:10143000D068D4E9053120F0FF000B430343D360AB
:101440001368002143F0010313602023216484F812
:101450003D30216384F83E10084638BD474A90422B
:1014600063D9454DA5FB002C4FF496724FEA9C4181
:1014700002FB01F1424D2268A5FB01515568890923
:1014800025F03F0545EA9C455560156A013125F078
:101490003F0529431162D169A56821F44F4121F02C
:1014A000FF01002D4CD1013803EB4303B0FBF3F3F4
:1014B0000133C3F30B03002B50D043F40043A3E7E5
:1014C00040F2D9112848FFF731FA94F83D3003F083
:1014D000FF02002B7FF45AAF204684F83C20FFF730
:1014E000E5FA53E740F2D3111F48FFF71FFAE3680C
:1014F00023F47F7323F00303002B3FF41EAF4FF45C
:10150000EA711948FFF712FA17E74FF4EB71164822
:10151000FFF70CFAA36933F0FE033FF422AF40F269
:10152000D7111148FFF702FA1BE7012038BD4FF42D
:10153000E9710D48FFF7FAF9F2E6C3F30B0363E72D
:1015400003EB8303013803EB8303B0FBF3F30133B5
:10155000C3F30B0313B143F4404355E7012353E7AF
:101560000120704700540040F4C200087F1A0600B2
:10157000A08601007F841E0083DE1B43FF083D0020
:10158000D34D62102DE9F04F054683B09946884649
:1015900092460C9F00F03CFD95F83D30202B03D087
:1015A000022003B0BDE8F08F064605E000F030FDF4
:1015B000801B192800F2F8802C68A3696FEA030CDD
:1015C0001CF0020BF2D095F83C30012BE8D001233F
:1015D00085F83C302368D90771D5002221201021DD
:1015E000236823F40063236085F83D0085F83E10EE
:1015F0002A64A5F82A906B8DA2F58032EA622B85C9
:10160000EB6AC5F824A0082B06D0012B04D0934226
:1016100002D02B6B122B03D1236843F48073236019
:101620007B1C3ED16369D807FCD52B69B3F5804F8D
:101630004AD108F0FE012161781C04D0DDE0636925
:101640005A0500F1C28063699907F8D5002201921A
:1016500062692B8D0192A2690192019A002B75D0CB
:10166000791C40F0818063691A0641D463695B0587
:10167000F9D5002220236FF4806161612A6385F827
:101680003D3085F83E202B6C85F83C2043F0040368
:101690002B642B6C042B00F0E680012003B0BDE826
:1016A000F08F6369D907C0D400F0B2FC801B874279
:1016B000C0F0B380002F00F0B0802C68B0E7236842
:1016C00043F00103236088E74FEAE81303F00603C1
:1016D00043F0F00323617B1C03D0B5E06369590537
:1016E00073D463691807F9D55FFA88F32361A3E718
:1016F000686AB5F828C0014611F8013B0CF1FF32C9
:1017000023616B8D92B2013B9BB26B856369696209
:1017100059072A850CD55AB14378ACF1020C2361E4
:101720006B8D0230013B9BB2A5F828C068626B85C7
:10173000781C29D16369590705D463695A0598D47F
:1017400063695907F9D52B8D002B89D100232021FE
:101750002268184642F40072226085F83D1085F830
:101760003C3085F83E301CE763691806C0D46369D5
:1017700058053FF57EAF00F04BFC801B874279D3C4
:10178000002F77D02C686BE763695B07DBD4636954
:101790005B053FF56EAF00F03BFC801B874269D3D1
:1017A000002F67D02C68C3E720230220C5F830B093
:1017B00085F83D3085F83EB02B6C85F83CB043F0A1
:1017C00020032B6403B0BDE8F08F00226FF4806625
:1017D00020210120236843F40073236066612A639B
:1017E00085F83D1085F83E202B6C85F83C2043F0B1
:1017F00004032B6403B0BDE8F08F63699B073FF5DA
:1018000025AF63695B05E0D400F002FC801B8742D2
:101810003ED3002F3CD02C680EE7002220232A6301
:1018200085F83D3085F83E202B6C296843F0200375
:1018300085F83C202B640B68DA057FF52EAF4FF45A
:10184000007301202B64ACE663691A073FF54CAFC7
:1018500063695A05B9D400F0DBFB831B9F4217D3A1
:10186000B7B12C6837E72A680120136843F4007386
:10187000136096E6002220232A6385F83D3085F820
:101880003E202B6C85F83C2043F020032B6400E7BE
:10189000002220232A6385F83D3085F83E202B6CFA
:1018A000012043F0200385F83C202B6479E600BF3B
:1018B0002DE9F04F0546002487B0994688469246A8
:1018C000109F009400F0A4FB95F83D30202B03D02E
:1018D000022007B0BDE8F08F064605E000F098FB57
:1018E000801B192800F2AC802C68A3696FEA030CF6
:1018F0001CF0020BF2D095F83C30012BE8D001230C
:1019000085F83C302368DB0764D5002222201021B3
:10191000236823F40063236085F83D0085F83E10BA
:101920002A64A5F82A906B8DA2F58032EA62EA6AF1
:101930002B852368082A43F48063C5F824A023601C
:1019400007D0012A05D012F5803F02D02B6B112B56
:1019500003D1236843F480732360781C2CD163691E
:10196000D907FCD52B69B3F5804F38D148F0010871
:101970005FFA88F32361791C03D011E163695B0589
:101980006FD463699A07F9D52B8D002B40F08180C5
:10199000019363690193A3690193019B236843F455
:1019A0000073236000232022184685F83D2085F827
:1019B0003C3085F83E308CE76369DA07D2D400F01A
:1019C00027FB801B8742C0F0D480002F00F0D1801D
:1019D0002C68C2E7236843F00103236095E74FEAD0
:1019E000E81909F0060949F0F0032361781C03D0D7
:1019F00000E163695A0534D463691907F9D55FFAC0
:101A000088F32361791C03D0C0E163695B0528D4A6
:101A100063699A07F9D50023059363690593A36960
:101A20000593059B236843F480732360791C40F081
:101A3000C0816369DA07FCD549F0F10323619AE7B5
:101A400020230220C5F830B085F83D3085F83EB03F
:101A50002B6C85F83CB043F020032B6407B0BDE845
:101A6000F08F00226FF4806620210120236843F468
:101A70000073236066612A6385F83D1085F83E2077
:101A80002B6C85F83C2043F004032B6407B0BDE8C1
:101A9000F08F012B00F06781022B00F008810021FC
:101AA000226842F480622260049162690492A26911
:101AB0000492049A032BDFF84892DFF8488234D866
:101AC000012B00F01B81022B40F0B0807A1C40F00B
:101AD000068163695B07FCD572B62B68696A1A6870
:101AE00042F400721A601B690B706B8D013B9BB254
:101AF0006B856B6A01336B622B8D013B2B8562B664
:101B00002B681A696B6A1A706A8D2B8D013A92B232
:101B10006A856A6A013B9BB201322B856A62002B9F
:101B20003FF440AF032B2C68CAD957B948E063692A
:101B3000DA0600F1FA8000F06BFA801B874248D386
:101B40002C6863695906F2D522696B6A1A706B8D2D
:101B50002968013B9BB26B852B8D6A6A4869013B02
:101B60009BB2541C40072B856C62D8D50B6953700F
:101B7000CAE7002220232A6385F83D3085F83E20FD
:101B80002B6C296843F0200385F83C202B640B68FC
:101B9000DC0540F18A804FF4007301202B6498E645
:101BA000636998073FF5F0AE636958053FF559AF93
:101BB00000F02EFA831B9F420BD357B12C68DAE654
:101BC00063695B06C0D46369DA0600F1AE8000F099
:101BD0001FFA0022202301202A6385F83D3085F872
:101BE0003E202B6C85F83C2043F020032B6407B08B
:101BF000BDE8F08F63691B073FF501AF63695B05C3
:101C00003FF52FAF00F004FA831B9F42E1D3002F72
:101C1000DFD02C68EAE663695B070CD400F0F8F9C2
:101C2000801B8742D5D3002FD3D02C68791CF2D1EA
:101C300063695A07FCD5236823F48063236072B676
:101C40002B681A696B6A1A70D9F80030696ADB0868
:101C5000A8FB03236A8D1B0A03EB8303013AC3EB42
:101C6000C30392B26A8500932B8D013B2B854B1CDD
:101C70006B6203E02B685A69500768D4009B013BF4
:101C80000093009B002BF5D120222B6385F83D208B
:101C900085F83E302A6C42F020022A6462B60120A8
:101CA00085F83C3007B0BDE8F08F012011E62368CD
:101CB00043F40063236072B600222B6803925A69D2
:101CC00003929A690392039A1A6822F480621A6056
:101CD00062B62B8D002B3FF465AE2C68EAE6636993
:101CE00058073FF5F9AE00F093F9801B8742FFF4E7
:101CF00070AF002F3FF46DAF2C68E7E677B92DE0A9
:101D00000000002089B5F8146369D8060DD400F0EE
:101D10007FF9801B8742FFF45CAF2C6863695B0628
:101D2000F2D522696B6A1A70EEE600236FF010019B
:101D30002022012061612B6385F83D2085F83E302B
:101D40002A6C85F83C302A6407B0BDE8F08F1A6829
:101D500042F400721A601B694B70C6E6636959064B
:101D60007FF531AFDDE7236823F48063236072B62B
:101D700000222B6802925A6902929A690292029A90
:101D80001A6842F400721A6062B6A2E763699807A3
:101D90003FF541AE636958053FF563AE00F038F991
:101DA000831B9F42FFF415AF002F3FF412AF2C6846
:101DB00028E66369DB073FF53FAE00F029F9831B96
:101DC0009F42FFF4D6AE002F3FF4D3AE2C682DE631
:101DD0002DE9F04F054683B01F468A46934600F032
:101DE00017F995F83D30202B03D0022003B0BDE851
:101DF000F08F064605E000F00BF9801B192800F271
:101E0000C1802B689A69D24312F00204F3D095F88E
:101E10003C20012AE9D0012285F83C201A68D2072B
:101E200040F19580242000214FF001094FF0A008D7
:101E30001A680AF0FE0A22F400621A60644A85F801
:101E40003D002964EA621A6842F480721A607C1CC0
:101E500062D15A69D007FCD5C3F810A000F0D8F8B9
:101E60002B68064659695A6995F83D4001F0020110
:101E7000A02C02F4806218D00A4316D1002F3BD068
:101E800001E00A4311D100F0C3F8801B87422B68A0
:101E900038BF85F83D8059695A6995F83D0001F0D1
:101EA0000201A02802F48062EBD1202285F83D20B7
:101EB0005A6992076CD46FF480611A6842F4007218
:101EC0001A60596105E000F0A3F8801B19282ED88C
:101ED0002B689C69E44314F00204F4D009F1010971
:101EE000D945B0D320220023012085F83D2085F874
:101EF0003C307BE70A43D8D100F08AF82B6885F89C
:101F00003D8059695A6995F83D0001F00201A02809
:101F100002F48062EED1C8E75A69D1079CD400F080
:101F200077F8801B874217D3B7B12B688FE7202340
:101F300001202C6385F83D3085F83E402B6C85F8F8
:101F40003C4043F020032B6403B0BDE8F08F1A68D7
:101F500042F001021A6065E7002220232A6385F817
:101F60003D3085F83E202B6C296843F0200385F82E
:101F70003C202B640B68DE0508D54FF4007303206A
:101F80002B6433E7202302202C63D3E703202DE7C3
:101F900000211A6842F400721A6001915A69019294
:101FA0009A690192019A05E000F032F8801B192825
:101FB000BDD82B689B69DB4313F00204F4D00023E7
:101FC0002022184685F83D2085F83C300EE700BFFA
:101FD0000000FFFF074A08B51368032043F0100311
:101FE000136001F03BF90F20FFF734F9FEF76AFFA9
:101FF000002008BD00200240034A044B11681B78F2
:102000000B441360704700BFEC0300200400002065
:10201000014B1868704700BFEC030020002800F057
:102020005A822DE9F0410368044682B0002B00F08B
:1020300084801E0700F0C581DD0734D5636833F462
:10204000803203D0B3F5A02F40F09D819F4A5368A2
:1020500003F00C03042B1DD0536803F00C03082B72
:1020600015D06368B3F5803F00F07A81002B00F053
:10207000AF81B3F5A02F00F00882944B1A6822F4C8
:1020800080321A601A6822F480221A606DE1536867
:10209000D803E6D58D4B1B68990303D56368002BE5
:1020A00000F0778123689F071ED52369012B00F27A
:1020B000198163691F2B00F21E81844B5A6812F04C
:1020C0000C0F40F0DE80814B1B689D0703D5236910
:1020D000012B40F05E817D4A6169136823F0F803AB
:1020E00043EAC103136023681A0726D5A369012BAD
:1020F00000F21881002B00F004810122744B734E12
:10210000C3F88024FFF784FF054605E0FFF780FF52
:10211000401B022800F25181736A9B07F6D56D4B74
:102120006D4A1B68A2FB03235B0A019300BF019B5E
:102130005A1E0192002BF9D123685D073FD5E36851
:10214000012B06D9052B04D040F211216348FEF77C
:10215000EDFB5E4BDA69D00040F1ED800025604E6A
:102160003368D90540F11981E368012B0FD0002BAA
:1021700000F04481052B554B1A6A00F0938122F040
:1021800001021A621A6A22F004021A6204E04F4A3B
:10219000136A43F001031362FFF73AFF41F28838F4
:1021A00006464A4F05E0FFF733FF801B404500F22B
:1021B00004813B6A9B07F6D5002D40F06081E06901
:1021C000022800F2C380002857D0404D6B6803F00E
:1021D0000C03082B00F04381022840F06B81236A36
:1021E00033F4803304D04FF42E713C48FEF79EFB4D
:1021F000636A33F4402223F4802110D0B2F5801FAB
:102200000DD0B2F5001F0AD0B1F5401F07D0B3F5CD
:10221000601F04D040F2B9213048FEF787FB00224E
:102220002B4B2A4E1A66FFF7F3FE054605E0FFF733
:10223000EFFE401B022800F2C08033689901F6D4FB
:10224000226AB2F5803F00F0488101201F4D616A8B
:102250006B6823F474130B431D4913436B600866CA
:10226000FFF7D6FE044605E0FFF7D2FE001B02286A
:1022700000F2A3802B689A01F6D5002002B0BDE8D9
:10228000F0815A6802F00C02082A00F0E38023690A
:10229000002B00F0CE8001220D4B0C4E1A60FFF790
:1022A000B7FE054605E0FFF7B3FE401B022800F22B
:1022B000848033689807F6D53368626923F0F803A1
:1022C00043EAC203336023680EE700BF00100240F8
:1022D0000000424200000020D34D62102CC30008D1
:1022E0000070004040F2A1118548FEF71FFB6369B2
:1022F0001F2B7FF6E2AE4FF4D1718148FEF716FB3B
:10230000DBE6804A804EC2F88034FFF781FE054646
:1023100004E0FFF77DFE401B02284ED8736A9F073A
:10232000F7D409E74FF4F1717548FEF7FFFAA36996
:10233000002BE6D0E1E6DA69012542F08052DA614D
:10234000DB6903F080530093009B08E76C4840F280
:10235000AF21FEF7EBFAE06900287FF436AF8CE797
:10236000694A136843F480331360FFF751FE664EE9
:10237000054604E0FFF74CFE401B64281DD8336877
:102380009A03F7D58EE640F26D115D48FEF7CEFA5E
:102390005CE6012002B0BDE8F081336843F480734D
:1023A0003360FFF735FE07463368DA053FF5DCAEEC
:1023B000FFF72EFEC01B6428F6D9032002B0BDE84B
:1023C000F08140F267114E48FEF7B0FA236833E619
:1023D0004D4D2B6823F480332B602B6823F480232E
:1023E0002B60FFF715FE064604E0FFF711FE801B89
:1023F0006428E2D82B689B03F7D453E6424E41F29F
:102400008838336A23F001033362336A23F004030C
:102410003362FFF7FDFD074604E0FFF7F9FDC01B3F
:102420004045CAD8336A9807F7D4002D3FF4C7AEA9
:1024300025E0344A344E1360FFF7EAFD054604E018
:10244000FFF7E6FD401B0228B7D833689907F7D499
:10245000236849E65B68DE033FF519AF33E60128E0
:102460003FF40CAF6B68226A03F48031914290D143
:10247000606A03F47013181A18BF0120FEE6224A9E
:10248000D36923F08053D36199E603F18043A3F528
:102490003C331A6842F480221A601A6842F480328F
:1024A0001A6062E742F004021A621A6A42F00102FC
:1024B0001A6271E60022134B1A66FFF7A9FD044663
:1024C00005E0FFF7A5FD001B02283FF676AF2B685D
:1024D0009B01F6D4D1E601207047A16831F40033A6
:1024E00006D040F2CF210648FEF720FAA168226A02
:1024F0000548436823F400330B434360A5E600BF5F
:102500002CC300080000424200100240002800F0E6
:1025100006812DE9F041036804461B070D4686B08D
:1025200000F0DE80022D00F2D580864A136803F0A9
:102530000703AB420DD2136823F007032B4313604C
:10254000136803F00703AB4203D0012006B0BDE8D7
:10255000F08123689F072CD55E0704D57A494A6825
:1025600042F4E0624A60180704D577494A6842F4A9
:1025700060524A60A16831F0800214D021F020023C
:10258000902A10D021F04002A02A0CD021F0100295
:10259000C02A08D0F02906D040F25F316B48FEF720
:1025A000C5F9A16823686848426822F0F0020A432E
:1025B0004260D90726D56368022B00F2B680624AD2
:1025C000012B126800F0AD80022B00F0A48096076A
:1025D000BBD55D4E41F28838726822F00302134386
:1025E0007360FFF715FD074605E0FFF711FDC01BFF
:1025F000404500F2A1807368626803F00C03B3EBFE
:10260000820FF2D14F4A136803F00703AB4209D996
:10261000136823F007032B431360136803F00703C9
:10262000AB4292D12368580718D5E16831F4806233
:102630000ED021F40072B2F5A06F09D0B1F5C06FD1
:1026400006D04FF469714148FEF770F9E1682368DC
:102650003D48426822F4E0620A434260190718D5F7
:10266000226932F480630DD022F40073B3F5A06FB9
:1026700008D0B2F5C06F05D040F2AB313348FEF759
:1026800055F9226930494B6823F4605343EAC20389
:102690004B6040F201242E4B06AD0FCB05E90F0035
:1026A0002949ADF804404A6802F00C03082B1DD0FC
:1026B000284B254A284852682849C2F30312805CF7
:1026C000274AC34008681360FEF7C4FD002006B027
:1026D000BDE8F08140F239311C48FEF727F924E7C4
:1026E0004FF44E711948FEF721F91BE7C2F38343FB
:1026F00018336B44D20313F8103C1FD54A681549B0
:10270000C2F3404201FB03F318326A4412F8142C5E
:10271000B3FBF2F3CDE797013FF55BAF15E701207F
:10272000704792033FF555AF0FE740F26631074817
:10273000FEF7FCF8636842E7032007E7094A02FB5B
:1027400003F3B6E700200240001002402CC300084B
:1027500064C3000800127A00ACC200080800002020
:102760000000002000093D00044B054A5B68054954
:10277000C3F30223CB5C1068D840704700100240BE
:1027800000000020BCC20008044B054A5B680549F4
:10279000C3F3C223CB5C1068D840704700100240DE
:1027A00000000020BCC2000838B504460D46D0B178
:1027B00005B30F22124B22605A68124902F003023D
:1027C00062605A6802F0F002A2605A6802F4E062A5
:1027D000E2605B68DB0803F4E06323610B6803F0ED
:1027E00007032B6038BD40F223510748FEF79EF8DF
:1027F000002DDED140F224510348FEF797F8D8E7C8
:1028000000100240002002402CC300082DE9F041D6
:102810000368044613F0130F82B05ED0D80739D591
:10282000636833F4407376D1484BDA69D1005AD4E7
:10283000DA69474D42F08052DA61DB69012603F024
:1028400080530193019B2B68DA0551D53F4D2B6ACC
:1028500013F4407311D0616801F440729A420DD0B4
:10286000002001272B6A3B4A23F44071C2F84074D0
:10287000C2F84004D807296259D46168334A136A00
:1028800023F440730B4313621EB1D36923F08053CA
:10289000D36123689A070FD5A16831F4404205D06F
:1028A000B9212D48FEF742F8A168236827484268FD
:1028B00022F440420A43426013F010000AD0E2685A
:1028C00032F480032CD1002020494B6823F480038C
:1028D00013434B6002B0BDE8F0816C211E48FEF747
:1028E00025F823689AE71A4D00262B68DA05ADD43F
:1028F0002B6843F480732B60FFF78AFB07462B6835
:10290000DB05A3D4FFF784FBC01B6428F7D90320A1
:1029100002B0BDE8F08174210F48FEF707F883E7A5
:1029200040F215110C48FEF701F8E268CBE7FFF71B
:102930006FFB41F28838074604E0FFF769FBC01BD4
:102940004045E4D82B6A9907F7D596E70010024076
:10295000007000400000424278C3000810B53B4BB5
:1029600086B004460FCB0DF1180C0CE90F0040F2B5
:10297000012314F0130FADF8043008D0022C0DD051
:10298000102C2FD0012C15D0002006B010BD4FF414
:10299000CB712F48FDF7CAFF022CF1D1FFF7F4FEEF
:1029A0002C4B5B68C3F3813301335B00B0FBF3F066
:1029B00006B010BD40F2023226490B6A1A40B2F549
:1029C000817F33D003F44073B3F5007F31D0B3F58A
:1029D000407FD9D14FF22443086810F4003018BF6B
:1029E0001846D2E71B4B5A68186810F08070CCD09C
:1029F000C2F3834118316944D20311F8100C20D579
:102A00005B68154AC3F3404318336B4413F8143C16
:102A1000B2FBF3F303FB00F00E4B5B685B02B4D434
:102A20000E4B4000A3FB00304008AEE74FF40040DF
:102A3000ABE749F64043486A10F0020018BF184659
:102A4000A3E7074B03FB00F0E6E700BF64C3000801
:102A500078C300080010024000127A00ABAAAAAAAC
:102A600000093D002DE9F04FAC4B064698420F4659
:102A700083B013D003F5806398420FD003F58063D1
:102A800098420BD003F58063984207D003F580632A
:102A9000984203D0BD21A248FDF748FF39688BB2A8
:102AA00023B10B0C1B04002B00F01881BE219C48A5
:102AB000FDF73CFF7B68012B1AD9A3F11102012A13
:102AC00016D99A1E012A13D9964923F400128A4274
:102AD0000ED001F580118B420AD0A1F570218A42F7
:102AE00006D0914A934203D0BF218D48FDF71EFFC7
:102AF0003968002900F0CB804FF0000A874B55461B
:102B0000DFF828B2DFF828928A4A04E0013531FA6A
:102B100005F000F0BC800124AC4034EA010004EA76
:102B20000108F3D19E4212D0964210D082498E42C3
:102B30000DD001F580618E4209D001F580618E4291
:102B400005D0CD217648FDF7F1FE7A4A734B7968BE
:102B5000122900F29F80122923D8DFE811F0A80083
:102B6000F300D700110122002200220022002200DF
:102B70002200220022002200220022002200220045
:102B8000D000C900A0F58010814200F0908000F5CF
:102B90007020814200F08B80A0F58010814200F00F
:102BA0008680B8F1FF0F00F28D8034464FEA850E23
:102BB0000F2021680AFA0EFC00FA0EFE21EA0E012F
:102BC00041EA0C0121607968CC0040F18580DBF896
:102BD000184005F0030C44F00104CBF81840DBF872
:102BE00018404FEA8C0C04F001040194019C25F07C
:102BF000030404F1804404F58034D4F808E000FABA
:102C00000CF09E422EEA000013D0964200F0B180F4
:102C1000DFF824E1764500F0A580DFF820E1764575
:102C20000CBF4FF0030E4FF0040E0EFA0CFC40EAFE
:102C30000C00A060D9F80000CC034CBF40EA0800AB
:102C400020EA0800C9F80000D9F804008C034CBF42
:102C500040EA080020EA0800C9F80400D9F8080092
:102C6000CC024CBF40EA080020EA0800C9F808007E
:102C700011F4001FD9F80C102AD041EA0801C9F854
:102C80000C103968013531FA05F07FF444AF03B018
:102C9000BDE8F08F2448814209D07FF673AF284801
:102CA000814204D000F5803081427FF47AAFB96868
:102CB00002296FD8002966D1B8F1FF0F4FF0040A3E
:102CC0007FF673AF4FEA850EAEF1200E341D6FE72D
:102CD00021EA0801C9F80C10396817E77B68012B55
:102CE0007FF60AAFA3F11102012A3FF6EAAEFFE632
:102CF000F968481E022857D801F10C0A51E7F96813
:102D0000481E022860D801F1040A4AE7F968481E03
:102D1000022851D801F1080A43E700BF000801402A
:102D2000B0C3000800001110000022100010024083
:102D300000040140000C014000100140001401405B
:102D400000003110D7F80CA00AF1FF3102297FF6FC
:102D500028AFD5212048FDF7E9FDD7F80CA01F4B7F
:102D60001F4A1EE74FF0020E0EFA0CFC40EA0C0060
:102D70005FE74FF0010E0EFA0CFC40EA0C0058E73A
:102D80004FF0000A0DE701294FF0080A0CBF34612B
:102D9000746106E7F7211048FDF7C8FDB968104ACD
:102DA0000E4B002988D0EEE7EA210B48FDF7BEFD67
:102DB000F9680B4A094B9FE7E3210748FDF7B6FD89
:102DC000F968074A054BA5E7DC210348FDF7AEFD8E
:102DD000F968034A014B96E7B0C3000800080140B8
:102DE000000C014070B506460C46154661B1012D38
:102DF00003D805B92404346170BD40F2D5110548EB
:102E0000FDF794FD346170BD4FF4EA710148FDF7A0
:102E10008DFDECE7B0C3000838B505460C4641B15E
:102E2000E96804EA010324EA010444EA03442C614A
:102E300038BD4FF4F6710248FDF778FDF0E700BFAA
:102E4000B0C30008044A5169014200D1704708B577
:102E5000506105F0F7FC08BD00040140002800F0B7
:102E6000988003684C4A70B59342044615D01432DA
:102E7000934212D0143293420FD0143293420CD0AA
:102E80001432934209D01432934206D01432934242
:102E900003D09A214148FDF749FD636833F01002E1
:102EA0004DD1A36833F0400354D1E36833F080037D
:102EB00058D1236933F4807202D0B3F5007F56D124
:102EC000636933F4806202D0B3F5006F58D1A3690F
:102ED00033F0200303D0A0213048FDF727FDE0693F
:102EE00030F4405304D02D48A121FDF71FFDE069C7
:102EF00021682B4A2B4B0A44A3FB023212094FF4E0
:102F0000807E92000D6822640022636825F47F5C55
:102F1000A5682CF0300C2B43E568234E2B43256924
:102F2000E6632B4365692B43A5692B4343EA0C03F6
:102F300003430B60A4F820E01046A26370BDB3F514
:102F4000804FAED09B211548FDF7F0FCA36833F00D
:102F50004003AAD09C211148FDF7E8FCE36833F058
:102F60008003A6D09D210D48FDF7E0FCA1E79E213E
:102F70000A48FDF7DBFC636933F48062A7D0A3E75E
:102F80009F210648FDF7D2FCA36933F02003A6D0A9
:102F9000A1E70120704700BF08000240E8C3000815
:102FA000F8FFFDBFCDCCCCCC000002402DE9F041B4
:102FB0004FF6FE751E46013BAB4204460F46904657
:102FC00035D894F82030012B3AD0012294F82130E2
:102FD00084F82020934205D0002384F8203002207A
:102FE000BDE8F081022284F8212000222568A26336
:102FF000226C93402A6822F001022A60E26B53603F
:1030000063686E60102BE36A0BBFC5F80880AF6081
:10301000EF60C5F80C80B3B12B6843F00E032B6052
:103020002B68002043F001032B60BDE8F08140F2E3
:103030006F110948FDF77AFC94F82030012BC4D1B8
:103040000220BDE8F0812B6823F004032B602B687D
:1030500043F00A032B60E3E7E8C3000890F821205F
:103060000346022A06D0042100220120996383F836
:103070002020704701214FF4807C10B41A681C6C2A
:103080000020A140146824F00E041460146824F099
:1030900001041460DA6B5160A3F820C010BC7047C3
:1030A00090F821200346022A03D0042201209A63CB
:1030B0007047026810B511681B4821F00E011160BD
:1030C0001168824221F00101116021D017498A4222
:1030D0001AD014318A421DD014318A421DD01431C5
:1030E0008A421DD014318A420CBF4FF480124FF037
:1030F00080724FF480700E4C596B6260188429B155
:1031000018468847002010BD1022F2E7084610BD7F
:103110000122EEE74FF48072EBE74FF48052E8E7CC
:103120004FF48032E5E700BF080002401C00024077
:1031300000000240042270B4C66B016C346803685E
:103140008A4022421D681FD06A071DD51A68910661
:1031500003D41A6822F004021A603E4A934250D007
:103160001432934260D01432934267D014329342A7
:103170006AD0143293425CD0143293420CBF4FF4A5
:1031800080034FF080633DE002228A40224222D039
:10319000AA0720D51A68910606D401211A6822F0E0
:1031A0000A021A6080F821102A4A934231D0143260
:1031B000934241D01432934243D01432934235D0DB
:1031C0001432934243D0143293420CBF4FF4001395
:1031D0004FF000731EE008228A40224217D02A07CF
:1031E00015D51A684FF4807422F00E021A6001237C
:1031F000026B03FA01F17160836304843AB170BC1D
:10320000104704231449C26A4B60002AF7D170BCEE
:10321000704702230021104C826A636080F82010FE
:10322000002AF4D070BC10474023EBE74FF4005362
:10323000F0E74FF48023E5E72023EBE74FF48063CA
:10324000E0E74FF40073E5E74FF48043DAE74FF42B
:103250000033DFE70800024000000240C31E042BD9
:1032600010B504460ED84FF6FF01094A2302D46870
:1032700003F4E0630C40234343F0BF6343F40033A3
:10328000D36010BD92210348FDF750FBEBE700BF70
:1032900000ED00E020C400080F2A70B51646054670
:1032A0000C4637D80F2C30D81D4BDB68C3F30223F4
:1032B000C3F10700042803F1040228BF0420062AF2
:1032C00018D94FF0FF32033B9A4026EA02064FF02E
:1032D000FF31814024EA01049C40002D44EA0604A9
:1032E0000BDB240105F16045E4B205F5614585F885
:1032F000004370BD00263346E9E70A4B05F00F0591
:103300002401E4B22B441C7670BDAB210648FDF7C6
:103310000DFBC9E7AA210448FDF708FBC2E700BF7F
:1033200000ED00E0FCEC00E020C40008002808DB11
:10333000012300F01F01054A40098B4042F820306C
:103340007047BE210248FDF7F1BA00BF00E100E07E
:1033500020C4000800280EDB01220949430900F0BF
:103360001F00203302FA00F041F82300BFF34F8F13
:10337000BFF36F8F7047CE210248FDF7D7BA00BF69
:1033800000E100E020C400080122014B1A627047EE
:1033900000000E4270B504460E46FEF739FE0546A3
:1033A00005E0FEF735FE401BB0F57A7F1FD8236895
:1033B0005A689206F5D55A68310C42F01002B6B23E
:1033C0005A6019625E625A6822F010025A60FEF773
:1033D0001FFE054605E0FEF71BFE401BB0F57A7F99
:1033E00005D823685B689B06F5D5002070BD0120D9
:1033F00070BD00BF2DE9F04F1746026883B05568D5
:1034000015F0040540F0D48004460E469169D06959
:1034100093691FFA81FE1FFA83FCE64500F0CC8019
:10342000D1691FFA81F949EA03494FF46161BF4B41
:10343000BF48A3FB09384FEAD82801FB1891BD4BC0
:103440008145A3FB01C34FEA53137370C3EB03130E
:10345000A1EB8303B37040F2B480B74BA3FB081316
:103460001B0903EB4303A8EBC3033370116A536AD0
:103470001FFA83FA4AEA014ABAF1FF3F05D0D14563
:103480002CBF4FF0FF3AAAEB090AFEF7C1FD8346B5
:1034900007E0FEF7BDFDA0EB0B00B0F57A7F00F270
:1034A000878023685A689206F3D5A34AA2FB0828AE
:1034B000A24A4FEA181802FB18995A6842F0100203
:1034C0005A604FEA19429A611FFA89F2DA615A6822
:1034D00022F010025A60FEF79BFD834606E0FEF7DD
:1034E00097FDA0EB0B00B0F57A7F61D823685B688D
:1034F0009B06F4D5BAF1FF3F54D0204609EB0A01F0
:10350000FFF748FF002853D10023E07B627BA17BBB
:10351000012A00F0C380032A00F08780052A00F00A
:10352000C080072A00F0C080082A00F0C0800A2A64
:1035300000F0D9800C2A00F0D980042A00F0A6807F
:10354000062A00F0E980092A00F0E9800B2A00F041
:10355000E9804FF0640BDFF8E8C11FFA80FAACFB9A
:103560000AEC00F0030ECDF804E04FEA5C1E0BFB02
:103570001EAE4FF4C87B4FEADC1C0BFB1CAC0133C6
:10358000022A99461FFA8EFE1FFA8CFC53D11B2982
:1035900000F2DC80C84501F1010140F2DE8009F152
:1035A0000109F4E751462046FFF7F4FE0028ABD0AE
:1035B000012003B0BDE8F08F1FFA80F949EA014904
:1035C00033E786F8008067B33378092B09D90022E6
:1035D0000A3BDBB2092B02F10102F9D843EA0213DC
:1035E000DBB272783370092A09D900230A3AD2B2C1
:1035F000092A03F10103F9D842EA0312D2B2B378DF
:103600007270092B08D90A3BDBB2092B05F10105C1
:10361000F9D843EA0513DBB20020B37003B0BDE86C
:10362000F08F384603B0BDE8F08F4FF0040C1E2930
:1036300030D80131013398453FF66AAF022AE07372
:103640006273A17300F5FA6334D93D48194402311D
:1036500001EB9301DFF8ECC0A0FB030302EB420097
:10366000C2EBC002ACFB020201EBD31101EB520230
:10367000A2EB5312344BA3FB0213D11A03EB5103F9
:103680009B08C3EBC303D31A23739CE74FF0050CCD
:103690001D29CED9624601210133CCE74FF0020C3F
:1036A000C5E74FF0060CC2E74FF0080CBFE74FF03C
:1036B000090CBCE702EB420CDFF888E0C2EBCC025D
:1036C000AEFB02C24FEA520C5A1804321C4B00F2F5
:1036D000CF70624402EB9002A3FB003002EBD012E9
:1036E000A2EB5012C6E74FF00B0CA0E71E29A0D9A1
:1036F0000133984500F1010003D902210122013371
:1037000099E701234FF0020C1A461946A37362731E
:10371000E07300F5FA63D7E74FF0070CB8E74FF016
:103720000A0CB5E74FF00C0CB2E700BFC5B3A2918D
:103730007F51010089888888ABAAAAAA805101001C
:103740001F85EB51398EE338254992241C2909D075
:103750001D2913D0C8453FF622AF4FF0050C0222B9
:10376000CBB2D3E7019BABB9BEF1000F0DD1BCF1D9
:10377000000F0FD1C84514D909F101094B469845EE
:1037800015D902210322013355E7C84509D909F1AA
:103790000103F4E7C8450AD90221032209F1010314
:1037A00049E71D234FF0050C02221946AEE703221C
:1037B0000121E07300F5FA636273A17345E700BF6E
:1037C000002800F0A48038B50268524B04469A42A3
:1037D00004D040F21D115048FDF7A8F8A36833F05B
:1037E000800272D16FF480126368A3F58013934254
:1037F00076D3637C03F0FF02002B7BD00223226888
:103800006374536823F008035360FEF701FC054618
:1038100005E0FEF7FDFB431BB3F57A7F51D8236823
:103820005B681807F5D5FEF7F3FB054605E0FEF7E4
:10383000EFFB401BB0F57A7F43D823685A689106A6
:10384000F5D55968A06841F010015960596821F018
:103850000701596020B131490A6B22F001020A6365
:103860002E49CA6A22F460720243CA6261684A1C25
:1038700045D098688DB220F00F0040EA1141996060
:10388000DA68120C12042A43DA605A6822F0100235
:103890005A60FEF7BDFB054605E0FEF7B9FB401B8D
:1038A000B0F57A7F0DD823685B689B06F5D50023B9
:1038B00040F201110122E373A4F80D10627418465E
:1038C00038BD04236374012038BD23F40073B3F5BD
:1038D000807F87D04FF48F710F48FDF727F881E77D
:1038E00040F21F110C48FDF721F8637C03F0FF0242
:1038F000002B83D120462274FDF76AF97EE7012070
:10390000FFF72CF80028DCD02368411EB1E7012026
:10391000704700BF0028004058C40008006C0040F9
:10392000002800F0E88070B50E46002900F0E58020
:10393000012A04461FD8037C012B00F0E0800121FE
:103940000223017443741ABB3378172B00F2CD8025
:1039500073783B2B00F2A880B2783B2A00F29D805E
:103960004FF4616073783178C3EB03139D0000FB63
:103970000155154449E040F2CA216248FCF7D6FFE0
:10398000237C012B00F0BB8001220223227463748C
:1039900033781A0902EB820203F00F0303EB4203B0
:1039A000DBB2172B00F29B8073781A0902EB8202BC
:1039B00003F00F0303EB4203DBB23B2B00F28980E1
:1039C000B3781D0905EB850503F00F0303EB4505EF
:1039D000E9B23B296ED84FF4616C337872781809DC
:1039E00000EB800003F00F0303EB4005130903EB2A
:1039F000830602F00F0303EB4603DBB2C3EB0313B2
:103A0000E8B29D000CFB00550D44FEF701FB064695
:103A100005E0FEF7FDFA831BB3F57A7F37D82368FC
:103A20005A689106F5D559682A0C41F01001596081
:103A30009A61AAB2DA615A6822F010025A60FEF75F
:103A4000E7FA064605E0FEF7E3FA801BB0F57A7F59
:103A50001DD823685A689206F5D55A6822F00502E7
:103A60005A601A6A596A89B241EA02418D4205D800
:103A70000023012223746274184670BD01F5A83139
:103A8000204601F5C071FFF785FC0028F0D0042224
:103A9000002362742374012070BD40F2D5211948BF
:103AA000FCF744FFB2785BE74FF435711548FCF73B
:103AB0003DFF51E740F2DF211248FCF737FFB378B2
:103AC0001D0905EB850503F00F0303EB4505E9B27E
:103AD00081E740F2DE210B48FCF728FF70E740F257
:103AE000DD210848FCF722FF5EE740F2D3210548BC
:103AF000FCF71CFF2CE701207047012070BD02205D
:103B000070BD00BF58C40008D8B170B50D46B1B142
:103B1000012A0446164606D8324629462046BDE804
:103B20007040FFF767BC40F22D310748FCF7FEFEFE
:103B3000324629462046BDE87040FFF75BBC0120B5
:103B400070BD0120704700BF58C40008002800F075
:103B50003A8170B50D46002900F03781012A0446EC
:103B600037D8037C012B00F032810121022301743C
:103B70004374002A3AD1EB78632B00F2C7806B784C
:103B8000013B0B2B00F2CE80AB78013B1E2B00F2E9
:103B9000C380E878E0736978B5F801200229AB7832
:103BA000A4F80D2000F5FA6266D98A4801EB4106B7
:103BB000C1EBC601A0FB01010733134403EB510322
:103BC000854903EB9203A1FB0221844AA3EB511325
:103BD00069E04FF467718248FCF7A8FE237C012B53
:103BE00000F0F5800122022322746374EB781A0935
:103BF00002EB820203F00F0303EB4203DBB2632B01
:103C00007ED86B781A0903F00F0302EB8202013BA6
:103C100003EB4203DBB20B2B6CD8AB781A0903F031
:103C20000F0302EB8202013B03EB4203DBB21E2BCC
:103C30005AD8EB78180900EB800203F00F0000EB74
:103C40004200C0B2E0736B78190901EB810203F006
:103C50000F0101EB4201C9B26173AA7802294FEA50
:103C6000121303EB830602F00F0303EB4603DBB2F0
:103C7000A37300F5FA6298D804331344554E01EB50
:103C80004102C1EBC201A6FB0121534A00F2CF70F1
:103C900003EB510303EB9003A2FB00204F4A03EB1D
:103CA000D013A3EB5013A2FB0312991A02EB51029B
:103CB0009208C2EBC2029A1AD2B222732A70236807
:103CC0009969DD699A698EB290B2864230D0DD6919
:103CD000444BADB245EA02459D422FD80023012254
:103CE00023746274184670BD40F2B2313C48FCF750
:103CF0001DFE9EE740F2B1313948FCF717FE8CE714
:103D00004FF46C713648FCF711FE7AE740F2A531AA
:103D10003348FCF70BFE32E740F2A7313048FCF79E
:103D200005FE36E740F2A6312D48FCF7FFFD2BE7F4
:103D30002C4BADB245EA01459D42CFD9FEF768F95B
:103D4000064605E0FEF764F9801BB0F57A7F34D8AB
:103D500023685A689106F5D5234E244AA6FB05161A
:103D6000360C02FB16565A68310C42F010025A60AB
:103D7000B2B29961DA615A6822F010025A60FEF715
:103D800047F9054605E0FEF743F9401BB0F57A7F99
:103D900013D823685A689206F5D51A6A596A89B207
:103DA00041EA02418E4299D901F5A831204601F538
:103DB000C071FFF7EFFA002890D00422002362744C
:103DC0002374012070BD01207047012070BD0220C6
:103DD00070BD00BF398EE3381F85EB512549922411
:103DE00058C400088F5F010007452EC280510100B2
:103DF000F0B5002783B0ADF804708DF80670002888
:103E000056D00C46002953D0012A1646054644D800
:103E10003A4601A9FFF7EEFA002849D1EA6895F879
:103E20000FE095F80DC0AB7B2260002E41D0BEF1B3
:103E3000090F0DD90022AEF10A0E5FFA8EFEBEF117
:103E4000090F02F10102F6D84EEA021E5FFA8EFE59
:103E5000BCF1090F84F803E00DD90022ACF10A0C83
:103E60005FFA8CFCBCF1090F02F10102F6D84CEAB2
:103E7000021C5FFA8CFC092B84F801C009D90022CE
:103E80000A3BDBB2092B02F10102F9D843EA021323
:103E9000DBB20020A37003B0F0BD40F20E410B482E
:103EA000FCF744FD3A46284601A9FFF7A3FA10B1F2
:103EB000012003B0F0BD2B7B237095F80FE095F83F
:103EC0000DC0BEF1090FAB7BB4D8C1E758C40008E0
:103ED000034688B1027C012A10D002224FF0010C67
:103EE000002100685A74026842EA0C020260084627
:103EF00083F811C019747047012070470220704781
:103F0000704700BF704700BF03681A68D10711D51A
:103F10005A68D2070ED55B6810B55B0704460AD411
:103F2000FFF7EEFF012322686374536823F0010357
:103F3000536010BD7047FFF7E5FF04236FF00401E5
:103F4000226851606374536823F00103536010BD0D
:103F5000036A2DE9F04123F001030362056AD0F8FA
:103F6000048087690B68214A27F073071F438B6819
:103F700025F00205904204460E4645EA030507D0A7
:103F80007368C4F80480A76163632562BDE8F081AB
:103F9000CB6833F0080214D125F008051D43B3693E
:103FA00025F0040533F4007319D1736933F480727A
:103FB0000ED1B26928F4407848EA020848EA0308BA
:103FC000DEE741F641210A48FCF7B0FCF368E3E77D
:103FD00041F64F210648FCF7A9FC7369E9E741F671
:103FE0004E210348FCF7A2FCDFE700BF002C014094
:103FF00090C40008036A2DE9F04123F48073036242
:10400000056AD0F80480C7690B68214A27F0730756
:104010001F438B6825F40075904204460E4645EA1E
:10402000032507D07368C4F80480E761E363256261
:10403000BDE8F081CB6833F0080215D125F40065A6
:1040400045EA0325B36925F4806533F4007319D17B
:10405000736933F480720ED1B26928F4405848EA8B
:10406000021848EA0318DDE741F6D7210948FCF7B2
:104070005DFCF368E2E741F6E5210648FCF756FCF3
:104080007369E9E741F6E4210248FCF74FFCDFE7FA
:10409000002C014090C40008002800F0AA800368AA
:1040A000554A10B5934204460FD0B3F1804F0CD05F
:1040B000A2F59432934208D002F58062934204D074
:1040C00040F213114D48FCF731FCA36833F01002A5
:1040D0000AD023F04002202A06D0402B04D04FF40F
:1040E0008A714648FCF722FC236933F4807202D0BF
:1040F000B3F5007F73D1A36933F0800321D194F825
:104100003D3003F0FF023BB3022322683A4984F8B2
:104110003D308A4213684ED0B2F1804F22D0A1F5D3
:1041200094318A421ED001F580618A421AD0A0697A
:1041300023F080030343E16813606368D1629362F4
:1041400021E04FF48B712D48FCF7F0FB94F83D30E3
:1041500003F0FF02002BD7D1204684F83C20FCF767
:104160001DFED1E7A16823F0700320690B4323F4FF
:104170004073A169034323F08003E0680B43616847
:104180001360D06291620123536184F8463084F851
:104190003E3084F83F3084F8403084F8413084F871
:1041A000423084F8433084F8443084F8453084F851
:1041B0003D30002010BDA06823F070032169034347
:1041C00023F440730B43A16923F080030B43136076
:1041D000E368D3626368936263691363D3E740F271
:1041E00015110648FCF7A2FBA36933F0800386D0C3
:1041F000A7E70120704700BF002C014090C40008D1
:104200001E4A036810B5934204460FD0B3F1804FA5
:104210000CD0A2F59432934208D002F5806293420A
:1042200004D040F2CF111648FCF780FB94F83D30E3
:10423000012B1FD10222236884F83D20DA680F4940
:1042400042F001028B42DA6009D0B3F1804F06D010
:104250000C4A934203D002F58062934204D19A68DB
:1042600002F00702062A07D01A68002042F0010275
:104270001A6010BD012010BD002010BD002C0140AF
:1042800090C4000800040040164A036810B5934229
:10429000044610D0B3F1804F0DD0A2F59432934272
:1042A00009D002F58062934205D040F2F7110E4822
:1042B000FCF73CFB236841F21111DA6822F001029D
:1042C000DA601A6A0A4208D140F24442196A11427D
:1042D00003D11A6822F001021A60012384F83D30EC
:1042E000002010BD002C014090C40008002800F000
:1042F000AA800368554A10B5934204460FD0B3F123
:10430000804F0CD0A2F59432934208D002F580621F
:10431000934204D040F213514D48FCF707FBA368C9
:1043200033F010020AD023F04002202A06D0402B9E
:1043300004D040F214514648FCF7F8FA236933F4EC
:10434000807202D0B3F5007F73D1A36933F080038C
:1043500021D194F83D3003F0FF023BB302232268E1
:104360003A4984F83D308A4213684ED0B2F1804F0A
:1043700022D0A1F594318A421ED001F580618A4293
:104380001AD0A06923F080030343E16813606368D7
:10439000D162936221E040F216512D48FCF7C6FA33
:1043A00094F83D3003F0FF02002BD7D1204684F86B
:1043B0003C20FCF7DDFCD1E7A16823F07003206905
:1043C0000B4323F44073A169034323F08003E068A7
:1043D0000B4361681360D06291620123536184F8DA
:1043E000463084F83E3084F83F3084F8403084F81A
:1043F000413084F8423084F8433084F8443084F803
:10440000453084F83D30002010BDA06823F07003D3
:104410002169034323F440730B43A16923F0800314
:104420000B431360E368D362636893626369136349
:10443000D3E740F215510648FCF778FAA36933F048
:10444000800386D0A7E70120704700BF002C014001
:1044500090C400085F4A036870B5934205460C4655
:1044600056D0B3F1804F53D0A2F5943293424FD03F
:1044700002F5806293424BD040F299515648FCF7C6
:1044800055FA002C40F08A8095F83E30012B65D11A
:1044900002212B684F4A1E46934285F83E1018D0E1
:1044A000B3F1804F15D04D4A934208D002F5806297
:1044B000934204D041F609514748FCF737FA34F0EB
:1044C000040305D0082C03D00C2C01D03C2C7BD14C
:1044D0002B680122306A04F01F0402FA04F420EA77
:1044E00004003062326A3B4D1443AB42346248D020
:1044F000B3F1804F4BD0394A934248D002F58062E5
:10450000934244D01A68002042F001021A6070BD44
:10451000002CB9D0042C4BD0082C43D00C2C04D048
:1045200040F299512C48FCF701FA95F84130013BD3
:1045300018BF012393B9002CAAD02B68042C4FF08C
:1045400002011E46234A0BD0082C37D0934285F82F
:104550004110B9D0B3F1804FA5D1B0E7012070BDB3
:10456000934285F83F109BD101221A4B04F01F049F
:10457000186A02FA04F420EA040018621A6A144362
:104580001C62144A1346516C41F4004151649A680C
:1045900002F00702062AB5D1002070BD042C07D016
:1045A000082CC2D195F84030013B18BF0123C1E768
:1045B00095F83F30013B18BF0123BBE7934285F8D4
:1045C00040107FF46DAFCFE741F60A510248FCF787
:1045D000ADF97DE7002C014090C4000800040040C4
:1045E00003684A4A70B5934205460C461E465BD0A6
:1045F000B3F1804F3DD0A2F59432934239D002F509
:104600008062934235D040F2CD514148FCF78EF99B
:104610002B683E4A1E46934202D0B3F1804F2CD104
:1046200034F0040303D0082B01D03C2C64D12B6858
:104630000121326A04F01F00814022EA0102326245
:10464000326A3262314A934243D041F21112196AFE
:10465000114208D140F24442196A114203D11A684A
:1046600022F001021A600123A4B985F83E3000202F
:1046700070BDD4B9B3F1804FDAD0264A9342CFD07F
:1046800002F580629342CBD041F609512048FCF7F5
:104690004DF9C5E7042C35D0082C0CBF85F8403007
:1046A00085F84130002070BD41B1042C03D0082CA6
:1046B00001D00C2CA7D1154A9342DBD10121134B19
:1046C00004F01F001A6A814022EA01021A621A6A83
:1046D0001A6241F211130D4A116A19420AD140F2CD
:1046E0004443116A194205D1516C134621F400412B
:1046F0005164AAE71346A8E741F60A510448FCF7BB
:1047000015F994E785F83F30002070BD002C01407A
:1047100090C400080004004090F83C30012B00F0E9
:1047200047810223012270B580F83C2080F83D309B
:104730000B680446B3F5805F0D4600F00881B3F5C1
:10474000005F00F0238133F0300240F027812268BF
:10475000602B916821F47F4121F07701916000F096
:1047600069816FD8402B00F0298145D9502B3BD16E
:10477000904B9A420FD0B2F1804F0CD0A3F59433F6
:104780009A4208D003F580639A4204D041F2714105
:104790008948FCF7CBF86B68B3F5004F09D033F0CC
:1047A000020206D00A2B04D041F274418248FCF781
:1047B000BDF8EE680F2E00F2968123686968186ACA
:1047C00020F00A000143186A20F0010018629A697B
:1047D00022F0F00242EA06129A6119629A6822F007
:1047E000700242F057029A600023012284F83C30A4
:1047F00084F83D20184670BD202B02D01ED9302BE6
:10480000F2D16C498A4211D0B2F1804F0ED0A1F59D
:1048100094318A420AD001F580618A4206D041F281
:10482000A4416548FCF782F822682B68916821F062
:1048300070010B4343F007039360D5E733F0100199
:10484000D2D1DEE7B3F5805F00F08880B3F5005F7A
:104850003DD1584B9A420FD0B2F1804F0CD0A3F506
:1048600094339A4208D003F580639A4204D041F20F
:104870005D415148FCF75AF8AB6833F4405304D01B
:104880004FF4A3514C48FCF751F86B68B3F5004F57
:1048900009D033F0020206D00A2B04D041F2614164
:1048A0004548FCF743F8E8680F2800F20E812268BB
:1048B000AB6891686D6821F47F412B430B4343EA59
:1048C00000239360936843F4804393608CE7702BDC
:1048D0008AD1384B9A420FD0B2F1804F0CD0A3F559
:1048E00094339A4208D003F580639A4204D041F28F
:1048F00045413148FCF71AF8AB6833F4405304D013
:1049000041F248412C48FCF711F86B68B3F5004FB1
:1049100009D033F0020206D00A2B04D041F24941FB
:104920002548FCF703F8E8680F2800F2C7802268E2
:10493000AB6891686D6821F47F412B430B4343EAD8
:1049400000239360936843F0770393604CE7026819
:10495000936823F47F4323F077039360154B9A42C7
:104960003FF442AFB2F1804F3FF43EAFA3F5943332
:104970009A423FF439AF03F580639A423FF434AF73
:1049800041F23E410C48FBF7D1FF2DE702689368E6
:1049900023F47F4323F0770393605AE7402A3FF4E0
:1049A000D6AE41F232410448FBF7C0FF2B68CEE699
:1049B00002207047002C014090C400084D4B9A42E1
:1049C0000FD0B2F1804F0CD0A3F594339A4208D0A7
:1049D00003F580639A4204D041F291414648FBF7C7
:1049E000A5FF6B68B3F5004F09D033F0020206D083
:1049F0000A2B04D041F294413F48FBF797FFEE6841
:104A00000F2E69D823686968186A20F00A000143EC
:104A1000186A20F0010018629A6922F0F00242EA56
:104A200006129A6119629A6822F0700242F04702F7
:104A30009A60D9E62F4B9A420FD0B2F1804F0CD03A
:104A4000A3F594339A4208D003F580639A4204D0C8
:104A500041F281412848FBF769FF6B68B3F5004FCD
:104A600009D033F0020206D00A2B04D041F284416F
:104A70002148FBF75BFFEE680F2E18D823686D689E
:104A8000186A20F01000186299691A6A21F47041BE
:104A900022F0A00242EA051241EA063199611A6247
:104AA0009A6822F0700242F067029A609CE641F236
:104AB00085411148FBF73AFFEE68DFE70E4841F207
:104AC0004A41FBF733FFE86831E70B4841F26241A6
:104AD000FBF72CFFE868EAE641F295410648FBF750
:104AE00025FFEE688EE741F275410348FBF71EFF94
:104AF000EE6862E6002C014090C40008704700BFD9
:104B0000704700BF704700BF704700BF036810B513
:104B10001A690446910702D5DA6892075FD41A69C8
:104B2000500702D5DA68510746D41A69120702D530
:104B3000DA6810072ED41A69D20602D5DA68D006D0
:104B400018D41A69D10702D5DA68D2075DD41A6978
:104B5000100602D5DA6811065FD41A69520602D52A
:104B6000DA68500661D41A69910602D5DA689206AD
:104B700043D410BD6FF01001082219612277DB6960
:104B8000204613F4407F64D0FFF7BAFF0022236869
:104B90002277D6E76FF00801042219612277DB69DA
:104BA0002046990752D1FFF7A9FF2046FFF7AAFF39
:104BB000002223682277BEE76FF004010222196108
:104BC00022779B69204613F4407F3CD1FFF796FF84
:104BD0002046FFF797FF002223682277A5E76FF0B2
:104BE00002010122196102779B699B0725D0FFF71B
:104BF00087FF00222368227791E76FF0200220468A
:104C0000BDE810401A6100F019BA6FF001022046A9
:104C10001A61FBF77FFE236899E76FF08002204658
:104C20001A6100F00DFA236897E76FF04002204602
:104C30001A61FFF769FF236895E7FFF75FFF2046DA
:104C4000FFF760FFD5E7FFF75BFFC4E7FFF758FF0B
:104C5000AEE7FFF753FF2046FFF754FF96E700BF8C
:104C6000036A2DE9F04123F010030362056AD0F8CE
:104C7000048087690B68224A27F4E64747EA03273E
:104C80008B6825F02005904204460E4645EA031540
:104C900007D07368C4F80480A761A3632562BDE8E8
:104CA000F081CB6833F0080215D125F0800545EA84
:104CB0000315B36925F0400533F4007319D1736906
:104CC00033F480720ED1B26928F4406848EA820851
:104CD00048EA8308DDE741F68C210A48FBF726FE07
:104CE000F368E2E741F69B210648FBF71FFE736974
:104CF000E9E741F69A210348FBF718FEDFE700BF1A
:104D0000002C014090C400082DE9F84332F00C0358
:104D1000164605460C4602D03C2A40F0DE80236849
:104D200023F01003602B04D041F228019048FBF7D8
:104D3000FDFDA36833F0020304D041F229018C4841
:104D4000FBF7F4FD236933F0040304D041F22A0198
:104D50008748FBF7EBFD95F83C30012B00F0C38052
:104D6000012385F83C300C2E3ED8DFE806F0433DA9
:104D70003D3D693D3D3D903D3D3D07002B68DFF8E1
:104D8000F4914B4500F0B280B3F1804F07D07A4ADE
:104D9000934204D002F58062934240F0C3801A6AC5
:104DA000216822F480521A621E6A5F68DA6926F46A
:104DB000005622F4E64242EA0128A26846EA023698
:104DC0001A4661685F60C3F81C8019641E62D1696D
:104DD000206941F40061D161D16921F48061D16120
:104DE000D36943EA0023D361002385F83C30184699
:104DF000BDE8F88328685F4B984210D0B0F1804F2F
:104E00000DD0A3F59433984209D003F580639842FE
:104E100005D0574841F23401FBF788FD2868214648
:104E2000FFF796F82B682069996941F008019961AC
:104E3000996921F0040199619A6902439A61D3E763
:104E400028684C4B984210D0B0F1804F0DD0A3F59C
:104E50009433984209D003F58063984205D04448C2
:104E600041F24501FBF762FD28682146FFF7F8FE95
:104E70002B682069996941F400619961996921F46D
:104E8000806199619A6942EA00229A61ACE72868D8
:104E9000384B984210D0B0F1804F0DD0A3F5943329
:104EA000984209D003F58063984205D0304841F21A
:104EB0005601FBF73BFD28682146FFF79BF82B685E
:104EC0002069D96941F00801D961D96921F004014B
:104ED000D961DA690243DA6186E741F227012448A1
:104EE000FBF724FD1BE70220BDE8F8831A6A22F4D1
:104EF00080521A621E6A5F68DA69236822F4E64209
:104F000042EA0328A36826F4005646EA033663699A
:104F100033F4807223D1174A27F4804747EA831776
:104F2000144B4EE741F267011148FBF7FFFC2B6879
:104F300021681A6A4B4522F480521A621E6A5F6821
:104F4000DA6926F4005622F4E64242EA0128A26811
:104F500046EA023618BF1A467FF433AFD7E741F668
:104F600023310348FBF7E2FC63692A68D4E700BFFA
:104F700090C40008002C01400004004038B52C4AC1
:104F80000368044693420D460FD0B3F1804F0CD016
:104F9000A2F59432934208D002F58062934204D085
:104FA00040F286712348FBF7C1FC2B6833F03003D5
:104FB00006D0402B04D040F287711E48FBF7B6FCA8
:104FC0006B6833F0800328D194F83C30012B2DD04E
:104FD0000222236884F83D205A682968144822F088
:104FE00070020A43834299685A6009D0B3F1804F36
:104FF00006D0114A934203D002F58062934204D155
:105000006A6821F08001114399600023012284F82D
:105010003C3084F83D20184638BD4FF4F161054816
:10502000FBF784FC94F83C30012BD1D1022038BD31
:10503000002C0140C8C4000800040040704700BFB5
:10504000704700BF38B54268344B04469A4255D881
:10505000E36833F4005304D040F654613048FBF762
:1050600065FC236933F4806202D0B3F5C06F4FD181
:105070004FF6F3736069184239D1002837D023689E
:10508000E2681969256921F4405111431961D96811
:10509000A26821F4B05121F00C012A430A430243D3
:1050A000DA605A69A0691F4922F4407202438B42B8
:1050B0005A6129D0FDF758FB0346626803EB83036E
:1050C000920003EB8303B3FBF2F34FF0640C164939
:1050D0002068A1FB034252090CFB12331B0132333F
:1050E000A1FB0313120102EB5313836038BD0C487C
:1050F00040F65661FBF71AFC6069C0E740F6536161
:105100000748FBF713FCA3E7FDF73EFB0346D4E794
:1051100040F655610248FBF709FCA9E720AA4400C4
:1051200000C50008003801401F85EB5100286ED0F3
:1051300038B583690446002B43D0026835498A425A
:1051400051D0A1F574418A424DD001F580618A4267
:1051500049D04FF4B6713048FBF7E8FBA369002B48
:1051600041D1A36833F4805304D040F273112A482C
:10517000FBF7DCFB94F83D3003F0FF02002B40D03E
:105180002423226884F83D30D368204623F400535A
:10519000D360FFF757FF00252021236828461A69AE
:1051A00022F490421A615A6922F02A025A61DA689E
:1051B00042F40052DA60256484F83D1084F83E1011
:1051C00038BD0368134A9342CBD0A2F57442934290
:1051D000C7D002F580629342C3D040F271110E48ED
:1051E000FBF7A4FBBDE723F40072B2F5807FB8D0D3
:1051F000B3F5007FB5D040F26D110748FBF796FB81
:10520000AFE7204684F83C20FBF7BCFEB8E701205E
:10521000704700BF0038014000C500082DE9F84381
:105220001D4690F83D30202B68D18846002940D09B
:105230001746002A3DD090F83C300446012B5DD043
:10524000212301224FF0000980F83C20C0F8409053
:1052500080F83D30FCF7DCFEA3680646B3F5805FBE
:10526000A784E7844DD0002384F83C30E38C9BB2C4
:10527000002B58D02368691C1ED11A681206FCD571
:10528000B8F1000F35D018F8012B5A60E28C013AC2
:1052900092B2E284E28C92B2002AECD1681C36D140
:1052A0001A685106FCD5202384F83D300020BDE863
:1052B000F8830120BDE8F8831A681706E0D42DB101
:1052C000FCF7A6FE801B85422368D4D2202100254E
:1052D000DA68032022F4D072DA605A6922F00102FF
:1052E0005A6184F83D1084F83C5084F83E10BDE8C3
:1052F000F88339F8022BC2F30802C6E70220BDE8A2
:10530000F8832369002BAED1C1469846ABE71A68F3
:105310005206C8D4002DD9D0FCF77AFE831B9D42DB
:105320002368BBD2D2E72368B8E700BF90F83E30CD
:10533000202B3FD100293BD0002A39D0F0B590F87E
:105340003C300446012B83B036D000254FF0010ECF
:105350004FF0220C81628285194F806B194E2563B4
:1053600084F83CE02564134684F83EC00A46216870
:10537000C0E90A76144E043145630663FDF716FE54
:105380002846236801951A6801925A6884F83C50AF
:105390000192019ADA6842F48072DA605A6942F046
:1053A00001025A615A6942F040025A6103B0F0BDED
:1053B0000120704702207047022003B0F0BD00BFFB
:1053C00011550008F55400086554000810B503682D
:1053D0000446596990F83D20212A06D0596994F86D
:1053E0003E20222A18D0002010BD0906F6D55A69A1
:1053F000406B22F080025A6110B1FDF72FFE236846
:105400002021DA6822F0C002DA6084F83D10596980
:1054100094F83E20222AE6D14A06E4D55A69A06BC8
:1054200022F040025A6110B1FDF718FE2368DA68D5
:1054300022F49072DA605A6922F001025A61226BFA
:10544000012A03D1DA6822F01002DA602022002358
:1054500084F83E200020236310BD00BF704700BFCA
:10546000704700BF08B5406A0368596990F83D204D
:10547000212A0BD0596990F83E20222A16D0036CBD
:1054800043F010030364FFF7EBFF08BD0906F1D5F5
:1054900000222021C284DA6822F0C002DA6080F89B
:1054A0003D10596990F83E20222AE8D14A06E6D5F7
:1054B0000022C285DA6822F49072DA605A6922F01A
:1054C00001025A61026B012A03D1DA6822F010024C
:1054D000DA602022002380F83E200363CFE700BF7C
:1054E00008B50023406AC385C384FFF7B9FF08BD30
:1054F000704700BF406A08B5036B012B02D0FFF76D
:10550000ADFF08BD818D4908FFF7F2FF08BD00BF60
:1055100008B50368406A1B6813F0200313D12021EB
:105520000268C385D36823F48073D360536923F082
:1055300001035361536923F04003536180F83E1027
:10554000036B012B09D0036B012B02D003F098F9F8
:1055500008BD818DFFF7CCFF08BDD36823F0100391
:10556000D360F0E78368B3F5805F3BD0826A002B9D
:1055700030D003685B6803F07F031370836A0133E4
:105580008362C38D013B9BB2C38553BB4FF0200C9C
:10559000026800B5D16883B021F02001D160D168E4
:1055A00021F48071D160516921F00101516180F8CD
:1055B0003EC0016B012920D10363D16821F01001A5
:1055C000D1601168C90622D4818DFFF791FF03B025
:1055D0005DF804FB0369002BCBD103685B68137093
:1055E000CCE7704703696BB90268836A5268C2F3FB
:1055F000080223F8022B8362C3E703F041F903B0EA
:105600005DF804FB0368826A5B681370B6E7019378
:105610001368019353680193019BD5E730B5036884
:1056200004461A6883B012F00F0FD9685D694ED135
:10563000950602D58D0600F19080206B01280BD0D5
:10564000100602D50D0600F19280500602D54A06DA
:1056500000F1AB8003B030BDD006F1D5CD06EFD55B
:10566000002101911A6801925A680192019A5A69BF
:1056700012F0400200F0D280A06B0268526892B231
:10568000002AE7D0A58D9542E4D9E2858269202AD7
:1056900016D0DA6822F48072DA605A6922F00102C8
:1056A0005A615A6922F040025A61202284F83E2051
:1056B0002163DA6822F01002DA60FDF7CFFCA58DD5
:1056C000E18D2046691A89B2FFF712FFC2E705F0A3
:1056D000010501F490702843AFD0D00705D5C80567
:1056E00003D5206C40F001002064500730D54DB147
:1056F000206C40F002002064900703D5206C40F03D
:1057000004002064100707D501F02000284303D0CF
:10571000206C40F008002064206C00289AD090068D
:1057200009D58A0607D594F83E20222A03D12046BF
:10573000FFF718FF23685A69256C02F0400205F054
:10574000080515433CD12046FFF78AFE256481E712
:105750009007D7D5002DD1D1D4E790F83E30222B39
:105760007FF478AF03B0BDE83040FFF7FBBE94F89C
:105770003D20212A7FF46EAFA268B2F5805F6ED023
:10578000226A511C216212785A60E28C013A92B26C
:10579000E284002A7FF45EAFDA6822F08002DA60E9
:1057A000DA6842F04002DA6054E72021DA682046E5
:1057B00022F04002DA6084F83D1003F049F849E72E
:1057C000DA6822F49072DA605A6922F001025A61B2
:1057D000226B012A03D1DA6822F01002DA6000227B
:1057E000202184F83E1022635A69550612D55A6961
:1057F000A06B22F040025A6160B11E4B4363FDF77B
:105800004FFC00283FF426AFA06B436B03B0BDE80C
:10581000304018472046FFF723FE1BE7E08DE18D5F
:1058200080B289B200293FF415AFA18D081A81B268
:1058300000293FF40FAF2025D86820F49070D8607D
:10584000586920F00100586184F83E502263DA68FC
:10585000204622F01002DA60FFF74AFEFAE62269DB
:10586000002A8DD1226A32F8021BC1F30801596067
:1058700022628AE7E154000890F83D2090F83E004B
:105880001043704700283AD02DE9F04111F07F47CE
:105890000C4608D04FF0500383F31188BFF36F8F8D
:1058A000BFF34F8FFEE7064601F028FA33683569EB
:1058B00006F10C082343A84533600AD11AE02342BD
:1058C00005D0D30148BF274301F0AAFD3368A8459E
:1058D0000ED0284602686D6812F0806F43F00071A8
:1058E00022F07F44EBD034EA030CEAD0A845F0D193
:1058F00023EA07033360BDE8F04101F051BB4FF0EC
:10590000500383F31188BFF36F8FBFF34F8FFEE710
:1059100078B1202310B582B00193019B202B11D0C8
:105920004FF0500383F31188BFF36F8FBFF34F8F96
:10593000FEE74FF0500383F31188BFF36F8FBFF37F
:105940004F8FFEE70023044640F8043B00F0F2F8D6
:1059500001232046237702B010BD00BF38B52020B8
:1059600002F0E0FC044628B1002540F8045B00F09A
:10597000E1F82577204638BD2DE9F843B0B111F0A4
:105980007F480C4609D1D1B94FF0500383F31188F9
:10599000BFF36F8FBFF34F8FFEE74FF0500383F3DA
:1059A0001188BFF36F8FBFF34F8FFEE74FF05003A7
:1059B00083F31188BFF36F8FBFF34F8FFEE7074666
:1059C00016461D4601F0C8FD10B9089B002B3CD1BE
:1059D00001F094F9D7F800906DB334EA09032DD0A3
:1059E000089B002B3AD0002E16BF4FF080784FF066
:1059F00080614FF0A061002D08BF41461A46381D56
:105A0000214301F027FC01F0CBFA48B94FF0E02325
:105A10004FF08052C3F8042DBFF34F8FBFF36F8F49
:105A200001F0EEFD10F0007F81461AD029F07F4989
:105A30004846BDE8F88314EA090FD1D076B129EAC7
:105A400004043C6001F0ACFAF2E74FF0500383F33A
:105A50001188BFF36F8FBFF34F8FFEE701F0A0FAFD
:105A6000E6E702F0C7FDD7F800904DB914EA090F38
:105A700003D016B129EA04043C6002F0DDFDD5E74D
:105A800034EA0903F9D1F4E700283BD02DE9F041CD
:105A900011F07F470C4608D04FF0500383F3118874
:105AA000BFF36F8FBFF34F8FFEE7064601F026F975
:105AB0003368356906F10C082343A84533600AD1E1
:105AC0001AE0234205D0D30148BF274301F0A8FCC8
:105AD0003368A8450ED0284602686D6812F0806FC2
