:020000040800F2
:1000000030070020E97800088D7200088F72000820
:1000100091720008937200089572000800000000B9
:1000200000000000000000000000000097720008BF
:1000300099720008000000009B7200089D72000881
:1000400013790008177900081B790008A1720008CD
:100050001F79000823790008BB720008277900087F
:100060002B7900082F7900083379000837790008C8
:100070003B7900083F790008C1720008C772000888
:1000800043790008477900084B7900084F79000848
:1000900053790008577900085B7900085F790008F8
:1000A00063790008677900086B7900086F790008A8
:1000B0007379000877790008CD7200087B79000811
:1000C0007F79000883790008877900088B79000818
:1000D0008F790008DD72000893790008977900088D
:1000E0009B7900089F790008A37900082DE9F04F5B
:1000F0000FF2A41CA1B0DCE90089CDE900892A9D9A
:10010000DFF8DC9B049100248DF843500D944FF0F0
:10011000FF38824616461F460FE0B3462C461BF8B2
:10012000011B0498D0470028049000F0A2800D988D
:10013000401C641E0D90F2D176193078252808D124
:10014000002100220791089209910A920B910C92CA
:100150000DE06A464146304600F0DAFF050001D165
:100160000D98A1E0D9D50125E6E741F0010116F887
:10017000010F2028F9D023280CD02B2804D02D28BB
:1001800005D0302809D076E041F00201EFE741F0D8
:100190000401ECE741F00801E9E741F01001E6E76E
:1001A0000F9209E00F98484505DA00EB800402EB56
:1001B0004402303A0F92761C3278A2F130000A28BD
:1001C000F0D330782E2818BFCDF8388022D116F819
:1001D000010F2A2807D138683860761C50F8042BA4
:1001E00038600E9216E02D280CBF761C00200022ED
:1001F0000E920AE040B90E9A4A4505DA02EB8204F3
:1002000003EB4403303B0E93761C3378A3F13002AA
:100210000A2AEFD3ADF8401021A0317800F082FF18
:1002200008B116F8010B8DF842009DF842006828CD
:1002300004D1307868280AD1622105E06C2804BF17
:1002400030786C2803D171218DF84210761C12A8E9
:1002500006903A4616F8013B02A9504600F064F8B1
:1002600038B912AA02A9504600F0C8F900287FF553
:1002700064AF404618E02A2892D13A683A6052F8B2
:10028000040B3A6000280F9003D540420F9041F0D4
:100290000401761C95E7000000000000000000004B
:1002A000686A6C747A4C000021B0BDE8F08F622857
:1002B00020D0682811D06A2803D06C2827D0712854
:1002C00025D10868C01D20F007000860D0E9002390
:1002D00008300860194610467047002A0A680A600C
:1002E000106803D0121D0A6000B217E0121D0A60E8
:1002F00080B217E0002A0A680A60106803D0121D55
:100300000A6040B20AE0121D0A60C0B20AE0002A88
:100310000A680A60106803D0121D0A60C11770478E
:10032000121D0A60002170477CB50D4611461C461F
:100330002E69B4F1250200F04F811C3A00F0848050
:10034000121F022A40F280800E3A00F00981521FEB
:1003500059D0093A78D0921E16D0521E35D0521E6E
:10036000022A71D9121F30D0521F00F09880521EFD
:1003700049D0521E00F0E280D21E00F0FF80921E93
:1003800041D0D21E3FD02DE195F83A406C2C09D0D7
:100390006869421C6A610A680A6052F8043B0A6094
:1003A000335429E10A680A6052F8043B0A6000935A
:1003B000002201924FF0FF332B636A46294600F07A
:1003C00098F9002840F1188103E195F83A000122DC
:1003D000FFF76DFFC5E90001002904D56869411CDC
:1003E00069612D220DE0288F810704D56869411CC1
:1003F00069612B2205E0C00721D56869411C69614C
:10040000202232541BE095F83A000022FFF74FFFFC
:10041000C5E9000195F83800010710D5D5E900239A
:10042000002B08BF002A0AD044F02000782806D10B
:10043000686930213154401C421C6A6134542146A1
:1004400068693044E86087E00868C01D20F0070054
:100450000860D0E9002308300860C5E90023D5E929
:100460000001C80F04D06869411C69612D220DE0AC
:10047000288F810704D56869411C69612B2205E03A
:10048000C00704D56869411C69612022325468693B
:100490003044E8602146284600F036FAACE005F129
:1004A0003A02507820B14FF0FF340FF6043074E078
:1004B0001078622808D0682824D06A2812D06C28C6
:1004C0002ED071280ED02BE00A680A6052F8040B77
:1004D0000A6020B94FF0FF340FF6EC205DE0E96AC6
:1004E000017089E00A680A6052F8040B0A6020B9BA
:1004F0004FF0FF340FF6D0204FE0EA6AD317C0E97F
:10050000002379E00A680A6052F8040B0A6020B9F7
:100510004FF0FF340FF6B0203FE0E96A01806BE056
:100520000A680A6052F8040B0A6020B94FF0FF34E1
:100530000FF6942031E0E96A01605DE00A680A6024
:1005400052F8040B0A60002120F0000221F0FF3372
:10055000C5E90023EE607821284600F02DF94BE034
:100560006C2285F83A200B680B6053F8042B0B6063
:1005700052BB4FF0FF340FF684200EE095F83A207E
:100580006C2AF0D00868086050F8044B0860EC60F2
:100590003CB94FF0FF340FF6482000F0EBFD201A75
:1005A00076BD2E6B002E04D5204600F003FE0446D7
:1005B00008E032460021204600F026FE002814BF45
:1005C000041B3446AC6117E0294600F092F800287D
:1005D00012D54FF0FF3076BD6869411C6961252254
:1005E000325409E06969481C68612522725421006F
:1005F00002D0431C6B613454002076BD2DE9F041DC
:100600000E4605469046726B7069316AB46A121ADA
:10061000B069521A716A121AF069521A121A96F8CF
:100620003800141B41070DD4002C0BDD2746B068A1
:100630002021A8470028B06057D0F06A401C7F1ED8
:10064000F062F4D1736942463146284600F098FCC6
:1006500000284AD1376A002F0ADDB0683021A84748
:100660000028B06041D0F06A401C7F1EF062F4D1D7
:10067000B369F2683146284600F082FCA8BB776A6D
:10068000002F09DDB0683021A847B06068B3F06A78
:10069000401C7F1EF062F5D1F068B169F369421821
:1006A0003146284600F06CFCF8B9B76A002F09DD26
:1006B000B0683021A847B060B8B1F06A401C7F1E16
:1006C000F062F5D196F8380041070BD5002C09DD12
:1006D000B0682021A847B06038B1F06A401C641EA1
:1006E000F062F5D10020BDE8F0814FF0FF30BDE8A9
:1006F000F0812DE9F8470D46A3B02F6B002F064679
:10070000904648BF6FF000470FF60C1400F0A8FDAC
:10071000D4E90023696B4018CDE90123812828BF63
:100720004FF0FF3042D20024002F33DDD8F8001004
:1007300001AA684600F0EEFC8146B9F1000F38D4FA
:10074000D8F8000010B9B9F1010932D44F4521DBC6
:100750006869484481280AD30021696303AA2946AD
:100760003046FFF74BFF040014D40020686103AB50
:10077000D5F814A04A46694603EB0A0000F076FD5E
:10078000CA44C5F814A058F8040B002818BFA7EBFA
:100790000907C9D14CB903AA29463046FFF72EFFF5
:1007A000044614B9002068616863204624B0BDE89F
:1007B000F0874FF0FF34F8E72DE9FC4307466F2937
:1007C0003E6908BF082405D041F02000782814BFF6
:1007D0000A2410243C25D7E90023642918BF69297D
:1007E0009046994605D1002B03D5D8F1000869EB56
:1007F0004909B9F1000F08BFB8F1000F1FD1386BDC
:10080000E8B9082C4CD197F83800010748D53020BA
:100810003B2586F83B0043E000280ED597F83800CA
:1008200000F01400102808D17B6B7969386A5B1AD4
:100830001B1A9A1A002AC8BF3A62BDE8F3838DF8E2
:100840000010404649462246E31700F063FD30326F
:10085000D0B26D1E3A28019504DB9DF80000A0F18E
:1008600051018A187255404649462246E31700F066
:1008700051FD80465FEA010908BFB8F1000F03D0BF
:10088000F86871198842DCD3082C09D197F8380030
:10089000010705D5705D302802D06D1E30207055DF
:1008A000C5F13C02BA617119F960386B8242B3DA62
:1008B000821A3A624FF6EF70398F01403987BDE8EE
:1008C000F3832DE9D04306460F4614464FF0000847
:1008D000DFF8109412E0E00707D542464B46304659
:1008E000394600F02FFE06460F464046494642462E
:1008F0004B4600F027FE641080468946002CEAD162
:1009000030463946BDE8D0832DE9F84F05468A4682
:100910004AF020048EB0D5E90089612C02AE09D0DE
:10092000286B002848BF062003D408BF672C01D1DC
:1009300001202863D5E900014A005215521C0DD14F
:100940000B030BD0AAF1610103201A29A86102D27E
:100950000FF2CC6110E00FF2CC610DE04A005215AD
:10096000521C0ED10B030CD1AAF1610103201A29EC
:10097000A86116D30FF2B461E868032200F076FC98
:10098000C0E1CDE90C01DDE90C2323F00043B3F510
:10099000801F0DD20027002B08BF002A019703D12A
:1009A00011E00FF28461E7E701AA00F09DFE0AE082
:1009B000CD48CE4900EB1350DDE90C2301900B40EC
:1009C000CB4910461943C5E90001612C0DD1E868F7
:1009D00030210170821CBAF1610FEA600CBF7821EE
:1009E000582141706869801C6861D5E90001CDE932
:1009F0000C01DDE90C2333F0004104BF0028002383
:100A000000F04881612C40F0A080286B4946002806
:100A10004CBF4FF0210B00F1010B40460022002398
:100A2000DDE90C8900F098FE01990BF1010738BF50
:100A300089F00049091F002F01918DF808200DF160
:100A4000090040F33581A9490091064640464946D0
:100A50000022002300F098FE80F029814800400D1C
:100A600000F11C0211D0002A0FDD40F2FF739A4200
:100A700005DBA04909F000400143002011E0009B84
:100A8000194041EA025140460BE028F0000039F0DD
:100A9000004108BF00280FBF49461C22494600F00C
:100AA0008BFE8046894600F025FFFF1F002F04467D
:100AB00009DD00F03DFF02460B464046494600F086
:100AC00049FF80468946F01D072104E004F00F022B
:100AD00000F8012D2411002C01DD491EF6D5491E18
:100AE0005CBF002200F8012DF9D5DCE0002019469A
:100AF00002AA0A4400E05B1E12F80149491E844222
:100B0000F9D00F2804D10DF10900425C521C425467
:100B1000002904D50198001D02AE5B1C0190581EEF
:100B20000CD43118AAF13A040A783032D7B23A2FED
:100B3000A8BFA218401E01F80129F5D5286B00288E
:100B400040F1A780591E2963A3E001996A4A47F240
:100B50009750414391FBF2F2019229F00046D2F105
:100B6000070204DD40463146FFF7ABFE0AE0524281
:100B700000206249FFF7A5FE02460B46404631467B
:100B800000F05AFF8046662C286B06BF019F0A378B
:100B900006273F18142FC8BF142730208DF80800EF
:100BA00089460DF1090000E03046002F34DD06468D
:100BB0004046494601F064F801460A4606F108033A
:100BC00004200A26B2FBF6F606EB860EA2EB4E02D6
:100BD000303203F8012C0A22B6FBF2F202EB820E4D
:100BE000A6EB4E063036401E03F8026DE9D1083FF1
:100BF000002F03F10806D7DD084601F055F802463C
:100C00000B464046494600F0A5FE00223C4B00F052
:100C100099FC80468946CBE70DF10901401A0DF198
:100C2000090604E00199491E401E0191761C3178A5
:100C30003029F7D0662C02D10199491C03E0652CBC
:100C40000CBF012100212B6BCB189842B8BF431E6B
:100C5000002B1ED4834204DAF05C3528A8BF39206B
:100C600000DA30201946721E02EB010800E05B1E1C
:100C700018F80199491E8145F9D0392802D1705CD4
:100C8000401C7054002904D50198401C16465B1C7A
:100C90000190019800B200901BB23246514628469E
:100CA00000F034F82EE0C61D002F3FF7CFAE3046DF
:100CB0000DF10901401A03465845C8BF5B46002B99
:100CC0000DF109063FF53AAF8342BFF60FAF0DF1C4
:100CD0000900C15C07297FF709AF0F2007E7000073
:100CE000CBCCCC0C0000244002FCFFFFFFFF0F80A8
:100CF0000000E03F0000F07FA08601000000F03F10
:100D000084D797410FB0BDE8F08F00002DE9F84778
:100D100083B006468A461746984600F0FDF9B8F1BA
:100D2000000F406A356B90F8009002DC4FF001082C
:100D3000BFA74AF02000BDF93040662808BF641CF8
:100D400015D0672840F0848014F1040FC0F286802B
:100D5000AC4280F2838096F83800641C010702D40C
:100D6000A845B8BF454620B22D1A48BF00250FFA46
:100D700084FAF068B169BAF1000F25DC4A1C30230F
:100D80004354002D03DC96F83800010703D5F068C2
:100D900000F80290521C15EB0A0FB8BF6C4220B24B
:100DA000441941424445B8BFA046B26171620FFA8E
:100DB00088F5F561F068B3692A463946184400F0B1
:100DC00055FA641BB462C4E022B29045084417DAB5
:100DD0004246394600F04AFAB0694044B061AAEB95
:100DE0000801002D716203DC96F838100A0705D55A
:100DF000F16801F80090F069401CF061B562A8E06C
:100E0000394600F033FAB069002D5044A8EB0408CD
:100E100003DC96F838100A0703D5F16801F8009052
:100E2000401CB0610FFA88F08542F368B069B8BF22
:100E3000A8460FFA88F207EB0A01184400F016FAE8
:100E4000B1690FFA88F00144B161281A706280E03C
:100E5000BAF1610F14D14FF0700A16E0A84504DA18
:100E600096F838100A0758BF45466D1E48BF002542
:100E7000BAF1670F14BF4FF0450A4FF0650A04E05E
:100E8000BAF1410F08BF4FF0500AB169F368481C2E
:100E9000B061002D17F8012B5A5403DC96F8381076
:100EA0000A071BD5F168431CB36101F80090002DBF
:100EB00014DDA8F101080FFA88F039468542F76879
:100EC000B8BFA8460FFA88F2F81800F0CFF9B06959
:100ED0000FFA88F108446D1AB0617562F068B16963
:100EE0000844002C80F800A003D42B224270811CFF
:100EF00003E02D2141706442811C00206A460AE013
:100F000023460A2493FBF4F404EB8405A3EB450386
:100F100002F8013B401C24B2002CF1DC012806DC65
:100F20004AF02002652A04BF302201F8012B48B99B
:100F3000302001F8010B07E0401E1DF8003030336F
:100F400001F8013B0028F7DCF268B0691044091A87
:100F5000F16196F8380000F0140010280DD1726984
:100F6000B169706A8A18F1698218B06A8A188218A1
:100F7000706B8242BCBF821A326204B0BDE8F08757
:100F8000F8B505460E4617461C46002074B117F802
:100F9000011BB068A847B06030B1F06A401CF06235
:100FA0000020641EF3D1F2BD4FF0FF30F2BD00000F
:100FB0007072696E74665F733A20256E206469737F
:100FC000616C6C6F776564007072696E74663A204C
:100FD00062616420256E20617267756D656E7400B4
:100FE0007072696E74665F733A2062616420257363
:100FF00020617267756D656E740000007072696EB5
:1010000074665F733A2062616420256C732061729C
:1010100067756D656E740000000000000000000040
:101020006E616E004E414E00696E6600494E46008C
:101030003000F0B40246106895681318506803EB4E
:101040005004C0071DD54D441BE013F8017B05F883
:10105000017B491EF9D1A0B1B60813F8011B06F0B7
:101060000306032E08BF13F8016B01EB062149426A
:10107000801C294405D011F8016B05F8016B401E56
:10108000F9D1A3420ED013F8016B16F0030104BF8F
:1010900013F8011BC91C30090F28DAD113F8010B12
:1010A0000F30D6E7F0BC02F10C0070471B487047C8
:1010B00070B45368D418042B09DA41B1057804F8E8
:1010C000015B10F8016B16B15B1C491EF3E753601E
:1010D00070BC704738B514461D4661B1FFF7E8FF94
:1010E00061686A6B204690476FF00102811A02D056
:1010F000491E01D001E003E005E00021616032BD3E
:101100006FF0010032BD4FF0FF3032BDDA6B104797
:10111000024BDFE7014BF9E7014870474800002028
:1011200010000020C9B202788A421AB11CBF10F820
:10113000012FF9E718BF0020704730B4002513E0F5
:1011400050F8042BD30744BFA9F101039A18091FD3
:10115000042942F8045BFAD213468C0744BF158079
:101160009B1CC90748BF1D7050F8041B0029E7D11C
:1011700030BC704780B500B906A005490B681BB1AB
:1011800022220021984701E000F09BFD222002BDB1
:1011900024030020636F6E73747261696E7420683B
:1011A000616E646C65723A20626164206D65737370
:1011B0006167650000F10103810704D010F8011B8D
:1011C000820781B1FAD10268A2F10131914311F095
:1011D000803104BF50F8042FF6E709BAB1FA81F163
:1011E00000EBD100401CC01A7047B1F5807F02D3DC
:1011F0004FF0FF3070470170012070470078401EAB
:101200008041C043C00F7047C9B2830706D0521E49
:1012100022D310F8013B9942F7D11FE0083A13D3CB
:1012200002F1040241EA012141EA014150F8043B84
:10123000121F21BF4B40A3F1013C2CEA030C1CF010
:10124000803FF3D0C9B2001F083210F8013B521E94
:1012500028BF91EA030FF8D818BF0120401E70473D
:1012600080B5FFF723FF006C02BD000062B38B075F
:1012700008D0521E11F8013B00F8013B00F0248019
:101280008B07F6D1830740F0208000BF103A07D3C8
:1012900030B4B1E83810103AA0E83810F9D230BCB8
:1012A000530724BFB1E80810A0E8081044BF51F864
:1012B000043B40F8043BD20724BF31F8022B20F84E
:1012C000022B44BF0B7803707047121F17D35B00CB
:1012D00009D151F8043B20F8023B1B0C121F20F8E7
:1012E000023BF6D20BE051F8043B00F8013B1B0A2D
:1012F00020F8023B1B0C121F00F8013BF3D238BF51
:10130000121D521E24BF11F8013B00F8013BF8D812
:1013100070470000BBBBE1B1B2F5803F80F07E803A
:10132000022A1ED98C46B1FBF2F102FB11C31B0449
:1013300043EA1043B3FBF2FC02FB1C3380B240EAE9
:101340000343B3FBF2F002FB103240EA0C400023EF
:101350007047022A05D98446B0FBF2F002FB10C2A6
:1013600070474AB105D100F0010249085FEA300038
:10137000704700220023704700F0A6BC0B0002005B
:10138000002100207047904271EB030CF6D3B3F5B7
:10139000803F2FD2F0B5B3FA83F7B1FA81F4A7F109
:1013A0000F0E3D1B5340CEF1200602FA0EF2F34120
:1013B0005340B5F10F0746D80F3C2C444140C4F1CF
:1013C0002006A040F1414140B1FBF3F603FB1611AA
:1013D000A2FB0645001BA94102D2761E8018594186
:1013E00080EA010221FA0EF362FA0EF200215A405D
:1013F0003046F0BD30B4B1FBF3FC03FB1C11A2FB83
:101400000C45001BA94103D2ACF1010C80185941D5
:1014100030BC02460B46604600217047B2F1807F27
:1014200065D3F0B5B2FA82F7B1FA81F4C7F10F06CD
:101430003D1B22FA06F307F1110EF24120355A4006
:10144000B5F10F07B8D94140C4F12006A040F141E1
:101450004140B1FBF3FC03FB1C11A2FB0C45001B3C
:10146000A94103D2BCF1010C801859410F2F12D3AE
:101470000F3FC90341EA5041B1FBF3F603FB1611DC
:10148000A2FB0645D4EBC030A94102D2761E8018DB
:10149000594146EACC3C07B34140C7F12006B84069
:1014A000F1414140B1FBF3F603FB1611A2FB0645E7
:1014B000001BA94102D2761E8018594180EA010220
:1014C00021FA0EF3C7F1200462FA0EF20CFA07F0CB
:1014D0005A402CFA04F13043F0BD80EA010221FAAF
:1014E0000EF3002162FA0EF260465A40F0BD8C46BF
:1014F000B1FBF2F102FB11C31B0243EA1063B3FB21
:10150000F2FC02FB1C331B024CEA002043EA10638E
:10151000B3FBF2FC02FB1C331B024CEA002043EA43
:101520001063B3FBF2FC02FB1C331B024CEA0020ED
:1015300043EA1063B3FBF2FC02FB1C324CEA0020CE
:1015400000237047B0B581EA030C0CF0004C40F268
:10155000FF7515EA11541DBF15EA1357AC42AF428F
:1015600039E0E41923EA455343F48013C90241F0FA
:10157000004141EA505EC7021100A7FB02020028A9
:101580004FF00000EEFB01204FF00001E3FB0721CC
:1015900018BF42F00102401800214941E3FB0E014F
:1015A000A4F580640F0302D252004041494154F136
:1015B00001046CDD470872F1004250F1000051EB6C
:1015C0000451A1F580115CBF41EA0C01B0BD4CEAA9
:1015D00005510020B0BD05EA1357AC4214BFAF421D
:1015E00041E050EA410E1CBF52EA430E02E0614660
:1015F0000020B0BD24423C441BD15FEA070EF6D068
:10160000090302BF01460020AEF1140EB1FA81F7C2
:10161000AEEB070401FA07FE0C37C7F1200100FA10
:1016200007F7C8404EEA000E23EA455343F48013FF
:10163000A2E733F00043B3FA83F704BFB2FA82FEA5
:1016400077440B3FE41BB7F1200E2FBF02FA0EF3D5
:10165000BB40C7F1200E22FA0EFE38BF43EA0E034C
:10166000BA40641C82E750EA410E14BF52EA430EAE
:101670006FF000014FF4001717EB430F8ABF1946B4
:1016800017EB410FB5E74CEA05510020B0BDD4F18E
:101690000104B4F120070FDAC4F12007520828BF73
:1016A00042F0010210FA07F501FA07F7E1BF2A43F9
:1016B000E0403843E1400FE0352C98DCC7F12004CE
:1016C00052EA400220FA07F218BF42F0010231FA52
:1016D00007F0A1400A43002172F1004250F10000DE
:1016E00051EB0C01B0BD000010B5144600F002F83B
:1016F000226010BDC1F30A5343B14A0012F5001F26
:1017000028D2A3F2FE32A1EB0251704750EA410CFD
:1017100020D001F0004C31EA0C01B1FA81F204BF93
:10172000B0FA80F3D2180B3AB2F120032CBF00FAC2
:1017300003F1914041EA0C013EBFC2F1200C20FAB6
:101740000CF319439040524240F2FD33D21A01EBA0
:1017500003517047002270474FF4001C1CEB410FEF
:1017600094BF1CEB430F09E041EA030C50EA4C0C18
:1017700052EA0C0C03D2994208BF9042704714BF42
:101780008B428242704700004FF4001C1CEB410F5B
:1017900094BF1CEB430F09E041EA030C50EA4C0CE8
:1017A00052EA0C0C03D28B4208BF8242704714BF2E
:1017B0009942904270470000124254D440F2FF7C9C
:1017C0001CEA11530FD0634531D09B1863453CBFD1
:1017D00001EB0251704701F0004141EA0C51002039
:1017E000AFF30080704750EA410320D001F0004C75
:1017F00091EA0C011CD0B1FA81F30B3B9A420DD94E
:10180000D21A994051EA0C01C3F1200C20FA0CFCC9
:1018100061449840531C40F2FF7CD7E7914041EA75
:101820000C01C2F1200C20FA0CF3194390407047D0
:10183000B0FA80F31533202BE0D3202AEED3203AE0
:10184000203B9A4209D9D21A00FA03F141EA0C016D
:101850000020531C40F2FF7CB8E700FA02F141EA95
:101860000C0100207047524240F2FF7C1CEA1153E9
:101870000DD06345DBD0B2EB030C3CBFA1EB0251B2
:1018800070470CF1010221EA035141F4801150EA42
:10189000410CCCD001F0004C352A27DC30B481EA71
:1018A0000C01B2F1200309DAC2F12003044601FA67
:1018B00003F5D0402843D1409C400CE0C3F1200206
:1018C000450020FA03F418BF44F0010421FA03F0A4
:1018D00091400C43002174F1004550F1000051EBA0
:1018E0000C01244230BC7FF47BAF7047614600207E
:1018F00076E70000C1F30A5340F2FE329B1A14DD72
:10190000D3F120034FEAE17208DDC90241EA5051E8
:1019100041F00040D84080185040704703F2E13059
:1019200010B1D24382F000407047002070470000A1
:10193000C11768B14840401AB0FA80F29040D21CFA
:10194000C907C2F5846241EA025202EBD021400588
:101950007047000070B44FF0004591EA030F40F16A
:10196000BD816B40841A71EB030603D2001BB141A9
:10197000121973414FF4001C1CEB410F34BF7CEB78
:10198000430442E00C0DA4EB1356352E4FDC45EA20
:10199000C323DB0A45EAC121C912B6F120050DDDDA
:1019A00063FA05F6EB4086EA0305124218BF45F0DC
:1019B0000105C01851F100010CD213E062FA06F5DE
:1019C000F2405540F3415A40B340F3405A4080182A
:1019D000594107D349085FEA30005FEA350528BF5F
:1019E00045F0010501F58011420875F1004250F102
:1019F000000041EB04514E0016F5001F70BC38BFCB
:101A000070470020090D090570471CEB410F10D2EB
:101A100052EA43060BD0BCEB410F05D80C0DAB438B
:101A2000661E342EB6DD02E0AB438018594170BC0F
:101A3000704770BC70470000F0B540F2FF7581EA56
:101A4000030C0CF0004C15EA11541DBF15EA135796
:101A5000AC42AF42E5E0BC41C1F31301C3F3130351
:101A6000801A994143F4801304D2641E4000494116
:101A700080185941C90241EA5051B1FBF3F603FB0A
:101A80001611A2FB0675D7EBC020A94102D2761E23
:101A900080185941C90241EA5051B1FBF3FE03FBE2
:101AA0001E11A2FB0E75D7EBC020A94103D2AEF1E7
:101AB000010E80185941890241EA9051760546EAA3
:101AC0008E2EB1FBF3F603FB1611A2FB0675D7EBC6
:101AD0008020A94102D2761E80185941C90241EAEC
:101AE00050514EEA060EB1FBF3F603FB1611A2FBB2
:101AF0000675D7EBC020A94102D2761E8018594145
:101B0000C90241EA5051B1FBF3F703FB1711A2FBE5
:101B10000735D3EBC020A94167F100070CBF004295
:101B200047F0010766F3D5274FEA1E31B80814F5D0
:101B3000806412DDBD0775F1004250EB0E5051EB91
:101B4000045111F5801F5CBF41EA0C01F0BD4CF05F
:101B50007F6141F0E0410020F0BDBD076D0840EA23
:101B60000E5041F48011D4F10104B4F120060ADAD8
:101B7000C4F120060200E04001FA06F3E1401843F8
:101B8000B24015430EE0342C13DCC6F1200445EAC4
:101B900040056D0820FA06F2154321FA06F0A1402F
:101BA0000D43002175F1004250F1000051EB0C0192
:101BB000F0BD00205FEA0C01F0BDCFB992185B4187
:101BC000B3FA83F704BFB2FA82F6BF190B3FB7F13D
:101BD00020062FBF02FA06F3BB40C7F1200622FA07
:101BE00006F638BF3343BA401CB1E419641E33E72C
:101BF0007F4231F00041B1FA81F404BFB0FA80F6BF
:101C0000A4190B3CB4F120062FBF00FA06F1A14045
:101C1000C4F1200620FA06F638BF3143A0403C1B31
:101C20001AE7AC421ABF05EA1357AF4212E050EA76
:101C300041061CBF52EA4306BFE750EA410730465F
:101C400061461CBF41EA0551F0BD52EA430C08BF92
:101C5000C143F0BD00204FF4001616EB410F98BFB2
:101C600016EB430F08BF16EB410F24BFC14305E03D
:101C700016EB430F0CBF61464CEA0551F0BD000066
:101C8000400D491840EA81200CD2490DA1F5806130
:101C9000491C40F0004005DBD1F11F0154BFC84092
:101CA000C017704700207047014648B1B0FA80F174
:101CB0008840C91CC1F58461090501EBD0214005AC
:101CC0007047012000F0C0B87047000070B44FF0BA
:101CD000004591EA030F7FF545AE6B40841A71EB26
:101CE000030604D26E40001BB141121973414FF438
:101CF000001C1CEB410F34BF7CEB430683E00C0D52
:101D0000A4EB1356362E00F37C80012E45EAC32344
:101D100041DC43EA525312BFD20292025B0824050F
:101D200045EAC12141EA5051D2EBC020994125D466
:101D300007D1B0FA80F610FA06F162D00020203602
:101D400008E0B1FA81F6B140C6F1200220FA02F2B1
:101D50001143B0404FEAF474B4EB465434F001063A
:101D60004FEA74040AD8D6F50016760D04F0004444
:101D7000F04061FA06F25040F1404840C00A40EAA3
:101D8000415021F0004128BF5FEA500550F10000AA
:101D900044EBD12135E0DB0A45EAC121C90AB6F19D
:101DA00020050EDD42EA0242120CC5F1200603FABC
:101DB00006F6EB4042EA06056D42984161F10001EA
:101DC0000DE062FA06F5F240554063FA06FC82EA3D
:101DD0000C02F3405A406D42904161EB030111F453
:101DE000801F05D1641E620502D06D00404149414B
:101DF00021F48011430875F1004350F1000041EBDC
:101E0000045170BC70471CEB410F15D223F0004306
:101E100052EA43060BD04FEA4C0CBCEB410F04D8FE
:101E20000C0D661E342EB7DDEBE7801A994150EA9F
:101E3000410608BF0021E4E708BF1CEB430F28BFA1
:101E40006FF00001DDE7000080B5AFF30080024ACB
:101E500011001820ABBEFBE726000200401E0C2834
:101E600061D8DFE800F0070D13191F242B32394029
:101E7000474E5500DFF8280D415C01F008014DE0A8
:101E8000DFF81C0D415C01F0040147E0DFF8100DA4
:101E9000415C01F0020141E0DFF8040D415C01F01A
:101EA00001013BE0DFF8F80C0844417834E0DFF84A
:101EB000F00C0844417801F040012FE0DFF8E00C1D
:101EC0000844417801F0200128E0DFF8D40C0844F0
:101ED000417801F0100121E0DFF8C40C084441789A
:101EE00001F008011AE0DFF8B80C0844417801F06D
:101EF000040113E0DFF8A80C0844417801F0020166
:101F00000CE0DFF89C0C0844417801F0010105E089
:101F1000DFF88C0C0844817801F08001481E804174
:101F2000C043C00F7047002070470A0007D000224E
:101F3000C30748BF8022491E42EA5000F7D17047CC
:101F40000A0007D00022030648BF0122491E42EAC8
:101F50004000F7D1C0B270472DE9FC470A2491FB3D
:101F6000F4F404EB8407E5B2A1EB470105EB85052A
:101F7000C9B201EB45080A2192FBF1F1CDB205EBA4
:101F8000850401EB8105A2EB45025FFA88F5D2B228
:101F900002EB44070A2200280CBF63356D1E05EBD7
:101FA00045051FFA85FA93FBF2F101EB8104CAB2F1
:101FB000A3EB4403DFF8E84B04EB0A0002EB8202D8
:101FC0008678DBB203EB4209052106F06000FFF7DB
:101FD000ACFF06F01F060128FFB20CBF761E1E36AE
:101FE0000A2FF6B25FFA89F90BDA0FF6E4303844BB
:101FF000022F10F8011C8944A9F1010189B215DDF5
:1020000009E00FF6D83000EB470131F8142C914469
:10201000A9F1010189B25FFA88F0430800EB9372DD
:102020009208B0EB820004BF491C89B2B1422FDB99
:102030008E1BB6B20096A9B20120FFF70FFF002752
:10204000002814F80A000CBF1D261E26042100F0EB
:10205000F000FFF76AFF82463046009E4FF001090C
:10206000012486424EDB301A86B2E0B2504509F1B7
:10207000010902D1FF43F8B200B9641CA9B25FFAAA
:1020800089F0FFF7EBFE002814BF1E201D20E8E7B3
:102090005FFA88F0761A00280CBF4FF06308A8F1A9
:1020A0000108ED1EA8B20421205C00F0F000FFF74B
:1020B0003CFF5FEA000A0CBF0C270D27A9B2384687
:1020C000FFF7CCFE002814BF1E201D20F6B24FF0F3
:1020D00000090C24B04214DA301AC6B27F1E5FFA2F
:1020E00089F000B9641EE0B2504508BF6FEA0909E3
:1020F000A9B2F8B2FFF7B2FE002814BF1E201D20BF
:10210000E8E7861B5FFA88F70A2097FBF0FA0421BC
:102110005FFA8AF0FFF714FF0AEB8A01DFF8845AAE
:10212000A7EB41010843A876E4B20A2094FBF0FA39
:1021300004215FFA8AF0FFF703FF0AEB8A01A4EBA0
:1021400041042043E876761CF6B20A2096FBF0F4B0
:102150000421E0B2FFF7F4FE04EB8401A6EB410694
:1021600030432877BDE8F38720B5C188C37842792A
:102170006425B1FBF5F5ADB2642000FB1511C9B2C1
:102180000020FFF7E9FEDFF81C0A817EC1F302128E
:1021900001F00F0141760276C17EC1F3021201F017
:1021A0000F01C1758275017FC1F3021201F00F01A9
:1021B0000275417520BD2DE9F047DFF8EC29517D0E
:1021C00009B90A235375D47C137D567CD77DDFF87B
:1021D000DC1901EB031801EB041303EB0009937CFA
:1021E000547D01EB031A937D01EB061C01EB0717ED
:1021F00001EB031EDFF8AC391D78042E804401EB9F
:1022000004116DDB095C14780C4314700D431D70D0
:10221000DFF89C492578294321701EF80050567834
:1022200056EA550656705E7856EA55065E709E78F8
:1022300046EAC5169E70667856EA55016170395CAB
:10224000967841EAC515354395701EF800103E5C3E
:10225000A57846EAC1110D43A5701CF80010D57889
:102260000D43D570DD780D43DD70E5782943E170CD
:102270001AF80060157955EA560515711D7955EA69
:1022800056051D715D7945EAC6155D71257955EADA
:1022900056012171395C557941EAC61129435171C2
:1022A0001AF80010385C657940EAC1102843607163
:1022B000917999F8D001014391719979014399710C
:1022C000A1790843A071D17998F8D0010143D17167
:1022D000DA790243DA71E1790843E071BDE8F08709
:1022E0009478095C022E35DB0D431D701EF80060EA
:1022F0005D7845EA56055D70395C0C4394701EF8B4
:1023000000103D5C9C7845EAC1110C439C701CF8A0
:102310000010DC780C43DC701AF800101C7944EAD9
:10232000510119715479395C214351711AF8001027
:10233000385C5A7940EAC11002435A71997999F888
:10234000D0010143997198F8D001D9790143D9712D
:10235000BDE8F08716780E4316700D431D701EF809
:1023600000E0557845EA5E05557044EACE145E7883
:1023700046EA5E0159709470395C9C7841EACE114E
:1023800021439970D4781CF800100C43D470DC7889
:102390002143D97014791AF8001044EA51041471D9
:1023A0001C7944EA51041C71547944EAC1145471F3
:1023B000385C5C7940EAC1112143597199F8D00128
:1023C000917901439171997908439871D17998F87D
:1023D000D0010143D171DA791043D871BDE8F0879B
:1023E0002DE9F00FDFF8C017DFF8C8C70A7EDFF865
:1023F000C8470346487F03EBC005087F03EBC000D6
:1024000083B014F80090665D0CEB0300C0300290BE
:10241000750190F8108091F811A0E75CE01890F831
:1024200010B0F8018DF805007808DFF878778DF89E
:102430000400BAF1020F97F808A0887ECDF800A03A
:102440009DF804A04AEA0B1ADDF800B04AEA0B0A2C
:1024500087F808A09DF805B097F809A04BEA89090C
:1024600049EAD60646EA0A067E7257DB3E7A0E72C3
:102470007E7A4E728E7A2E438E7245EA9805BE7A27
:102480003543BD72FD7A45EA8816FE7208B90B2005
:102490008876887E03EBC005605D46EA4005FD72E4
:1024A000CD7A029E45EA4000C872C87E03EBC005A3
:1024B000655D087B2D0128430873367A387B45EA31
:1024C000560505433D7310007D7B45EAC6157D73B7
:1024D00008BF0B22487E03EBC00603EBC200A65DDB
:1024E000245CA40044EAD60005437D734D7B284359
:1024F0004873029D887B40EA461088732878BC7B2D
:1025000040EA46162643BE738D7FCC7B03EBC503A2
:10251000634493F880000443CC7349E0BE7A3543AA
:10252000BD728D7A45EA98058D72CE7A46EA881595
:10253000CD7208B90B2088768D7EF87A03EBC5063C
:10254000A55D40EA4500F872CD7E387B03EBC506F9
:10255000A55D40EA0510387302980E7B057A46EABD
:1025600055060E7310004E7B487E46EAC51603EBF7
:10257000C0054E7308BF0B22605D7E7B03EBC20576
:10258000645DC50845EA840426437E73BC7B44EA47
:102590004014BC73029D8C7B28788D7F044303EB31
:1025A000C5038C736344FC7B93F880000443FC7385
:1025B0000A7603B0BDE8F00F70472DE9F043A0F1B3
:1025C0000803DBB2DFF8EC85DFF8DC75DFF8D465F3
:1025D0007C7C08EB030000F1B80100F160050A788B
:1025E000B07D022CC0F2C880347A2243327208B91E
:1025F0000B20B075F07DDFF8C02596F816C097F86F
:1026000009E003EBC004105D03EBCC044FEA500C6F
:10261000145D4CEA041444EA0E047C72BC7A44EA69
:10262000C010B8720C7CB07A40EA4400B072307DC1
:1026300008B90B203075707D96F814C097F80BE040
:1026400003EBC004105D03EBCC04125D440844EAC4
:10265000021242EA0E02FA723A7B42EAC01C87F882
:102660000CC0307B097A40EA81003073387C48BB6B
:10267000DFF84815B1F90020002A06D50121317490
:10268000D143491C1FFA81FE01E01FFA82FE642239
:102690009EFBF2F27274642101FB12E20A2492FBA7
:1026A000F4F40A229EFBF2F202EB8201AEEB410E41
:1026B000717C327C12B9E9B90B2101E0D1B90C214E
:1026C000717417E0DFF8F8241188642491FBF4F2A8
:1026D00072744FF00A0904FB121292FBF9F40A22F9
:1026E00091FBF2F202EB8202A1EB420E717C09B97E
:1026F0000B22727486F813E0B474327C717C012A68
:1027000008D139B12A784CEA92143C737C7B44EAB4
:1027100082027A7308EBC101B27CC95C97F80DC0E4
:1027200008EBC202D45CE40944EA510444EA0C0117
:1027300079732C7AB17B41EA1411B173F17C97F86B
:102740000EC008EBC101CC5CD15C2A7A120942EAC6
:10275000410242EA541242EA0C01B9730028FA7BA2
:1027600042EAC402FA730CBF287C287EF17B41EA5E
:10277000D001F173BDE8F0833C7A22433A7208B984
:102780000B20B075F07DDFF8302496F816C096F86F
:1027900009E003EBC004105D03EBCC044FEA500CDE
:1027A000145D4CEA041444EA0E047472B47A44EAE8
:1027B000C010B0720C7CB87A40EA4400B872307D28
:1027C00008B90B203075707D96F814C096F80BE0B0
:1027D00003EBC004105D03EBCC04125D440844EA33
:1027E000021242EA0E02F272327B42EAC01C86F802
:1027F0000CC0387B097A40EA81003873387C48BBCA
:10280000DFF8B813B1F90020002A06D50121317490
:10281000D143491C1FFA81FE01E01FFA82FE6422A7
:102820009EFBF2F27274642101FB12E20A2492FB15
:10283000F4F40A229EFBF2F202EB8201AEEB410EAF
:10284000717C327C12B9E1B90B2101E0C9B90C21CC
:10285000717416E0DA4A1188642491FBF4F2727400
:102860004FF00A0904FB121292FBF9F40A2291FBC1
:10287000F2F202EB8202A1EB420E717C09B90B224B
:10288000727486F813E0B474327C717C012A08D12A
:1028900039B12A784CEA92143473747B44EA820288
:1028A000727308EBC101B27CC95C96F80DC008EBED
:1028B000C202D45CE40944EA510444EA0C01717395
:1028C0002C7AB97B41EA1411B973F17CD25C08EB24
:1028D000C104E15CB47B4B0943EA420343EA0402CE
:1028E000B2730028F27B42EAC102F2730CBF287C6B
:1028F000287EF97B41EAD001F973BDE8F083F0B49A
:10290000A949CA7F521CD3B2052B05DB0B7C0022E0
:102910005C1EA441E40F0C74CA770A23827892FBF0
:10292000F3F303EB8304A2EB44028A750A23827853
:1029300092FBF3F34B750A23427892FBF3F303EB1C
:102940008304A2EB44028A740A23427892FBF3F3D5
:102950004B740A24027892FBF4F404EB8403A2EB98
:1029600043020A750A24027892FBF4F4CC740A2319
:10297000C27892FBF3F303EB8304A2EB44024A76A2
:102980000A23C27892FBF3F30B760A23427992FB77
:10299000F3F303EB8304A2EB4402CA760A234279E1
:1029A00092FBF3F38B766425C388B3FBF5F56422C1
:1029B000ADB202FB15330A2693FBF6F606EB86074B
:1029C000A3EB47034B776425C388B3FBF5F5ADB2A2
:1029D00002FB15320A2392FBF3F20A770B220079ED
:1029E0008877CA75F0BC70472DE9F041DFF8B481F3
:1029F00098F81D402046FFF7DEFB2046082802DA43
:102A0000FFF7EEFC01E0FFF7D8FD6E4A664EDFF8F7
:102A1000A0C16D4B0020D060012111614746082103
:102A20000820357A05F08005B5F1010E6EEB0E0E2B
:102A30006FEA0E05ED0F5D603D7A05F08005B5F19A
:102A4000010E6EEB0E0E6FEA0E05ED0F1D609CF889
:102A5000085005F08005B5F1010E6EEB0E0E6FEA21
:102A60000E05ED0F9D60357805F08005B5F1010E7E
:102A70006EEB0E0E6FEA0E05ED0F15603D7805F05A
:102A80008005B5F1010E6EEB0E0E6FEA0E05ED0F2F
:102A900055609CF8005005F08005B5F1010E6EEB15
:102AA0000E0E6FEA0E05ED0F95624FF0010E357AAE
:102AB0006D0035723D7A6D003D729CF808506D00D6
:102AC0008CF8085035786D0035703D786D003D709C
:102AD0009CF800506D008CF80050C3F828E00025E9
:102AE000401E9D629DD17F1C761C491E0CF1010C7D
:102AF00096D104F00100411E8941C943C90F5163B9
:102B000004F00200411E8941C943C90F916304F0DA
:102B10000400411E8941C943C90FD16304F0080074
:102B2000411E8941C943C90F641CD960E0B2C2F893
:102B30000CE010281561A8BF002488F81D40BDE8EE
:102B4000F08101281F49214A06D1C86201214FF4B2
:102B500096731170538070470020C862002384462A
:102B60001370A2F802C0486300228A63C863164843
:102B7000C2600B61CA60836242600360C0F808C033
:102B80000A604A608B6270471049488830B1401E25
:102B9000488080B2002808BF00F066B97047000086
:102BA000C46E0008C0020020A0020020346C00089F
:102BB000F80200201C710008F4710008E0020020F7
:102BC000E202002080812142940121422003002062
:102BD000001F3B5A7897B5D4F30000001101300173
:102BE0004E0100002DE9F04100F0EEF900F076F81A
:102BF00000F0FCF900F080FA00F08EFA00F0EAFA3A
:102C000000F03AFB00F0A8F800F021FCD848DFF80B
:102C10006483D94DD94EDA4FDA4C00F0B5FE404608
:102C200000F0CDF8C82000F0E7FE00F051FD0A20CA
:102C300000F0E2FE00F02AFD642000F0DDFE00F06E
:102C400081FD012000F0D6FF642000F0D5FE01F0E8
:102C50003FF86422311D284601F0A8F92868C168B0
:102C600041F01001C1600120FFF76BFF0A2000F066
:102C7000C3FE00F0AFFA384601F026FC384601F0FA
:102C800062FCC14F3078C10716D500F0FE003070ED
:102C9000301D00F0C9FF6422311D284601F086F97D
:102CA0002078002807D000212170404600F0B3F8BA
:102CB000404600F084F800BF38780028E2D00021B8
:102CC0003970FFF761FF00F0D3FF00F0E7FD4046E9
:102CD00001F08CFF4046FFF712FED3E72DE9F841E3
:102CE00093B009A8282102F029F804AC0025002699
:102CF0000027E0C460C4E8460021002200238C467F
:102D000088E80E104FF4803101230A910C930D9343
:102D1000119102234FF4E01105240B9210931291AC
:102D2000099409A802F00EF8022105910F204FF432
:102D300080610490079106950895022104A802F08D
:102D40003BFA01214FF4807200910192684602F033
:102D500077FB14B0BDE8F08180B5002200211E2071
:102D600002F0A4FC1E2002F0D7FC01220021252045
:102D700002F09CFC252002F0CFFC002201210E2055
:102D800002F094FC0E2002F0C7FC002201210F206B
:102D900002F08CFC0F2002F0BFFC01220121032075
:102DA00002F084FC032002F0B7FC0222012106207D
:102DB00002F07CFCBDE80240062002F0ADBC3EB54E
:102DC00004466B4D002201A9284602F049FE00226C
:102DD0006946284602F09DFF9DF8060020709DF888
:102DE000051061709DF80400A0709DF80200E0706D
:102DF0009DF8010060719DF8001021719DF803009D
:102E000000F5FA60E0802046FFF779FD2046FFF7E5
:102E1000ABF903B030BD1CB50178554C8DF80610E8
:102E200042788DF8052082788DF80420C1788DF8DD
:102E3000021042798DF8012002798DF80020642279
:102E4000C188B1FBF2F292B2642000FB12118DF83E
:102E50000310002201A9204602F046FD0022694627
:102E6000204602F090FE13BD78B5424D474C2878BD
:102E70006978EB786A79404E83B002900191A87826
:102E8000E9880090204603F08DF800BF44A003F0CD
:102E900089F8002000F0AEFE0020FFF752FE01226C
:102EA0004FF480513A4803F07BFA0121012003F0EE
:102EB000D1FA00F089F8FFF711FF00F097F800F061
:102EC0001BF900F0D9F9FFF747FF00F0C0FA2848D6
:102ED00000F05AFD2846FFF772FFC82000F08CFD75
:102EE00000F0F6FB0A2000F087FD00F0CFFB642025
:102EF00000F082FD00F026FC012000F07BFE642043
:102F000000F07AFD00F0E4FE64222249304601F030
:102F10004DF830681A4EC16841F01001C1600120BF
:102F2000FFF70FFE642000F067FD00F053F9304614
:102F300001F0CAFA304601F006FB28786978EB7890
:102F40006A7902900191A878E9880090204603F000
:102F500029F804B0BDE8704016A003F023B80000C3
:102F6000012804D10C494FF49670088000BF7047C7
:102F7000E40200201803002060020020600100200D
:102F8000180200200E0300202803002050780008BB
:102F9000000C0140640100202203002070477047AC
:102FA000456E7465725F53746F705F4D6F64650A30
:102FB0000D000000457869745F53746F705F4D6F4A
:102FC00064650A0D0000000080B50748016841F003
:102FD00010010160032002F04DFB002003F074FAA1
:102FE00003F092FA002002BD00200240F0B585B047
:102FF0006846002100220023002480E81E00394892
:10300000394F056845F01005056048F2E014016885
:10301000364D01F0100104914FF6FB460499026809
:1030200042F020020260036803F020030493049935
:10303000026842F004020260036803F00403049390
:103040000499026842F0080202600022006800F061
:10305000080004902146049B284603F0A1F90022B1
:103060003146384603F09CF94FF400510091032299
:10307000019269461E4802F0A9FF01201D490090F7
:103080000191022202926946284602F09FFF41F612
:103090001E010091032201926946284602F096FF24
:1030A00001200221019000220391029200946946BE
:1030B000284602F08BFF012002210190002203919B
:1030C000029200966946384602F080FF4FF4417143
:1030D0000091032201926946384602F077FF05B05D
:1030E000F0BD000018100240000C01400008014033
:1030F0000010014000001110064881B0016841F045
:1031000001010160006800F001000090009801B02A
:10311000704700BF141002401CB500BF2BA100BFB8
:103120002BA30A681968254C019200914FF0FF31DA
:10313000234820604FF480726160A260204602F054
:1031400031FB08B1FFF72AFF082000218DF80400A9
:103150008DF8051000228DF8062001A9204602F006
:10316000C3FB08B1FFF71AFF01228DF801208DF88B
:103170000220022113228DF800108DF803206946E9
:103180000022204602F0FFFC08B1FFF707FF13BD45
:1031900000680B49884200D0704780B503F055F9AC
:1031A0000848094A016841F0006101600121006896
:1031B00000F0006000900098116001BDE402002062
:1031C000002800401C1002403C0442420000000065
:1031D00000000000F8B586B002A8002100220023FC
:1031E000002480E81E0000BF21A51E4C1E48D5E922
:1031F00000672060A26022616320CDE900674FF480
:103200002F71E06080226160A261204601F00EF91A
:1032100008B1FFF7C3FE4FF48050029002A9204688
:1032200001F095FA08B1FFF7B9FE00210091019174
:103230002046694603F08CF908B1FFF7AFFE07B0EE
:10324000F0BD81B000680849884209D1074802688A
:1032500042F004020260006800F004000090009850
:1032600001B0704718020020000800401C10024006
:10327000000000000000000080B56D486D4901604D
:103280004FF4E13200230C2142608360C36003618C
:1032900041618361C36100F07DFD18B1BDE801406B
:1032A000FFF77CBE01BDF0B585B0044601A8002142
:1032B00000220023002580E82E0026685D4FBE42D4
:1032C00055D15D485D4D01685D4E41F4804101601E
:1032D000026802F4804200920099026842F00402FF
:1032E00002604FF40071006800F0040000900222B8
:1032F00000980191029203210491284601A902F04D
:1033000065FE4FF480620192002102910122039236
:1033100001A9284602F05AFE4A4D05F1140030601A
:1033200000218020F0607160B16031617161B16134
:10333000F161304603F074F908B1FFF72FFE102059
:1033400000216663B064F164802030657165B16509
:10335000F16531667462756406F1440003F060F94A
:1033600008B1FFF71BFE06F144002063B46605B008
:10337000F0BD10B504462F492068884214D12E486C
:10338000026822F4804202604FF4C0612B4802F0D0
:1033900079FF606B03F0EBF9206B03F0E8F9BDE80F
:1033A0001040252002F0C1B910BD01B54FF6FF73E2
:1033B000012269461E4800F082FD009802BD016BA3
:1033C00009680A68520852000A60194900680A68C8
:1033D000904204D11C48017801F0FD010170704752
:1033E0001CB5044621680868C20620D50023009356
:1033F0000A680092496800910098204600F01FFE7C
:103400000B4821680268914211D1416B0E4B0A684A
:103410005168C1F16401598002B0197841F001018D
:1034200019706422BDE81040191D00F0BFBD13BD26
:1034300060020020003801401810024000080140DE
:10344000D80000204400024060010020704710B501
:1034500084B08020112100900191022203926946DC
:10346000DFF87044204602F0B1FD402200921121A5
:103470000191022203926946204602F0A7FD012233
:103480004021204602F08CFF01228021204602F0DC
:1034900087FF04B010BD10B5DFF838440122802149
:1034A000204602F07DFF0220FFF7D0FF01224021DD
:1034B000204602F075FF0220FFF7C8FF002280219E
:1034C000204602F06DFF0220FFF7C0FF00224021DE
:1034D00014E010B5DFF8FC4300228021204602F002
:1034E0005FFF0220FFF7B2FF01224021204602F0D9
:1034F00057FF0220FFF7AAFF01228021204602F099
:103500004FFFBDE810400220A0E710B5DFF8C4432C
:1035100000228021204602F043FF0220FFF796FFA1
:1035200000224021204602F03BFF0220FFF78EFFE1
:1035300001224021204602F033FF0220FFF786FFE0
:1035400000224021204602F02BFF2046BDE810401B
:103550000122802102F024BF10B5DFF87843012258
:103560008021204602F01CFF01224021204602F06B
:1035700017FF2046BDE810400022402102F010BF96
:10358000F8B584B0064600240027D24D0022402121
:10359000284602F005FF06FA07F000064CBF01229C
:1035A00000228021284602F0FBFE0122402128460D
:1035B00002F0F6FE7F1CF8B20828E7DB002240216B
:1035C000284602F0EDFE01228021284602F0E8FEA6
:1035D00001224021284602F0E3FE802000900122D3
:1035E000029201946946284602F0F0FCC826761E35
:1035F000F0B230B18021284602F0C2FE0028F6D198
:103600000124802011210090019102220392694639
:10361000284602F0DBFCF6B206B900240022402165
:10362000284602F0BDFE204605B0F0BD70B584B05E
:103630008020009001220025029201956946A54E46
:10364000304602F0C3FC082401224021304602F03B
:10365000A7FE8021304602F093FE6D00012808BFCE
:103660006D1C00224021304602F09AFE641EEBD110
:103670008020112100900191022203926946304678
:1036800002F0A4FCE8B204B070BD000080B5FFF702
:1036900002FF8020FFF774FF88B1FE20FFF770FF64
:1036A00068B1FFF716FF0F2000F0A6F98A49002045
:1036B000087000BF93A002F075FC012002BD00BF9E
:1036C00095A002F06FFC844901200870002002BD23
:1036D00010B5FFF7E0FE8020FFF752FF48B3E72068
:1036E000FFF74EFF28B3FFF7D6FE8120FFF748FF14
:1036F000F8B1FFF79BFF0446FFF72EFFFFF7CBFE65
:103700008020FFF73DFFA0B1E620FFF739FF80B131
:1037100004F0380444F00200FFF732FF48B1FFF72D
:10372000D8FE6D490020087080A002F03BFC01200B
:1037300010BD00BF82A002F035FC6749012008706F
:10374000002010BDF0B583B0FFF7A5FE8020FFF785
:1037500017FF002800F09580E520FFF711FF0028F3
:1037600000F08F80FFF797FE8120FFF709FF002808
:1037700000F08780142000F03FF9FFF757FF044660
:10378000FFF7C3FEFFF752FF00EB0424FFF7E4FE50
:10379000FFF79FFE4FF6FC7707EA0400FEF7C8F834
:1037A0004E4D00222B46FDF7CDFE00224C4B4A4EDB
:1037B000FDF7C8FE00224B4BFEF788FA03F0ACF988
:1037C00003F0DEF900EB80004000B0800A2000F03A
:1037D00013F9FFF760FE8020FFF7D2FE002850D0DB
:1037E000E320FFF7CDFE00284BD0FFF754FE8120E9
:1037F000FFF7C6FE002844D03C2000F0FDF8FFF79C
:1038000015FF0446FFF781FEFFF710FF00EB0424CD
:10381000FFF7A2FEFFF75DFE07EA0400FEF788F857
:1038200000222B46FDF78EFE2F4A304BFDF78AFE15
:103830002F4A304BFEF74AFA00222F4BFDF782FE4B
:1038400003F06AF903F09CF97080B1880FF204105C
:1038500002F0A8FBB6F9021042A002F0A3FB274831
:1038600001784278C378029101928178427900917F
:10387000C188234802F096FB0020307003B001207D
:10388000F0BD154C00206080A08000BF38A002F081
:1038900089FB0120207003B00020F0BD10B50E4C54
:1038A000207858B1002121706170FFF711FFFFF7F8
:1038B000EDFE0A2000F0A0F8FFF744FF6078401CFE
:1038C0006070C0B20A2804DB00206070BDE81040C0
:1038D00038E710BD000C0140DE0200200000F03E81
:1038E00000405F40000018C0D7A3703D0AF7654054
:1038F000CDCCCCCCCC6C47C00000244018030020B9
:103900002C7800080D0A4854553231442052657312
:103910006574204F4B0D0A000D0A4854553231444E
:10392000205265736574204E470D0A000D0A4854F5
:103930005532314420496E6974204F4B0D0A000006
:103940000D0A48545532314420496E6974204E475F
:103950000D0A00000D0A48756D693A202564200D96
:103960000A00000054656D703A202564200D0A009D
:103970000D0A54656D702074657374206661696CFE
:103980002E200D0A0000000008B901207047017CBC
:10399000012901D1022070470121017402224274E1
:1039A000002201680B6843F00103FFE70B6001216F
:1039B000417402740020704710B504462068016805
:1039C000CA0717D54168CA0714D540684107204681
:1039D00008D503F0EAF821686FF00400486004227B
:1039E000627403E003F0E2F8012060746FF00101FB
:1039F0002068416010BD000038B5044603F0D8F8D7
:103A000014F1010F054602D004490878041903F0A7
:103A1000CFF8401BA042FAD331BD00BF0000002008
:103A2000A0F130020A2A38BF30380BD3A0F141028E
:103A3000062A38BF373805D3A0F16101062934BF03
:103A40005738FF20C0B2704770B40329BCBF0C3197
:103A5000401E642300B2642490FBF4F403FB1400C2
:103A600003B25E1003EB967365B200EBA3006B101C
:103A700049B205EB9374491C1A2300EBA400594387
:103A80000A24A0EB450091FBF4F108181018401E21
:103A900040B28C30072290FBF2F270BCC2EBC20243
:103AA000801AC0B270472DE9F04F074683B0B87A4C
:103AB000FFF7B6FF8346F87AFFF7B2FF64214FF4B1
:103AC0007A74484304FB0B0B387BFFF7A9FF00EB2C
:103AD0008001787B0BEB410BFFF7A2FF58441FFAE4
:103AE00080FBF87BFFF79CFF00EB8005387CFFF73D
:103AF00097FF00EB4504B87CFFF792FF00EB8005D1
:103B0000F87CFFF78DFF00EB45005FFA80FA787DC7
:103B1000FFF786FF00EB8005B87DFFF781FF00EB24
:103B20004509387EFFF77CFF00EB8005787EFFF7C4
:103B300077FF00EB4508F87EFFF772FF00EB80058A
:103B4000387FFFF76DFF00EB450740F2B270834509
:103B5000E4B247D00125ABF2D171622928BF00251C
:103B60000CB10C2C00DD0025BAF1000F02D0BAF127
:103B7000200F00DB00255FFA89F01828A8BF002578
:103B80005FFA88F03C28BCBFF8B23C282ADA4DB373
:103B90005D4EA6F806B0747186F803A05246F08810
:103BA0002146FFF751FF307186F8029086F80180B8
:103BB0003770564800F05AF955480021017000222C
:103BC00002712021534802F0EBFB307802907178AB
:103BD0000191B0780090F3787279F1884E4802F044
:103BE000E1F903E04A490A2048700025284603B05D
:103BF000BDE8F08F10B501460129454C454807D175
:103C00000122202102F0CCFB01222271782009E060
:103C10000022202102F0C4FB00202071607160703E
:103C2000A070E070207010BD38B504463DA1384D3D
:103C300002F0C4FF18B1012010216871697020469C
:103C40003DA102F0BBFF20B10020FFF7D3FF02200F
:103C5000A8706879012809D13DA1204602F0AEFF85
:103C6000A86018B1FFF71FFF0120A87131BD000047
:103C700010B5274C207828B1401E2070C0B208B97A
:103C8000FFF7B8FF607870B1401E6070C1B20E29B6
:103C900008BF224805D008291CBFC0B2002802D1A5
:103CA0002FA002F07FF9A07840B1401EA070C0B2F2
:103CB00020B90220E0700120FFF79CFFE07830B1CE
:103CC000401EE070C0B210B9BDE8104000E010BD69
:103CD00080B500BF26A002F065F94FF47A70FFF7B7
:103CE0008BFE00BF25A002F05DF96420FFF784FE83
:103CF00025A002F057F96420FFF77EFEBDE80240E0
:103D0000074802F04FB900001803002060020020AD
:103D100008030020000C0140B87700088C770008E9
:103D2000087800082B574556454E543A5354415491
:103D3000494F4E5F555000002B574556454E543A5B
:103D400053544154494F4E5F444F574E00000000BA
:103D50002B534E545054494D453A32300000000028
:103D600041542B534E545054494D450D0A00000008
:103D700041542B46575645523F0D0A0041542B578C
:103D8000465645523F0D0A0041542B574D41433F83
:103D90000D0A000038B5040001D1012032BD2168B0
:103DA000A069DFF85024E8B191421FBFDFF8482432
:103DB0009142DFF84804814205D04FF4A371DFF847
:103DC0004004FFF7ECF8A069002818BFB0F5807F29
:103DD00017D0B0F5007F18BFB0F5407F11D040F28A
:103DE00047110AE091421FBFDFF80C048142DFF85F
:103DF0000C24914205D040F24B11DFF80404FFF788
:103E0000CEF8A068002818BFB0F5805F05D040F25A
:103E10004D11DFF8EC03FFF7C2F804F138056878BC
:103E200020B9002129702046FFF73DFA2420687050
:103E30002068C16821F40051C160204600F086FA74
:103E40002068016921F4904101612068416921F0F5
:103E50002A01FFE741612068C16841F40051C16057
:103E60000020686020216970A97032BD38B5040057
:103E700001D1012032BD2068DFF8781388421FBFCE
:103E8000DFF874239042DFF87433984205D040F293
:103E90007D21DFF88805FFF782F804F1380524203A
:103EA00068702068C16821F40051C1602046FFF7A6
:103EB00060FA002068606870A870287032BD2DE933
:103EC000F047074607F138048846607820281646F0
:103ED0009A4663D1B8F1000F01D0300002D1012021
:103EE000BDE8F0872078012858D0012121700020FA
:103EF00060602122627002F05BFEBE840546FE8493
:103F0000B868B0F5805F04BF3869002807BF002695
:103F1000C14646464FF00009002020700BE0002EFD
:103F200012BF16F8011B39F8021BC1F308014160EA
:103F3000F88C411EF984F88C78B1386801680A065B
:103F4000EDD41AF1010FF8D0BAF1000F14D002F03D
:103F50002FFE401B8245F0D20EE039680868420609
:103F60001FD41AF1010FF8D0BAF1000F04D002F0FB
:103F70001FFE401B8245F0D23868C16821F4D07121
:103F8000C16038684169490849004161202060707A
:103F9000A070002020700320BDE8F0870220BDE85B
:103FA000F087202060700020BDE8F0877CB50446D3
:103FB00004F138051346A87820283ED109B118002D
:103FC00001D1012076BD2878012836D00120287043
:103FD000A162A38500226A602220A8700026606B7F
:103FE0000FF221228262606B0FF25122C262606B7B
:103FF0000FF2512202630A46606B46632668606BCB
:10400000311D02F005FC0020009021680A68009232
:1040100000224B68009300982A70CB6843F48073A9
:10402000CB602068416941F001014161206841692C
:1040300041F040014161002076BD022076BD38B5D7
:10404000044604F13905206841692A78212A10D1F3
:1040500009060ED5426922F080024261206B08B148
:1040600002F022FC2068C16821F0C001C16020205C
:104070002870206841696A78222A0CD149060AD53D
:10408000426922F040024261606B08B102F00CFC10
:10409000204600F005F9002032BD38B504462568F9
:1040A0002968EA686B6911F00F0007D1880662D5AC
:1040B000930660D52046BDE8324005E1D80702D41A
:1040C00012F4907F57D0C80705D5D50503D5E06B0E
:1040D00040F00100E063480705D5DD0703D5E06B3C
:1040E00040F00200E063880705D5DD0703D5E06BEB
:1040F00040F00400E063080707D5950601D4D8070F
:1041000003D5E36B43F00803E363E06B00286FD053
:10411000880604D5910644BF204600F0D5F82068F3
:104120004069E16B0A0701D440061ED5204600F025
:10413000B7F8206841694A0612D5416921F040016B
:104140004161606B60B10FF275114163606B02F009
:10415000D3FB00284CD0606B416BBDE8344008476E
:104160002046BDE8324002F041BD204602F03EFD4F
:104170000020E06331BD08062AD5130628D594F83F
:104180003900212834D1A068B0F5805F04BF2069D0
:10419000002808D1206A0188C1F308016960206AFB
:1041A000811C216204E0206A411C21620078686061
:1041B000E08C401EE08480B2D0B92068C16821F054
:1041C0008001C1602068C16841F04001C16031BD1B
:1041D00048060DD551060BD5E86820F04000E86090
:1041E000202184F839102046BDE83240FFF7E7B8B7
:1041F00031BD00000038014000440040004800404C
:10420000C4760008416A00680268930613D400204F
:10421000C8850868C26822F48072C2600868426972
:104220005208520042610868426922F0400242612D
:10423000202081F83A00084602F0D9BC406A02F01A
:10424000D7BC000018B4406A0268536900F1390114
:104250000C78212C09D11B0607D50024C484D3680F
:1042600023F0C003D36020220A70026853694C789F
:10427000222C0ED15B060CD50024C485D36823F410
:104280009073D360026853695B085B00536120221E
:104290004A70C16B41F01001C16312BC02F0A6BCB0
:1042A0000168CA6822F49072CA6001684A695208BB
:1042B00052004A61202180F83A107047406A00217C
:1042C000C185C18402F092BC80B590F83A102229D1
:1042D0003AD18168826AB1F5805F0AD1016969B912
:1042E00003685968C1F308011180826A911C8162D8
:1042F0000FE0002904BF0169002902D10368596851
:1043000003E00168496801F07F011170816A4A1C6D
:104310008262C18D491EC18589B299B90168CA6896
:1043200022F02002CA600168CA6822F48072CA6062
:1043300001684A69520852004A61202180F83A1007
:1043400002F055FC002002BD022002BD10B504465B
:10435000344A6068904204D340F6F6312F48FEF7A5
:104360001EFEE068002818BFB0F5005F04D040F6DC
:10437000F7312A48FEF713FE206900281CBFB0F56C
:10438000806FB0F5C06F04D040F6F8312348FEF7D7
:1043900006FE60694FF6F371084200D120B940F67D
:1043A000F9311E48FEF7FBFD22681169E06821F42F
:1043B000405101431161D3681B49A0680B4021693A
:1043C000034360690B430343D3605169A06921F43F
:1043D00040710143516112498A4202D101F001F852
:1043E00001E000F0F6FF6268192148439200B0FB3B
:1043F000F2F16423B1FBF3F203FB12110901323134
:10440000B1FBF3F000F0F00101EB0211226800F0C3
:104410000F004018906010BD00000000C476000836
:104420000038014021AA4400F3E9FFFF38B5040039
:1044300001D1012032BD2068DFF8B811884218BFD1
:10444000B0F1804F0DD0DFF8B01188421CBFDFF80B
:10445000AC21904205D040F21311DFF8A401FEF721
:104460009EFDA068002818BF10280AD020281CBF75
:104470004028602805D04FF48A71DFF88401FEF7E8
:104480008EFD206900281CBFB0F5807FB0F5007F4D
:1044900005D040F21511DFF86801FEF780FDA06934
:1044A000002818BF802805D04FF48B71DFF8500129
:1044B000FEF775FD04F13C05687820B900212970EC
:1044C0002046FEF7BEFE82E038B50446DFF82451F0
:1044D0002068A84218BFB0F1804F0DD0DFF8181146
:1044E00088421CBFDFF81421904205D04FF4CA71F6
:1044F000DFF80C01FEF753FD94F83D00012801D0D0
:10450000012032BD022084F83D002068A84218BF77
:10451000B0F1804F07D0DFF8E01088421CBFDFF811
:10452000DC20904209D1816801F00701062908D0FA
:10453000016841F00101016003E0026842F00102FC
:104540000260002032BD38B50546DFF8A840286873
:10455000A04218BFB0F1804F0DD0DFF89C10884208
:104560001CBFDFF89820904205D040F2CF11DFF851
:104570009000FEF714FD95F83D00012801D00120C0
:1045800032BD022085F83D002868C16841F0010174
:10459000C1602868A04218BFB0F1804F07D0DFF893
:1045A000581088421CBFDFF85420904209D181681E
:1045B00001F00701062908D0016841F001010160FE
:1045C00003E0026842F001020260002032BD0220D6
:1045D0006870211D206800F09FFA0120A872A87061
:1045E000E87028716871A871E87128726872687043
:1045F000002032BD002C01400004004000080040B3
:10460000F475000810B50446206801698A0716D5BC
:10461000C1688A0713D56FF0020101610122227778
:10462000806910F0030F204602D002F0E2FA04E0A5
:1046300002F0E0FA204602F0DEFA0020207720683F
:1046400001694A0716D5C1684A0713D56FF00401FE
:10465000016102222277806910F4407F204602D057
:1046600002F0C7FA04E002F0C5FA204602F0C3FAED
:1046700000202077206801690A0716D5C1680A075B
:1046800013D56FF00801016104222277C06910F090
:10469000030F204602D002F0ACFA04E002F0AAFABE
:1046A000204602F0A8FA0020207720680169CA0697
:1046B00016D5C168CA0613D56FF010010161082232
:1046C0002277C06910F4407F204602D002F091FAB0
:1046D00004E002F08FFA204602F08DFA00202077E5
:1046E00020680169CA0708D5C168CA0705D56FF0F7
:1046F00001010161204602F07FFA206801690A0683
:1047000008D5C1680A0605D56FF080010161204611
:1047100002F073FA206801694A0608D5C1684A06A2
:1047200005D56FF040010161204602F067FA20686C
:1047300001698A060AD5C1688A0607D56FF020018B
:1047400001612046BDE8104002F059BA10BD70B5B5
:10475000054605F13C040E462078012801D10220CF
:1047600070BD01202070022161703068B0F5805F5B
:1047700018BFB0F5005F15D0002818BF102811D061
:10478000202818BF30280DD0402818BF502809D045
:10479000602818BF702805D041F21D41DFF8E803FA
:1047A000FEF7FDFB2968DFF8E4038A6802408A60AF
:1047B0003168002918BF102900F08681202918BF10
:1047C000302900F08181402900F04281502900F019
:1047D000C980602900F0018170291FD0B1F5805F88
:1047E00003D0B1F5005F6BD08AE12868DFF81C23A5
:1047F000904218BFB0F1804F00F08281DFF81013B3
:1048000088421CBFDFF80C23904200F0798141F20E
:104810002941DFF87403FEF7C2FB71E12868DFF875
:10482000EC12884218BFB0F1804F0DD0DFF8E012D3
:1048300088421CBFDFF8DC22904205D041F23041B3
:10484000DFF84403FEF7ABFBB068002818BFB0F5F3
:10485000805F0BD0B0F5005F18BFB0F5405F05D0AA
:1048600041F23341DFF82003FEF799FB7068B0F5A1
:10487000004F18BF002809D0022818BF0A2805D009
:1048800041F23441DFF80003FEF789FBF06810289D
:1048900005D341F23541DFF8F002FEF780FB2B68CB
:1048A000F0687168B2689E6826F47F46324311430F
:1048B00041EA002199602868816841F0770101E1AF
:1048C0002868DFF84812884218BFB0F1804F0DD039
:1048D000DFF83C1288421CBFDFF83822904205D036
:1048E00041F24841DFF8A002FEF759FBB06800280A
:1048F00018BFB0F5805F0BD0B0F5005F18BFB0F502
:10490000405F05D041F24B41DFF87C02FEF747FBE8
:104910007068B0F5004F18BF002809D0022818BFF2
:104920000A2805D041F24C41DFF85C02FEF737FB64
:10493000F068102805D341F24D41DFF84C02FEF734
:104940002EFB2B68F0687168B2689E6826F47F467B
:104950003243114341EA002199602868816841F49B
:104960008041AFE02868DFF8A411884218BFB0F199
:10497000804F0DD0DFF8981188421CBFDFF89421DA
:10498000904205D041F25C41DFF8FC01FEF707FBE5
:104990007068B0F5004F18BF002809D0022818BF72
:1049A0000A2805D041F25F41DFF8DC01FEF7F7FA93
:1049B000F068102805D34FF4A351DFF8CC01FEF7BF
:1049C000EEFAF2687168286800F0E2F828688168F9
:1049D00021F0700141F0570174E02868DFF82C11D4
:1049E000884218BFB0F1804F0DD0DFF82411884203
:1049F0001CBFDFF82021904205D041F26C41DFF866
:104A00008801FEF7CCFA7068B0F5004F18BF002897
:104A100009D0022818BF0A2805D041F26F41DFF8FB
:104A20006801FEF7BCFAF068102805D341F2704126
:104A3000DFF85401FEF7B3FAF2687168286800F0F5
:104A4000B9F82868816821F0700141F0670139E008
:104A50002868DFF8B810884218BFB0F1804F0DD039
:104A6000DFF8AC1088421CBFDFF8A820904205D0C8
:104A700041F27C41DFF81001FEF791FA7068B0F561
:104A8000004F18BF002809D0022818BF0A2805D0F7
:104A900041F27F41DFF8F000FEF781FAF06810285C
:104AA00005D34FF4A451DFF8E000FEF778FAF2687E
:104AB0007168286800F06CF82868816821F070013E
:104AC00041F0470181601BE028681049884218BF07
:104AD000B0F1804F0BD00E4988421CBF0D4A904266
:104AE00005D041F28F41DFF8A000FEF758FA29689F
:104AF00030688A6822F07002104340F00700886036
:104B00000120607000212170002070BD002C014048
:104B1000000400400008004030B4DFF8C0400368E3
:104B2000A04218BFB0F1804F07D0DFF8B420904208
:104B30001CBFDFF8B050A8420BD14A6823F07003C5
:104B40001343A0421EBFB0F1804FDFF89420904283
:104B500003D0DFF89050A84203D1CA6823F4407311
:104B600013434A6923F0800313430360A0428B6818
:104B7000C3620A68826203D10969DFF86C201160A0
:104B80000123436130BC7047F47500088800FFFFC3
:104B900010B4036A046A64086400046223F00A0320
:104BA000846924F0F00444EA021484611943016228
:104BB00010BC7047036A23F0100303628369D0F8C6
:104BC00020C023F4704343EA02332CF0A00C83612D
:104BD0004CEA011CC0F820C070470000002C0140C6
:104BE0000004004000080040302C014010B504468D
:104BF0002078401C2070C0B23C2830D119480121D7
:104C00000170002222706178491C6170C9B23C2990
:104C100025D1A1786270491CA170C9B218291EDB88
:104C2000A270001DE278521CE270FDF79DFA6179D6
:104C3000E08800F019F8E17888420CD20120E07099
:104C40006079401C6071C0B20D2804DBE18801204E
:104C5000491C6071E1802046BDE8104036E010BD7F
:104C60000000000014030020F0B400BF2BA393E861
:104C7000F00084B06A46022982E8F00020D14208A0
:104C800000EB92739B08B0EB830107D16422B0FB69
:104C9000F2F292B2642101FB12024AB94FF4C872D7
:104CA000B0FBF2F292B24FF4C87101FB120018B9D6
:104CB00004B0F0BC1D20704704B0F0BC1C2070474D
:104CC0001DF8010004B0F0BC7047000030B4C38888
:104CD0001A466424B2FBF4F204FB12324379D2B2D6
:104CE000032BBCBF521ED2B2C17802F10C04651076
:104CF00011EB020204EB957402EBA4020BA4E15C3D
:104D00008A180B3292B20725B2FBF5F5ADB2C5EBAE
:104D1000C505521B027130BC70470000001F1C1FEC
:104D20001E1F1E1F1F1E1F1E1F000000000003026B
:104D3000050003050104060204000000002201F042
:104D40005FBF00002DE9F843040000F050812068A7
:104D500040B110F00F0F05D140F26711DFF8A8063F
:104D6000FEF71DF92078DFF89076C10721D560683D
:104D700000281CBFB0F5803FB0F5A02F05D040F251
:104D80006D11DFF88406FEF70AF9786800F00C0070
:104D9000042807D0786800F00C0008285DD17868F6
:104DA000C1035AD53868810303D56068002800F034
:104DB0001E81217888072DD52069002818BF012879
:104DC00005D040F2A111DFF84006FEF7E8F860696F
:104DD000202805D34FF4D171DFF82C06FEF7DFF859
:104DE000786810F00C0F07D0786800F00C000828E5
:104DF0006CD17868C10369D43868810703D520690C
:104E0000012840F0F4803968606921F0F80141EA36
:104E1000C00139602178080740F1F980A0690028B5
:104E200074D0012808D04FF4F171DFF8DC05FEF7EB
:104E3000B6F8A069002869D0DFF8D005012101602B
:104E400001F0B6FE0546786A810700F1D18001F0D5
:104E5000AFFE401B0228F6D99AE26068B0F5803FA9
:104E600004D1386840F48030386014E008B93868FC
:104E70000AE0B0F5A02F386806D140F480203860F1
:104E8000396841F4803105E020F4803038603968B9
:104E900021F480213960606858B101F089FE05462F
:104EA0003868810385D401F083FE401B6528F7D361
:104EB000D2E701F07DFE0546386881037FF579AFC2
:104EC00001F076FE401B6528F6D3C5E72069DFF8C0
:104ED000401570B101220A6001F06AFE054638688B
:104EE000810700F1C78001F063FE401B0228F6D95C
:104EF000B2E7086001F05CFE05463968880789D58D
:104F000001F056FE401B0228F7D9A5E7DFF8FC1494
:104F10000020086001F04CFE0546786A810776D5CE
:104F200001F046FE401B0228F7D995E708B9386A18
:104F300009E00528386A06D140F004003862386A72
:104F400040F0010005E0400840003862386A20F077
:104F500004003862E06870B101F02AFE064641F2B2
:104F60008938386A810700F1958001F021FE801BA5
:104F70004045F6D370E701F01BFE064641F2893842
:104F8000386A810740F1868001F012FE801B40459F
:104F9000F6D361E701F00CFE401B022840F2DE80F0
:104FA0005AE701F005FE001B022840F2FE8053E79D
:104FB000DFF85C140020086601F0FAFD044638684A
:104FC000810140F1F68001F0F3FD001B0228F6D9C3
:104FD00042E701280BD07868226A00F480319142C0
:104FE00002BF00F47010616A884200F0E280D2E1F2
:104FF000DFF808040168C9084FF47A72B1FBF2F2D5
:10500000009200BF0098411E00280091F9D120783D
:10501000410744D5E068002500281CBF0128052869
:1050200005D040F21121DFF8E003FDF7B8FFF86981
:10503000C10009D4F86940F08050F8610125F86991
:1050400000F0805000900098DFF8C8633068C10518
:1050500018D4306840F48070306001F0A9FD8146BA
:105060003068C1050ED401F0A3FDA0EB090065284E
:10507000F6D3F1E63868616920F0F80040EAC10033
:105080003860C7E6E06801287FF450AF386A40F026
:1050900001005EE71DB1F86920F08050F861E06919
:1050A000002800F08680012818BF022808D040F2AE
:1050B000AF21DFF85403FDF772FFE069002878D0D4
:1050C000E069796801F00C01082982D002287FF498
:1050D0006FAF206A002818BFB0F5803F05D04FF4AD
:1050E0002E71DFF82403FDF75AFF606A002818BF0D
:1050F000B0F5802F2BD0B0F5002F18BFB0F5402FA2
:1051000025D0B0F5801F18BFB0F5A01F1FD0B0F597
:10511000C01F18BFB0F5E01F19D0B0F5001F18BFB1
:10512000B0F5101F13D0B0F5201F18BFB0F5301F19
:105130000DD0B0F5401F1CBFB0F5501FB0F5601F7B
:1051400005D040F2B921DFF8C002FDF728FFDFF8F3
:10515000C0620021316601F02BFD054638688101EF
:105160003FF518AF206AB0F5803F11D1A068002844
:1051700018BFB0F5003F05D040F2CF21DFF888021C
:10518000FDF70DFF7968A06821F4003101437960D3
:105190007A68206A616A22F4741202430A437A60D0
:1051A0000120306601F004FD0446386881017FF576
:1051B000F8AE0020BDE8F2832DE9F84304000D4667
:1051C00000F0E580207810F00F0F05D14FF44E71FC
:1051D000DFF83402FDF7E3FE002D1CBF012D022D88
:1051E00005D040F23931DFF82002FDF7D8FEDFF8B4
:1051F0002872386800F00700A8420AD23968C90846
:1052000045EAC1013960386800F00700A84240F063
:10521000BE802068DFF8E06181072AD5400703D50A
:10522000716841F4E06171602078010703D570680E
:1052300040F460507060A068002818BF802812D029
:10524000902818BFA0280ED0B02818BFC0280AD0B8
:10525000D0281CBFE028F02805D040F25F31DFF8ED
:10526000A801FDF79CFE7168A06821F0F0010143E0
:1052700071602178C8077BD56068A8B101280AD081
:1052800002280DD040F26631DFF87C01FDF787FE81
:105290006068012802D13068810303E0022803D14D
:1052A0003068810103D472E0306881076FD572687D
:1052B0006068920840EA8202726041F2893901F026
:1052C00077FC80467068616800F00C00B0EB810FDD
:1052D0004ED001F06DFCA0EB08004845F2D357E03A
:1052E0002078410718D5E068002818BFB0F5806F16
:1052F0000CD0B0F5A06F1CBFB0F5C06FB0F5E06F7B
:1053000004D04FF469714048FDF749FE7168E068C8
:1053100021F4E061014371602178080719D5206903
:10532000002818BFB0F5806F0CD0B0F5A06F1CBF7F
:10533000B0F5C06FB0F5E06F04D040F2AB31324849
:10534000FDF72DFE7068216920F4605040EAC1002D
:10535000706000F023F872683049284BC2F30312E2
:10536000895CC84018602748006801F0ADF820E764
:10537000386800F007008542B2D23968C90845EAAA
:10538000C1013960386800F00700A842A8D002E0E7
:105390000320BDE8F2830120BDE8F28320490A68BA
:1053A00002F00C00082812D120A3C2F38340D203DC
:1053B000185C09D50A68124920A34843C2F340414A
:1053C0005A5CB0FBF2F070471649484370470C48EE
:1053D00070470A48124A006813681349C3F302224F
:1053E00006E006480E4A006813680F49C3F3C2225C
:1053F000895CC84070470000001002400C0000208B
:1054000000127A0008000020BC74000880044242A8
:105410000000424200700040002002407C770008FB
:105420000410024000093D0004790008020304054D
:10543000060708090A0B0C0D0E0F101001020000E0
:105440002DE9FC410546287810F0130F03D16C219B
:105450007C48FDF7A4FD28787B4EC10761D56868BC
:10546000002818BFB0F5807F09D0B0F5007F18BFC5
:10547000B0F5407F03D072217248FDF790FDB0690E
:105480000024C10009D4B06940F08050B06101240B
:10549000B06900F08050009000986C4F3868C105EA
:1054A00018D4386840F48070386001F081FB804681
:1054B0003868C1050ED401F07BFBA0EB080065281D
:1054C000F6D30320BDE8F68101F072FBC01B404516
:1054D00019D3F6E7F06910F440701EBF696801F453
:1054E0004071884212D05A49F06901220A600023B3
:1054F00020F440700B60F061C00707D501F058FB45
:10550000074641F28938F0698107DDD5F26968689C
:1055100022F440720243F2611CB1B06920F0805065
:10552000B0612878810715D5A868002818BFB0F5A4
:10553000804F09D0B0F5004F18BFB0F5404F03D0F1
:10554000B9214048FDF72BFD3168A86821F440419E
:10555000014331602978C80610D5E868B0F5800F9E
:1055600018BF002804D040F215113648FDF717FD8A
:105570003168E86821F48001014331600020BDE812
:10558000F681000038B50546002415F0130F04D14C
:105590004FF4CB712B48FDF702FD012D25D0022DD4
:1055A00044D0102D4CD12B4A50681168CB0147D5FF
:1055B0002BA1C0F38343C003CC5C0CD5506800BF63
:1055C0002BA32549C0F34040185CB1FBF0F3204603
:1055D0001C46444301E021494C43506841022FD40A
:1055E00064000320B4FBF0F42AE01A48016A40F298
:1055F00002320A40B2F5817F08BF4FF400441FD049
:1056000001F44072B2F5007F05D1426A930748BFAA
:1056100049F6404414D401F44071B1F5407F0FD1F4
:10562000006881030CD54FF2244409E0FFF7D9FE4E
:1056300008494A68C2F38131491C4900B0FBF1F4C2
:10564000204632BD2475000804100240007000405E
:10565000400442420010024000127A0000093D005E
:1056600002030405060708090A0B0C0D0E0F1010A3
:105670000102000010B50446072C18BF062C08D004
:10568000052C1CBF042C032C03D092213C48FDF7B1
:1056900086FC3C4A10684FF6FF012402084004F4DF
:1056A000E064044338480443146010BD70B51546E7
:1056B000102D04460E4603D3AA213148FDF76FFC96
:1056C000102E03D3AB212E48FDF769FC2D4801684D
:1056D000C1F30220C0F10701052928BF0421021DE2
:1056E000072A34BF0020C01E012202FA01F1491E20
:1056F0000E40864002FA00F0401E05402E43300165
:10570000210002D4214A105570BD214B04F00F0135
:10571000194401F8040C70BD010001D5BE2115E04B
:10572000012200F01F011B4B24E0010001D5CE2116
:105730000CE0012200F01F01174B8A40400943F89A
:105740002020BFF34F8FBFF36F8F70470C48FDF7DA
:1057500026BC401EB0F1807F01D3012070470F4965
:105760000F4A48600023F02010708B60072008600B
:10577000002070478A40400943F82020704700000D
:105780001C7300080CED00E00000FA0500E400E0E6
:1057900018ED00E000E100E080E100E010E000E052
:1057A00023ED00E070B5040046D02068DFF8C8257E
:1057B000904205D040F21D11DFF8C005FDF7EFFB68
:1057C000A068002818BF80280BD0B0F5807F18BFD4
:1057D000B0F5407F05D04FF48F71DFF8A005FDF7DD
:1057E000DEFB6068B0F5801F08D310F1010F05D013
:1057F00040F21F11DFF88405FDF7D1FB607C20B972
:10580000002121742046FDF7C3FC0220607440F2A1
:10581000E9352068416821F00801416001F0C8F9CC
:10582000064620684168080734D401F0C1F9801B9E
:10583000A842F6D304206074012070BD01F0B8F9CD
:10584000801BA84229D3F5E70120FFF79BFE002823
:10585000F0D0401E21688A681209120142EA104203
:105860008A6080B22168CA68120C40EA0240C860AF
:105870002068416821F01001416001F099F9064665
:1058800020684168880628D401F092F9801BA8425C
:10589000F6D3CFE701F08CF90646206841688A0606
:1058A000CCD5416841F01001416020684168C908C9
:1058B000C9004160A068DFF8C81418B14868400802
:1058C000400048600A68A06822F4607202430A60DF
:1058D000606810F1010FB7D0BCE700200121E07330
:1058E0006173A173617470BDF8B505000E4618BFF1
:1058F000002E144600F0AC80002C18BF012C05D0FF
:1059000040F2CA21DFF87404FDF749FB287C012826
:1059100001D10220F2BD012028740221697430787F
:1059200024BB182805D340F2D321DFF85004FDF73B
:1059300036FB70783C2805D34FF43571DFF83C0412
:10594000FDF72DFBB0783C2805D340F2D521DFF8D8
:105950002C04FDF724FB72783478C2EB02104FF46C
:105960006161800001FB0404B17853E0020902EB9D
:10597000820300F00F0000EB4300C0B2182805D3EB
:1059800040F2DD21DFF8F403FDF709FB707801092F
:1059900001EB810200F00F0000EB4200C0B23C2896
:1059A00005D340F2DE21DFF8D403FDF7F8FAB07832
:1059B000010901EB810200F00F0000EB4200C0B2D0
:1059C0003C2805D340F2DF21DFF8B003FDF7E7FA0A
:1059D00034787078B178220902EB8203020900F072
:1059E0000F0004F00F0404EB430402EB820300EB0E
:1059F0004300C0B20A09C0EB001702EB820301F0BA
:105A00000F01E4B24FF46166B80001EB430106FBFD
:105A10000404C9B20C192146284600F0C6F998B909
:105A20002868416821F005014160284600F0ECF942
:105A300010F1010F0ED0A0420CD2DFF84813091864
:105A4000284600F0E9F928B104206874002129747F
:105A50000120F2BD01206874002129740020F2BDEC
:105A60002DE9F843050060D00E005ED0140018BF89
:105A7000012C05D040F22D31DFF80003FDF78FFA3D
:105A800029684868410750D4284600F07DF98046CF
:105A90004FF46160B8FBF0F04FF4616101FB1081DD
:105AA0003C22B1FBF2F2C2EB0213A1EB83011828F6
:105AB0007270B17042D31821B0FBF1F909EB4902C1
:105AC000A0EBC2003070284600F09EF910F1010FE3
:105AD00004D0804538BFA0EB080701D34FF0FF3753
