:020000040800F2
:100000000050002005910008DD0D0008DF0D0008FC
:10001000E10D0008E30D0008E50D000800000000F8
:10002000000000000000000000000000C16E000899
:10003000E70D000800000000516F0008956F0008F0
:100040004D9100084D9100084D910008E90D000800
:100050004D9100084D9100080D0E00084D910008CB
:100060004D9100084D9100084D9100084D910008F8
:100070004D9100084D910008150E0008210E000852
:100080002D0E0008390E00084D9100084D91000812
:100090004D9100084D9100084D9100084D910008C8
:1000A0004D910008450E00084D9100084D91000843
:1000B0004D9100084D910008510E00084D91000827
:1000C0004D9100084D9100084D9100084D91000898
:1000D0004D910008650E00087D0E00084D91000846
:1000E0004D9100084D9100084D910008000000005E
:1000F0000000000000000000000000000000000000
:0C01000000000000000000005FF808F1A3
:1001100010B5054C237833B9044B13B10448AFF341
:1001200000800123237010BD9C000020000000000F
:10013000109B000808B5034B1BB103490348AFF3FC
:10014000008008BD00000000A0000020109B0008F7
:1001500010F8012B11F8013B012A28BF9A42F7D071
:10016000D01A704770B54FF0FF0C4CF4E06C1CEAED
:1001700011541DBF1CEA135594EA0C0F95EA0C0F9D
:1001800000F0DEF82C4481EA030621EA4C5123EA10
:100190004C5350EA013518BF52EA033541F480113F
:1001A00043F4801338D0A0FB02CE4FF00005E1FBF2
:1001B00002E506F00042E0FB03E54FF00006E1FB3C
:1001C00003569CF0000F18BF4EF0010EA4F1FF047F
:1001D000B6F5007F64F5407404D25FEA4E0E6D41BF
:1001E00046EB060642EAC62141EA55514FEAC520D0
:1001F00040EA5E504FEACE2EB4F1FD0C88BFBCF54C
:10020000E06F1ED8BEF1004F08BF5FEA500E50F1FC
:10021000000041EB045170BD06F0004646EA0101C2
:1002200040EA020081EA0301B4EB5C04C2BFD4EBF4
:100230000C0541EA045170BD41F480114FF0000EED
:10024000013C00F3AB8014F1360FDEBF002001F05B
:10025000004170BDC4F10004203C35DA0C341BDCD5
:1002600004F11404C4F1200500FA05F320FA04F0A7
:1002700001FA05F240EA020001F0004221F00041DB
:1002800010EBD37021FA04F642EB06015EEA430E4E
:1002900008BF20EAD37070BDC4F10C04C4F120057E
:1002A00000FA04F320FA05F001FA04F240EA020031
:1002B00001F0004110EBD37041F100015EEA430E02
:1002C00008BF20EAD37070BDC4F1200500FA05F222
:1002D0004EEA020E20FA04F301FA05F243EA0203A1
:1002E00021FA04F001F0004121FA04F220EA0200B0
:1002F00000EBD3705EEA430E08BF20EAD37070BDF6
:1003000094F0000F0FD101F00046400041EB0101D5
:1003100011F4801F08BF013CF7D041EA060195F0B7
:10032000000F18BF704703F00046520043EB030371
:1003300013F4801F08BF013DF7D043EA060370475E
:1003400094EA0C0F0CEA135518BF95EA0C0F0CD069
:1003500050EA410618BF52EA4306D1D181EA0301AF
:1003600001F000414FF0000070BD50EA410606BFA9
:100370001046194652EA430619D094EA0C0F02D1EE
:1003800050EA013613D195EA0C0F05D152EA033633
:100390001CBF104619460AD181EA030101F0004151
:1003A00041F0FE4141F470014FF0000070BD41F09A
:1003B000FE4141F4780170BD81F0004102E000BFD0
:1003C00083F0004330B54FEA41044FEA430594EA15
:1003D000050F08BF90EA020F1FBF54EA000C55EA50
:1003E000020C7FEA645C7FEA655C00F0E2804FEA21
:1003F0005454D4EB5555B8BF6D420CDD2C4480EA03
:10040000020281EA030382EA000083EA010180EA32
:10041000020281EA0303362D88BF30BD11F0004F80
:100420004FEA01314FF4801C4CEA113102D04042B6
:1004300061EB410113F0004F4FEA03334CEA1333F1
:1004400002D0524263EB430394EA050F00F0A78009
:10045000A4F10104D5F1200E0DDB02FA0EFC22FA04
:1004600005F2801841F1000103FA0EF2801843FAF8
:1004700005F359410EE0A5F120050EF1200E012AE9
:1004800003FA0EFC28BF4CF0020C43FA05F3C01827
:1004900051EBE37101F0004507D54FF0000EDCF1A0
:1004A000000C7EEB00006EEB0101B1F5801F1BD349
:1004B000B1F5001F0CD349085FEA30004FEA3C0C4D
:1004C00004F101044FEA445212F5800F80F09A8043
:1004D000BCF1004F08BF5FEA500C50F1000041EB47
:1004E000045141EA050130BD5FEA4C0C404141EB4B
:1004F0000101013C28BFB1F5801FE9D291F0000F46
:1005000004BF01460020B1FA81F308BF2033A3F1F4
:100510000B03B3F120020CDA0C3208DD02F1140CEB
:10052000C2F10C0201FA0CF021FA02F10CE002F126
:100530001402D8BFC2F1200C01FA02F120FA0CFC1F
:10054000DCBF41EA0C019040E41AA2BF01EB045168
:10055000294330BD6FEA04041F3C1CDA0C340EDC66
:1005600004F11404C4F1200220FA04F001FA02F3A9
:1005700040EA030021FA04F345EA030130BDC4F167
:100580000C04C4F1200220FA02F001FA04F340EA5C
:100590000300294630BD21FA04F0294630BD94F00D
:1005A000000F83F4801306BF81F480110134013DF4
:1005B0004EE77FEA645C18BF7FEA655C29D094EA65
:1005C000050F08BF90EA020F05D054EA000C04BFE3
:1005D0001946104630BD91EA030F1EBF00210020CE
:1005E00030BD5FEA545C05D14000494128BF41F06D
:1005F000004130BD14F580043CBF01F5801130BDD1
:1006000001F0004545F0FE4141F470014FF000005B
:1006100030BD7FEA645C1ABF194610467FEA655C0C
:100620001CBF0B46024650EA013406BF52EA0335AE
:1006300091EA030F41F4002130BD00BF90F0000F9C
:1006400004BF0021704730B54FF4806404F13204D8
:100650004FF000054FF0000150E700BF90F0000F91
:1006600004BF0021704730B54FF4806404F13204B8
:1006700010F0004548BF40424FF000013EE700BF88
:1006800042004FEAE2014FEA31014FEA02701FBF18
:1006900012F07F4393F07F4F81F06051704732F04A
:1006A0007F4208BF704793F07F4F04BF41F40021A1
:1006B000704730B54FF4607401F0004521F00041FF
:1006C0001CE700BF50EA010208BF704730B54FF089
:1006D00000050AE050EA010208BF704730B511F08A
:1006E000004502D5404261EB41014FF4806404F1C2
:1006F00032045FEA915C3FF4D8AE4FF003025FEA48
:10070000DC0C18BF03325FEADC0C18BF033202EBCB
:10071000DC02C2F1200300FA03FC20FA02F001FA25
:1007200003FE40EA0E0021FA02F11444BDE600BFC8
:100730004FEA4102B2F1E04324BFB3F5001CDCF103
:10074000FE5C0DD901F0004C4FEAC0024CEA50703B
:10075000B2F1004F40EB830008BF20F0010070476A
:1007600011F0804F21D113F13872BCBF01F000406D
:10077000704741F480114FEA5252C2F11802C2F19F
:10078000200C10FA0CF320FA02F018BF40F0010020
:100790004FEAC1234FEAD32303FA0CFC40EA0C00D2
:1007A00023FA02F34FEA4303CCE77FEA625307D10F
:1007B00050EA01331EBF4FF0FE4040F44000704746
:1007C00001F0004040F0FE4040F40000704700BFE0
:1007D0004FEA4002B2F1FE4F0FD34FF09E03B3EB4E
:1007E00012620DD94FEA002343F0004310F0004F8E
:1007F00023FA02F018BF404270474FF000007047E4
:1008000012F1610F01D1420205D110F0004008BF82
:100810006FF0004070474FF00000704742000ED26A
:10082000B2F1FE4F0BD34FF09E03B3EB126209D42B
:100830004FEA002343F0004323FA02F070474FF0E1
:100840000000704712F1610F01D1420202D14FF056
:10085000FF3070474FF00000704700BF70B51422A2
:10086000002494B021460DEB0200CDE90F4408F0BE
:10087000A1FC2146102201A808F09CFC02260522BA
:100880004FF480330125CDE90A23CDE911634FF4FC
:10089000E0130AA81393CDE90D550C9401F054FA16
:1008A0000F23CDE905364FF48063314605A8CDE925
:1008B0000834079401F08EFC4FF4807301A8019571
:1008C000029301F0CBFD14B070BD000008B501F03B
:1008D00017FAFFF7C3FF00F027F800F03BF900F02C
:1008E00095F900F00FFC00F0FDFA00F017FB00F0A6
:1008F00029FA064800F062F9044802F047FE05F0C4
:1009000079FE00F05BFC05F091FEFEE75843002005
:100910000268034B9A4201D101F004BA704700BF4C
:10092000002C01407047704710222DE9F04389B038
:100930000DEB0200002108F03DFC384BDFF8EC80A5
:100940009A69374D42F010029A619A69404602F066
:1009500010020092009A9A6949F6F21142F02002C0
:100960009A619A694FF0030902F020020192019AFC
:100970009A69012742F004029A619A69022602F0FC
:1009800004020292029A9A69002442F008029A61D3
:100990009B69002203F008030393039B01F0D8FF37
:1009A000002228464FF22B0101F0D2FF4FF40053F2
:1009B00004A91C48CDE9043901F06AFE1A4B4046EF
:1009C00004A9CDE90473069601F062FE49F6F2131C
:1009D000404604A9CDE90437CDE9064601F058FEAA
:1009E0004FF22B03284604A9CDE90437CDE906468A
:1009F00001F04EFE4FF44173284604A9CDE90439B5
:100A000001F046FE22460521062002F0CBF9062021
:100A100002F00CFA09B0BDE8F08300BF00100240FC
:100A2000000C0140001001400000111000080140BE
:100A300008B50B480B4A0C4BC0E9002300234FF4C8
:100A40008042C0E90233C0E90423C0E906330362EF
:100A500000F020FD18B1BDE80840FFF763BF08BDF6
:100A6000B042002000540040A086010008B50B48A9
:100A70000B4A0C4BC0E9002300234FF48042C0E92D
:100A80000233C0E90423C0E90633036200F002FD2B
:100A900018B1BDE80840FFF745BF08BD044300207A
:100AA00000580040801A0600102210B5044688B095
:100AB0000DEB0200002108F07DFB2368214A9342E0
:100AC0001ED1214CC021A369204843F00803A36133
:100AD000A36903F008030093009B1223CDE90413DC
:100AE000032304A9079301F0D3FDE36943F4001342
:100AF000E361E36903F400130193019B08B010BDA7
:100B0000134A9342FAD1104C4FF44062A3690F4844
:100B100043F00803A361A36904A903F00803029347
:100B2000029B1223CDE904230323079301F0B0FDB8
:100B3000E36943F48003E361E36903F4800303930F
:100B4000039BDBE70054004000100240000C014012
:100B5000005800404FF0FF3313B5154A15480024E4
:100B6000C0E900234FF48073ADF800408DF80240D7
:100B70000194836002F094FC08B1FFF7D3FE0823D0
:100B8000002269460B48ADF800308DF8024002F0B3
:100B900037FA08B1FFF7C6FE074B0022054801A946
:100BA000019302F085FB08B1FFF7BCFE02B010BD57
:100BB00000280040584300200201011607B5104BE1
:100BC00002689A4219D102F05FF90E4B0521DA69E9
:100BD000032042F00062DA610122DB6903F0006366
:100BE0000193019B084B1A60002202F0DBF80320FE
:100BF00003B05DF804EB02F019B903B05DF804FB33
:100C000000280040001002403C0442427FB5102200
:100C1000002102A808F0CEFA4FF42F7214481549AB
:100C20000023C0E900126322CDE90033C0E90323A9
:100C300083608023836102F0FDFE08B1FFF772FE3E
:100C40004FF480530A4802A9029303F0FBF808B15D
:100C5000FFF768FE002369460548CDE9003303F03D
:100C6000AFFB08B1FFF75EFE07B05DF804FB00BF05
:100C70006C430020000800400268084B82B09A4292
:100C80000AD103F50333DA6942F00202DA61DB6963
:100C900003F002030193019B02B07047000400407F
:100CA00007B50E4B02689A4215D103F50233DA6993
:100CB000052142F00402DA61DB69002203F004033B
:100CC00001931E20019B02F06DF81E2003B05DF819
:100CD00004EB02F0ABB803B05DF804FB0008004081
:100CE00030B51025044687B02A46002102A808F036
:100CF00061FA2268104B9A421BD103F503339969BC
:100D00000E4841F0080199619B6902A903F00803AC
:100D10000193019B022302950393059301F0B8FC14
:100D2000074A536823F4406343F0E06343F40063ED
:100D3000536007B030BD00BF00040040000C01400C
:100D40000000014010B500248AB01C22214603A8EF
:100D5000CDE9014408F02EFA1548164B8460C0E92D
:100D600000346423C0E903348023836102F0CCFEA5
:100D700008B1FFF7D7FD0E4801A9CDE9014403F002
:100D80001FFB08B1FFF7CEFD60225023CDE90323FE
:100D900002230022064803A90593079202F06CFF84
:100DA00008B1FFF7BFFD0248FFF79AFF0AB010BD78
:100DB000B4430020000400400268064B9A4207D169
:100DC000054A1E20D36923F00403D36102F042B820
:100DD000704700BF00080040001002407047FEE767
:100DE000FEE7FEE7FEE7704708B5064802F0E3FBC2
:100DF00005484FF4805101F0C5FDBDE808400120D1
:100E000006F066BA58430020000C0140012001F0B2
:100E1000CDBD0000014801F017BF00BF40440020D5
:100E2000014801F011BF00BF84440020014801F0D7
:100E30000BBF00BFFC430020014801F005BF00BF0D
:100E4000C8440020014802F01BBD00BF98450020A7
:100E500008B5034802F014FDBDE8084006F0D2B919
:100E60006C43002010B5044C204603F015FD2046CD
:100E7000BDE8104008F0C4B80C45002010B5044C83
:100E8000204603F009FD2046BDE8104007F02CBDC8
:100E900050450020114B07B59A690F2142F001021D
:100EA0009A619A696FF0010002F001020092009AC3
:100EB000DA6942F08052DA61DB69002203F0805384
:100EC0000193019B01F06EFF054A536823F0E06334
:100ED00043F00073536003B05DF804FB0010024060
:100EE0000000014008B54FF4E1330A480A4AC0E95E
:100EF000002300230C22C0E90233C0E9052303616B
:100F0000C36103F05BFB18B1BDE80840FFF70ABD01
:100F100008BD00BF0C4500200038014008B54FF463
:100F2000E1330A480A4AC0E9002300230C22C0E941
:100F30000233C0E905230361C36103F03FFB18B12D
:100F4000BDE80840FFF7EEBC08BD00BF50450020DB
:100F500000440040102270B5054688B00DEB020039
:100F6000002108F027F92B685A4A934259D15A4B6D
:100F70004FF400749A69594842F480429A619A6920
:100F800004A902F480420092009A9A69002642F075
:100F900004029A619B6903F004030193019B0223FD
:100FA000CDE904430323079301F072FB4FF4806300
:100FB0004A4804A94A4CCDE90436069601F068FB7C
:100FC000484B2046C4E900368023C4E90566C4E9DD
:100FD0000336A660E66101F0F5FC08B1FFF7A2FC5C
:100FE00010234148AC636562404C8022C4E9000391
:100FF00000232046C4E90232C4E90433C4E90633BD
:1010000001F0E0FC08B1FFF78DFC2520002205214E
:101010006C63656201F0C6FE252001F007FF08B091
:1010200070BD334A9342FAD12B4B0421DA692B4825
:1010300042F40032DA61DA69002602F400320292E8
:10104000029A9A692B4C42F004029A619B6903F060
:1010500004030393039B0223CDE90413032304A990
:10106000079301F015FB08231C4804A9CDE90436B9
:10107000069601F00DFB204B2046C4E90036802384
:10108000C4E90566C4E90336A660E66101F09AFC8E
:1010900008B1FFF747FC1023184AAC636562184C8F
:1010A000C4E90023002380222046C4E90232C4E9B7
:1010B0000433C4E9063301F085FC08B1FFF732FCC4
:1010C0002620002205216C63656201F06BFE26205C
:1010D000A3E700BF003801400010024000080140B3
:1010E0008444002058000240440002404044002054
:1010F00000440040FC4300206C000240800002409D
:10110000C8440020164B07B55A69052142F0010278
:101110005A615B69002203F0010301930E20019BD9
:1011200001F040FE0E2001F081FE002205210F207B
:1011300001F038FE0F2001F079FE00220521102079
:1011400001F030FE102001F071FE00220521112077
:1011500001F028FE112003B05DF804EB01F066BE3B
:10116000001002400F4B1A6842F001021A605968E1
:101170000D4A0A405A601A6822F0847222F48032C2
:101180001A601A6822F480221A605A6822F4FE0259
:101190005A604FF41F029A604FF00062034B9A604E
:1011A000704700BF001002400000FFF800ED00E0B3
:1011B00008B5012005F012FBFBE7000008B500218F
:1011C0000C4A0D4805F052FA0C4B186006F048F82E
:1011D00078B905F0EDFF60B906F000FE48B907F0F8
:1011E00009F930B907F0E6FD18B9BDE8084006F086
:1011F00062BD08BDAC9B0008B111000894450020F9
:101200001E4B70B59A6988B042F400629A619B697E
:1012100001A903F400630293064603A8184D029B3C
:1012200001F0ECF801F0DAF8164B2B6040F2E733EE
:10123000EB60154BB0FBF3F00023013868602846E3
:101240002B61AB60AB6102F0F5FB044680B9284628
:1012500002F09EFA044658B9192001F0E7FD0F2E5E
:1012600009D822463146192001F09CFD074B1E602B
:10127000204608B070BD0124FAE700BF001002400C
:1012800098450020002C014040420F00080000203B
:10129000016800224B6913F4806310D06FF48063FF
:1012A0004B612023026380F83D3080F83E20036CC0
:1012B00080F83C2043F00403036401207047184683
:1012C00070472DE9F04104460F46164698462568BA
:1012D000686927EA000080B2B8B16B695A0516D573
:1012E0002B68202243F400732B606FF480636B61E2
:1012F0000023236384F83D2084F83E30226C42F0C2
:1013000004020120226484F83C30BDE8F081731CA3
:10131000DED000F013FDA0EB0800B04201D8002E93
:10132000D5D100232022236384F83D2084F83E3069
:10133000226C42F02002E4E770B504460D461646E2
:1013400023685B695B0701D5002070BD2046FFF76D
:101350009FFFA8B96A1CF3D000F0F0FC801BA842E4
:1013600001D8002DECD100232022236384F83D20F6
:1013700084F83E30226C84F83C3042F02002226433
:101380000120E2E770B504460D46164621684B6918
:1013900013F0400301D0002010E04A69D2060ED5B8
:1013A0006FF010024A612022236384F83D2084F804
:1013B0003E30226C0120226484F83C3070BD00F085
:1013C000BDFC801BA84201D8002DDFD100232022C4
:1013D000236384F83D2084F83E30226C42F02002E2
:1013E000E8E72DE9F84606460F4691461D464FEAC6
:1013F000114A3368BAF1010F0CBF5C699C6927EA96
:101400000404A4B2B4FA84F46409A14501D0002014
:1014100017E06A1CEED000F091FC089BC01AA842AD
:1014200001D8002DE5D1002320220120336386F866
:101430003D2086F83E30326C86F83C3042F0200287
:101440003264BDE8F88670B504460D46164623683A
:101450005B691B0601D5002070BD2046FFF718FF11
:10146000A8B96A1CF3D000F069FC801BA84201D81F
:10147000002DECD100232022236384F83D2084F842
:101480003E30226C84F83C3042F02002226401207D
:10149000E2E7000070B5044608B9012070BD03689A
:1014A000794A934208D002F58062934204D040F218
:1014B000D1117648FFF737FA6368754A013B9342CA
:1014C00004D94FF4E9717148FFF72DFAA36833F49A
:1014D000804304D040F2D3116C48FFF724FAE3684C
:1014E00023F47F7323F0030323B14FF4EA716748B9
:1014F000FFF719FA236923F40043B3F5804F04D0B2
:1015000040F2D5116148FFF70EFA6369012B04D947
:101510004FF4EB715D48FFF706FAA36933F0FE0361
:1015200004D040F2D7115948FFF7FDF9E36933F0D1
:10153000400304D04FF4EC715448FFF7F4F9236AE8
:1015400033F0800304D040F2D9115048FFF7EBF993
:1015500094F83D3003F0FF0223B9204684F83C2084
:10156000FFF7A2FA242384F83D3023681A6822F09A
:1015700001021A601A6842F400421A601A6822F4E2
:1015800000421A6000F01AFF424A6368934294BF17
:10159000414A424A90428CBF00220122002A7FF435
:1015A0007CAF3F4E2168B0FBF6F64A6822F03F025E
:1015B00032434A60374A0D6A934281BF4FF49672B4
:1015C00072434FF47A76B2FBF6F225F03F0594BFF2
:1015D000721C01322A430A62CD69421E2D4825F44D
:1015E0004F45834225F0FF0532D85B00B2FBF3F391
:1015F00040F6FC720133134242D0C3F30B032B437A
:10160000CB610A68D4E9073022F0C00203431343D8
:101610000B608A68D4E9030322F40342034322F0F7
:10162000FF0213438B60CA68D4E9053022F0FF0241
:1016300003431343CB600B68002043F001030B60AE
:101640002023206484F83D30206384F83E0025E7A1
:10165000A06850B903EB4303B2FBF3F30133C3F3C8
:101660000B037BB143F40043C9E719204343B2FBAA
:10167000F3F30133C3F30B0323B143F44043BEE759
:101680000423BCE70123BAE700540040D09B0008C4
:101690007F1A0600A08601007F841E00FF083D001F
:1016A00040420F002DE9F043044685B098460D46B0
:1016B00091460C9F00F042FB94F83D300646202BEB
:1016C00004D00225284605B0BDE8F0830090192318
:1016D000012220465B49FFF784FE0028F1D194F8EF
:1016E0003C30012BEDD00123216884F83C300B689D
:1016F000DA075EBF0B6843F001030B600B6823F44D
:1017000000630B60212384F83D30102384F83E30C1
:1017100000232364A4F82A80638DC4F824902385D1
:10172000494BE362E36A082B04D0012B02D013F586
:10173000803F04D10B6843F480730B6002E0236B9D
:10174000122BF7D000223B464FF0011120460096A5
:10175000FFF747FE226838B11368DB0544BF4FF43A
:10176000007323640125ADE72369B3F5804F21D1D0
:1017700005F0FE05156133463A4620463349FFF72A
:10178000A0FD05460028EDD1236803905A69039215
:101790009B690393039B238DF3B921680A6842F484
:1017A00000720A60202284F83C3084F83D2084F8DE
:1017B0003E3087E7EB1103F0060343F0F0031361BB
:1017C000204633463A462249FFF77BFD0028C9D11F
:1017D0002368EDB21D61CEE7324639462046FFF759
:1017E00032FE40B1236C042BBCD12268136843F451
:1017F00000731360B6E7636A20681A4612F8011B8B
:1018000001616262628D013A92B26285228DD0F8E6
:1018100014C0511E89B21CF0040F21850AD049B1B1
:101820005978023301616362638D023A013B9BB2D6
:1018300063852285324639462046FFF77DFD002824
:10184000A9D0CFE7020010000000FFFF0200010056
:10185000080001002DE9F04398460023044689B0B2
:1018600002930D469146109F00F068FA94F83D30BF
:101870000646202B04D00225284609B0BDE8F08397
:1018800000901923012220468F49FFF7AAFD002866
:10189000F1D194F83C30012BEDD00123216884F87C
:1018A0003C300B68DB075EBF0B6843F001030B6045
:1018B0000B6823F400630B60222384F83D3010236F
:1018C00084F83E3000232364A4F82A80638DC4F892
:1018D000249023857D4BE362E36A0A68082B42F477
:1018E00080620A6004D0012B02D013F5803F04D13E
:1018F0000B6843F480730B6002E0236B112BF7D06D
:101900003B4600224FF0011120460096FFF769FD8B
:10191000236838B11B68DD0502D54FF400732364DA
:101920000125A9E72269B2F5804F29D145F00105CB
:10193000EDB21D6133463A4620466549FFF7C1FCCA
:1019400005460028ECD1228D2368002A4DD1039052
:101950005A6903929A690392039A1A6842F40072D0
:101960001A60DFF87481DFF87491238D002B6CD13D
:10197000202284F83C3084F83D2084F83E307BE718
:101980004FEAE51808F0060848F0F0021A61204610
:1019900033463A464F49FFF794FC0028C0D12368EC
:1019A000EDB23A461D61204633464949FFF789FCAE
:1019B00002460028B4D12368079059692046079150
:1019C000996907910799196841F4807119603B463C
:1019D0004FF001110096FFF704FD226808B113686B
:1019E00099E748F0F1031361A4E7012A11D11A68BD
:1019F00022F480621A6072B6236804905A690492D5
:101A00009A690492049A1A6842F400721A6062B6E3
:101A1000A7E7022A1A680ED142F400621A6072B671
:101A2000236805905A6905929A690592059A1A6881
:101A300022F48062EAE742F480621A6006905A69F2
:101A400006929B690693069B8BE7032B00F2888026
:101A5000012B16D1324639462046FFF793FC002869
:101A60007FF45EAF23681A69636A1A70636A013390
:101A70006362238D013B2385638D013B9BB26385AC
:101A800073E7022B4FF000023B464146204600968A
:101A900026D1FFF7A6FC00287FF442AF72B6236878
:101AA0001A6842F400721A601A69636A1A70636AEB
:101AB00001336362238D013B2385638D013B9BB220
:101AC000638562B6CEE700BF020010000000FFFF92
:101AD00002000100080001000400010000000020D5
:101AE000FFF77FFC00287FF41BAF2268136823F404
:101AF0008063136072B623681A69636A1A7046F2CB
:101B0000A812616A4B1C6362238D013B2385638DA0
:101B1000013B9BB26385D9F80030B3FBF2F223237B
:101B200053430293029B013B0293029B6BB9202219
:101B3000236384F83D2084F83E30226C42F020027A
:101B4000226462B684F83C30EAE623685A6950079A
:101B5000E8D51A6842F400721A601B694B70A6E758
:101B6000324639462046FFF70DFC00287FF4D8AEF8
:101B700023681A69636A1A70626A531C6362238D50
:101B8000013B2385638D013B9BB2638523685969C3
:101B900049077FF5EAAE1B69537067E72DE9F04FFF
:101BA000044685B01E460F46914600F0C7F894F8EB
:101BB0003D300546202B03D0022005B0BDE8F08F54
:101BC00000901923012220464C49FFF70AFC002807
:101BD000F2D194F83C30012BEED0012384F83C3054
:101BE00023684FF0010A1A68DFF810B1D20758BF16
:101BF0001A6807F0FE075CBF42F001021A601A681B
:101C000022F400621A60242384F83D300023236408
:101C1000A3F58033E36222684FF001111368204678
:101C200043F480731360334600220095FFF7D9FB1D
:101C3000236838B11B68DB0502D54FF400732364B9
:101C40000320BAE71F6100F079F84FF0A0080546BD
:101C500023685A695B69C2F34002C3F3802394F896
:101C60003D10A02901D013431DD04FF02008236858
:101C700084F83D805A6912F0020F1A6842F400722B
:101C80001A6025D0002203925A69204603929B696C
:101C900001220393039B194919230095FFF7A1FB28
:101CA00088B1012089E700F049F8401BB04200D814
:101CB0000EB984F83D8023685A695B69C2F340021B
:101CC000C3F38023CBE784F83D8084F83C0074E7BD
:101CD0006FF4806259465A6120461923012200950B
:101CE000FFF77FFB0028DCD10AF1010ACA4592D335
:101CF00084F83D8084F83C00D3E700BF0200100068
:101D0000074A08B51368032043F01003136001F07D
:101D10002DF80F20FFF774FAFFF7BCF8002008BD7C
:101D200000200240034A044B11681B780B441360E7
:101D3000704700BFE045002004000020014B1868F8
:101D4000704700BFE04500202DE9F341044608B983
:101D5000012083E00368ABB92368190700F1C48050
:101D600023685A0700F1F680E369022B04D940F298
:101D7000AF219B48FEF7D7FDE069002840F067815E
:101D800000206BE01B0704D140F267119448FEF776
:101D9000CAFD2368DF071FD5636833F4803207D09C
:101DA000B3F5A02F04D040F26D118D48FEF7BBFDB6
:101DB0008C4D6B6803F00C03042B07D06B6803F0A9
:101DC0000C03082B36D16B68DE0333D52B689D03DB
:101DD00002D56368002BBBD023689A07BCD5236962
:101DE000012B04D940F2A1117D48FEF79CFD6369E7
:101DF0001F2B04D94FF4D1717948FEF794FD794D2A
:101E00006B6813F00C0F07D06B6803F00C03082B02
:101E10004BD16B68DA0348D42B689B0702D5236942
:101E2000012B95D12B68626923F0F80343EAC203C2
:101E30002B6091E76368B3F5803F12D12B6843F4C0
:101E400080332B60FFF77AFF06462B689803C3D4D4
:101E5000FFF774FF801B6428F7D9032002B0BDE8A8
:101E6000F0819BB92B6823F480332B602B6823F41B
:101E700080232B60FFF762FF06462B689903ABD5E2
:101E8000FFF75CFF801B6428F7D9E6E7B3F5A02FC6
:101E90002B6803D143F480232B60CFE723F48033F6
:101EA0002B602B6823F48023CBE722694E4B6AB169
:101EB00001221A60FFF742FF06462B689F07B1D444
:101EC000FFF73CFF801B0228F7D9C6E71A60FFF72F
:101ED00035FF06462B6898077FF53EAFFFF72EFFCC
:101EE000801B0228F6D9B8E7A369012B04D94FF467
:101EF000F1713B48FEF717FDA2693A4E3B4BDAB150
:101F000001221A60FFF71AFF0546736A9B070DD579
:101F10004FF4FA52364B1B68B3FBF2F3019300BF48
:101F2000019B5A1E0192002BF9D119E7FFF706FF1A
:101F3000401B0228E9D990E71A60FFF7FFFE05462B
:101F4000736A9F077FF50CAFFFF7F8FE401B02286E
:101F5000F6D982E7E368012B06D9052B04D040F2BD
:101F600011211F48FEF7DFFC1E4DEB69D80024D479
:101F70000127EB6943F08053EB61EB6903F0805379
:101F80000093009B1B4E3368D90518D5E368012BDD
:101F900032D12B6A43F001032B62FFF7CFFE41F2EF
:101FA000883806462B6A9B074BD5002F3FF4DCAEE2
:101FB000EB6923F08053EB61D6E60027E2E7336854
:101FC00043F480733360FFF7B9FE80463368DA0567
:101FD000DCD4FFF7B3FEA0EB08006428F6D93CE799
:101FE000059C00080010024000004242800442426A
:101FF0000000002000700040ABB92B6A41F2883825
:1020000023F001032B622B6A23F004032B62FFF7FA
:1020100095FE06462B6A9807C7D5FFF78FFE801BF3
:102020004045F7D919E7052B2B6A03D143F0040388
:102030002B62AEE723F001032B622B6A23F004032B
:10204000AAE7FFF77BFE801B4045ABD905E7414B74
:102050005A681D4602F00C02082A69D002283E4E3A
:1020600057D1236A33F4803304D04FF42E713B48A8
:10207000FEF759FC636A33F4402223F4802110D028
:10208000B2F5801F0DD0B2F5001F0AD0B1F5401F88
:1020900007D0B3F5601F04D040F2B9212F48FEF7F6
:1020A00042FC00233360FFF749FE07462B68990185
:1020B00029D4236AB3F5803F0ED1A36833F40033EB
:1020C00004D040F2CF212548FEF72DFC6B68A268B2
:1020D00023F4003313436B606A68D4E9083122F4B7
:1020E00074120B4313436B6001233360FFF726FE2A
:1020F00004462B689A013FF543AEFFF71FFE001B15
:102100000228F6D9A9E6FFF719FEC01B0228CDD98F
:10211000A3E600233360FFF711FE04462B689B0102
:102120007FF52EAEFFF70AFE001B0228F6D994E6D3
:1021300001283FF493AE5868236A00F480329A4233
:102140007FF406AE636A00F47010C01A18BF012055
:1021500084E600BF0010024060004242059C000877
:1021600030B5184B87B002AC03F110052246186851
:102170005968083303C2AB421446F7D140F2012339
:102180001149ADF804304B6803F00C02082A17D14E
:10219000C3F3834206A80244DB0312F8102C0CD5CB
:1021A0004B680A48C3F34043504306AA134413F84C
:1021B000143CB0FBF3F007B030BD05485043FAE7DC
:1021C0000248F8E73A9C00080010024000127A002A
:1021D00000093D002DE9F0410D46044610B90120EB
:1021E000BDE8F08103681E0704D14FF44E716D48BD
:1021F000FEF799FB022D04D940F239316948FEF708
:1022000092FB694A136803F00703AB423DD323688E
:10221000980745D42368DA076ED4634A136803F03D
:102220000703AB4200F29A802368604D13F0040F5D
:1022300040F0A08023681B0717D5236933F4806220
:102240000CD023F40072B2F5A06F07D0B3F5C06FC5
:1022500004D040F2AB315348FEF765FB6B6822694E
:1022600023F4605343EAC2036B60FFF779FF6B68A6
:102270004F4AC3F30313D35CD8404E4B18604E4B08
:102280001868FEF7BDFF0020AAE7136823F00703D4
:102290002B431360136803F00703AB429FD1B6E7EB
:1022A000424E13F0040F1EBF726842F4E062726087
:1022B000190742BF736843F460537360A36833F037
:1022C000800212D023F02002902A0ED023F0400288
:1022D000A02A0AD023F01002C02A06D0F02B04D086
:1022E00040F25F312F48FEF71EFB7368A26823F0AF
:1022F000F003134373608DE76368022B04D940F247
:1023000066312848FEF70FFB6268284E012A3368C1
:102310001CD113F4003F3FF462AF736841F2883878
:1023200023F0030313437360FFF708FD0746736848
:10233000626803F00C03B3EB820F3FF46EAFFFF75C
:10234000FDFCC01B4045F2D9032049E7022A02D117
:1023500013F0007FDFE713F0020FDCE7136823F0D0
:1023600007032B431360136803F00703AB427FF4AA
:1023700036AF59E7E36833F480620CD023F400727F
:10238000B2F5A06F07D0B3F5C06F04D04FF46971F8
:102390000448FEF7C8FA6B68E26823F4E06313436D
:1023A0006B6047E7059C00080020024000100240D7
:1023B000889B00080000002008000020044B054A0C
:1023C0005B68C3F30223D35C034A1068D8407047AC
:1023D00000100240989B000800000020044B054AB2
:1023E0005B68C3F3C223D35C034A1068D8407047CC
:1023F00000100240989B00080000002038B50D46F0
:10240000044620B940F223511148FEF78CFA25B951
:1024100040F224510E48FEF786FA0F2323600D4B3D
:102420005A6802F0030262605A6802F0F002A26089
:102430005A6802F4E062E2605B68DB0803F4E06380
:102440002361054B1B6803F007032B6038BD00BFF9
:10245000059C0008001002400020024003682DE99E
:10246000F34113F0130F054603D16C214548FEF7E5
:102470005AFA2B68D90728D56B6833F4407303D018
:1024800074214048FEF74FFA3F4CE369DA0044D428
:102490000127E36943F08053E361E36903F080536C
:1024A0000193019B394E3368DB0538D5236A13F459
:1024B000407348D1236A6A6823F44073134323624C
:1024C0001FB1E36923F08053E3612B689B070ED5AE
:1024D000AB6833F4404303D0B9212A48FEF723FA0E
:1024E000294AA968536823F440430B435360286882
:1024F00010F0100024D0EB6833F4800304D040F2D5
:1025000015112048FEF70FFA1F4AE96853680020AA
:1025100023F480030B43536012E00027C2E73368C3
:1025200043F480733360FFF709FC80463368D805B5
:10253000BCD4FFF703FCA0EB08006428F6D9032005
:1025400002B0BDE8F0816A6802F440729A42B1D0EC
:1025500001200F4A236A1060002023F440711060AC
:102560002162D907A6D5FFF7E9FB41F28838064674
:10257000236A9A079ED4FFF7E1FB801B4045F7D9F9
:10258000DDE700BF4B9C00080010024000700040D7
:102590004004424270B50446384B86B002AD03F1A8
:1025A00010062A4618685968083303C2B342154614
:1025B000F7D140F2012314F0130FADF8043004D129
:1025C0004FF4CB712E48FEF7AEF9022C49D0102CF7
:1025D00003D0012C26D0002038E02A4B5968186817
:1025E00010F0807032D0C1F3834206A8024412F882
:1025F000100CCA0341BF5A6806A9C2F340425218E0
:1026000044BF12F8141C204A5B684CBFB2FBF1F2C5
:102610001E4A5B0202FB00F018D403234000B0FB0B
:10262000F3F013E040F20231164A136A1940B1F593
:10263000817F1FD003F44073B3F5007F08D149F6C2
:102640004043506A10F0020018BF184606B070BD33
:10265000B3F5407FBFD110684FF2244310F400302F
:10266000F2E7FFF7BBFE074B5B68C3F3813301332F
:102670005B00D4E74FF40040E8E700BF3A9C000855
:102680004B9C00080010024000127A0000093D0037
:102690002DE9F04FA54B85B0984204460D460193B5
:1026A00013D003F5806398420FD003F580639842FE
:1026B0000BD003F58063984207D003F580639842FE
:1026C00003D0BD219A48FEF72EF92B689AB212B1B9
:1026D0001B0C1B041BB1BE219548FEF724F96B6847
:1026E000032B17D9A3F11102012A13D9914923F41D
:1026F00000128A420ED001F580118B420AD0A1F55A
:1027000070218A4206D08C4A934203D0BF21884868
:10271000FEF709F90026B046DFF82CA2DFF82CB24C
:10272000296831FA08F302D105B0BDE8F08F012223
:1027300002FA08F939EA010301EA090740F0948036
:10274000019B9C4211D07D498C420ED07C4B9C4217
:102750000BD001F500618C4207D001F580618C42FD
:1027600003D0CD217248FEF7DEF86968032908D846
:102770000139022900F28B80DFE811F0A200B700D6
:10278000CD00122900F0BC8071D8112900F0A28080
:10279000FF2F98BF22464FEA880198BF08464FF0A6
:1027A0000F0C84BF221DA1F1200011680CFA00FE5D
:1027B00021EA0E0106FA00F0014311606868C300C7
:1027C00052D5DAF8182028F0030142F00102CAF8C5
:1027D0001820DAF8182001F1804102F0010203927A
:1027E000019B01F5803108F0030E039A4FEA8E0E2B
:1027F0008A680CFA0EFC9C4222EA0C0C00F08F80D6
:102800004E4A944200F08D804D4B9C4200F08B80EC
:1028100002F5006294420CBF0322042202FA0EF277
:1028200042EA0C028A60DBF80020C1034CBF3A4345
:10283000BA43CBF80020DBF8042083034CBF3A43B3
:10284000BA43CBF80420DBF80820C1024CBF3A435E
:10285000BA43CBF80820DBF80C2083024CBF1743A7
:1028600022EA0707CBF80C7008F1010858E7324854
:1028700081420CD01ED8A0F58010814207D000F50F
:102880007020814203D0A0F58010814280D1A968D8
:10289000022903D9F7212648FEF745F8A96800293F
:1028A0003BD001294FF008060CBFC4F81090C4F8C3
:1028B00014906DE723488142E9D000F58030E4E7C9
:1028C000EA68013A022A03D9D5211948FEF72BF804
:1028D000EE685DE7EA68013A022A03D9DC21144870
:1028E000FEF721F8EE68043652E7EA68013A022A58
:1028F00003D9E3210E48FEF716F8EE68083647E7DD
:10290000EA68013A022A03D9EA210948FEF70BF8DE
:10291000EE680C363CE700263AE7042638E700224A
:102920007CE701227AE7022278E700BF0008014035
:10293000839C00080000111000002210000C0140D0
:10294000001001400000311000100240000401405E
:1029500070B5054616460C4621B94FF4EA71084891
:10296000FDF7E1FF012E06D940F2D5110448FDF72D
:10297000DAFF2C6170BD002EFBD12404F9E700BF03
:10298000839C000838B505460C4621B94FF4F67112
:102990000548FDF7C8FFE96804EA010324EA0104D9
:1029A00044EA03442C6138BD839C0008044A08B5FE
:1029B0005169014202D0506104F0A2FB08BD00BF82
:1029C0000004014010B5044600287ED00368404A48
:1029D000934215D01432934212D0143293420FD046
:1029E000143293420CD01432934209D014329342E1
:1029F00006D01432934203D09A213648FDF793FF54
:102A0000636833F0100206D0B3F5804F03D09B21EA
:102A10003048FDF788FFA36833F0400303D09C21C2
:102A20002C48FDF780FFE36833F0800303D09D213D
:102A30002848FDF778FF236933F4807206D0B3F598
:102A4000007F03D09E212348FDF76DFF636933F4B7
:102A5000806206D0B3F5006F03D09F211D48FDF7BB
:102A600062FFA36933F0200303D0A0211948FDF7CA
:102A70005AFFE36933F4405303D0A1211548FDF711
:102A800052FF14222168144B0B44B3FBF2F39B005A
:102A90002364124B0A68E363D4E901300343E0681E
:102AA00022F47F520343206922F03002034360691D
:102AB0000343A0690343E069034313430B60002011
:102AC0004FF48073A063238410BD0120FCE700BF96
:102AD00008000240B99C0008F8FFFDBF000002405A
:102AE0002DE9F041164698465A1E4FF6FE739A425B
:102AF00005460F4604D940F26F112048FDF713FF39
:102B000095F82030012B36D0012385F8203095F838
:102B100021300220012B4FF0000229D12C6885F8CA
:102B20002100AA63226822F001022260D5E90F2168
:102B30008B4053606B68C4F80480102BEB6A0BBFAA
:102B4000A660A760E760E66053B1236843F00E0318
:102B500000202360236843F001032360BDE8F08177
:102B6000236823F004032360236843F00A03EFE79C
:102B700085F82020F2E70220F0E700BFB99C0008AA
:102B800090F82130022B06D004238363002380F8C1
:102B900020300120704703681A6822F00E021A6084
:102BA0001A6822F001021A600123D0E90F218B403C
:102BB00053604FF4807303840020704708B590F889
:102BC0002130022B03D004238363012008BD036856
:102BD0001A6822F00E021A601A6822F001021A60C6
:102BE000174A93421CD0143293421BD014329342A2
:102BF0001AD0143293421AD0143293421AD014329B
:102C000093420CBF4FF480134FF080730D4A536012
:102C10004FF480730384436B7BB198470020D5E762
:102C20000123F3E71023F1E74FF48073EEE74FF44D
:102C30008053EBE74FF48033E8E71846C6E700BF60
:102C4000080002400000024070B40425C66B026C0C
:102C50003468036895402542196832D04D0730D555
:102C60001A6896065EBF1A6822F004021A603D4A8E
:102C7000934219D01432934218D01432934217D091
:102C80001432934217D01432934217D01432934225
:102C90000CBF4FF480034FF08063334A5360C36A24
:102CA000002B5CD070BC18470423F6E74023F4E700
:102CB0004FF48063F1E74FF48043EEE74FF4802355
:102CC000EBE702259540254235D08D0733D51A68AC
:102CD000940606D41A6822F00A021A60012280F8CB
:102CE0002120204A934219D01432934218D0143232
:102CF000934217D01432934217D01432934217D014
:102D0000143293420CBF4FF400134FF00073164A75
:102D10005360002380F82030836AC1E70223F6E77E
:102D20002023F4E74FF40073F1E74FF40053EEE78C
:102D30004FF40033EBE70825954025420FD00907F3
:102D40000DD5196821F00E011960012303FA02F272
:102D5000726083634FF480730384036BA0E770BCDD
:102D6000704700BF0800024000000240C31E042B51
:102D700010B5044603D992210848FDF7D4FD23027B
:102D80004FF6FF04064903F4E063CA681440234386
:102D900043F0BF6343F40033CB6010BDEE9C0008EA
:102DA00000ED00E00F2A70B505460C46164603D923
:102DB000AA211B48FDF7B7FD0F2C03D9AB211848FA
:102DC000FDF7B1FD174BD868C0F30220C0F107032F
:102DD000021D042B28BF0423062A4FF0FF3298BFA0
:102DE000002002FA03F388BF033824EA0303834078
:102DF00002FA00F026EA0006002D43EA0603ACBF03
:102E000005F16045084A4FEA0313DBB2ABBF05F595
:102E1000614505F00F0585F80033535570BD00BFBF
:102E2000EE9C000800ED00E014ED00E0002803DA5D
:102E3000BE210648FDF777BD0123420900F01F00BF
:102E400003FA00F0024B43F822007047EE9C0008A2
:102E500000E100E0002803DACE210948FDF763BD58
:102E60000122430900F01F0002FA00F0054A203356
:102E700042F82300BFF34F8FBFF36F8F704700BF3F
:102E8000EE9C000800E100E00122014B1A6070474F
:102E900020000E42036830B59A69D869996995B2E5
:102EA0008CB2A54217BFD86980B280B240EA014017
:102EB00008BF40EA024030BD0368186A5B6A9BB2F3
:102EC00043EA004070470023092803D840EA031072
:102ED000C0B270470A380133C0B2F5E70A220309CD
:102EE00000F00F0002FB0300C0B2704730B503468C
:102EF00000F5FA641720092548430229B0FBF5F5CF
:102F000017D8043210194FF4C87203F2CF73B3FB11
:102F1000F2F2284400EB930010446422B3FBF2F376
:102F2000C01A0723B0FBF3F3C3EBC303C01AC0B24C
:102F300030BD4FF4C873901C64222044B4FBF3F3FB
:102F4000284400EB9400B4FBF2F41844001BE8E7BB
:102F500038B50446FEF7F2FE054623685A68920625
:102F600005D500205A6842F010025A6038BDFEF7BD
:102F7000E5FE401BB0F57A7FEFD90320F6E7026843
:102F800038B55368044623F010035360FEF7D6FEAD
:102F9000054623685B689B0601D5002038BDFEF717
:102FA000CDFE401BB0F57A7FF3D90320F6E738B5A4
:102FB00005460C46FFF7CCFF58B92B68220CA4B28B
:102FC0009A612846DC61FFF7DAFF003818BF01205C
:102FD00038BD0120FCE738B505460C46FFF7B8FFC1
:102FE00058B92B68220CA4B21A6228465C62FFF71B
:102FF000C6FF003818BF012038BD0120FCE70000E3
:1030000070B50D461646044600283CD000293AD03B
:10301000012A04D940F2CA214348FDF784FC237CED
:103020000220012B7DD0012360742374287866BBB5
:10303000172804D940F2D3213B48FDF774FC6B7884
:103040003B2B04D94FF435713748FDF76CFCAB7856
:103050003B2B04D940F2D5213348FDF764FC3C21D9
:1030600068782E7841434FF4616000FB0616A8781B
:10307000064431462046FFF79AFF054698B30423DD
:10308000637400232374012549E0FFF727FF172805
:1030900004D940F2DD212448FDF745FC6878FFF7AC
:1030A0001DFF3B2804D940F2DE211F48FDF73BFC01
:1030B000A878FFF713FF3B2804D940F2DF211A4814
:1030C000FDF731FC2878FFF709FF06466878FFF71F
:1030D00005FF3C2141434FF4616000FB0616A878D0
:1030E000FFF7FCFEC4E722682046536823F005037F
:1030F0005360FFF7E1FE431C0DD086420BD900F56B
:10310000A83101F5C0712046FFF765FF18B104230F
:1031100025746374B7E7012363740023237428467E
:1031200070BD0546FBE700BF269D00082DE9F0476E
:103130000E461746054610B90120BDE8F087002964
:10314000FAD0012A04D940F22D315648FDF7EBFBA5
:103150002B685B6813F00408EED12846FFF79AFE4F
:103160004FF46163B0FBF3F23C2403FB120382468D
:10317000B3FBF4F004FB1033B3704B4B70709A4503
:1031800040F286801823B2FBF3F903FB192228468C
:103190003270FFF791FE411C044605D082452CBFDA
:1031A0004FF0FF34A0EB0A04404800FB19AA284660
:1031B0005146FFF7FCFE0028BED1621C27D00AEB67
:1031C00004012846FFF707FF0028B5D164224FF419
:1031D000C87140F2D52CE87B6C7BAB7BC14518D124
:1031E000E1B2DAB2E8736973AA73FFF77FFE28735E
:1031F0005FB13078FFF767FE30707078FFF763FEDD
:103200007070B078FFF75FFEB070002095E7214640
:10321000D7E704F1FF3EBEF1090F0ED90C2C39D0CF
:1032200024F0020EBEF1040F02D0BEF1090F0BD143
:103230001D2B0DD90123013431E02CFA0EFE1EF0B6
:10324000010FEDD01E2BF4E7022C28D11B2B01D847
:10325000013324E01C2B14D183071FFA80FE12D106
:10326000BEFBF2F302FB13E39BB27BB9BEFBF1F3AF
:1032700001FB13E39BB2002B16BF01231D23032484
:103280000DE01D2B0BD10123032408E01D2306E0D4
:103290003270ADE71E2BDBD901231C46013008F14B
:1032A00001089BE7269D00087F5101008051010025
:1032B00070B50D461646044600284ED000294CD065
:1032C000012A04D94FF467714848FDF72CFB237C91
:1032D0000220012B00F08880012360742374E878B9
:1032E000002E3CD1632804D940F2A5313F48FDF7B8
:1032F0001AFB6B78013B0B2B04D940F2A6313B48FB
:10330000FDF711FBAB78013B1E2B04D940F2A7312E
:103310003648FDF708FBEB78E3736B786373AB78A3
:10332000A373A27B617BE07BFFF7E0FD2073287035
:103330002046FFF7AFFD2E4B984251D92D49B0FBE7
:10334000F1F601FB160620463146FFF730FE054632
:1033500098B30423637400232374012044E0FFF72F
:10336000BDFD632804D94FF46C712048FDF7DBFAEA
:103370006878FFF7B3FD0138C0B20B2804D940F2DA
:10338000B1311A48FDF7CFFAA878FFF7A7FD013849
:10339000C0B21E2804D940F2B2311448FDF7C3FA76
:1033A000E878FFF79BFDE0736878FFF797FD60739F
:1033B000A878FFF793FDA073B3E72046FFF77CFDE5
:1033C000431C0DD086420BD900F5A83101F5C07120
:1033D0002046FFF700FE18B1042325746374BCE790
:1033E000012300206374207470BD00BF269D000877
:1033F0008F5F0100805101000023F7B50C4616468F
:103400000546ADF804308DF8063018B9012108469C
:1034100003B0F0BD0029F9D0012A04D940F20E41D1
:103420001048FDF780FA01A900222846FFF77EFE2A
:1034300001460028EAD12B7B2370E87BE0706F7B8C
:103440006770AA7BA270002EE1D0FFF73CFDE07010
:103450003846FFF738FD60701046FFF734FDA07066
:10346000D5E700BF269D000838B50446A8B102681C
:10347000536823F008035360FEF760FC0546236899
:103480005B681B0701D5002038BDFEF757FC401BC9
:10349000B0F57A7FF3D90320F6E70120F4E70000C6
:1034A00010B5044690B30268354B9A4204D040F2FE
:1034B0001D113448FDF737FAA36833F0800209D0B4
:1034C00023F40073B3F5807F04D04FF48F712D483F
:1034D000FDF729FA6FF480126368A3F58013934215
:1034E00004D240F21F112748FDF71DFA637C03F058
:1034F000FF021BB920462274FDF760FB0223204621
:103500006374FFF7B1FF18B104236374012036E040
:103510002046FFF71DFD0028F6D12268A0685368F9
:1035200023F007035360184A18B1116B21F0010111
:103530001163D36A23F460730343D3626068431C4E
:1035400005D10120FFF726F80028DDD001382268D8
:10355000936823F00F0343EA10439360D36880B26B
:103560001B0C1B041843D0602046FFF708FD012305
:1035700010B104226274C9E76373E381637410BD00
:1035800000280040269D0008006C0040034670B1F2
:10359000027C0220012A0BD0196858740A680020A6
:1035A00042F001020A60012218745A747047012027
:1035B000704770477047036810B51A680446D10712
:1035C00012D55A68D2070FD55B685B070DD5FFF798
:1035D000F1FF6FF0040223685A60042322686374C9
:1035E000536823F00103536010BDFFF7E2FF01238E
:1035F000F4E70000036A2DE9F04123F001030362C0
:10360000056AD0F8048086690B6826F073061E43AD
:103610008B6825F002051D431A4B044698420F465D
:1036200027D1CB6833F0080304D041F64121164876
:10363000FDF779F9FB6825F008051D43BB6925F006
:10364000040533F4007304D041F64E210E48FDF713
:103650006AF97B6933F4807304D041F64F210A483C
:10366000FDF761F9D7E9053228F44078134343EABE
:1036700008087B68C4F80480A66163632562BDE81E
:10368000F08100BF002C01405B9D0008036A2DE91A
:10369000F04123F480730362056AD0F80480C669A0
:1036A0000B6826F073061E438B6825F4007545EA07
:1036B00003251B4B044698420F4628D1CB6833F0B4
:1036C000080304D041F6D7211648FDF72CF9FB6812
:1036D00025F4006545EA0325BB6925F4806533F4CC
:1036E000007304D041F6E4210E48FDF71CF97B6914
:1036F00033F4807304D041F6E5210A48FDF713F94D
:10370000D7E9053228F44058134348EA03187B6888
:10371000C4F80480E661E3632562BDE8F08100BF80
:10372000002C01405B9D0008036A2DE9F04123F461
:1037300080530362066AD0F80480C7690B6827F4D7
:10374000E64747EA03278B6826F4005646EA033625
:103750000D4B044698420D460DD14B6933F48073EE
:1037600004D041F623310948FDF7DDF86B6928F4F0
:10377000804848EA83186B68C4F80480E7612364D2
:103780002662BDE8F08100BF002C01405B9D00086F
:1037900003681E4A10B5934204460FD0B3F1804F20
:1037A0000CD0A2F59432934208D002F58062934285
:1037B00004D040F2CF111648FDF7B5F894F83D302B
:1037C000012B20D1022384F83D302368DA6842F0CF
:1037D0000102DA600D4A93420AD0B3F1804F07D05C
:1037E000A2F59432934203D002F58062934204D151
:1037F0009A6802F00702062A03D01A6842F0010212
:103800001A60002000E0012010BD00BF002C014024
:103810005B9D00080368164A10B5934204460FD01A
:10382000B3F1804F0CD0A2F59432934208D002F548
:103830008062934204D040F2F7110E48FDF773F80E
:103840002368DA6822F00102DA6041F21112196A83
:10385000114208D140F24442196A114202BF1A686B
:1038600022F001021A600123002084F83D3010BDCF
:10387000002C01405B9D00087047704770477047FF
:10388000036810B51A69044691070ED5DA689207E5
:103890000BD56FF002021A61012202779B699B0728
:1038A00077D0FFF7EAFF0023237723681A695007D0
:1038B00010D5DA6851070DD56FF004021A610222A3
:1038C00022779B69204613F4407F68D0FFF7D5FF2D
:1038D0000023237723681A6912070FD5DA681007C7
:1038E0000CD56FF008021A6104222277DB692046AA
:1038F00099075AD0FFF7C1FF0023237723681A697D
:10390000D20610D5DA68D0060DD56FF010021A6114
:1039100008222277DB69204613F4407F4BD0FFF763
:10392000ACFF0023237723681A69D10708D5DA682A
:10393000D20705D56FF0010220461A61FCF7E8FFB7
:1039400023681A69100608D5DA68110605D56FF0E4
:10395000800220461A6100F08CFD23681A69520625
:1039600008D5DA68500605D56FF0400220461A6186
:10397000FFF785FF23681A69910622D5DA68920657
:103980001FD56FF020022046BDE810401A6100F0FC
:103990006FBDFFF771FF2046FFF770FF83E7FFF76A
:1039A0006BFF2046FFF76AFF92E7FFF765FF2046AF
:1039B000FFF764FFA0E7FFF75FFF2046FFF75EFF1A
:1039C000AFE710BD1A4A036890420AD0B0F1804FA9
:1039D00007D0A2F59432904203D002F58062904263
:1039E00015D14A6823F070031343114A90420AD05C
:1039F000B0F1804F07D0A2F59432904203D002F587
:103A00008062904203D1CA6823F4407313434A6929
:103A100023F08003134303608B68C3620B688362E7
:103A2000034B984204BF0B69036301234361704752
:103A3000002C014010B5044600285FD00368304ACE
:103A400093420FD0B3F1804F0CD0A2F59432934241
:103A500008D002F58062934204D040F21311294845
:103A6000FCF761FFA36833F010020AD023F0400294
:103A7000202A06D0402B04D04FF48A712148FCF74D
:103A800052FF236933F4807207D0B3F5007F04D06E
:103A900040F215111B48FCF746FFA36933F0800381
:103AA00004D04FF48B711748FCF73DFF94F83D307C
:103AB00003F0FF0223B9204684F83C20FDF7F0F81C
:103AC0000223206884F83D30211DFFF77BFF01238E
:103AD000002084F8463084F83E3084F83F3084F883
:103AE000403084F8413084F8423084F8433084F820
:103AF000443084F8453084F83D3010BD0120FCE7A7
:103B0000002C01405B9D000810B5044600285FD0E2
:103B10000368304A93420FD0B3F1804F0CD0A2F526
:103B20009432934208D002F58062934204D040F26E
:103B300013512948FCF7F7FEA36833F010020AD0AE
:103B400023F04002202A06D0402B04D040F214512A
:103B50002148FCF7E8FE236933F4807207D0B3F5FF
:103B6000007F04D040F215511B48FCF7DCFEA3692E
:103B700033F0800304D040F216511748FCF7D3FE0F
:103B800094F83D3003F0FF0223B9204684F83C202E
:103B9000FDF772F80223206884F83D30211DFFF7FD
:103BA00011FF0123002084F8463084F83E3084F869
:103BB0003F3084F8403084F8413084F8423084F853
:103BC000433084F8443084F8453084F83D3010BDEB
:103BD0000120FCE7002C01405B9D0008036A2DE9F1
:103BE000F04123F010030362056AD0F8048086696F
:103BF0000B6826F4E64646EA03268B6825F0200586
:103C000045EA03151A4B044698420F4628D1CB6863
:103C100033F0080304D041F68C211648FCF783FEEC
:103C2000FB6825F0800545EA0315BB6925F04005D2
:103C300033F4007304D041F69A210E48FCF773FE6A
:103C40007B6933F4807304D041F69B210948FCF76B
:103C50006AFED7E9053228F44068134348EA83082E
:103C60007B68C4F80480A661A3632562BDE8F08187
:103C7000002C01405B9D000832F00C0370B5044637
:103C80000D46164606D03C2A04D041F2270166486C
:103C9000FCF749FE2B6823F01003602B04D041F29F
:103CA00028016148FCF73FFEAB6833F0020304D003
:103CB00041F229015C48FCF736FE2B6933F004031E
:103CC00004D041F22A015848FCF72DFE94F83C300C
:103CD000012B00F0A7800123082E84F83C307BD014
:103CE00006D86EB3042E51D0002084F83C0070BD7D
:103CF0000C2EF9D123684D4A93420FD0B3F1804F77
:103D00000CD0A2F59432934208D002F5806293421F
:103D100004D041F267014448FCF705FE29462068BB
:103D2000FFF702FD23682969DA6942F40062DA616B
:103D3000DA6922F48062DA61DA6942EA01226FE02C
:103D400023683A4A93420FD0B3F1804F0CD0A2F5CA
:103D50009432934208D002F58062934204D041F23B
:103D600034013148FCF7DFFD29462068FFF742FCAB
:103D7000236829699A6942F008029A619A6922F0D7
:103D800004029A619A690A439A61ADE72368274A57
:103D900093420FD0B3F1804F0CD0A2F594329342EE
:103DA00008D002F58062934204D041F245011E48DA
:103DB000FCF7B9FD29462068FFF710FF2368296941
:103DC0009A6942F400629A619A6922F480629A6167
:103DD0009A6942EA0122D7E72368144A93420FD036
:103DE000B3F1804F0CD0A2F59432934208D002F583
:103DF0008062934204D041F256010B48FCF793FDD8
:103E000029462068FFF742FC23682969DA6942F0F5
:103E10000802DA61DA6922F00402DA61DA690A4337
:103E2000DA6161E7022062E75B9D0008002C014037
:103E300010B584680A4324F47F4442EA03222243F3
:103E4000826010BD70B590F83C300546012B0C46E1
:103E50004FF002004FD0012385F83D0085F83C303B
:103E60000B68B3F5805F0CD0B3F5005F09D033F079
:103E7000300306D0402B04D041F23241AF48FCF76A
:103E800052FD2B689A6822F47F4222F077029A60F2
:103E90002268602A00F00F8172D8402A00F0528117
:103EA0002AD8202A03D01ED832F010021DD1A44AED
:103EB00093420FD0B3F1804F0CD0A2F594329342CD
:103EC00008D002F58062934204D041F2A4419B489D
:103ED000FCF729FD2A682168936823F070030B43DF
:103EE00043F0070390E0302AE1D00123002085F859
:103EF0003D3085F83C0070BD502AF6D1904A93427F
:103F00000FD0B3F1804F0CD0A2F59432934208D079
:103F100002F58062934204D041F271418748FCF778
:103F200002FD6368B3F5004F09D033F0020206D0FA
:103F30000A2B04D041F274418048FCF7F4FCE3689A
:103F40000F2B04D941F275417C48FCF7ECFC2B683F
:103F50006168186AE6681C6A20F00A0024F001040F
:103F60001C629A69014322F0F00242EA06129A6149
:103F700019629A6822F0700242F057029A60B4E720
:103F8000B2F5805F42D0B2F5005F57D0702AACD155
:103F90006B4A93420FD0B3F1804F0CD0A2F594320C
:103FA000934208D002F58062934204D041F2454129
:103FB0006248FCF7B8FCA36833F4405304D041F2E4
:103FC00048415E48FCF7AFFC6368B3F5004F09D089
:103FD00033F0020206D00A2B04D041F2494157487F
:103FE000FCF7A1FCE3680F2B04D941F24A41534886
:103FF000FCF799FCD4E90121E3682868FFF718FF72
:104000002A68936843F0770393606EE74C4A9342C3
:104010003FF46BAFB3F1804F3FF467AFA2F594323A
:1040200093423FF462AF02F5806293423FF45DAF8A
:1040300041F23E414148FCF776FC56E7404A934244
:104040000FD0B3F1804F0CD0A2F59432934208D038
:1040500002F58062934204D041F25D413748FCF79B
:1040600062FCA36833F4405304D04FF4A3513348A7
:10407000FCF759FC6368B3F5004F09D033F0020236
:1040800006D00A2B04D041F261412C48FCF74BFCCE
:10409000E3680F2B04D941F262412848FCF743FC46
:1040A000D4E90121E3682868FFF7C2FE2A68936813
:1040B00043F48043A8E7224A93420FD0B3F1804FE4
:1040C0000CD0A2F59432934208D002F5806293425C
:1040D00004D041F281411948FCF725FC6368B3F52F
:1040E000004F09D033F0020206D00A2B04D041F26F
:1040F00084411248FCF717FCE3680F2B04D941F206
:1041000085410E48FCF70FFC2B686668186AE46866
:1041100020F01000186299691A6A21F4704122F0A7
:10412000A00242EA061241EA043199611A629A68D1
:1041300022F0700242F0670220E700BF5B9D00089A
:10414000002C0140204A93420FD0B3F1804F0CD095
:10415000A2F59432934208D002F58062934204D0D3
:1041600041F291411948FCF7DEFB6368B3F5004F5B
:1041700009D033F0020206D00A2B04D041F2944158
:104180001248FCF7D0FBE3680F2B04D941F29541AC
:104190000E48FCF7C8FB2B686168186AE6681C6A61
:1041A00020F00A0024F001041C629A69014322F005
:1041B000F00242EA06129A6119629A6822F07002CD
:1041C00042F04702DAE600BF002C01405B9D000888
:1041D000174B70B5984204460D4616460FD0B0F105
:1041E000804F0CD0A3F59433984208D003F5806338
:1041F000984204D041F609510E48FCF794FB35F083
:104200000C0306D03C2D04D041F60A510948FCF7B6
:104210008AFB0122236A05F01F05AA4023EA020354
:104220002362226A06FA05F51543256270BD00BFB8
:10423000002C01405B9D000838B5334A03680446F2
:1042400093420D460AD0B3F1804F07D0A2F59432C5
:10425000934203D002F5806293421CD12DB994F8A9
:104260003E30012B2AD0012038BD042D07D194F80F
:104270003F30012BF7D1022384F83F3021E0082D95
:1042800007D194F84030012BEDD1022384F840305F
:1042900017E00C2D0AD040F299511C48FCF743FB63
:1042A000002DDCD0042DE2D0082DEAD094F8413066
:1042B000012BD8D1022384F8413002E0022384F894
:1042C0003E30012229462068FFF782FF23680E4A0C
:1042D00093420AD15A6C42F400425A649A6802F03E
:1042E0000702062A0BD10020BEE7B3F1804FF5D0BC
:1042F000074A9342F2D002F580629342EED01A68E8
:1043000042F001021A60EEE7002C01405B9D0008BC
:104310000004004038B5284A0368044693420D461D
:104320000AD0B3F1804F07D0A2F59432934203D064
:1043300002F58062934202D135F00C0304D040F2C2
:10434000CD511E48FCF7EFFA002229462068FFF7FE
:104350003FFF2368184A93420DD141F21112196AA6
:10436000114208D140F24442196A114202BF5A6C0C
:1043700022F400425A6441F21112196A114208D122
:1043800040F24442196A114202BF1A6822F0010247
:104390001A6001231DB984F83E30002038BD042D79
:1043A00002D184F83F30F8E7082D0CBF84F8403084
:1043B00084F84130F1E700BF002C01405B9D00080C
:1043C00038B5294A0368044693420D460FD0B3F12D
:1043D000804F0CD0A2F59432934208D002F580624F
:1043E000934204D040F286712048FCF79CFA2B6877
:1043F00033F0300306D0402B04D040F287711B48C5
:10440000FCF791FA6B6833F0800304D04FF4F1614C
:104410001648FCF788FA94F83C300220012B22D091
:10442000236884F83D005968286821F07001014331
:104430009A6859600C498B420AD0B3F1804F07D07B
:10444000A1F594318B4203D001F580618B4204D1F8
:10445000696822F080020A439A600123002084F8F0
:104460003D3084F83C0038BD002C0140909D000890
:10447000704770470368DA6822F49072DA605A690C
:1044800022F001025A61026B012A02BFDA6822F0AF
:104490001002DA60202380F83E3000230363704767
:1044A00042682F4B10B59A42044604D940F6536136
:1044B0002C48FCF738FAE36833F4005304D040F694
:1044C00054612848FCF72FFA236933F4806207D03F
:1044D000B3F5C06F04D040F655612248FCF723FACB
:1044E0004FF6F3726369134200D123B940F6566167
:1044F0001C48FCF718FA2368E1681A69206922F45D
:1045000040520A431A61A268D9680243606921F4E3
:10451000B05121F00C0102430A43DA605A69A169E3
:1045200022F440720A435A610F4A934215D1FDF7B3
:1045300055FF19234343626820689200B3FBF2F3EE
:104540006422B3FBF2F102FB11331B013233B3FBE4
:10455000F2F303EB0113836010BDFDF72FFFE8E7D3
:1045600020AA4400C89D000800380140F8B5044660
:104570000E4617461D462268136836EA030301D12A
:10458000002014E06B1CF7D095B923680320DA688B
:1045900022F4D072DA605A6922F001025A612023B3
:1045A00084F83D3084F83E30002384F83C30F8BD78
:1045B000FDF7C4FBC01B8542DDD2E6E710B504461B
:1045C00000285BD0816903682D4A00294AD09342B4
:1045D0000CD0A2F57442934208D002F58062934257
:1045E00004D04FF4B6712748FCF79DF9A36933F462
:1045F000407304D040F26D112248FCF794F9A3688F
:1046000033F4805304D040F273111E48FCF78BF949
:1046100094F83D3003F0FF0223B9204684F83C2093
:10462000FCF798FC2423226884F83D30D3682046A8
:1046300023F40053D360FFF733FF236800201A6987
:1046400022F490421A615A6922F02A025A61DA6809
:1046500042F40052DA602023206484F83D3084F86C
:104660003E3010BD9342CAD0074A9342C7D002F5EC
:1046700080629342C3D040F27111BDE70120F0E7A0
:1046800000380140C89D0008004400402DE9F8436F
:10469000994690F83D300446202B0E46174648D1E7
:1046A000002944D0002A42D090F83C30012B40D061
:1046B0000123002580F83C302123056480F83D303B
:1046C000FDF73CFBA3688046B3F5805FA784E784D1
:1046D00003D123690BB935461E46002384F83C30CC
:1046E000E38C9BB253B94B46424640212046FFF72C
:1046F0003DFF50B9202384F83D3007E04B46424649
:1047000080212046FFF732FF10B10320BDE8F88377
:1047100022684EB935F8023BC3F308035360E18CBD
:10472000013989B2E184DBE716F8013BF6E70120A5
:10473000ECE70220EAE710B5036804465A6990F8EE
:104740003D10212911D111060FD55A69406B22F075
:1047500080025A6108B1FEF713FA2268D36823F089
:10476000C003D360202384F83D3023685A6994F84D
:104770003E1022290CD152060AD55A69A06B22F0AC
:1047800040025A6108B1FEF7FBF92046FFF772FEBE
:10479000002010BD7047704708B5406A03685A6929
:1047A00090F83D1021290AD1120608D50022C284B2
:1047B000DA6822F0C002DA60202280F83D205B69CE
:1047C00090F83E20222A05D15B0603D50023C3853D
:1047D000FFF750FE036C43F010030364FFF7DBFFA9
:1047E00008BD08B50023406AC385C384FFF7D3FF23
:1047F00008BD704713B590F83E30222B49D181682F
:10480000836AB1F5805F026833D10169002933D131
:104810005268C2F3080223F8022BC48D8362013C64
:10482000A4B2C4851CBB0368DA6822F02002DA60F7
:10483000DA6822F48072DA605A6922F001025A6161
:10484000202280F83E20026B012A1FD10463DA681F
:1048500022F01002DA601A68D20605D501941A68AF
:1048600001925B680193019B818DFFF7C2FF0020DD
:1048700010E039B9016929B95268D2B21A70836A55
:104880000133CAE7526802F07F02F7E702F056FCF4
:10489000EDE7022002B010BD036837B51A68044680
:1048A00012F00F0FD9685D6908D195065FD58D06A6
:1048B0005DD503B0BDE83040FFF79CBF05F00100B7
:1048C00001F49075054352D0D50705D5CB0542BFFD
:1048D000236C43F001032364550704D518B1236CFE
:1048E00043F002032364930704D518B1236C43F00B
:1048F00004032364150707D501F0200303431EBFFB
:10490000236C43F008032364236C53B3920604D54D
:104910008B0602D52046FFF76DFF236820465B69B2
:10492000256C03F0400305F008051D431BD0FFF77D
:10493000A1FD23685A69550610D55A69A06B22F06B
:1049400040025A6150B1534B4363FEF737F940B10F
:10495000A06B436B03B0BDE8304018472046FFF71B
:104960001AFF03B030BDFFF716FF2564F9E7206B8F
:10497000012855D1D00653D5CD0651D5002101913E
:104980001A6801925A680192019A5A6912F040021B
:104990002AD0A06B0268526892B2002AE1D0A58D9D
:1049A0009542DED9E2858269202A15D0DA6822F4A0
:1049B0008072DA605A6922F001025A615A6922F063
:1049C00040025A61202284F83E202163DA6822F0F6
:1049D0001002DA60FEF7D4F8E38DA18DC91A89B20E
:1049E0002046FFF706FFBCE7E18D88B2E18D89B272
:1049F0000029B6D0A18D091A89B20029B1D0D86892
:104A000020F49070D860586920F00100586120208F
:104A100084F83E002263DA6822F01002DA60DFE7F1
:104A2000100626D50D0624D594F83D20212A98D1CC
:104A3000A168226AB1F5805F16D12169A1B932F867
:104A4000021BC1F3080159602262E28C013A92B262
:104A5000E284002A85D1DA6822F08002DA60DA681E
:104A600042F04002DA607CE7511C216212785A6001
:104A7000EBE750067FF575AF4A067FF572AFDA684F
:104A8000204622F04002DA60202384F83D3002F014
:104A90003DFB66E7E3470008406A08B5036B012B5E
:104AA00004D1818D4908FFF7A4FE08BDFFF772FE0F
:104AB000FBE708B503461B68406A1B6813F0200338
:104AC00017D1C3850368DA6822F48072DA605A6904
:104AD00022F001025A615A6922F040025A612022F2
:104AE00080F83E20026B012A02BFDA6822F0100231
:104AF000DA60036B012B03D1818DFFF77AFE08BDCD
:104B000002F01CFBFBE790F83D2090F83E001043BC
:104B10007047000073B513460025828522220446A3
:104B20008162056480F83E20806B124A26688262AA
:104B3000114AC262114AC0E90C250A46311DFDF72F
:104B4000CFFF2846236801951A6801925A6884F8B5
:104B50003C500192019ADA6842F48072DA605A6934
:104B600042F001025A615A6942F040025A6102B0B1
:104B700070BD00BFB34A0008994A00089947000871
:104B800070B490F83E60202E10D161B15AB190F807
:104B90003C40012C0AD0012480F83C4000240463EE
:104BA00070BCFFF7B7BF012070BC70470220FBE765
:104BB00013B5044640B94FF0500383F31188BFF397
:104BC0006F8FBFF34F8FFEE720230193019B202BB4
:104BD00008D04FF0500383F31188BFF36F8FBFF3FA
:104BE0004F8FFEE7002340F8043B00F0E9F8012373
:104BF0002046237702B010BD38B5202002F05AF8C5
:104C0000044628B1002540F8045B00F0D9F8257768
:104C1000204638BD2DE9F047DDF820900C461746B8
:104C20009846064640B94FF0500383F31188BFF30E
:104C30006F8FBFF34F8FFEE711F07F4A08D04FF020
:104C4000500383F31188BFF36F8FBFF34F8FFEE7DD
:104C500041B94FF0500383F31188BFF36F8FBFF357
:104C60004F8FFEE701F0D2F958B9B9F1000F08D023
:104C70004FF0500383F31188BFF36F8FBFF34F8F53
:104C8000FEE700F0C1FE356804EA0503B8F1000F45
:104C900015D1B3B9B9F1000F0FD0002F0CBF00210F
:104CA0004FF08071B8F1000F01D041F080614A46A9
:104CB0002143301D01F08EF80025CA4605E09C42D4
:104CC000E8D117B125EA0403336000F03BFFBAF1E5
:104CD000000F1AD038B94FF08052114B1A60BFF351
:104CE0004F8FBFF36F8F01F0E3F9830105460AD4BC
:104CF00002F0F8F8356804EA0503B8F1000F07D1AF
:104D000043B902F011F925F07F452846BDE8F08748
:104D10009C42F6D1002FF4D025EA04043460F0E779
:104D200004ED00E02DE9F0410D46044640B94FF096
:104D3000500383F31188BFF36F8FBFF34F8FFEE7EC
:104D400011F07F4608D04FF0500383F31188BFF372
:104D50006F8FBFF34F8FFEE700F10C0700F054FE9A
:104D600021682069294321608742216807D121EA0F
:104D70000601216000F0E6FE2068BDE8F081D0E980
:104D8000002822F07F4312F0806F03EA010502D170
:104D90001DB94046E8E7AB42FBD1D20141F00071BA
:104DA00048BF1E4301F0A2F8F3E7FFF7BBBF0000C6
:104DB00013460A460146014801F0FEBBAB4D000810
:104DC0004FF0FF3200F10803C0E9022343600361A2
:104DD00000230360704700230361704743689A68AB
:104DE0004B608A609A68516099600368086101337A
:104DF0000360704730B50C68631C0AD103695A68B8
:104E00004A6091608B6059600368086101330360F8
:104E100030BD00F10802134652681568A542FAD960
:104E2000EDE70369D0E901128A6051605968814257
:104E300008BF5A60002202611A68013A1A601868B5
:104E4000704710B5044602F04DF8A46B02F06CF800
:104E5000B4FA84F0400910BDF8B51546026C04465A
:104E6000866B52B9076847BB406801F0DFF805461A
:104E7000676001362846A663F8BD65B9806804F00E
:104E80008BF9A368226C13446268A3609342F0D349
:104E90002368A360EDE7C06804F07EF9226CE36844
:104EA00051429B1A2268E36093423EBF63685B18DD
:104EB000E360022D01D116B1013E0025D9E7354648
:104EC000D7E703461A6C084610B462B1DC6859682B
:104ED00014448C4228BF1968DC6028BFD960D968A7
:104EE00010BC04F059B910BC704770B5044601F00D
:104EF000F9FF94F8455004F124066DB2002D14DC3E
:104F0000FF2384F8453002F00FF801F0EBFF94F82E
:104F1000445004F110066DB2002D12DCFF2384F81A
:104F20004430BDE8704001F0FFBF636A002BE7D05A
:104F3000304600F09BFF08B101F062F8013D6DB210
:104F4000DCE72369002BE9D0304600F08FFF08B181
:104F500001F056F8013D6DB2DEE7000038B50D46B0
:104F6000044640B94FF0500383F31188BFF36F8FAD
:104F7000BFF34F8FFEE701F0B5FFD4E90F314B438C
:104F80002268D0185B1A13446060E3600020FF239E
:104F9000A063A26084F8443084F8453095B9236951
:104FA00063B104F1100000F061FF38B14FF080529E
:104FB000094B1A60BFF34F8FBFF36F8F01F0B4FF3F
:104FC000012038BD04F11000FFF7FAFE04F12400BF
:104FD000FFF7F6FEF2E700BF04ED00E037B50D463F
:104FE0001C4640B94FF0500383F31188BFF36F8F15
:104FF000BFF34F8FFEE743B94FF0500383F311889F
:10500000BFF36F8FBFF34F8FFEE74AB191B94FF0F7
:10501000500383F31188BFF36F8FBFF34F8FFEE709
:1050200041B14FF0500383F31188BFF36F8FBFF38B
:105030004F8FFEE750230193019B502B08D04FF078
:10504000500383F31188BFF36F8FBFF34F8FFEE7D9
:105050000121002D08BF2246C4E90F0584F846103F
:1050600020462260FFF77AFF20469DF8183084F82A
:105070004C3003B030BDF8B50D461746064640B972
:105080004FF0500383F31188BFF36F8FBFF34F8F3F
:10509000FEE74843503001F00DFE044670B1002396
:1050A00080F8463065B100F1500301212046C4E983
:1050B0000F652360FFF752FF84F84C702046F8BD5F
:1050C0000346F2E72DE9FF4788461F460446019252
:1050D00040B94FF0500383F31188BFF36F8FBFF3D4
:1050E0004F8FFEE751B9036C43B14FF0500383F388
:1050F0001188BFF36F8FBFF34F8FFEE7022F0BD1E5
:10510000E36B012B08D04FF0500383F31188BFF3FA
:105110006F8FBFF34F8FFEE700F078FF064650B960
:10512000019B4BB14FF0500383F31188BFF36F8F96
:10513000BFF34F8FFEE700264FF00009DFF8E4A031
:1051400037E0019D1DB901F0EFFE002050E016B9D7
:1051500002A800F00DFF01F0E7FE00F055FC01F0A1
:10516000C1FE94F84430FF2B08BF84F8449094F8B3
:105170004530FF2B08BF84F8459001F0D5FE01A90A
:1051800002A800F001FF002846D101F0ABFEA26B9F
:10519000E36B9A422FD101F0C7FE019904F1100090
:1051A00000F0FEFD2046FFF7A0FE00F0CBFC50B360
:1051B000012601F097FEA26BE36B9A4201D3022F06
:1051C000BFD13A4641462046FFF746FE636A1BB10F
:1051D00004F1240000F04AFE38B14FF08052114B28
:1051E0001A60BFF34F8FBFF36F8F01F09DFE012058
:1051F00004B0BDE8F08701F097FE2046FFF775FE8A
:1052000000F0A0FCD4E74FF08053CAF80030BFF3A1
:105210004F8FBFF36F8FCBE72046FFF766FE00F09E
:1052200091FC92E704ED00E02DE9F84389469046B1
:105230001F46044640B94FF0500383F31188BFF373
:105240006F8FBFF34F8FFEE751B9036C43B14FF03F
:10525000500383F31188BFF36F8FBFF34F8FFEE7C7
:10526000022F0BD1E36B012B08D04FF0500383F3D7
:105270001188BFF36F8FBFF34F8FFEE701F012FF6E
:10528000EFF311864FF0500383F31188BFF36F8F54
:10529000BFF34F8FA26BE36B9A4201D3022F22D14F
:1052A00094F845503A46494620466DB2FFF7D4FD82
:1052B0006B1C13D1636A0BB901200BE004F12400CD
:1052C00000F0D4FD0028F7D0B8F1000FF4D0012091
:1052D000C8F8000086F31188BDE8F88301356DB287
:1052E00084F84550E8E70020F4E700002DE9F0439A
:1052F00085B00F460446019240B94FF0500383F346
:105300001188BFF36F8FBFF34F8FFEE751B9036C66
:1053100043B14FF0500383F31188BFF36F8FBFF396
:105320004F8FFEE700F072FE064650B9019B4BB16D
:105330004FF0500383F31188BFF36F8FBFF34F8F8C
:10534000FEE700264FF00008DFF8DC903BE0019D0F
:105350001DB901F0E9FD002052E016B902A800F0E5
:1053600007FE01F0E1FD00F04FFB01F0BBFD94F8FA
:105370004430FF2B08BF84F8448094F84530FF2B5D
:1053800008BF84F8458001F0CFFD01A902A800F014
:10539000FBFD00283DD12046FFF753FD98B301994E
:1053A00004F1240000F0FCFC2046FFF79EFD00F015
:1053B000C9FB38B94FF08053C9F80030BFF34F8FA5
:1053C000BFF36F8F012601F08DFDA56B002DBED0C0
:1053D00039462046013DFFF774FDA563236963B19B
:1053E00004F1100000F042FD38B14FF080520E4B36
:1053F0001A60BFF34F8FBFF36F8F01F095FD01204F
:1054000005B0BDE8F0832046FFF76FFD00F09AFB82
:10541000D8E72046FFF769FD00F094FB2046FFF730
:1054200010FD0028CED096E704ED00E02DE9F8430A
:1054300089469046054640B94FF0500383F31188E2
:10544000BFF36F8FBFF34F8FFEE751B9036C43B1CA
:105450004FF0500383F31188BFF36F8FBFF34F8F6B
:10546000FEE701F01FFEEFF311874FF0500383F3C7
:105470001188BFF36F8FBFF34F8FAC6B1CB395F8E0
:1054800044604946284676B2FFF71BFD013C731C79
:10549000AC6313D12B690BB901200BE005F11000AF
:1054A00000F0E4FC0028F7D0B8F1000FF4D00120A0
:1054B000C8F8000087F31188BDE8F883013676B29A
:1054C00085F84460E8E72046F4E70000002330B5A3
:1054D000064A52F8335002EBC3041DB942F83310A8
:1054E000606030BD0133082BF3D1FAE7E4450020BA
:1054F00070B504460D46164601F0F4FC94F84430AD
:10550000FF2B04BF002384F8443094F84530FF2B70
:1055100004BF002384F8453001F006FDA36B2BB9CE
:105520003246294604F1240000F080FC2046BDE804
:105530007040FFF7DABC00002DE9F041044601F0AD
:10554000D1FC2F4B2F4D1A682F4F01321A602E6855
:10555000002E49D12C601B68012B1FD1B846404654
:105560000136FFF72DFC382E08F11408F7D1DFF8CB
:10557000C480264E4046FFF723FC3046FFF720FC50
:105580002348FFF71DFC2348FFF71AFC2248FFF7CA
:1055900017FC224BC3F80080214B1E601420214AC7
:1055A000136801331360204A63641168E36A8B4215
:1055B00000FB037004F1040188BF1360FFF70EFCC9
:1055C00001F0B2FC194B1B6863B12B68DA6AE36A1D
:1055D0009A4207D24FF08052154B1A60BFF34F8F9B
:1055E000BFF36F8FBDE8F081104B1B68002BD5D146
:1055F0002B68DA6AE36A9A4298BF2C60CEE700BF54
:1056000024050020B8000020C40000205005002020
:105610006C0500209805002084050020BC000020B7
:10562000C00000203405002038050020800500203F
:1056300004ED00E03C05002040B94FF0500383F337
:105640001188BFF36F8FBFF34F8FFEE74269064BA0
:105650009A4207D1806A054B984203D0B0FA80F095
:105660004009704700207047840500206C05002029
:10567000064A13681968064B19B94FF0FF321A60D1
:1056800070471268D268D2685268F8E7BC00002000
:10569000640500202DE9F0470D46DDE909844FEA55
:1056A00082094A460646A521206B1F4603F082FD6B
:1056B000226BA9F1040991446B1E29F0070904F13A
:1056C00034020F3513F8011F02F8011B197809B1D4
:1056D000AB42F7D1089D4FF0000A372D28BF372580
:1056E000201DC4E9135AE56284F843A0FFF773FB59
:1056F000C5F1380504F11800FFF76DFBC4F854A09C
:105700003A46314648462461A561646284F858A04F
:1057100001F0C2FB2060B8F1000F01D0C8F80040D2
:10572000BDE8F08710B590F8593004463BB9006BDE
:1057300001F04AFB2046BDE8104001F045BB012BBB
:10574000F9D0022B08D04FF0500383F31188BFF338
:105750006F8FBFF34F8FFEE710BD000080B5DFF8FD
:105760005C80124F124C134D236863B9124B1B68B7
:10577000012BF8D94FF08053C8F80030BFF34F8F9A
:10578000BFF36F8FEEE701F0ADFBFB68DE68301D05
:10579000FFF747FB2B68013B2B602368013B23602D
:1057A00001F0C2FB3046FFF7BDFFDDE798050020A2
:1057B0002805002024050020C400002004ED00E09E
:1057C000F8B50546154B164E1C6830680F46043078
:1057D000FFF727FB6B1C334607D137B131681148FF
:1057E0000431BDE8F840FFF7F9BA1A68641954604B
:1057F00007D30D4A10681968BDE8F8400431FFF777
:10580000F9BA0A4A106819680431FFF7F3FA084B2D
:105810001A68A24288BF1C60F8BD00BFAC0500201A
:10582000B800002084050020C0000020BC0000203B
:105830006405002070B586B0DDE90B5445B94FF022
:10584000500383F31188BFF36F8FBFF34F8FFEE7D1
:1058500044B94FF0500383F31188BFF36F8FBFF348
:105860004F8FFEE75C260496049E5C2E08D04FF016
:10587000500383F31188BFF36F8FBFF34F8FFEE7A1
:105880002563022584F8595005AD01950A9D0294BF
:105890000095FFF7FFFE2046FFF74EFE059806B085
:1058A00070BD2DE9F043074685B090008846164646
:1058B000994601F0FFF90546E8B15C2001F0FAF9DC
:1058C0000446A8B1002380F859300D9B056301936D
:1058D0000C9B324641460290009338464B46FFF7F8
:1058E000D9FE2046FFF728FE012005B0BDE8F08371
:1058F000284601F069FA4FF0FF30F6E770B504462C
:1059000040B94FF0500383F31188BFF36F8FBFF39B
:105910004F8FFEE7164E3268824227D001F0E2FA3E
:105920002046FFF789FEE8B1251D2846FFF779FAE2
:105930001420104AE36A11688B4288BF13600E4A34
:10594000294600FB0320FFF749FA3368E26ADB6A65
:105950009A4207D34FF08052084B1A60BFF34F8F23
:10596000BFF36F8FBDE8704001F0DEBA70BD00BFBD
:10597000B800002038050020C400002004ED00E03D
:1059800010B5002488B007AA06A905A8CDE90544EA
:1059900001F054F9059B079A0293069B1549CDE93E
:1059A000004315482346FFF745FFA8B100F0DEFB92
:1059B000012813D14FF0500383F31188BFF36F8F89
:1059C000BFF34F8F4FF0FF320C4B1A600C4B186037
:1059D0000C4B1C6001F00EFB08B010BD0130FBD178
:1059E0004FF0500383F31188BFF36F8FBFF34F8FD6
:1059F000FEE700BFFE9D00085D570008640500201B
:105A000080050020AC050020024A136801331360B2
:105A1000704700BF30050020014B1868704700BF79
:105A2000AC0500202DE9F84F3B4B1B68002B6DD1D6
:105A30003A4B1D6801351D60BDB9394B1A681268B3
:105A400042B14FF0500383F31188BFF36F8FBFF360
:105A50004F8FFEE7334A1968106818601160324AA8
:105A6000136801331360FFF703FE304E00243368E0
:105A70002F4FAB4210D92F4B1B68DA6A14235343C4
:105A8000FB58022B28BF01242B4B1B68002B0CBF9B
:105A900020460120BDE8F88FDFF88490DFF8A0A051
:105AA000D9F800301B681BB94FF0FF333360E2E7D1
:105AB000D9F80030DB68D3F80CB0DBF8042095424D
:105AC00001D23260D7E70BF104084046FFF7A9F98D
:105AD000DBF828201AB10BF11800FFF7A2F9142304
