:020000040800F2
:10000000A0470020990100085F5E0008B75600086D
:100010005D5E0008F7080008957700080000000002
:1000200000000000000000000000000001010008C6
:100030006F0F00080000000045010008816A0008F9
:10004000B3010008B3010008B30100088965000886
:10005000B3010008B3010008A9140008B3010008A7
:10006000B3010008B3010008B3010008B3010008A0
:10007000B3010008B3010008150F0008210F0008A4
:100080002D0F0008390F0008B3010008B301000864
:10009000B3010008B3010008B3010008B301000870
:1000A000B3010008196E0008B3010008B30100088D
:1000B000B3010008B3010008256E0008B301000871
:1000C000B3010008B3010008B3010008B301000840
:1000D000B3010008657700087D770008B3010008C8
:1000E000B3010008B3010008B3010008DFF80CD029
:1000F00000F0DAFB00480047ED870008A047002029
:10010000224B19680868B0E8F00F80F30988BFF344
:100110006F8F4FF0000080F311884EF00D0E704786
:100120000000000006480068006880F3088862B696
:1001300061B6BFF34F8FBFF36F8F00DF00BF00BF0B
:1001400008ED00E0EFF30980BFF36F8F0F4B1A68E3
:1001500020E9F00F106008B54FF0500080F31188CF
:10016000BFF34F8FBFF36F8F09F0B0FD4FF000006A
:1001700080F31188BDE8084019680868B0E8F00FFE
:1001800080F30988BFF36F8F704700BF1400002011
:10019000EFF3058070470000064880470648004797
:1001A000FEE7FEE7FEE7FEE7FEE7FEE7FEE7FEE727
:1001B000FEE7FEE7156B0008ED000008202A04DBCF
:1001C000203A21FA02F00021704721FA02F3D040D0
:1001D000C2F12002914008431946704740EA0103EA
:1001E0009B0703D009E008C9121F08C0042AFAD2ED
:1001F00003E011F8013B00F8013B521EF9D27047B1
:10020000D2B201E000F8012B491EFBD27047002258
:10021000F6E710B513460A4604461946FFF7F0FF05
:10022000204610BD30B505462A460B4612F8010B94
:1002300013F8014B08B1A042F8D01CB1002802D03D
:100240006D1CF1E7284630BD10B5002200E0521CBD
:10025000835C8C5CA34201D1002BF8D1D8B2E1B20F
:10026000401A10BD2DE9FE4F804681EA0300C00F01
:100270000C46009021F0004123F00045B8EB02004D
:10028000A94105D24046214690461C460B460246EF
:1002900023F00040104347D0270DC7F30A00C3F3F3
:1002A0000A510290401A019040286BDAC3F3130000
:1002B00040F4801B0098924620B10023D2EB030A41
:1002C00063EB0B0B01985946C0F14002504600F019
:1002D00096F906460D4650465946019A00F09EF999
:1002E00010EB08006141002487EA115284EAE773A9
:1002F0001A4340D0009A62B3019A012A4FEA07528A
:1003000015DC001B61EB02014FF0004202EA0752CC
:10031000CDE90042001C41F5801132462B4600F029
:10032000D5F903B0BDE8F08F40462146F9E7001B40
:1003300061EB0201001C41F5801300185B4120189D
:10034000A2F5001747EB030140EAD570B6196D41DD
:1003500011E06D084FEA360645EAC0754FEA0752CC
:10036000001B61EB0201001C41F5801149084FEAB6
:1003700030000019514132462B4603B0BDE8F04F22
:1003800000F095B90098012240000023D0EB020252
:1003900063EBE073009821464FEAE074B8EB00008D
:1003A00061EB0401E9E783F000435BE781F0004182
:1003B00058E72DE9FE4F81EA030404F0004421F0E0
:1003C000004100944FF0000B23F0004350EA010479
:1003D0005ED052EA03045BD0C3F30A54C1F30A555A
:1003E0002C44A4F2F3340194A0FB0254C1F3130192
:1003F00041F48011C3F3130343F4801301FB02445F
:1004000000FB034E840A970A44EA815447EA835763
:10041000A4FB076802958D0A05FB07854FEA932C1C
:1004200004FB0C542705029D4FEA065847EA16378D
:10043000B5EB08056EEB070C870E920E47EA8117A5
:1004400042EA8312A7FB0201B6EB0B0164EB000446
:100450002B0D43EA0C335E1844EB1C50DA46514630
:10046000E7FB0201C5F313044FEA0B3343EA1453CD
:100470004FEA0432019C43EA0603A4F10C040294FF
:10048000009CCDE900B400F021F903B0BDE8F08F85
:1004900000200146F9E770B521F0004303430CD07A
:1004A000C1F30A550024D5EB040564EB0403D61709
:1004B000AD1AB34102DB0020014670BD201841EBAC
:1004C000025170BD0EB540F2334102910021CDE9D9
:1004D00000110A460B4600F0F9F803B000BD00F029
:1004E000004220F00040C10DC0F3160040F40000AF
:1004F0007F2901DA00207047962903DCC1F19601BB
:10050000C84001E096398840002AF4D04042704744
:1005100020F00040C10DC0F3160040F400007F2918
:1005200001DA00207047962903DCC1F19601C8402A
:10053000704796398840704701F0004330B421F08D
:10054000004150EA010206D00A0DA2F56072C1F323
:100550001301002A02DC30BC00207047440F44EA3B
:10056000C104C100E01830BC00EBC25000F068B814
:1005700030B50B46014600202022012409E021FA73
:1005800002F59D4205D303FA02F5491B04FA02F570
:100590002844151EA2F10102F1DC30BD2DE9F05F07
:1005A0000546002092469B468846064681464024E2
:1005B0001BE02846414647462246FFF7FFFD5346CB
:1005C0005A46C01A914110D311461846224600F0EF
:1005D00016F82D1A67EB01084F462246012000212C
:1005E00000F00DF817EB00094E41201EA4F10104A4
:1005F000DFDC484631462A464346BDE8F09F202AC4
:1006000004DB203A00FA02F1002070479140C2F169
:10061000200320FA03F3194390407047202A06DB99
:10062000CB17203A41FA02F043EAE07306E041FAC0
:1006300002F3D040C2F120029140084319467047AE
:100640000029A8BF7047401C490008BF20F00100E6
:10065000704710B4B0FA80FC00FA0CF050EA0104C4
:1006600004BF10BC704749B1CCF1200421FA04F456
:1006700011FA0CF118BF012121430843A3EB0C012F
:10068000CB1D4FEA00614FEA102042BF002010BC92
:10069000704700EBC35010440029A4BF10BC704742
:1006A000401C490008BF20F0010010BC704710B585
:1006B000141E73F1000408DA401C41F10001921885
:1006C0005B411A4301D120F0010010BD2DE9F04D2E
:1006D00092469B4611B1B1FA81F202E0B0FA80F283
:1006E00020329046FFF78BFF04460F4640EA0A008F
:1006F00041EA0B0153465A46084313D0114653EAC8
:10070000010019D0C8F140025046FFF757FD0546D9
:100710000E46504659464246FFF771FF084305D042
:10072000012004E020463946BDE8F08D0020054355
:1007300046EAE0762C4337430A986305E40AA0EBC7
:1007400008000022FD0A44EA47540A3002D500207E
:100750000146E9E7010510196941DDE9084500197D
:100760006941BDE8F04DA2E72DE9F04D81EA0304AF
:1007700004F0004B21F0004514464FF0000A23F02E
:10078000004150EA050220D054EA01021DD0C5F311
:100790000A570246C5F31303C1F31300C1F30A5607
:1007A00040F4801543F48013A7EB0608101BD646CF
:1007B00008F2FD3873EB050002D308F1010801E0EF
:1007C00092185B41B8F1000F03DA00200146BDE842
:1007D000F08D00204FF48011064684460EE0171B72
:1007E00073EB050705D3121B63EB050306434CEAC5
:1007F000010C49084FEA300092185B4150EA0107AA
:10080000EDD152EA030012D082EA040083EA050126
:10081000084305D0101BAB4106D20122002306E09D
:1008200000224FF0004302E06FF0010253101AEB78
:1008300006004CEB085110EB0A0041EB0B01BDE840
:10084000F04DFFF734BFC1F30A52C1F3130140F278
:10085000FF3341F480119A4202DA002001467047CA
:1008600040F233439A42A2F2334202DC5242FFF793
:10087000A5BCFFF7C4BE000030B5041E71F1000432
:1008800004DB4FF00044404264EB0101141E73F19D
:10089000000405DB1C464FF00043524263EB0403A7
:1008A000994208BF904230BD064C074D06E0E06813
:1008B00040F0010394E8070098471034AC42F6D3A7
:1008C000FFF718FC60D5000880D50008A0F13001C2
:1008D000092901D8C8B27047A0F14101052901D802
:1008E000373804E0A0F16101052902D85738C0B2B9
:1008F0007047FF207047FEE770B5054600200346AD
:1009000031240FE0EA5C50400822060602D584EA52
:10091000400000E04000521EC0B212F0FF02F4D1CD
:100920005B1CDBB28B42EDD370BD30B5002833D0F9
:100930004179032905D20C314BB2C188491E09B255
:1009400003E090F90530B0F90610642491FBF4F24D
:1009500091FBF4F504FB1511CC1701EB947412B262
:1009600001EBA401D41702EB947401EBA4011A2447
:100970005B1C63430A2493FBF4F3524203EB4202F1
:10098000C37819441144491E49B207228C3191FBA6
:10099000F2F302FB1311017130BD0000FFB5002816
:1009A00015D00178491CC9B201703C290ED3002230
:1009B00002704178491CC9B241703C2906D342708B
:1009C0008178491CC9B28170182902D2002004B074
:1009D000F0BD8270C178491CCCB2C47017A1C28826
:1009E00091E8C21043798DE8C2101546022B11D050
:1009F0001DF80310A14209D201225B1CD9B2C270BA
:100A000041710D2902D342716D1CC580FFF78DFF26
:100A10000120DCE7910705D16421B2FBF1F601FB6F
:100A2000162141B94FF4C871B2FBF1F601FB162152
:100A300009B11C21DEE71D21DCE70000001F1C1F9F
:100A40001E1F1E1F1F1E1F1E1F000000014804F056
:100A500025BD0000043D00200BA005F09FFB4FF0DA
:100A6000FF35174C2E0A2B4600223146206807F02E
:100A700051FFC007F7D0134800F004FA0028F2D065
:100A800011A005F08BFBEEE7496E666F3A20205B04
:100A9000646973706C61795F7363616E5F746173B5
:100AA0006B5D20646973706C6179207363616E2083
:100AB0007461736B20656E746572210D0A0000000D
:100AC0008C000020043D0020496E666F3A20205BB8
:100AD000646973706C61795F7363616E5F74617375
:100AE0006B5D2047657420726762207363616E20BE
:100AF00064617461206572726F72210D0A000000DA
:100B000070B50A4C4FF0FF35606868B9002007F0F7
:100B1000A9FE206040B1064A0021064808F04AF8C4
:100B2000606008B1002070BD284670BD8C000020B8
:100B30006CAA0008590A0008064810B5406808F079
:100B40008BF808B104A000E011A0BDE8104005F04A
:100B500025BB00008C0000204572726F723A205B4A
:100B6000646973706C61795F7363616E5F746173E4
:100B70006B5D20646973706C6179207363616E20B2
:100B80007461736B20726573756D650D0A000000EA
:100B9000496E666F3A20205B646973706C61795F9F
:100BA0007363616E5F7461736B5D20646973706CF5
:100BB0006179207363616E207461736B2072657359
:100BC000756D650D0A00000001460248006807F0D7
:100BD0006BBE00008C000020064810B5406808F08D
:100BE00057F808B104A000E011A0BDE8104005F0DE
:100BF000D5BA00008C0000204572726F723A205BFB
:100C0000646973706C61795F7363616E5F74617343
:100C10006B5D20646973706C6179207363616E2011
:100C20007461736B2073757370656E640D0A0000D8
:100C3000496E666F3A20205B646973706C61795FFE
:100C40007363616E5F7461736B5D20646973706C54
:100C50006179207363616E207461736B20737573A7
:100C600070656E640D0A0000012007F0E1FDFBE7EE
:100C7000ADF54C7D64A005F091FA6EA370A273A14E
:100C800074A005F08BFA4FF4467A51466846FFF798
:100C9000BEFA082000F036F9774D06AF4FF0FF3B63
:100CA0000DF10E084FF49679BE1F5B4600226FF0DF
:100CB0007F41286807F02EFE0446C00746D0C6A82C
:100CC000FFF76CFE58B1C6A9404600F043FCBDF8E2
:100CD0000E00ADF820039DF810008DF82203C6A980
:100CE000684604F077FCDDE9C601CDE9C901684634
:100CF00004F066FB98B1614803F0DCF85F4803F04C
:100D00004DF80021304604F077FB07F015F800F0AD
:100D1000D4FB05F0F9FFFFF75FFF05F0D5F9684652
:100D200004F0A8FC00231A463946686807F0E4FE80
:100D300010B90120FFF748FF00231A46C8A9A86888
:100D400007F0DAFE10B9012005F0B6F9A00704D5C6
:100D500005A805F053FF0598CB90600709D5C6A8F4
:100D600006F054FFC6A800F0A3FBC6A9404600F059
:100D7000F1FB200719D5BDF81200B0B904F09AFCB8
:100D800051466846FFF743FA4946304604F034FBC3
:100D90003A4803F015F8394803F030F8C6A800F0D7
:100DA0008FFBC6A9404600F0D5FBE0067FF57DAF7E
:100DB000334805F0F3F9BDF8120020B1494630463A
:100DC00004F01AFB71E706F05FFF00F075FB05F019
:100DD0004DFFFFF7B1FE05F035F9082000F092F85D
:100DE000C6A9684604F0F6FB684604F043FC0023FD
:100DF0001A463946686807F07FFE0028E2D10120D4
:100E0000FFF7E2FE51E70000496E666F3A20205B73
:100E1000646973706C61795F7461736B5D20646980
:100E200073706C6179207461736B20656E74657288
:100E30000D0A00004170722031352032303233000B
:100E400032313A32373A323900000000563130310F
:100E500000000000496E666F3A20205B6469737081
:100E60006C61795F7461736B5D2025732C20257331
:100E70002C2025730D0A0000940000200802002099
:100E8000A4D300080146034800231A46406807F02F
:100E9000BBBD0000940000200146034800231A4611
:100EA000806807F0B1BD00009400002070B5124CBE
:100EB0004FF0FF35E068E0B9002007F0D3FC206078
:100EC000B8B100224FF44071012007F0DBFD6060F3
:100ED00078B100221021012007F0D4FDA06040B1BC
:100EE000064A0021064807F065FEE06008B10020D0
:100EF00070BD284670BD00009400002090AA000834
:100F0000710C000801460248006807F0CDBC0000E3
:100F100094000020014800F035BC00001C030020B4
:100F2000014800F02FBC0000D8020020014800F06A
:100F300029BC000060030020014800F023BC000031
:100F4000A403002030B590F840500124AC40C56B9C
:100F50006C60046863604368102B036803D0996079
:100F60000068C26030BD9A600068C16030BD7047E3
:100F70002DE9F04F634F421807EB010892F898C132
:100F800098F8108006784578C47890F804A04379E2
:100F900090F806B090F802904CEA081C82F898C1CC
:100FA00017F8018007EBC6064CEA580C82F898C186
:100FB00092F8A8C117F8018007EBC5054CEAC81CD8
:100FC00082F8A8C1765C4CEA860682F8A86115F81A
:100FD00001C046EADC0682F8A861082600EB061C80
:100FE0008C44761C9CF81881F6B28CF818800A2E76
:100FF000F4D392F8B8006E5CDFF808C140EA4610FE
:1010000082F8B80092F8B8016D5C0CF1980C40EAD7
:1010100045150CEB010082F8B85190F8506045EA94
:10102000960582F8B85192F8C85190F8506045EA98
:101030008615EDB282F8C85104B90B2407EBC4043D
:1010400092F8C86014F8018046EA480682F8C86041
:10105000645C45EA440482F8C84107EBCA0492F88C
:10106000D850665C45EA061582F8D85092F8D851F7
:10107000645C45EA041482F8D84190F8485044EA88
:10108000550482F8D84192F8E84190F8485044EA73
:10109000C514E5B282F8E85103B90B2307EBC3038B
:1010A00012F8E84F5E5C44EA860414705B5C45EA23
:1010B000830507EBCB0382F800515E5C44EAD6045B
:1010C00014705C5C45EAD40482F8004112F8104FB9
:1010D0005D5C44EA451402F8104B5B5C92F8F0400A
:1010E00044EA431382F8F03090F84000034382F85A
:1010F000F0300CEBC9031078595C08431070BDE860
:10110000F08F0000B4AA0008F0B5C27B0A25B2FB3C
:10111000F5F3B2FBF5F405FB1326027C0844B2FBA1
:10112000F5F3B2FBF5F705FB1725A1F108022649F7
:10113000D2B2114490F8987191F838C047EA0C0780
:1011400080F8987104B90B241F4F90F8A8C0983FFD
:1011500007EBC40407EBC606A45C4CEA041480F851
:10116000A84016F802C044EA5C0480F8A84090F851
:10117000B840B65C44EAC61480F8B84090F8B8416C
:1011800091F8486044EA460480F8B84103B90B235B
:1011900007EBC30310F8C84F9B5C44EA031307EB4B
:1011A000C5040370A55C43EA55030370037CA25C8D
:1011B00043EAC212027490F8102191F8401042EAFA
:1011C000810180F81011F0BD4CAB00082DE9F0470B
:1011D000A1F10802DFF820A1D5B20027D4B2437CE8
:1011E0004FF0640C4FF00A090AEB050642187BB178
:1011F000C58AB5FBFCF3B5FBFCF70CFB175C4F464F
:10120000BCFBF7F9B5FBF7FC07FB1C55DBB21AE09A
:10121000B0F91430002B04DA0127DB435B1C9DB2CC
:1012200000E0858AB5FBFCF8B5FBFCF30CFB185815
:10123000CC46B8FBFCF9B5FBFCF80CFB1855DBB24F
:101240000FB11BB103E093B90B2310E00C2392F80C
:10125000D87096F860C047EA9C1782F8D87092F868
:10126000E87096F860C047EA8C0782F8E8700AEBED
:10127000C30392F8E8C01B5D0AEBC5054CEA530CAA
:101280000AEBC90382F8E8C013F804804CEAD81CC2
:1012900082F8E8C092F8F8C01B5D4CEA430382F87C
:1012A000F83096F868C043EA1C1382F8F83092F8D8
:1012B000F8C196F868804CEA181C82F8F8C12F5DD6
:1012C00043EA571382F8F83092F808312C5D43EA6C
:1012D000C40382F80831437C084490F808023BB10B
:1012E00096F8781040EAD10082F80802BDE8F0874D
:1012F00096F87010F6E70000A4AB00082DE9F0475F
:10130000C279077A467A857A90F80B9090F80CA00B
:10131000447B02B90A22624B084403EB021210F824
:1013200018CF12F8018003EB04144CEA080C00F803
:1013300011CB12F8018090F8EFC04CEA080C80F84D
:10134000EFC090F8EFC1525C4CEA020C80F8EFC19C
:1013500003EB071210F801CC575C4CEA570700F872
:10136000017C90F8FF7012F801C047EA5C0780F832
:10137000FF7090F8FF7112F801C047EA5C0780F82F
:10138000FF71C77B12F801C047EACC17C77390F80A
:101390000FC112F801804CEAC81C80F80FC190F808
:1013A0000FC2525C4CEAC21280F80F2214F801C03E
:1013B00047EA0C07C773675C3A4380F80F2203EBD8
:1013C0000612C77F565C3743C77790F81F61575C9A
:1013D0003E4380F81F6190F81F62525C164380F80C
:1013E0001F6203EB051290F82F60535C46EA53032B
:1013F00080F82F3090F82F31555C43EA550380F880
:101400002F3190F82F32555C43EA550380F82F3284
:1014100090F83F30555C43EAC51380F83F3090F8B0
:101420003F51565C45EAC61580F83F5190F83F524F
:10143000525C45EAC21280F83F22655C2B4380F87B
:101440003F30635C1A43174B80F83F2203EB0912CD
:1014500090F84F40555C2C4380F84F4090F84F4136
:10146000555C2C4380F84F4190F84F42525C144336
:1014700080F84F4203EB0A1290F85F40535C1C4324
:1014800080F85F4090F85F31545C234380F85F310F
:1014900090F85F32515C0B4380F85F32BDE8F08713
:1014A00024AC0008F4AD0008012000F039BB7047FF
:1014B00000207047002070477047704770477047A2
:1014C00070B586B0040025D0002204A9124802F0AD
:1014D0007BF8002203A9104802F02AF89DF8126058
:1014E00026709DF8115065709DF81000A0709DF851
:1014F0000E30E3709DF80D2062719DF80C10217183
:101500009DF80F1001F5FA61E1808DE8610003A0FC
:1015100004F044FE06B070BDAC010020496E666F59
:101520003A20205B74696D655F72756E5D2067653A
:10153000742074696D653A2025642D25642D256419
:1015400020253032643A253032643A253032642026
:101550000D0A00002DE9F043CC884D79CE780028A3
:101560007ED000297CD04D4F07EB8401A1F50051BE
:10157000D1F84C22C2F3411101290DD002F01F0312
:101580001E334749761E01EB450131F8021C3144F8
:1015900089B2A60705D008E002F01F01491E8BB2F0
:1015A000EFE7022D01D9491C89B24FF40028994276
:1015B00028D3C91A8BB2012100260D4612F4002F40
:1015C00002D14FF01D0C01E04FF01E0C634516D305
:1015D000A3EB0C036D1CC2F3035C9BB2EDB28C4514
:1015E00003D1F64316F0FF0601D1491CC9B2A5F19B
:1015F000010C28FA0CFC12EA0C0FE5D1E1E75B1CA8
:10160000DAB238E0591A641EA4B207EB8402A2F5DC
:1016100000528BB2D2F84C620C2116F4700F05D038
:101620000D220025A2F1010CC14618E00C22F8E7BA
:101630004FF01D0C01E04FF01E0C634517D9A3EBD2
:101640000C03521E9BB2D2B20DB9491EC9B2C6F3E9
:10165000035C8C4501D1ED43EDB2A2F1010C00E039
:1016600019E029FA0CF816EA080FE4D1E0E7ACEB30
:101670000302521CD2B204704170827007EB8400E6
:10168000A0F50050D0F84C02C0F30350884202D1BC
:101690000120BDE8F0830020FBE70000A4CF000894
:1016A000C0D2000810B590F821100022022905D000
:1016B0000421816380F82020012010BD01680B689F
:1016C00023F00E030B6001680B6823F001030B602D
:1016D00090F84030012404FA03F1C36B596080F89C
:1016E000214080F82020104610BD000010B590F871
:1016F00021100024022903D00421816301243DE04C
:1017000001680A6822F00E020A6001680A6822F085
:1017100001020A601A4A0168914201D1012121E0C7
:10172000174A1432914201D110211BE0144A283289
:10173000914201D1891515E0114A3C32914201D103
:1017400089140FE00E4A5032914202D14FF4803199
:1017500008E00B4A6432914202D14FF4801101E05B
:101760004FF08071064A083A5160012180F821103B
:10177000002180F82010416B01B18847204610BD40
:10178000080002402DE9F05FC16B0B6801680A6830
:10179000046C4FF0040C0CFA04FC4A4DDFF828A14D
:1017A0004A4E4B4FDFF82CB1DFF82CE11CEA030F57
:1017B0002DD05FEA427C2AD50A68920603D40A68D3
:1017C00022F004020A600168A94201D1042119E053
:1017D000514501D1402115E0B14202D14FF4806161
:1017E00010E0B94202D14FF480410BE0594502D1DB
:1017F0004FF4802106E0714502D14FF4800101E0F1
:101800004FF080612F4A083A5160C16A3BE04FF0C7
:10181000020808FA04F818EA030F4FF000094FF025
:10182000010C35D05FEA827832D50A68920605D479
:101830000A6822F00A020A6080F821C00168A94201
:1018400001D1022119E0514501D1202115E0B14219
:1018500002D14FF4007110E0B94202D14FF40051AF
:101860000BE0594502D14FF4003106E0714502D139
:101870004FF4001101E04FF00071124A083A516034
:1018800080F82090816A00291AD0BDE8F05F0847EF
:101890000825A5401D4213D0120711D50A6822F071
:1018A0000E020A6090F84010C26B0CFA01F1516010
:1018B000C0F838C080F821C080F82090016BE2E7C2
:1018C000BDE8F09F080002401C00024030000240CA
:1018D00044000240580002406C00024070B5040011
:1018E0007ED04A49206888421BD04849143188423A
:1018F00017D046492831884213D044493C318842A8
:101900000FD04249503188420BD04049643188425F
:1019100007D03E497831884203D09A213CA006F096
:1019200058FF606840B1102806D0B0F5804F03D052
:101930009B2137A006F04DFFA068402804D018B1C5
:101940009C2133A006F045FFE068802804D018B140
:101950009D212FA006F03DFF206948B1B0F5807FA2
:1019600006D0B0F5007F03D09E2129A006F031FFFC
:10197000606948B1B0F5806F06D0B0F5006F03D054
:101980009F2123A006F025FFA06928B1202803D0BD
:10199000A0211FA006F01DFFE06960B1B0F5805FD7
:1019A00009D0B0F5005F06D0B0F5405F03D0A121AB
:1019B00017A006F00EFF01CC14491422494201443D
:1019C000B1FBF2F18900E16310490839A1630221FA
:1019D0006177026843F6F0718A43D4E9001300E0AE
:1019E00012E01943D4E902352B4319432369194303
:1019F00063691943A36919431143016000206063BF
:101A000001216177207770BD012070BD0800024080
:101A10002E2E2F447269766572732F53544D3332D4
:101A2000463178785F48414C5F4472697665722F21
:101A30005372632F73746D3332663178785F6861E7
:101A40006C5F646D612E63002DE9F04188460446A9
:101A50000025581E4FF6FF711E461746884204D3D4
:101A600040F26F111DA006F0B4FE94F8200001288A
:101A70000DD0012084F8200094F8211000200129C5
:101A800007D084F8200002252846BDE8F081022016
:101A9000FBE7022184F82110A0632068016821F08F
:101AA0000101016033463A4641462046FFF74AFAB3
:101AB000E06A00282068016802D041F00E0106E0CB
:101AC00021F0040101602068016841F00A01016011
:101AD0002068016841F001010160D5E72E2E2F44F6
:101AE0007269766572732F53544D3332463178786C
:101AF0005F48414C5F4472697665722F5372632F61
:101B000073746D3332663178785F68616C5F646DD1
:101B1000612E6300012802D11020FFF7F3B970474E
:101B2000044910B50A68024202D00860FFF7F2FFCC
:101B300010BD0000140401402DE9F84FDFF898A211
:101B40004FF00008DFF894B20C4605464746504572
:101B50000ED05D450CD0A248854209D0A1488542EF
:101B600006D0A148854203D0BD21A0A006F031FED9
:101B700020680104090C01D0000C03D0BE219BA0F9
:101B800006F027FE606800281FD00128FCD011282D
:101B9000FAD00228F8D01228F6D0A3498842F3D010
:101BA000A2498842F0D0A2498842EDD0A14988429A
:101BB000EAD0A1498842E7D0A0498842E4D003286E
:101BC000E2D0BF2189A006F004FEFDE0012000FA6A
:101BD00008F906EA09064E457ED155450ED05D4509
:101BE0000CD07F48854209D07E48854206D07E4889
:101BF000854203D0CD217DA006F0EBFD8A4A6068C6
:101C0000811A904258D00EDC032870D006DC0028E0
:101C100052D0012819D002286AD131E0112821D0F0
:101C2000122865D13AE0B1F5881F45D006DCB1F540
:101C3000803F41D0B1F5801F5AD13DE0B1F5001F82
:101C40003AD0B1F5041F53D136E0E068022807D03E
:101C5000012805D0032803D0D52164A006F0B9FDE2
:101C6000E76845E0E068022807D0012805D003288E
:101C700003D0DC215DA006F0ACFDE7683F1D37E036
:101C8000E068022807D0012805D0032803D0E3210B
:101C900056A006F09EFDE768083729E0E0680228B4
:101CA00007D0012805D0032803D0EA214FA006F071
:101CB00090FDE7680C371BE0A06890B1012812D0B6
:101CC000022807D0F72149A006F083FDA06840B1A3
:101CD000012808D0082701E074E008E0C5F8149056
:101CE00006E0042704E00827C5F8109000E000276C
:101CF000FF2E01D8294601E005F104014FEA8800D2
:101D000001D9A0F120000A684FF00F0303FA00FC8C
:101D100022EA0C0207FA00F042EA00020A60606858
:101D2000C0004FD54648816941F001018161806959
:101D300028F0030100F00100009042480A18D2F890
:101D400008C04FEA8870010F8B402CEA030C554500
:101D500001D100200EE05D4501D101200AE02048BC
:101D6000854201D1022005E01E48854201D10320B1
:101D700000E00420884040EA0C0090606068C003E6
:101D80003148016801D5314300E0B143016060682A
:101D900080032E48016801D5314300E0B143016062
:101DA0006068C0022A48016801D5314300E0B143B0
:101DB0000160606880022748016801D5314300E076
:101DC000B143016008F10108266836FA08F07FF493
:101DD000FDAEBDE8F88F000000080140000C014096
:101DE0000010014000140140001801402E2E2F4425
:101DF0007269766572732F53544D33324631787859
:101E00005F48414C5F4472697665722F5372632F4D
:101E100073746D3332663178785F68616C5F6770B8
:101E2000696F2E63000000000000111000002110F7
:101E300000003110000012100000221000003210CB
:101E40000010024000000140000401400404014071
:101E5000080401400C04014070B50C00054604D193
:101E60004FF4F67105A006F0B4FCE96824EA01001D
:101E7000214040EA0140286170BD00002E2E2F4411
:101E80007269766572732F53544D333246317878C8
:101E90005F48414C5F4472697665722F5372632FBD
:101EA00073746D3332663178785F68616C5F677028
:101EB000696F2E630000000070B515460C000646E1
:101EC00004D14FF4EA7108A006F083FC45B1012D5E
:101ED00004D040F2D51104A006F07BFC346170BD43
:101EE0002004306170BD00002E2E2F44726976658B
:101EF00072732F53544D3332463178785F48414CDA
:101F00005F4472697665722F5372632F73746D33F9
:101F100032663178785F68616C5F6770696F2E63D5
:101F200000000000014880687047000004000020A5
:101F300070B504007ED089492068884207D088495E
:101F4000884204D040F2D11186A006F042FC6068BD
:101F50009249401E884204D94FF4E97181A006F0ED
:101F600038FCA0684FF4804530B1A84204D040F25C
:101F7000D3117CA006F02DFCE068800A04D04FF459
:101F8000EA7178A006F025FC2069A84207D0B0F5D8
:101F9000404F04D040F2D51172A006F01AFC6069DF
:101FA00030B1012804D04FF4EB716EA006F011FCA3
:101FB000A06930F0FE0004D040F2D71169A006F00D
:101FC00008FCE06930B1402804D04FF4EC7165A002
:101FD00006F0FFFB206A30B1802804D040F2D9110E
:101FE00060A006F0F6FB94F83D00002520B984F8C7
:101FF0003C50204600F04AFB242084F83D00206835
:10200000016821F0010101602068016841F400418C
:1020100001602068016821F40041016000F0BCFF0C
:102020005F4B6168994202D85E4901E002E05E4977
:10203000884201D2012070BD5C492268B0FBF1F1F9
:10204000566826F03F060E43566062689A4206D9EB
:102050004FF4967251434FF47A72B1FBF2F1226859
:10206000491C166A26F03F063143116261689942A5
:1020700010D84900401EB0FBF1F2521CC2F30B0213
:10208000042A01D2042022E0B0FBF1F0401CC0F38E
:102090000B001CE0A268EAB301EBC10303EB0116DD
:1020A000431EB3FBF6F35B1C43F480431B0549D08E
:1020B0008AB301EBC10202EB0111401EB0FBF1F04B
:1020C000401CC0F30B0040F4804040F40040216805
:1020D000CA694CF6FF739A431043C861D4E90710EC
:1020E00001432068026822F0C00211430160D4E974
:1020F000030101432068826848F2FF339A43114389
:102100008160D4E9051001432068C26822F0FF0213
:10211000114301E00FE017E0C1602068016841F061
:10212000010101602564202084F83D00256384F8C6
:102130003E50002070BD01EB4106431EB3FBF6F399
:102140005B1CB3E70120C2E701EB4101401EB0FB7D
:10215000F1F0401CC0F30B00B7E700000054004052
:10216000005800402E2E2F447269766572732F53EB
:10217000544D3332463178785F48414C5F44726940
:102180007665722F5372632F73746D3332663178B4
:10219000785F68616C5F6932632E63007F1A0600A6
:1021A000A086010080841E0000093D0040420F000F
:1021B0002DE9FF4F81B01F4693460446FFF7B2FE5C
:1021C000054694F83D00012620287DD119230122DF
:1021D00050492046009503F071FB002874D194F813
:1021E0003C00012870D0012084F83C002068016880
:1021F000C90703D1016841F001010160206801684D
:1022000021F400610160242084F83D004FF0000AB1
:10221000C4F840A04048E0624FF0200920680168FF
:1022200041F4807101603B4600224FF001112046CD
:10223000009503F043FB50B120680068C00502D54B
:102240004FF400702064032005B0BDE8F08F0298C1
:10225000216800F0FE000861FFF764FE0546206873
:1022600041694069C1F34001C0F380204FF0A008EC
:102270000EE0FFF757FE401BB84200D80FB984F8B4
:102280003D80206841694069C1F34001C0F380206E
:1022900094F83D20A02A02D009B90028E9D084F89A
:1022A0003D9020684169C943890717D4016841F40A
:1022B0000071016020685646416980691923012236
:1022C00014492046009500E022E003F0F7FAA8B98F
:1022D00084F83D9084F83C600020B5E7016841F443
:1022E0000071016021686FF4806048611923012248
:1022F00008492046009503F0E1FA08B10120A3E760
:10230000761C5E458AD384F83D9084F83CA0F5E7BE
:10231000022099E7020010000000FFFF2DE9F84FAE
:102320000026DDF82890984617468A46044600960F
:10233000FFF7F8FD054694F83D0020287AD11923CF
:10234000012283492046009503F0B8FA0028F5D110
:1023500094F83C0001286DD0012084F83C002068EE
:102360000168C90703D1016841F0010101602068DB
:10237000016821F400610160222084F83D001020F2
:1023800084F83E0026646762A4F82A80608D208568
:102390007048E0622B464A465146204603F0A4F9B5
:1023A00000287DD1208DDFF8B081202768B1012879
:1023B00014D00228206801681ED041F480610160B9
:1023C0002068416980690090B5E0206841698169B1
:1023D0000091016841F400710160ACE0206801687F
:1023E00021F48061016072B62068416981690091C1
:1023F000016841F400710AE041F40061016072B6C5
:102400002068416981690091016821F4806101605F
:1024100062B690E0032868D801280CD002284B4609
:102420004FF000024146204600950FD003F046FAD7
:10243000B0BB10E08AE02A464946204603F0BEFAC7
:1024400070BB20680069616A08706BE003F036FABF
:1024500030BB72B634E02068016821F4806101600D
:1024600072B620680069616A0870606A401C606228
:10247000208D401E2085608D401E6085374846F2C5
:10248000A8110068B0FBF1F0C0EBC00000EB8000C9
:102490000090401E009008D020684069C04300E0D2
:1024A00029E040070CD50098F3E744F8306F6773D4
:1024B000A673206940F02000206162B626731AE0FE
:1024C0002068016841F40071016020680069616A58
:1024D0000870606A401C6062218D491E2185618DF3
:1024E000491E618562B621681AE02A46494620469F
:1024F00003F064FA10B10120BDE8F88F206800698C
:10250000616A0870606A401C6062218D491E2185E5
:10251000618D491E618521684A69D24352070AD4F8
:1025200009690170606A401C6062208D401E208530
:10253000608D401E6085208D00287FF46BAF84F88D
:102540003D7084F83E6084F83C60D5E70220D3E714
:10255000020010000000FFFF040001001000002036
:102560002DE9F84F1F4690468A460446DDF828902C
:10257000FFF7D8FC054694F83D0020287FD11923A9
:10258000012240492046009503F098F9002876D1B1
:1025900094F83C00012872D0012084F83C002068A7
:1025A0000168C90703D1016841F001010160206899
:1025B000016821F400610160212084F83D001020B1
:1025C00084F83E0000262664C4F824806785608D68
:1025D00020852D48E0622B464A465146204603F0AE
:1025E000F9F890B9206841698069009036E02A4680
:1025F0004946204603F017FA50B1206C042804D154
:102600002068016841F4007101600120BDE8F88F85
:10261000606A216800780861626A521C6262608D9B
:10262000401E6085208D401E80B2208521684B6948
:10263000DB435B070BD450B110780861606A401C23
:102640006062608D401E6085208D401E20852A4678
:102650004946204603F00CF90028CED1208D0028F1
:10266000C5D154F83D0B016841F400710160202090
:1026700004F81E09E67766770020C7E7FFE7022027
:10268000C4E70000020010000000FFFF30B585B075
:10269000002100910191029103911E4D01681E4C91
:1026A000122203231D48A94216D1A16941F0080155
:1026B000A161A169039301F008010491C021CDE952
:1026C00000126946FFF738FAE06940F40010E06153
:1026D000E06900F4001019E0114DA94217D1A16979
:1026E00041F00801A161A169039301F0080104917F
:1026F0004FF44061CDE900126946FFF71DFAE06929
:1027000040F48000E061E06900F48000049005B0CE
:1027100030BD00000054004000100240000C014099
:102720000058004002488168027811448160704777
:1027300004000020074810B5016841F01001016055
:10274000032000F029F90F2000F006F800F04AF805
:10275000002010BD0020024030B505461C4887B05F
:10276000816941F400618161806905A900F400601C
:102770000690684600F0C6FB00F01EFC1549164A9C
:10278000B0FBF1F11548491E026040F2E732C26029
:1027900000220261C0E90112826101F079FA0400AD
:1027A00012D10E4801F02AFB04000DD1192000F0CF
:1027B00073F8102D07D200222946192000F09EF848
:1027C0000748056000E0012407B0204630BD000046
:1027D0000010024040420F00002C0140E80300209E
:1027E000080000200F4808B5816941F001018161AE
:1027F000816901F001010091C16941F08051C1611D
:10280000C069002200F0805000900F21901E00F05F
:1028100075F80549486820F0E06040F000704860B5
:1028200008BD0000001002400000014010B5040087
:1028300003D5CE2109A005F0CCFF002C0DDB04F060
:102840001F01012088406109890001F1E021C1F8E0
:102850008001BFF34F8FBFF36F8F10BD2E2E2F441B
:102860007269766572732F53544D333246317878DE
:102870005F48414C5F4472697665722F5372632FD3
:1028800073746D3332663178785F68616C5F636F43
:10289000727465782E63000010B5040003D5BE2164
:1028A00007A005F096FF002C09DB04F01F010120B2
:1028B00088406109890001F1E021C1F8000110BDE3
:1028C0002E2E2F447269766572732F53544D333216
:1028D000463178785F48414C5F4472697665722F63
:1028E0005372632F73746D3332663178785F686129
:1028F0006C5F636F727465782E63000070B5144668
:102900000D460646102A03D3AA2113A005F061FF45
:10291000102D03D3AB2110A005F05BFF1D4800680C
:10292000C0F30223C3F10700042800D90420191DB5
:10293000072901D2002300E0DB1E012202FA00F188
:10294000491E294099409A40521E22403046BDE817
:102950007040114305F0B4BA2E2E2F44726976658B
:1029600072732F53544D3332463178785F48414C5F
:102970005F4472697665722F5372632F73746D337F
:1029800032663178785F68616C5F636F7274657806
:102990002E6300000CED00E010B5044607280BD0B4
:1029A000062C09D0052C07D0042C05D0032C03D00D
:1029B000922108A005F00DFF154A04F007011068E8
:1029C0004FF6FF03184040EA012012490843106007
:1029D00010BD00002E2E2F447269766572732F533E
:1029E000544D3332463178785F48414C5F447269C8
:1029F0007665722F5372632F73746D33326631783C
:102A0000785F68616C5F636F727465782E63000035
:102A10000CED00E00000FA05014901200862704752
:102A200000000E4270B505462DA086B00FC88DE897
:102A30000F002FA0002400680490E80708D1A80721
:102A400006D4E80604D44FF4CB712AA005F0C1FEE9
:102A5000374E012D21D0022D3AD0102D35D170687E
:102A60003168C90131D5C0F38342C0031DF802406B
:102A700009D5706804A9C0F34040085C2D49B1FB3A
:102A8000F0F0444301E02C484443706840021CD4F9
:102A900060000321B0FBF1F417E0316AC1F30120BB
:102AA000012803D1890701D5C4030EE0022805D10E
:102AB000716A890702D549F6404406E0032804D12B
:102AC0003068800301D54FF2244406B0204670BD23
:102AD00000F072FA7168C1F38131491C4900D9E7ED
:102AE00002030405060708090A0B0C0D0E0F10104F
:102AF000010200002E2E2F447269766572732F53E7
:102B0000544D3332463178785F48414C5F447269A6
:102B10007665722F5372632F73746D33326631781A
:102B2000785F68616C5F7263635F65782E63000035
:102B30000010024000127A0000093D002DE9F84320
:102B4000044600684F4FC1070AD181076DD4C00603
:102B50007ED46C214CA005F03CFE2078C00761D0EB
:102B60006068002560B1B0F5807F09D0B0F5007FC6
:102B700006D0B0F5407F03D0742143A005F029FEB4
:102B8000F869C00008D4F86940F08050F861F8692D
:102B9000012500F0805000904A480168C90511D411
:102BA0000168804641F480710160FFF7BBF9064679
:102BB00004E0FFF7B7F9801B642822D8D8F800009A
:102BC000C005F6D5386A10F4407020D0A18801F411
:102BD000407181421BD0386A3B49012220F4407089
:102BE0000A6000220A603862C00710D0FFF79AF925
:102BF000064641F2883807E0FFF794F9811B41450A
:102C000002D90320BDE8F883386A8007F4D5386A12
:102C1000616820F44070084338621DB1F86920F003
:102C20008050F8612078800716D5A06860B1B0F5B3
:102C3000804F09D0B0F5004F06D0B0F5404F03D01B
:102C4000B92111A005F0C5FD786820F4404000E0EE
:102C500005E0A168084378602078C0060FD5E068D9
:102C6000B0F5800F05D020B140F2151106A005F097
:102C7000B0FD7868E16820F48000084378600020A7
:102C8000C0E70000001002402E2E2F4472697665C6
:102C900072732F53544D3332463178785F48414C2C
:102CA0005F4472697665722F5372632F73746D334C
:102CB00032663178785F68616C5F7263635F6578F4
:102CC0002E63000000700040400442422DE9F047AE
:102CD0000D4604007DD02068C1070AD1810708D4C1
:102CE000410706D4000704D44FF44E7172A005F0DA
:102CF00070FD45B1012D06D0022D04D040F23931CE
:102D00006DA005F066FDDFF8E881D8F8000000F05E
:102D10000700A8420CD2D8F8001021F0070129437F
:102D2000C8F80010D8F8000000F00700A84277D1DA
:102D30002068704E810729D5400703D5706840F49C
:102D4000E06070602078000703D5706840F4605040
:102D50007060A068A0B1802812D0902810D0A02860
:102D60000ED0B0280CD0C0280AD0D02808D0E02837
:102D700006D0F02804D040F25F314FA005F029FDC5
:102D80007068A16820F0F000084370602078C007E8
:102D900035D0606868B101281CD002281DD040F2EF
:102DA000663145A005F015FD6068012812D00228A3
:102DB00013D030688007002832DA7068616820F02C
:102DC000030008437060FFF7ADF8074641F2883909
:102DD0000EE025E030688003EDE730688001EAE727
:102DE000FFF7A0F8C11B494502D90320BDE8F087D1
:102DF0007068616800F00C00B0EB810FF0D1D8F87A
:102E00000010404601F00701A9420BD9016821F0EA
:102E1000070129430160006800F00700A84201D0C3
:102E20000120E3E720784FF4806540074FF4A06766
:102E30004FF4C0684FF4E06914D5E06860B1A8426F
:102E40000AD0B84208D0404506D0484504D04FF4D7
:102E5000697119A005F0BDFC7068E16820F4E060BC
:102E6000084370602078000715D5206960B1A8423A
:102E70000AD0B84208D0404506D0484504D040F2B8
:102E8000AB310DA005F0A5FC7068216920F46050FD
:102E900040EAC100706000F09FF87168164AC1F303
:102EA0000311515CC8401549086015480068FFF7D8
:102EB00053FC00209AE700002E2E2F44726976659D
:102EC00072732F53544D3332463178785F48414CFA
:102ED0005F4472697665722F5372632F73746D331A
:102EE00032663178785F68616C5F7263632E63006D
:102EF000002002400010024054AA000810000020E8
:102F00000800002070B50D46040004D140F22351A2
:102F100011A005F05EFC25B940F224510EA005F089
:102F200058FC0F2020601A48416801F003016160DD
:102F3000416801F0F001A160416801F4E061E160E5
:102F400040684FF4E06101EAD00020611148006858
:102F500000F00700286070BD2E2E2F447269766540
:102F600072732F53544D3332463178785F48414C59
:102F70005F4472697665722F5372632F73746D3379
:102F800032663178785F68616C5F7263632E6300CC
:102F900000100240002002400448054900684968CA
:102FA000044AC1F30221515CC84070471000002060
:102FB0000010024064AA00080448054900684968F6
:102FC000044AC1F3C221515CC84070471000002080
:102FD0000010024064AA000812A085B00FC88DE856
:102FE0000F0014A0144B006804905968134801F0B6
:102FF0000C02042A10D0082A0ED1C1F38342C9035F
:103000001DF802000AD5596804AAC1F34041515C79
:103010000A4A5043B0FBF1F005B0704708494843F5
:10302000FAE7000002030405060708090A0B0C0D65
:103030000E0F1010010200000010024000127A0072
:1030400000093D002DE9F84F04007DD0DFF8EC8346
:10305000FB4D20684FF0010B4FF000094FF4803A10
:1030600060B1C1070DD1810761D401076DD440075C
:103070006CD440F26711F3A005F0ABFB2078C007D9
:1030800052D060684FF4A02640B1504506D0B042FF
:1030900004D040F26D11EBA005F09BFB6868C0F313
:1030A0008100012807D06868C0F38100022809D197
:1030B0006868C00306D52868800335D56068002895
:1030C000C3D031E06068504503D1286840F48030B7
:1030D00009E008B1B0420DD0286820F480302860A3
:1030E000286820F480202860606888B1FEF71AFF05
:1030F000064609E0286840F480202860E5E7FEF7EE
:1031000011FF801B642875D828688003F7D50BE071
:10311000FEF708FF064604E0FEF704FF801B642864
:10312000F1D828688003F7D4207880074DD520692E
:1031300030B1012804D040F2A111C2A005F049FB32
:1031400060691F2808D902E096E041E079E04FF479
:10315000D171BCA005F03DFB686810F00C0F07D0E2
:103160006868C0F38100022809D16868C00306D4EA
:103170002868800713D5206901287DD10FE02069D8
:10318000A8B1C8F800B0FEF7CDFE064604E0FEF791
:10319000C9FE801B0228B6D828688007F7D52868A2
:1031A000616920F0F80040EAC10028600DE0C8F82D
:1031B0000090FEF7B7FE064604E0FEF7B3FE801B64
:1031C0000228A0D828688007F7D42078000735D5D2
:1031D000AA4EA06920B3012806D04FF4F17199A03E
:1031E00005F0F7FAA069D8B1C6F800B0FEF79AFE6C
:1031F000064605E04DE1FEF795FE801B02288FD8BC
:10320000686A8007F7D59E484FF4FA510068B0FB12
:10321000F1F0009000BF0098411E0091FAD20DE03D
:10322000C6F80090FEF77EFE064604E0FEF77AFE42
:10323000801B0228AFD8686A8007F7D4207840073F
:1032400069D5E068002740B1012806D0052804D0E0
:1032500040F211217BA005F0BCFAE869C00008D457
:10326000E86940F08050E861E869012700F080508B
:1032700000908448016800E01FE1C90510D401688E
:1032800041F480710160FEF74DFE064604E0FEF752
:1032900049FE801B642894D87A480068C005F6D59A
:1032A000E06801280AD008B1052811D0286A20F06A
:1032B00001002862286A20F0040002E0286A40F039
:1032C00001002862E06898B1FEF72CFE06460BE08C
:1032D000286A40F004002862F0E7FEF723FE811B15
:1032E00041F2883081428AD8286A8007F5D50DE0FE
:1032F000FEF718FE064606E0FEF714FE811B41F2BB
:103300008830814296D8286A8007F5D41FB1E869D1
:1033100020F08050E861E06900287DD0012809D0C4
:10332000022807D040F2AF2146A005F052FAE0692A
:10333000002871D06868C0F381000228E0696CD071
:10334000022805D0C8F86090FEF7ECFD0446A3E023
:10335000206A30B1504504D04FF42E7139A005F0E9
:1033600038FA606A70B3B0F5802F2BD0B0F5002F1B
:1033700028D0B0F5402F25D0B0F5801F22D0B0F571
:10338000A01F1FD0B0F5C01F1CD0B0F5E01F19D092
:10339000B0F5001F16D0B0F5101F13D0B0F5201FE8
:1033A00010D0B0F5301F0DD0B0F5401F0AD0B0F5E9
:1033B000501F07D0B0F5601F04D040F2B92121A002
:1033C00005F007FA4746C8F86090FEF7ABFD0646E1
:1033D00004E0FEF7A7FD801B02285AD82868800168
:1033E000F7D4206A50450FD1A06838B1B0F5003F3E
:1033F00004D040F2CF2113A005F0EBF96868A16872
:1034000020F4003008436860D4E908010843696883
:1034100021F47411084301E051E041E06860C7F80D
:1034200060B0FEF77FFD044604E0FEF77BFD001B65
:1034300002282ED828688001F7D540E000004242DB
:10344000001002402E2E2F447269766572732F533E
:10345000544D3332463178785F48414C5F4472694D
:103460007665722F5372632F73746D3332663178C1
:10347000785F68616C5F7263632E63008004424210
:103480001000002000700040FEF74CFD001B0228D9
:1034900002D90320BDE8F88F28688001F4D40EE03B
:1034A0000128F7D06868226A00F48031914204D183
:1034B000616A00F47010884201D00120EAE7002020
:1034C000E8E77047704710B5044600680168C9070F
:1034D00017D04168C90714D040684007204607D577
:1034E000FFF7F0FF21686FF004004860042002E05D
:1034F000FFF7E7FF012060742068416821F00101B7
:10350000416010BD80B1017C01290FD001220274FD
:103510000221417401680B6843F001030B6042749F
:10352000002101740846704701207047022070474F
:10353000F8B505004FF0000016460C4600900ED07E
:103540006CB136B1012E04D040F20E4110A005F04E
:1035500040F900226946284600F036F808B10120FB
:10356000F8BD287B2070E87BE070697B6170A97BE7
:10357000A17056B102F071FFE070607802F06DFF4B
:103580006070A07802F069FFA0700020F8BD000014
:103590002E2E2F447269766572732F53544D333239
:1035A000463178785F48414C5F4472697665722F86
:1035B0005372632F73746D3332663178785F68614C
:1035C0006C5F7274632E63002DE9F04716460C465B
:1035D0005FEA000952D0002C50D036B1012E04D041
:1035E00040F22D3131A005F0F4F8D9F80000406820
:1035F000400743D4484602F0E0FF4FF46162B0FB5D
:10360000F2F10546B0FBF2F002FB10533C20B3FB95
:10361000F0F36370B5FBF2F302FB1352B2FBF0F36D
:1036200000FB1320A070182930D31820B1FBF0F84C
:10363000B1FBF0F200FB12102070484602F0B6FF1A
:10364000411C03D0A84201D9471B01E04FF0FF37CE
:10365000A8EB081000EB4000C0EB001005EBC01514
:103660002946484602F0F8FF40B9781C01D0791984
:1036700000E03946484602F0DBFF10B10120BDE80A
:10368000F0874146484602F0F3FE00E021705EB14B
:10369000207802F0E2FE2070607802F0DEFE6070BA
:1036A000A07802F0DAFEA0700020E8E72E2E2F446A
:1036B0007269766572732F53544D33324631787880
:1036C0005F48414C5F4472697665722F5372632F75
:1036D00073746D3332663178785F68616C5F7274D1
:1036E000632E630070B5040026D0364920688842F6
:1036F00004D040F21D1134A005F06BF8A06860B151
:1037000080280AD0B0F5807F07D0B0F5407F04D084
:103710004FF48F712CA005F05CF86068B0F5801F45
:1037200006D3401C04D040F21F1127A005F051F829
:10373000607C002610B105E0012070BD2674204693
:1037400000F060F802206074204600F0FBF90425C8
:1037500078BB204602F0E3FE58BB2068416821F0A8
:1037600007014160A06820B12548016821F00101EE
:1037700001602348001F0168A26821F460711143B1
:1037800001606068411C04D10120FFF74BF980B152
:10379000401E21688A6822F00F0242EA10428A60C5
:1037A0002168CA6860F30F02CA60204602F0D1FEA9
:1037B00008B16574C0E7E67301206073A07360749C
:1037C000002070BD002800402E2E2F4472697665BF
:1037D00072732F53544D3332463178785F48414CE1
:1037E0005F4472697665722F5372632F73746D3301
:1037F00032663178785F68616C5F7274632E630043
:10380000306C004008B500680D49884217D1FFF7B9
:1038100003F90C48C16941F00061C161C0690A49FE
:1038200000F00060009001200860002205210320C4
:10383000FFF764F8BDE808400320FFF72DB808BD86
:1038400000280040001002403C0442422DE9F041B3
:1038500016460D4604006AD0002D68D036B1012E00
:1038600004D04FF467714EA004F0B3FF207C012810
:1038700060D04FF0010884F8108002206074E8786E
:10388000002E59D002F0E0FD632804D94FF46C718A
:1038900043A004F09EFF687802F0D6FD20B168785E
:1038A00002F0D2FD0C2804D940F2B1313CA004F062
:1038B00090FFA87802F0C8FD20B1A87802F0C4FDFE
:1038C0001F2804D940F2B23135A004F082FFE87815
:1038D00002F0BAFDE073687802F0B6FD6073A87874
:1038E00002F0B2FDA073C2B2617BE07B02F075FE14
:1038F00020732870204602F060FE4FF46161B0FB37
:10390000F1F10025182946D91822B1FBF2F1A1EBFB
:10391000011101EB4101C1EB011100EBC116314670
:10392000204602F099FE0427002831D123E001202F
:10393000BDE8F0810220FBE7632804D940F2A531FD
:1039400017A004F046FF6878401E0B2804D940F207
:10395000A63113A004F03DFFA878401E1E2804D90C
:1039600040F2A7310EA004F034FFE878E0736878E5
:103970006073A878B6E7204602F018FE411C0AD012
:10398000B04208D214490144204602F051FE10B161
:1039900067742574CBE784F8118025740020C7E78D
:1039A0002E2E2F447269766572732F53544D333225
:1039B000463178785F48414C5F4472697665722F72
:1039C0005372632F73746D3332663178785F686138
:1039D0006C5F7274632E6300805101002DE9F04129
:1039E00016460C4605004DD0002C4BD036B1012EAA
:1039F00004D040F2CA2144A004F0EBFE287C012848
:103A000043D04FF0010885F81080022068742078B8
:103A1000002E3CD002F018FD172804D940F2DD2119
:103A200039A004F0D6FE607802F00EFD3B2804D9E0
:103A300040F2DE2134A004F0CCFEA07802F004FDB8
:103A40003B2804D940F2DF212FA004F0C2FE2078E9
:103A500002F0FAFC4FF4616100FB01F6607802F0BD
:103A6000F3FCC0EB001006EB8006A07802F0ECFC43
:103A700034182146284602F0EFFD002604270028CE
:103A80003AD127E00120BDE8F0810220FBE71728AA
:103A900004D940F2D3211CA004F09BFE60783B289F
:103AA00004D94FF4357118A004F093FEA0783B2898
:103AB00004D940F2D52114A004F08BFE21784FF4F4
:103AC000616041436078C0EB001001EB8000A17899
:103AD0004418CEE72868416821F005014160284676
:103AE00002F064FD411C0AD0A04208D214490144EE
:103AF000284602F09DFD10B16F742E74C2E785F860
:103B000011802E740020BEE72E2E2F447269766538
:103B100072732F53544D3332463178785F48414C9D
:103B20005F4472697665722F5372632F73746D33BD
:103B300032663178785F68616C5F7274632E6300FF
:103B40008051010070B504000AD02068416821F05E
:103B500008014160FEF7E6F905464FF47A7608E081
:103B6000012070BDFEF7DEF9401BB04201D90320F1
:103B700070BD206840680007F4D5002070BD704714
:103B8000704700002DE9F047044600682E4E2F4F85
:103B9000DFF8BC800D464FF08049B0420AD048455E
:103BA00008D0B84206D0404504D040F2867129A022
:103BB00004F00FFE286890B1102810D020280ED0F5
:103BC00030280CD040280AD0502808D0602806D0D1
:103BD000702804D040F287711EA004F0FAFD6868D6
:103BE000802805D020B14FF4F1611AA004F0F1FD56
:103BF00094F83C00012825D0012284F83C200220C2
:103C000084F83D00206843688168D5F800C023F03F
:103C100070034CEA030CC0F804C02068B04205D021
:103C2000484503D0B84201D0404504D16B6821F02B
:103C300080010B43836084F83D20002084F83C0021
:103C4000BDE8F0870220FBE7002C014000040040A3
:103C5000000800402E2E2F447269766572732F5330
:103C6000544D3332463178785F48414C5F44726935
:103C70007665722F5372632F73746D3332663178A9
:103C8000785F68616C5F74696D5F65782E630000B2
:103C900010B504003AD03049206888420DD0B0F108
:103CA000804F0AD02D49884207D02D49884204D040
:103CB00040F213112BA004F08CFDA06860B1102815
:103CC0000AD0202808D0402806D0602804D04FF41D
:103CD0008A7124A004F07DFD206950B1B0F5807F89
:103CE00007D0B0F5007F04D040F215111DA004F0FC
:103CF00070FDA06930B1802804D04FF48B7119A0F9
:103D000004F067FD94F83D0010B107E0012010BDFC
:103D1000002084F83C00204600F052F8022084F88D
:103D20003D00211D206803F087F8012084F846003B
:103D300084F83E0084F83F0084F8400084F8410095
:103D400084F8420084F8430084F8440084F8450075
:103D500084F83D00002010BD002C0140000400400C
:103D6000000800402E2E2F447269766572732F531F
:103D7000544D3332463178785F48414C5F44726924
:103D80007665722F5372632F73746D333266317898
:103D9000785F68616C5F74696D2E63000068064926
:103DA000884207D10548C16921F00401C1611E2084
:103DB000FEF73CBD704700000008004000100240C4
:103DC00008B500680B49884212D10B48C16941F01F
:103DD0000401C161C069002200F0040000900521C7
:103DE0001E20FEF78BFDBDE808401E20FEF754BDE7
:103DF00008BD000000080040001002402DE9F0411D
:103E0000074600681A4C1B4D1B4E4FF08048A042DD
:103E10000AD0404508D0A84206D0B04204D040F2B3
:103E2000CF1116A004F0D5FC97F83D00012802D070
:103E30000120BDE8F081022087F83D003868C168A4
:103E400041F00101C1603868A04205D0404503D06F
:103E5000A84201D0B04204D1816801F007010629CF
:103E600003D0016841F0010101600020E1E700009A
:103E7000002C014000040040000800402E2E2F447A
:103E80007269766572732F53544D333246317878A8
:103E90005F48414C5F4472697665722F5372632F9D
:103EA00073746D3332663178785F68616C5F746902
:103EB0006D2E630010B504460068144988420DD089
:103EC000B0F1804F0AD01249884207D01149884288
:103ED00004D040F2F71110A004F07BFC2068C16808
:103EE00021F00101C1602068016A41F21112114202
:103EF00007D1016A9210114203D1016821F001013A
:103F00000160012084F83D00002010BD002C01401C
:103F100000040040000800402E2E2F447269766590
:103F200072732F53544D3332463178785F48414C89
:103F30005F4472697665722F5372632F73746D33A9
:103F400032663178785F68616C5F74696D2E6300EA
:103F50002DE9F047054690F83C000C4601283CD07E
:103F60004FF0010985F83C90022085F83D0020685B
:103F70004FF480574FF40058B84215D0404513D045
:103F800090B1102810D020280ED030280CD0402816
:103F90000AD0502808D0602806D0702804D041F2FA
:103FA0003241A8A004F015FC2868816821F077014F
:103FB00021F47F418160B24A2068B049B14BD613E9
:103FC0004FF0804C50287CD00FDC202804D007DC38
:103FD0000028FBD010284DD122E10220BDE8F08757
:103FE0003028F9D04028F6D1EFE060286AD04FF4AD
:103FF000405A70284ED0B8423DD04045EBD1286899
:1040000088420AD0604508D0904206D0984204D039
:1040100041F25D418BA004F0DCFBA06850B1B842D6
:1040200008D0404506D0504504D04FF4A35185A098
:1040300004F0CFFB6068B04209D040B1022806D03E
:104040000A2804D041F261417EA004F0C2FBE0687E
:104050000F2804D941F262417AA004F0BAFBD4E9F6
:104060000121E368286802F06FFF2868816841F445
:1040700080418160A3E028688842FBD06045F9D088
:104080009042F7D09842F5D041F23E416DA004F045
:10409000A0FB94E0286888420AD0604508D090428E
:1040A00006D0984204D041F2454166A004F091FB4D
:1040B000A06868B1B8420BD0404509D0504507D040
:1040C00001E025E04FE041F248415EA004F081FBB1
:1040D0006068B04209D040B1022806D00A2804D056
:1040E00041F2494157A004F074FBE0680F2804D95D
:1040F00041F24A4153A004F06CFBD4E90121E3688A
:10410000286802F021FF2868816841F07701B0E754
:10411000286888420AD0604508D0904206D098426C
:1041200004D041F2714147A004F053FB6068B042F3
:1041300009D040B1022806D00A2804D041F27441C7
:1041400040A004F046FBE0680F2804D941F2754115
:104150003CA004F03EFBE2686168286803F09AF82E
:104160005021286829E0286888420AD0604508D094
:10417000904206D0984204D041F2814131A004F02F
:1041800028FB6068B04209D040B1022806D00A2856
:1041900004D041F284412BA004F01BFBE0680F28FF
:1041A00004D941F2854127A004F013FBE26861685D
:1041B000286803F080F86021286802F0CFFE85F8B7
:1041C0003D90002085F83C0008E7286888420AD026
:1041D000604508D0904206D0984204D041F2914107
:1041E00018A004F0F6FA6068B04209D040B1022885
:1041F00006D00A2804D041F2944112A004F0E9FA52
:10420000E0680F2804D941F295410EA004F0E1FACC
:10421000E2686168286803F03DF840212868CCE72F
:10422000286888420AD0604508D0904206D098425B
:1042300004D041F2A44103A004F0CBFA216828681D
:10424000BBE700002E2E2F447269766572732F53E0
:10425000544D3332463178785F48414C5F4472693F
:104260007665722F5372632F73746D3332663178B3
:10427000785F68616C5F74696D2E6300002C01408B
:104280000004004000080040704770B50446006814
:1042900001694FF00005C943890715D4C168C943B6
:1042A000890711D4E91E0161012020772068806907
:1042B0008007204602D0FFF7E7FF04E000F0C8F8CF
:1042C000204600F053FA257720680169C943490761
:1042D00017D4C168C943490713D46FF004010161C1
:1042E000022020772068806910F4407F204602D0A9
:1042F000FFF7CAFF04E000F0ABF8204600F036FA02
:10430000257720680169C943090716D4C168C943E4
:10431000090712D46FF0080101610420207720689A
:10432000C0698007204602D0FFF7AEFF04E000F02E
:104330008FF8204600F01AFA257720680169C943F2
:10434000C90617D4C168C943C90613D46FF0100158
:104350000161082020772068C06910F4407F204662
:1043600002D0FFF791FF04E000F072F8204600F061
:10437000FDF9257720680169C943C90708D1C168DB
:10438000C943C90704D1891E0161204600F006FB1C
:1043900020680169C943090609D4C168C9430906EF
:1043A00005D46FF0800101612046FFF7E8FB20682B
:1043B0000169C943490609D4C168C943490605D4FE
:1043C0006FF040010161204600F0F2FA20680169B7
:1043D000C94389060BD4C168C943890607D46FF065
:1043E000200101612046BDE87040FFF7C9BB70BDE8
:1043F00000B585B000210091019102910391006800
:104400000F4988421AD10F48816941F00801816142
:104410008069694600F00800049010200090022096
:10442000019003900848FDF787FB0849486820F48D
:10443000406040F0E06040F40060486005B000BDBE
:104440000004004000100240000C01400000014048
:10445000704700002DE9F04116000D4604460CD0CF
:10446000042E0AD0082E08D00C2E06D03C2E04D0E4
:1044700041F227015FA004F0ACF92868602806D05B
:10448000702804D041F228015AA004F0A2F9A868CB
:1044900030B1022804D041F2290156A004F099F964
:1044A000286930B1042804D041F22A0151A004F057
:1044B00090F994F83C0001280ED001205B495C4A39
:1044C0005C4B84F83C0087074EB1042E28D0082EA0
:1044D00049D00C2E46D167E00220BDE8F08120686B
:1044E00088420AD0B84208D0904206D0984204D000
:1044F00041F234013FA004F06CF92946206802F033
:1045000035FD2068816941F0080181612068816979
:1045100021F004018161206881692A69114320E04A
:10452000206888420AD0B84208D0904206D098420B
:1045300004D041F245012FA004F04BF92946206830
:1045400002F07EFD2068816941F40061816120688C
:10455000816921F480618161206881692A6941EA69
:104560000221816142E0206888420AD0B84208D026
:10457000904206D0984204D041F256011DA004F0AA
:1045800028F92946206802F0C9FD2068C16941F078
:104590000801C1612068C16921F00401C16120687E
:1045A000C1692A69114320E0206888420AD0B842D4
:1045B00008D0904206D0984204D041F267010DA085
:1045C00004F007F92946206802F016FE2068C16948
:1045D00041F40061C1612068C16921F48061C16159
:1045E0002068C1692A6941EA0221C161002084F87A
:1045F0003C0072E72E2E2F447269766572732F533A
:10460000544D3332463178785F48414C5F4472698B
:104610007665722F5372632F73746D3332663178FF
:10462000785F68616C5F74696D2E6300002C0140D7
:10463000000400400008004010B504003AD03049A2
:10464000206888420DD0B0F1804F0AD02D498842B1
:1046500007D02D49884204D040F213512BA004F01A
:10466000B8F8A06860B110280AD0202808D04028E7
:1046700006D0602804D040F2145124A004F0A9F818
:10468000206950B1B0F5807F07D0B0F5007F04D02D
:1046900040F215511DA004F09CF8A06930B18028AB
:1046A00004D040F2165119A004F093F894F83D009C
:1046B00010B107E0012010BD002084F83C00204626
:1046C00000F040F8022084F83D00211D206802F02F
:1046D000B3FB012084F8460084F83E0084F83F00D4
:1046E00084F8400084F8410084F8420084F84300D4
:1046F00084F8440084F8450084F83D00002010BD93
:10470000002C014000040040000800402E2E2F44E1
:104710007269766572732F53544D3332463178780F
:104720005F48414C5F4472697665722F5372632F04
:1047300073746D3332663178785F68616C5F746969
:104740006D2E630008B500680649884208D1064806
:10475000C16941F00201C161C06900F0020000902E
:1047600008BD000000040040001002407047000037
:104770002DE9F04705460068374E384FDFF8E080F6
:104780000C464FF08049B04206D15CB3042C2CD0CB
:10479000082C2DD00C2C1ED0484507D114B3042C66
:1047A00023D0082C24D00C2C15D00AE0B84206D116
:1047B000C4B1042C19D0082C1AD00C2C0BD04045B5
:1047C000ECD040F2995127A004F003F854B1042C26
:1047D0000BD0082C0CD095F8410001280BD00120FB
:1047E000BDE8F08795F83E00F7E795F83F00F4E75D
:1047F00095F84000F1E702202CB3042C26D0082CB9
:1048000027D085F8410001222146286802F04AFBA2
:104810002868B04203D1416C41F4004141642868EA
:10482000B04205D0484503D0B84201D0404504D13C
:10483000816801F00701062903D0016841F00101F8
:1048400001600020CCE785F83E00DCE785F83F00FA
:10485000D9E785F84000D6E7002C0140000400406D
:10486000000800402E2E2F447269766572732F5314
:10487000544D3332463178785F48414C5F44726919
:104880007665722F5372632F73746D33326631788D
:10489000785F68616C5F74696D2E630070B5054662
:1048A00000682D4E0C46B04206D10CB3042C1FD02C
:1048B000082C1DD00C2C1BD0B0F1804F0CD02749F8
:1048C000884206D1A4B1042C12D0082C10D00C2C94
:1048D0000ED02349884206D154B1042C08D0082CAC
:1048E00006D00C2C04D040F2CD511EA003F071FF75
:1048F00000222146286802F0D5FA41F211122868F8
:104900009310B04209D1016A114206D1016A1942DD
:1049100003D1416C21F4004141642868016A1142CD
:1049200006D1016A194203D1016821F00101016039
:1049300001203CB1042C08D0082C09D085F8410096
:10494000002070BD85F83E00FAE785F83F00F7E7E4
:1049500085F84000F4E70000002C0140000400400E
:10496000000800402E2E2F447269766572732F5313
:10497000544D3332463178785F48414C5F44726918
:104980007665722F5372632F73746D33326631788C
:10499000785F68616C5F74696D2E6300006803491D
:1049A000884201D1FDF7BEBE70470000002C0140D7
:1049B0007047704710B504460068416994F83D207F
:1049C000C1F3C011212A0BD151B1416921F08001FD
:1049D0004161606B08B1FCF765FE204602F04BFDBB
:1049E0002068416994F83E20C1F38011222A0BD13E
:1049F00051B1416921F040014161A06B08B1FCF760
:104A000051FE204602F01FFD002010BD704710F837
:104A10003D1F407808437047F8B5026804461068A7
:104A2000D168536910F00F0F4FF0000553D003F019
:104A3000010601F4907737435FD0C20705D0CA055D
:104A400003D5226C42F001022264420705D5DA0741
:104A500003D0226C42F002022264820705D5DA07F5
:104A600003D0226C42F004022264020707D501F051
:104A70002002324303D0226C42F008022264226CEE
:104A8000002A34D0800604D5880602D5204602F0DC
:104A9000FBFC20684069216CC0F38010090700D43A
:104AA00030B3204602F0CFFC2068416949061BD58F
:104AB000416921F040014161A06BA8B158494163AF
:104AC000A06BFCF713FE002811D0A06B416B01B066
:104AD000BDE8F040084783060FD58B060DD520466C
:104AE000BDE8F84002F0D0BC2046FFF78FFFF8BDCC
:104AF0002046FFF78BFF2564F8BD266B2023012E8F
:104B000052D1C60650D5CE064ED5106850680090DA
:104B1000506940062AD5A16B086840680004000C63
:104B2000EAD0A68D8642E7D9E0858869202818D08A
:104B3000D06820F48070D0602068416921F00101C4
:104B400041612068416921F04001416184F83E30B3
:104B500025632068C16821F01001C160A06BFCF7DB
:104B6000A1FDA08DE18D401A81B219E0A08DE18DEB
:104B7000401A81B2E08D0028BED00029BCD0D06898
:104B800020F49070D0602068426922F001024261F6
:104B900084F83E3025632068C26822F01002C260AB
:104BA0002046FFF706FFF8BD05062BD50D0629D5D3
:104BB00094F83D002128F6D1A068B0F5805F01D1BE
:104BC0002069B0B1206A411C2162216800784860E8
:104BD000E08C401E0004000CE084E4D12068C16831
:104BE00021F08001C1602068C16841F04001C160CE
:104BF000F8BD206A0088C0F308005060206A801C5D
:104C00002062E5E74006F3D54806F1D5D168204695
:104C100021F04001D16084F83D3000F0DBF9F8BDAF
:104C20007973000870B5040020D0A06930490028CD
:104C3000304A314B20681BD088420AD0904208D0BD
:104C4000984206D04FF4B6712CA003F0C2FDA069C3
:104C5000C8B1A069B0F5807F15D0B0F5007F12D043
:104C6000B0F5407F0FD040F26D1109E0012070BD1A
:104C7000884208D0904206D0984204D040F2711188
:104C80001EA003F0A6FDA06838B1B0F5805F04D087
:104C900040F2731119A003F09CFD94F83D0000252B
:104CA00020B984F83C50204600F046F8242084F8CF
:104CB0003D002068C16821F40051C160204602F027
:104CC0003FFC2068016921F490410161206841693D
:104CD00021F02A0141612068C16841F40051C1609E
:104CE0002564202084F83D0084F83E00002070BD3B
:104CF0000038014000440040004800402E2E2F4460
:104D00007269766572732F53544D33324631787819
:104D10005F48414C5F4472697665722F5372632F0E
:104D200073746D3332663178785F68616C5F75617A
:104D300072742E63000000002DE9F04186B000255A
:104D400000950195029503950446DFF860C101685E
:104D5000574802220323574E80274FF01008614521
:104D60004CD1816941F480418161816901F48041C4
:104D70000491816941F0040181618069694600F014
:104D8000040004901002CDE9000203933046FCF7C2
:104D9000D3FE3015CDE90005694630460295FCF793
:104DA000CBFE464E4448C6E90005C6E902573561C8
:104DB0007561B5613046F561FCF790FD08B1FCF70F
:104DC00076FBA66374623D4E3B4844361438C6E910
:104DD000025735617561B561F561C6E90008304675
:104DE000FCF77CFD08B1FCF762FB6663002205213D
:104DF00025207462FDF782FD252051E0DFF8C0C058
:104E000061454FD1C16941F40031C161C16901F40B
:104E100000310491816941F0040181618069694632
:104E200000F0040004900420CDE900020393304612
:104E3000FCF782FE0820CDE9000569463046029560
:104E4000FCF77AFE1D4E1C4888361430C6E9000572
:104E5000C6E9025735617561B5613046F561FCF709
:104E60003DFD08B1FCF723FBA6637462134E1248A4
:104E7000CC362830C6E9025735617561B561F561F8
:104E8000C6E900083046FCF729FD08B1FCF70FFB26
:104E900066630022052126207462FDF72FFD26207F
:104EA000FDF7FAFC06B0BDE8F081000000380140D3
:104EB000001002400008014058000240D8020020C3
:104EC0000044004090F83E30202B0ED159B152B131
:104ED00090F83C30012B08D0012380F83C300023AF
:104EE000036302F0D3BB012070470220704700002B
:104EF000084A0168914201D102F08CBF064A9142F2
:104F000001D102F015BA054A914201D1FCF7D6BA97
:104F10007047000000380140004400400048004055
:104F200070472DE9F843044690F83D001F461546AA
:104F30000E4620284BD1C6B1BDB194F83C000128E3
:104F400045D0012084F83C004FF00008C4F84080B0
:104F5000212084F83D00FCF7E5FFA5848146E58427
:104F6000A068B0F5805F03D004E00120BDE8F883BD
:104F7000206920B13546002684F83C800EE00025EB
:104F8000FAE78021204602F0BBFBA0B9ADB115F8CD
:104F9000010B21684860E08C401EE084E08C4B46A9
:104FA0004FF0000200970028EBD14FF0400120465F
:104FB00002F0A6FB30B10320D8E736F8020BC0F3AD
:104FC0000800E6E7202084F83D000020CEE702201C
:104FD000CCE70000084A0168914201D102F01CBFF1
:104FE000064A914201D102F0A5B9054A914201D188
:104FF000FCF765BA704700000038014000440040EB
:10500000004800403EB5E7208DF8040064240123E9
:1050100001AA802113480094FDF7A2FAD8B9012310
:1050200002AA81210F480094FDF778F998B9012070
:1050300003F0FEFBE6208DF804009DF80800022333
:1050400040F002008DF8050001AA80210548009477
:10505000FDF786FA20B104A001F0A0F800203EBDC3
:1050600001203EBD04010020496E666F3A20205B9E
:105070006874753231645F68775D206572726F7233
:105080002C204854553231442066756E6374696F24
:105090006E20696E69740D0A000000002DE9FE4F54
:1050A000040079D0F5208DF808006425012302AAB8
:1050B000802150480095FDF753FA00285BD13C2031
:1050C00003F0B6FB032301AA81214A480095FDF7AE
:1050D00025F900284FD1022101A8FBF70DFC9DF80E
:1050E0000610884201D044A054E09DF804004FF619
:1050F000FF7606EA00219DF80500084320F0030032
:10510000FBF7E0F96FF00F094A46FBF7C4F90022FC
:10511000434BFBF74EF90022424BFBF744F9DFF813
:1051200008A100225346FBF744F9FBF705FAFBF709
:10513000EFF980B24FF47A78608040F2E73740456B
:1051400000D367800A2003F073FBF3208DF808007A
:10515000012302AA802127480095FDF701FA50B9E2
:105160003C2003F065FB032301AA8121214800951F
:10517000FDF7D4F828B12DA001F010F800F0A4F844
:105180000AE0022101A8FBF7B7FB9DF80610884250
:1051900005D035A001F002F80020BDE8FE8F9DF893
:1051A000040006EA00219DF80500084320F00300F2
:1051B000FBF788F94A46FBF76EF9354A354BFBF7A2
:1051C000F8F8354A354BFBF7EEF800225346FBF76B
:1051D000F0F8FBF7B1F9FBF782F900B22080404507
:1051E00000DB2780B4F9002061882DA000F0D6FFF5
:1051F0000120D2E704010020496E666F3A20205B4F
:105200006874753231645F68775D2068756D6920F8
:1052100063726338206572726F720D0A00000000BD
:1052200000405F400000184000002440496E666F57
:105230003A20205B6874753231645F68775D206561
:1052400072726F722120726561642074656D706581
:1052500072617475726520616E642068756D696431
:105260006974790D0A000000496E666F3A20205B70
:105270006874753231645F68775D2074656D702085
:1052800063726338206572726F720D0A000000004D
:10529000D7A3703D0AF76540CDCCCCCCCC6C474051
:1052A000496E666F3A20205B6874753231645F68BE
:1052B000775D2048756D693A2025642C2054656D12
:1052C000703A2025640D0A001CB500F0A7FC1548B3
:1052D000FDF7DCF90A2003F0ABFAFE208DF804009C
:1052E00064200090012301AA80210E48FDF738F9BF
:1052F00080B10DA000F052FF0A2003F099FAFFF7E9
:1053000081FE48B112A000F049FFBDE81C406420B6
:1053100003F08EBA17A0EDE7BDE81C401FA000F017
:105320003DBF000004010020496E666F3A20205BFB
:105330006874753231645F68775D20485455323146
:1053400044205265736574204E470D0A000000002A
:10535000496E666F3A20205B6874753231645F680D
:10536000775D2048545532314420496E6974204F8E
:105370004B0D0A00496E666F3A20205B68747532E7
:1053800031645F68775D204854553231442052655E
:10539000736574204F4B0D0A00000000496E666F64
:1053A0003A20205B6874753231645F68775D20480D
:1053B000545532314420496E6974204E470D0A001D
:1053C0000021002815D00B4B5A78521CD2B25A70CB
:1053D000012A05D900225A70437C03B90122427484
:1053E000428A2AB1521E1204120C428200D10121BB
:1053F00008467047A400002010B50C46002832D0A3
:10540000194A048064B10120C2F8840100211748C0
:10541000FFF7AEF92146BDE8104015A000F0BEBE72
:105420000020C2F884011C4BC3F8B401C3F8B801D2
:10543000C3F8BC01C2F8A001C3F89001C3F88C0105
:10544000C2F8BC01C2F89801C2F89401C2F89C01EC
:10545000C2F8AC01C2F8B001C2F89001014603489D
:10546000FFF71CFAD6E710BD00002142C001002062
:10547000496E666F3A20205B6875623735645D203F
:10548000646973706C61792074696D653A20256474
:105490000D0A0D0A00000000008021422DE9F04FA6
:1054A0005FEA000A4FF000007ED0DFF81CE1CEF882
:1054B0008C01DFF81CB1454B00269BF8004080466C
:1054C0004FF00109802100250AEB06173A194046E2
:1054D00092F880C01CEA010F00D0102092F880C121
:1054E0001CEA010F01D040F0200092F880C21CEAB3
:1054F000010F01D040F0400017F804C01CEA010F72
:1055000001D040F0800092F800C11CEA010F01D0E8
:1055100040F4807092F800C21CEA010F01D040F400
:105520000070C0F3001C4908C3F898C1C0F3401CC8
:10553000C3F894C1C0F3801CC3F89CC1C0F3C01C65
:10554000C3F8ACC1C0F3002CC3F8B0C14FEA502C73
:10555000C3F890C1C3F8BC81C3F8BC916D1CEDB217
:10556000082DB4D3761CF6B2082EABD35A46E10709
:1055700001D040F00100A10701D540F00200610711
:1055800001D540F00400210701D540F0080000F0EB
:105590000105CEF8B451C0F34005CEF8B851C0F3C0
:1055A0008005CEF8BC5100E00CE0C0F3C000C3F8A9
:1055B000A001CEF88C91641CE0B21070102801D3C9
:1055C0008BF80080BDE8F08F00802142000021426E
:1055D000A400002030B500284BD0002949D08B789A
:1055E0000A22B3FBF2F402FB143303728B78B3FB91
:1055F000F2F3C3714B78B3FBF2F402FB1433837202
:105600004B78B3FBF2F343720B78B3FBF2F402FB7B
:10561000143303730B78B3FBF2F3C372CB78B3FB91
:10562000F2F402FB14338371CB78B3FBF2F34371D2
:105630004B79B3FBF2F402FB143303714B79B3FBE8
:10564000F2F3C370CC886423B4FBF3F503FB154479
:10565000B4FBF2F502FB15444470CC88B4FBF3F5BF
:1056600003FB1543B3FBF2F20270097981700B2141
:10567000417330BD70B505001BD04FF4407105F18A
:105680001800FAF7C4FD002421462846FBF736FE31
:10569000082C2146284602D2FBF76AFC05E0FBF7FE
:1056A00033FD21462846FBF791FD641CE4B2102C23
:1056B000EAD370BD7047FEE701684A69D2435205DC
:1056C0000FD46FF480624A61002140F8301F20221D
:1056D00042738173026942F0040202610173012086
:1056E00070470020704700002DE9F84F0446C06A5B
:1056F0001D4693460F4621680A6842F480620A609C
:10570000082807D0012805D010F5803F02D0206B73
:10571000112804D12068016841F4807101604FF0C4
:1057200001195B46002249462046009500F0C6F864
:105730004FF4007840B120680068C00501D5C4F876
:1057400040800320BDE8F88F2069DFF884A0B0F521
:10575000804F0FD00620216800EAD71646F0F000EF
:1057600008612B465A460AF10601204600F0DAF895
:1057700058BB03E0F8B240F001001CE02168F8B229
:1057800008612B465A465146204600F0CBF8E0B956
:105790002068416981690091016841F4807101606C
:1057A0005B46002249462046009500F087F8002815
:1057B000C1D146F0F100216808612B465A46514696
:1057C000204600F0AFF80028BCD00120BAE7000066
:1057D00002000100F8B50446C06A1E460D46174691
:1057E000082807D0012805D010F5803F02D0206B93
:1057F000122804D12068016841F4807101601346C9
:1058000000224FF001112046009600F057F840B1F9
:1058100020680068C00502D54FF4007020640320A2
:10582000F8BD2069B0F5804F0ED00620216800EA4F
:10583000D51040F0F000086133463A460B49204647
:1058400000F070F878B902E005F0FE0000E0E8B280
:1058500021680861054933463A46891F204600F011
:1058600061F80028DCD00120F8BD0000080001002C
:1058700070B516460D4604460DE02046FFF71CFFA6
:1058800008B1012070BD681C05D0FCF74BFB801BE4
:10589000A84207D835B120684069C0434007ECD41E
:1058A000002070BD002044F8300F20216173A073E8
:1058B000216941F0200121612073E2E72DE9F047E1
:1058C0001D4690460E460446C1F30747DDF820907A
:1058D00008E0681C06D0FCF725FBA0EB0900A842F5
:1058E0000FD875B12068012F18D0806926EA000012
:1058F0000004000C14D000204045EAD00020BDE890
:10590000F087002044F8300F20216173A0732169D3
:1059100041F02001216120730120F0E74069E5E7B3
:105920000120E9E72DE9F047984615460E46044662
:105930004FF000094FF0200AC1F3074723E0206829
:105940004069C043400515D42068016841F40071E6
:10595000016021686FF480604861C4F8309084F879
:105960003DA084F83E90216C41F00401216484F84C
:105970003C901EE0681C06D0FCF7D4FAA0EB0800AF
:10598000A8420AD84DB12068012F15D0806926EAB7
:1059900000000004000C0DD0D1E744F8309F84F8DB
:1059A0000DA084F80E90216941F02001216184F856
:1059B0000C900120BDE8F0874069E8E72DE9F0414F
:1059C00016460D46044600274FF0200817E04069B0
:1059D000C043C0060DD454F8301B6FF0100048616E
:1059E00044F80D7B04F81D89A777206A2062277789
:1059F00017E0FCF797FA801BA84208D83DB1206851
:105A00004169C9434906E2D40020BDE8F08144F869
:105A1000307F84F80D80A773206940F0200020615A
:105A200027730120F1E770B516460D4604460DE0D8
:105A30002046FFF741FE08B1012070BD681C05D06B
:105A4000FCF770FA801BA84207D835B1206840697E
:105A5000C0430006ECD4002070BD002044F8300F95
:105A600020216173A073216941F02001216120731D
:105A7000E2E70000154808B5416941F001014161C4
:105A80004069002200F00100009005210E20FCF783
:105A900035FF0E20FCF700FF002205210F20FCF748
:105AA0002DFF0F20FCF7F8FE002205211020FCF747
:105AB00025FF1020FCF7F0FE002205211120FCF745
:105AC0001DFFBDE808401120FCF7E6BE00100240B3
:105AD00010B5104A0021104803F06CF80F49086017
