:020000040800F2
:1000000000500020C18F0008C10D0008C30D00087A
:10001000C50D0008C70D0008C90D0008000000004C
:10002000000000000000000000000000416D00081A
:10003000CB0D000800000000D16D0008156E00080F
:10004000099000080990000809900008CD0D0008EB
:100050000990000809900008F10D000809900008B7
:10006000099000080990000809900008099000080C
:100070000990000809900008F90D0008050E000815
:10008000110E00081D0E00080990000809900008D4
:1000900009900008099000080990000809900008DC
:1000A00009900008290E000809900008099000082E
:1000B0000990000809900008350E00080990000812
:1000C00009900008099000080990000809900008AC
:1000D00009900008490E0008610E00080990000808
:1000E000099000080990000809900008000000002D
:1000F0000000000000000000000000000000000000
:0C01000000000000000000005FF808F1A3
:1001100010B5054C237833B9044B13B10448AFF341
:1001200000800123237010BD8C000020000000001F
:10013000089A000808B5034B1BB103490348AFF305
:10014000008008BD0000000090000020089A000810
:1001500010F8012B11F8013B012A28BF9A42F7D071
:10016000D01A704770B54FF0FF0C4CF4E06C1CEAED
:1001700011541DBF1CEA135594EA0C0F95EA0C0F9D
:1001800000F0DEF82C4481EA030621EA4C5123EA10
:100190004C5350EA013518BF52EA033541F480113F
:1001A00043F4801338D0A0FB02CE4FF00005E1FBF2
:1001B00002E506F00042E0FB03E54FF00006E1FB3C
:1001C00003569CF0000F18BF4EF0010EA4F1FF047F
:1001D000B6F5007F64F5407404D25FEA4E0E6D41BF
:1001E00046EB060642EAC62141EA55514FEAC520D0
:1001F00040EA5E504FEACE2EB4F1FD0C88BFBCF54C
:10020000E06F1ED8BEF1004F08BF5FEA500E50F1FC
:10021000000041EB045170BD06F0004646EA0101C2
:1002200040EA020081EA0301B4EB5C04C2BFD4EBF4
:100230000C0541EA045170BD41F480114FF0000EED
:10024000013C00F3AB8014F1360FDEBF002001F05B
:10025000004170BDC4F10004203C35DA0C341BDCD5
:1002600004F11404C4F1200500FA05F320FA04F0A7
:1002700001FA05F240EA020001F0004221F00041DB
:1002800010EBD37021FA04F642EB06015EEA430E4E
:1002900008BF20EAD37070BDC4F10C04C4F120057E
:1002A00000FA04F320FA05F001FA04F240EA020031
:1002B00001F0004110EBD37041F100015EEA430E02
:1002C00008BF20EAD37070BDC4F1200500FA05F222
:1002D0004EEA020E20FA04F301FA05F243EA0203A1
:1002E00021FA04F001F0004121FA04F220EA0200B0
:1002F00000EBD3705EEA430E08BF20EAD37070BDF6
:1003000094F0000F0FD101F00046400041EB0101D5
:1003100011F4801F08BF013CF7D041EA060195F0B7
:10032000000F18BF704703F00046520043EB030371
:1003300013F4801F08BF013DF7D043EA060370475E
:1003400094EA0C0F0CEA135518BF95EA0C0F0CD069
:1003500050EA410618BF52EA4306D1D181EA0301AF
:1003600001F000414FF0000070BD50EA410606BFA9
:100370001046194652EA430619D094EA0C0F02D1EE
:1003800050EA013613D195EA0C0F05D152EA033633
:100390001CBF104619460AD181EA030101F0004151
:1003A00041F0FE4141F470014FF0000070BD41F09A
:1003B000FE4141F4780170BD81F0004102E000BFD0
:1003C00083F0004330B54FEA41044FEA430594EA15
:1003D000050F08BF90EA020F1FBF54EA000C55EA50
:1003E000020C7FEA645C7FEA655C00F0E2804FEA21
:1003F0005454D4EB5555B8BF6D420CDD2C4480EA03
:10040000020281EA030382EA000083EA010180EA32
:10041000020281EA0303362D88BF30BD11F0004F80
:100420004FEA01314FF4801C4CEA113102D04042B6
:1004300061EB410113F0004F4FEA03334CEA1333F1
:1004400002D0524263EB430394EA050F00F0A78009
:10045000A4F10104D5F1200E0DDB02FA0EFC22FA04
:1004600005F2801841F1000103FA0EF2801843FAF8
:1004700005F359410EE0A5F120050EF1200E012AE9
:1004800003FA0EFC28BF4CF0020C43FA05F3C01827
:1004900051EBE37101F0004507D54FF0000EDCF1A0
:1004A000000C7EEB00006EEB0101B1F5801F1BD349
:1004B000B1F5001F0CD349085FEA30004FEA3C0C4D
:1004C00004F101044FEA445212F5800F80F09A8043
:1004D000BCF1004F08BF5FEA500C50F1000041EB47
:1004E000045141EA050130BD5FEA4C0C404141EB4B
:1004F0000101013C28BFB1F5801FE9D291F0000F46
:1005000004BF01460020B1FA81F308BF2033A3F1F4
:100510000B03B3F120020CDA0C3208DD02F1140CEB
:10052000C2F10C0201FA0CF021FA02F10CE002F126
:100530001402D8BFC2F1200C01FA02F120FA0CFC1F
:10054000DCBF41EA0C019040E41AA2BF01EB045168
:10055000294330BD6FEA04041F3C1CDA0C340EDC66
:1005600004F11404C4F1200220FA04F001FA02F3A9
:1005700040EA030021FA04F345EA030130BDC4F167
:100580000C04C4F1200220FA02F001FA04F340EA5C
:100590000300294630BD21FA04F0294630BD94F00D
:1005A000000F83F4801306BF81F480110134013DF4
:1005B0004EE77FEA645C18BF7FEA655C29D094EA65
:1005C000050F08BF90EA020F05D054EA000C04BFE3
:1005D0001946104630BD91EA030F1EBF00210020CE
:1005E00030BD5FEA545C05D14000494128BF41F06D
:1005F000004130BD14F580043CBF01F5801130BDD1
:1006000001F0004545F0FE4141F470014FF000005B
:1006100030BD7FEA645C1ABF194610467FEA655C0C
:100620001CBF0B46024650EA013406BF52EA0335AE
:1006300091EA030F41F4002130BD00BF90F0000F9C
:1006400004BF0021704730B54FF4806404F13204D8
:100650004FF000054FF0000150E700BF90F0000F91
:1006600004BF0021704730B54FF4806404F13204B8
:1006700010F0004548BF40424FF000013EE700BF88
:1006800042004FEAE2014FEA31014FEA02701FBF18
:1006900012F07F4393F07F4F81F06051704732F04A
:1006A0007F4208BF704793F07F4F04BF41F40021A1
:1006B000704730B54FF4607401F0004521F00041FF
:1006C0001CE700BF50EA010208BF704730B54FF089
:1006D00000050AE050EA010208BF704730B511F08A
:1006E000004502D5404261EB41014FF4806404F1C2
:1006F00032045FEA915C3FF4D8AE4FF003025FEA48
:10070000DC0C18BF03325FEADC0C18BF033202EBCB
:10071000DC02C2F1200300FA03FC20FA02F001FA25
:1007200003FE40EA0E0021FA02F11444BDE600BFC8
:100730004FEA4102B2F1E04324BFB3F5001CDCF103
:10074000FE5C0DD901F0004C4FEAC0024CEA50703B
:10075000B2F1004F40EB830008BF20F0010070476A
:1007600011F0804F21D113F13872BCBF01F000406D
:10077000704741F480114FEA5252C2F11802C2F19F
:10078000200C10FA0CF320FA02F018BF40F0010020
:100790004FEAC1234FEAD32303FA0CFC40EA0C00D2
:1007A00023FA02F34FEA4303CCE77FEA625307D10F
:1007B00050EA01331EBF4FF0FE4040F44000704746
:1007C00001F0004040F0FE4040F40000704700BFE0
:1007D0004FEA4002B2F1FE4F0FD34FF09E03B3EB4E
:1007E00012620DD94FEA002343F0004310F0004F8E
:1007F00023FA02F018BF404270474FF000007047E4
:1008000012F1610F01D1420205D110F0004008BF82
:100810006FF0004070474FF00000704742000ED26A
:10082000B2F1FE4F0BD34FF09E03B3EB126209D42B
:100830004FEA002343F0004323FA02F070474FF0E1
:100840000000704712F1610F01D1420202D14FF056
:10085000FF3070474FF00000704700BF30B51424E0
:1008600095B0224600210CA808F002FC22460DEBB0
:100870000400002108F0FCFB0021102201A808F070
:10088000F7FB022505224FF480330124CDE90A232A
:10089000CDE911534FF4E0130AA81393CDE90D44A9
:1008A00001F092F90F234FF48062CDE90535002362
:1008B000294605A8CDE90732099301F0CDFB4FF495
:1008C000807301A80194029301F00AFD15B030BDB8
:1008D00008B501F055F9FFF7C1FF00F029F800F065
:1008E0001FF900F085F900F0FFFB00F0EDFA00F0D1
:1008F00007FB00F019FA074800F050F9054802F02C
:1009000087FD07F093FB05F0AFFD00F049FC05F013
:10091000C7FDFEE7FC0000200268034B9A4201D1AC
:1009200001F040B9704700BF002C0140704770478C
:1009300010222DE9F04389B00DEB0200002108F0F0
:1009400097FB384BDFF8E0809A69384D42F010028F
:100950009A619A69404602F010020092009A9A69E0
:1009600049F6F21142F020029A619A694FF00309A8
:1009700002F020020192019A9A69012742F00402D2
:100980009A619A69022602F004020292029A9A6916
:10099000002442F008029A619B69002203F00803D8
:1009A0000393039B01F014FF002228464FF22B0112
:1009B00001F00EFF4FF4005304A91D48CDE904399E
:1009C00001F0A8FD1B4B404604A9CDE9047306962F
:1009D00001F0A0FD49F6F213404604A9CDE9043721
:1009E000CDE9064601F096FD4FF22B03284604A9F7
:1009F000CDE90437CDE9064601F08CFD4FF4417393
:100A0000284604A9CDE9043901F084FD22460521D8
:100A1000062002F007F9062002F048F909B0BDE807
:100A2000F08300BF0010024000080140000C0140AC
:100A3000001001400000111008B50B480B4A0C4B88
:100A4000C0E9002300234FF48042C0E90233C0E92B
:100A50000423C0E90633036200F00EFD18B1BDE8BF
:100A60000840FFF763BF08BDA80000200054004005
:100A7000A0860100102210B5044688B00DEB0200DC
:100A8000002108F0F5FA2368214A93421ED1214C37
:100A9000C021A369204843F00803A361A36903F0C0
:100AA00008030093009B1223CDE90413032304A938
:100AB000079301F02FFDE36943F40013E361E36959
:100AC00003F400130193019B08B010BD134A934235
:100AD000FAD1104C4FF44062A3690F4843F0080369
:100AE000A361A36904A903F008030293029B1223E4
:100AF000CDE904230323079301F00CFDE36943F4DC
:100B00008003E361E36903F480030393039BDBE762
:100B10000054004000100240000C0140005800400A
:100B20004FF0FF3313B51B4A1B480024C0E90023D4
:100B30004FF48073ADF800408DF80240019483605B
:100B400002F0F0FB08B1FFF7F1FE0823002269462E
:100B500011488DF800308DF801408DF8024002F008
:100B60008FF908B1FFF7E2FE02238DF8043001236C
:100B70008DF805308DF8063016230022064801A9AD
:100B80008DF8073002F0D8FA08B1FFF7CFFE02B0B7
:100B900010BD00BF00280040FC00002007B5114B2D
:100BA00002689A421AD102F0AFF80F4B0521DA69B8
:100BB000032042F00062DA610122DB6903F0006386
:100BC0000193019B094BC3F83C24002202F02AF850
:100BD000032003B05DF804EB02F068B803B05DF8E1
:100BE00004FB00BF00280040001002400000424209
:100BF0007FB51022002102A808F03AFA4FF42F72B4
:100C0000144815490023C0E900126322CDE90033DE
:100C1000C0E9032383608023836102F04DFE08B1A5
:100C2000FFF784FE4FF480530A4802A9029303F0B1
:100C30004BF808B1FFF77AFE002369460548CDE975
:100C4000003303F005FB08B1FFF770FE07B05DF855
:100C500004FB00BF58010020000800400268084B58
:100C600082B09A420AD103F50333DA6942F00202F4
:100C7000DA61DB6903F002030193019B02B0704764
:100C80000004004007B50E4B02689A4215D103F5E7
:100C90000233DA69052142F00402DA61DB690022DD
:100CA00003F0040301931E20019B01F0BBFF1E20F3
:100CB00003B05DF804EB01F0F9BF03B05DF804FB8D
:100CC0000008004030B51025044687B02A460021B0
:100CD00002A808F0CDF92268104B9A421BD103F507
:100CE000033399690E4841F0080199619B6902A993
:100CF00003F008030193019B0223029503930593DC
:100D000001F008FC074A536823F4406343F0E063B2
:100D100043F40063536007B030BD00BF00040040DF
:100D2000000C01400000014010B500248AB01C22D4
:100D3000214603A8CDE9014408F09AF91548164B5D
:100D40008460C0E900346423C0E9033480238361F4
:100D500002F01CFE08B1FFF7E9FD0E4801A9CDE93C
:100D6000014403F075FA08B1FFF7E0FD602250235B
:100D7000CDE9032302230022064803A90593079225
:100D800002F0BCFE08B1FFF7D1FD0248FFF79AFF61
:100D90000AB010BD10010020000400400268064B9C
:100DA0009A4207D1054A1E20D36923F00403D36178
:100DB00001F090BF704700BF0008004000100240E3
:100DC0007047FEE7FEE7FEE7FEE7704708B5064816
:100DD00002F033FB05484FF4805101F013FDBDE8EC
:100DE0000840012006F0B2B9FC000020000C0140D0
:100DF000012001F01BBD0000014801F065BE00BFED
:100E0000E4010020014801F05FBE00BFA001002006
:100E1000014801F059BE00BF28020020014801F03E
:100E200053BE00BF6C020020014802F06BBC00BF43
:100E30003C03002008B5034802F064FCBDE808400C
:100E400006F01EB95801002010B5044C204603F0EE
:100E50009DFC2046BDE8104008F030B8B0020020EC
:100E600010B5044C204603F091FC2046BDE810402C
:100E700007F0BCBCF4020020114B07B59A690F21A2
:100E800042F001029A619A696FF0010002F00102DA
:100E90000092009ADA6942F08052DA61DB6900223E
:100EA00003F080530193019B01F0BCFE054A536897
:100EB00023F0E06343F00073536003B05DF804FB7C
:100EC000001002400000014008B54FF4E1330A4829
:100ED0000A4AC0E9002300230C22C0E90233C0E91A
:100EE00005230361C36103F0B1FA18B1BDE80840FE
:100EF000FFF71CBD08BD00BFB00200200038014054
:100F000008B54FF4E1330A480A4AC0E90023002338
:100F10000C22C0E90233C0E905230361C36103F079
:100F200095FA18B1BDE80840FFF700BD08BD00BF45
:100F3000F402002000440040102270B5054688B03D
:100F40000DEB0200002108F093F82B685A4A9342F7
:100F500059D15A4B4FF400749A69594842F480426F
:100F60009A619A6904A902F480420092009A9A69EF
:100F7000002642F004029A619B6903F00403019386
:100F8000019B0223CDE904430323079301F0C2FA36
:100F90004FF480634A4804A94A4CCDE904360696CA
:100FA00001F0B8FA484B2046C4E900368023C4E972
:100FB0000566C4E90336A660E66101F043FC08B1AA
:100FC000FFF7B4FC10234148AC636562404C8022BB
:100FD000C4E9000300232046C4E90232C4E9043313
:100FE000C4E9063301F02EFC08B1FFF79FFC252071
:100FF000002205216C63656201F014FE252001F0DA
:1010000055FE08B070BD334A9342FAD12B4B0421F0
:10101000DA692B4842F40032DA61DA69002602F418
:1010200000320292029A9A692B4C42F004029A61B1
:101030009B6903F004030393039B0223CDE904138C
:10104000032304A9079301F065FA08231C4804A9A7
:10105000CDE90436069601F05DFA204B2046C4E93E
:1010600000368023C4E90566C4E90336A660E6615C
:1010700001F0E8FB08B1FFF759FC1023184AAC63F4
:101080006562184CC4E90023002380222046C4E98D
:101090000232C4E90433C4E9063301F0D3FB08B1DA
:1010A000FFF744FC2620002205216C63656201F0F5
:1010B000B9FD2620A3E700BF003801400010024020
:1010C00000080140A00100205800024044000240F6
:1010D000E401002000440040280200206C0002408F
:1010E000800002406C020020164B07B55A690521AA
:1010F00042F001025A615B69002203F0010301938F
:101100000E20019B01F08EFD0E2001F0CFFD00228C
:1011100005210F2001F086FD0F2001F0C7FD002200
:101120000521102001F07EFD102001F0BFFD0022FE
:101130000521112001F076FD112003B05DF804EBCC
:1011400001F0B4BD001002400F4B1A6842F00102DA
:101150001A6059680D4A0A405A601A6822F084726F
:1011600022F480321A601A6822F480221A605A68C7
:1011700022F4FE025A604FF41F029A604FF00062A0
:10118000034B9A60704700BF001002400000FFF858
:1011900000ED00E008B5012005F05AFAFBE7000079
:1011A00008B500210C4A0D4805F09AF90C4B18605F
:1011B00005F094FF78B905F039FF60B906F0ABFC93
:1011C00048B907F087F830B907F050FD18B9BDE805
:1011D000084006F098BC08BDA49A000895110008C4
:1011E000380300201E4B70B59A6988B042F4006243
:1011F0009A619B6901A903F400630293064603A860
:10120000184D029B01F03CF801F02AF8164B2B60B8
:1012100040F2E733EB60154BB0FBF3F000230138ED
:10122000686028462B61AB60AB6102F045FB044669
:1012300080B9284602F0EEF9044658B9192001F0A9
:1012400035FD0F2E09D822463146192001F0EAFC5F
:10125000074B1E60204608B070BD0124FAE700BFAE
:10126000001002403C030020002C014040420F00CF
:1012700008000020016800224B6913F4806310D03D
:101280006FF480634B612023026380F83D3080F867
:101290003E20036C80F83C2043F0040303640120EB
:1012A0007047184670472DE9F84606460F469146A6
:1012B0001D464FEA114A3368BAF1010F0CBF5C6951
:1012C0009C6927EA0404A4B2B4FA84F46409A14531
:1012D00001D0002017E06A1CEED000F06FFC089BE4
:1012E000C01AA84201D8002DE5D1002320220120F8
:1012F000336386F83D2086F83E30326C86F83C3009
:1013000042F020023264BDE8F8862DE9F04104463F
:101310000F46164698462568686927EA000080B29D
:10132000B8B16B695A0516D52B68202243F40073B7
:101330002B606FF480636B610023236384F83D208E
:1013400084F83E30226C42F004020120226484F8CA
:101350003C30BDE8F081731CDED000F02FFCA0EB28
:101360000800B04201D8002ED5D1002320222363EB
:1013700084F83D2084F83E30226C42F02002E4E7FD
:1013800070B504460D46164621684B6913F04003BC
:1013900001D0002010E04A69D2060ED56FF010028D
:1013A0004A612022236384F83D2084F83E30226C79
:1013B0000120226484F83C3070BD00F0FFFB801BEC
:1013C000A84201D8002DDFD100232022236384F816
:1013D0003D2084F83E30226C42F02002E8E770B5F0
:1013E00004460D46164623685B695B0701D500205D
:1013F00070BD2046FFF73EFFA8B96A1CF3D000F08D
:10140000DDFB801BA84201D8002DECD10023202257
:10141000236384F83D2084F83E30226C84F83C300D
:1014200042F0200222640120E2E770B504460D4636
:10143000164623685B691B0601D5002070BD204657
:10144000FFF718FFA8B96A1CF3D000F0B7FB801BA8
:10145000A84201D8002DECD100232022236384F878
:101460003D2084F83E30226C84F83C3042F020026B
:1014700022640120E2E7000070B5044608B90120AB
:1014800070BD0368794A934208D002F580629342A6
:1014900004D040F2D1117648FFF749FA6368754AE3
:1014A000013B934204D94FF4E9717148FFF73FFAC9
:1014B000A36833F4804304D040F2D3116C48FFF7A3
:1014C00036FAE36823F47F7323F0030323B14FF468
:1014D000EA716748FFF72BFA236923F40043B3F559
:1014E000804F04D040F2D5116148FFF720FA6369BC
:1014F000012B04D94FF4EB715D48FFF718FAA3698B
:1015000033F0FE0304D040F2D7115948FFF70FFA29
:10151000E36933F0400304D04FF4EC715448FFF713
:1015200006FA236A33F0800304D040F2D911504800
:10153000FFF7FDF994F83D3003F0FF0223B9204690
:1015400084F83C20FFF796FA242384F83D30236882
:101550001A6822F001021A601A6842F400421A6006
:101560001A6822F400421A6000F06AFE424B656875
:101570009D4294BF414B424B98428CBF00230123B4
:10158000002B7FF47CAF3C4E3E49B542B0FBF1F1FD
:1015900088BF4FF496762268536823F03F0343EAEE
:1015A000010382BF71434FF47A76B1FBF6F15360C9
:1015B000136A013123F03F0319431162D169431EBD
:1015C0002D4821F44F41854221F0FF0132D86D00B2
:1015D000B3FBF5F340F6FC700133034242D0C3F392
:1015E0000B030B43D3611168D4E9073021F0C0012C
:1015F00003430B4313609168D4E9030321F40341CF
:10160000034321F0FF010B439360D168D4E9053017
:1016100021F0FF0103430B43D3601368002043F024
:10162000010313602023206484F83D30206384F894
:101630003E0025E7A06850B905EB4505B3FBF5F37F
:101640000133C3F30B037BB143F40043C9E7192013
:101650004543B3FBF5F30133C3F30B0323B143F469
:101660004043BEE70423BCE70123BAE7005400402F
:10167000C89A00087F1A0600A08601007F841E0019
:10168000FF083D0040420F002DE9F043044685B0BD
:1016900098460D4691460C9F00F090FA94F83D3024
:1016A0000646202B04D00225284605B0BDE8F0836D
:1016B00000901923012220465B49FFF7F4FD002822
:1016C000F1D194F83C30012BEDD00123216884F84E
:1016D0003C300B68DA075EBF0B6843F001030B6018
:1016E0000B6823F400630B60212384F83D30102342
:1016F00084F83E3000232364A4F82A80638DC4F864
:1017000024902385494BE362E36A082B04D0012B24
:1017100002D013F5803F04D10B6843F480730B6053
:1017200002E0236B122BF7D000223B464FF0011151
:1017300020460096FFF7B7FD226838B11368DB0535
:1017400044BF4FF4007323640125ADE72369B3F56B
:10175000804F21D105F0FE05156133463A462046FB
:101760003349FFF7D2FD05460028EDD123680390E9
:101770005A6903929B690393039B238DF3B92168F4
:101780000A6842F400720A60202284F83C3084F82F
:101790003D2084F83E3087E7EB1103F0060343F069
:1017A000F0031361204633463A462249FFF7ADFD68
:1017B0000028C9D12368EDB21D61CEE73246394613
:1017C0002046FFF732FE40B1236C042BBCD12268C7
:1017D000136843F400731360B6E7636A20681A461F
:1017E00012F8011B01616262628D013A92B2628558
:1017F000228DD0F814C0511E89B21CF0040F21852F
:101800000AD049B15978023301616362638D023AAB
:10181000013B9BB263852285324639462046FFF75D
:10182000DEFD0028A9D0CFE7020010000000FFFF76
:1018300002000100080001002DE9F0439846002352
:10184000044689B002930D469146109F00F0B6F908
:1018500094F83D300646202B04D00225284609B0D6
:10186000BDE8F08300901923012220468F49FFF73D
:101870001AFD0028F1D194F83C30012BEDD0012362
:10188000216884F83C300B68DB075EBF0B6843F0CF
:1018900001030B600B6823F400630B60222384F8C0
:1018A0003D30102384F83E3000232364A4F82A80BE
:1018B000638DC4F8249023857D4BE362E36A0A6854
:1018C000082B42F480620A6004D0012B02D013F589
:1018D000803F04D10B6843F480730B6002E0236BFC
:1018E000112BF7D03B4600224FF001112046009605
:1018F000FFF7D9FC236838B11B68DD0502D54FF42A
:10190000007323640125A9E72269B2F5804F29D12C
:1019100045F00105EDB21D6133463A462046654962
:10192000FFF7F3FC05460028ECD1228D2368002A3E
:101930004DD103905A6903929A690392039A1A68E7
:1019400042F400721A60DFF87081DFF87091238D25
:10195000002B6CD1202284F83C3084F83D2084F8A0
:101960003E307BE74FEAE51808F0060848F0F00241
:101970001A61204633463A465149FFF7C6FC002813
:10198000C0D12368EDB23A461D612046334649492D
:10199000FFF7BBFC02460028B4D1236807905969C1
:1019A00020460791996907910799196841F4807158
:1019B00019603B464FF001110096FFF774FC226856
:1019C00008B1136899E748F0F1031361A4E7012A0D
:1019D00011D11A6822F480621A6072B623680490EA
:1019E0005A6904929A690492049A1A6842F400723D
:1019F0001A6062B6A7E7022A1A680ED142F40062A2
:101A00001A6072B6236805905A6905929A69059220
:101A1000059A1A6822F48062EAE742F480621A604A
:101A200006905A6906929B690693069B8BE7032BE7
:101A300000F28880012B16D1324639462046FFF746
:101A40009FFC00287FF45EAF23681A69636A1A70EE
:101A5000636A01336362238D013B2385638D013B00
:101A60009BB2638573E7022B4FF000023B46414671
:101A70002046009626D1FFF716FC00287FF442AFDF
:101A800072B623681A6842F400721A601A69636AAF
:101A90001A70636A01336362238D013B2385638D72
:101AA000013B9BB2638562B6CEE700BF0200100027
:101AB0000000FFFF02000100040001000000002000
:101AC00008000100FFF7EFFB00287FF41BAF22683E
:101AD000136823F48063136072B646F2A81123687A
:101AE0001A69636A1A70626A531C6362238D013B30
:101AF0002385638D013B9BB26385D9F80030B3FB2E
:101B0000F1F323214B430293029B013B0293029B7F
:101B10006BB92022236384F83D2084F83E30226C88
:101B200042F02002226462B684F83C30EAE6236880
:101B300059694807E8D5196841F4007119601B69B3
:101B40005370A6E7324639462046FFF719FC0028B5
:101B50007FF4D8AE23681A69636A1A70626A531CEC
:101B60006362238D013B2385638D013B9BB26385BB
:101B70002368596949077FF5EAAE1B69537067E727
:101B8000074A08B51368032043F01003136001F0FF
:101B90002DF80F20FFF726FBFFF76EF9002008BD98
:101BA00000200240034A044B11681B780B44136069
:101BB000704700BF8403002004000020014B186818
:101BC000704700BF840300202DE9F341044608B9A3
:101BD000012083E00368ABB92368190700F1C480D2
:101BE00023685A0700F1F880E369022B04D940F218
:101BF000AF219448FEF79BFEE069002840F0688121
:101C000000206BE01B0704D140F267118D48FEF7FE
:101C10008EFE2368DF071FD5636833F4803207D058
:101C2000B3F5A02F04D040F26D118648FEF77FFE79
:101C3000854D6B6803F00C03042B07D06B6803F031
:101C40000C03082B36D16B68DE0333D52B689D035C
:101C500002D56368002BBBD023689A07BCD52369E3
:101C6000012B04D940F2A1117648FEF760FE6369AA
:101C70001F2B04D94FF4D1717248FEF758FE724DF4
:101C80006B6813F00C0F07D06B6803F00C03082B84
:101C90004BD16B68DA0348D42B689B0702D52369C4
:101CA000012B95D12B68626923F0F80343EAC20344
:101CB0002B6091E76368B3F5803F12D12B6843F442
:101CC00080332B60FFF77AFF06462B689803C3D456
:101CD000FFF774FF801B6428F7D9032002B0BDE82A
:101CE000F0819BB92B6823F480332B602B6823F49D
:101CF00080232B60FFF762FF06462B689903ABD564
:101D0000FFF75CFF801B6428F7D9E6E7B3F5A02F47
:101D10002B6803D143F480232B60CFE723F4803377
:101D20002B602B6823F48023CBE72269474B6AB1F1
:101D300001221A60FFF742FF06462B689F07B1D4C5
:101D4000FFF73CFF801B0228F7D9C6E71A60FFF7B0
:101D500035FF06462B6898077FF53EAFFFF72EFF4D
:101D6000801B0228F6D9B8E7A369012B04D94FF4E8
:101D7000F1713448FEF7DBFDA269334E334BE2B11B
:101D80000122C3F88024FFF719FF0546736A9B07F9
:101D90000DD54FF4FA522E4B1B68B3FBF2F30193AF
:101DA00000BF019B5A1E0192002BF9D118E7FFF7E3
:101DB00005FF401B0228E9D98FE7C3F88024FFF70D
:101DC000FDFE0546736A9F077FF50AAFFFF7F6FE33
:101DD000401B0228F6D980E7E368012B06D9052BC2
:101DE00004D040F211211748FEF7A1FD164DEB6912
:101DF000D80024D40127EB6943F08053EB61EB69F1
:101E000003F080530093009B124E3368D90523D50D
:101E1000E368012B31D12B6A43F001032B62FFF7FA
:101E2000CDFE41F2883806462B6A9B074AD5002F23
:101E30003FF4DAAEEB6923F08053EB61D4E6002780
:101E4000E2E700BFFD9A0008001002400000424295
:101E50000000002000700040336843F4807333605A
:101E6000FFF7ACFE80463368DA05D1D4FFF7A6FE53
:101E7000A0EB08006428F6D92FE7ABB92B6A41F232
:101E8000883823F001032B622B6A23F004032B62B2
:101E9000FFF794FE06462B6A9807C8D5FFF78EFE1B
:101EA000801B4045F7D918E7052B2B6A03D143F077
:101EB00004032B62AFE723F001032B622B6A23F0AC
:101EC0000403ABE7FFF77AFE801B4045ACD904E77B
:101ED000414D6B6803F00C03082B6BD0022859D1DD
:101EE000236A33F4803304D04FF42E713B48FEF75D
:101EF0001EFD636A33F4402223F4802110D0B2F532
:101F0000801F0DD0B2F5001F0AD0B1F5401F07D0D9
:101F1000B3F5601F04D040F2B9213048FEF707FD49
:101F200000222F4B1A66FFF749FE06462B689901DF
:101F30002AD4236AB3F5803F0ED1A36833F400336B
:101F400004D040F2CF212548FEF7F1FC6B68A2686F
:101F500023F4003313436B606A68D4E9083122F438
:101F600074120B43134301226B601D4B1A66FFF77B
:101F700025FE04462B689A013FF542AEFFF71EFE90
:101F8000001B0228F6D9A8E6FFF718FE801B0228DE
:101F9000CCD9A2E60022124B1A66FFF70FFE0446C8
:101FA0002B689B017FF52CAEFFF708FE001B022873
:101FB000F6D992E601283FF491AE6868236A00F4EE
:101FC00080329A427FF404AE636A00F47010C01A43
:101FD00018BF012082E600BF00100240FD9A0008F1
:101FE0000000424230B5184B87B002AC03F1100537
:101FF000224618685968083303C2AB421446F7D129
:1020000040F201231149ADF804304B6803F00C0293
:10201000082A17D1C3F3834218326A44DB0312F84B
:10202000100C0CD54B680A4AC3F340435043183395
:102030006B4413F8143CB0FBF3F007B030BD054B14
:102040005843FAE70248F8E7329B000800100240C4
:1020500000127A0000093D002DE9F0410D460446CA
:1020600010B90120BDE8F08103681E0704D14FF4C8
:102070004E716D48FEF75BFC022D04D940F23931F8
:102080006948FEF754FC694A136803F00703AB4242
:102090003DD32368980745D42368DA076ED4634A92
:1020A000136803F00703AB4200F29A802368604D87
:1020B00013F0040F40F0A08023681B0717D5236995
:1020C00033F480620CD023F40072B2F5A06F07D015
:1020D000B3F5C06F04D040F2AB315348FEF727FC94
:1020E0006B68226923F4605343EAC2036B60FFF715
:1020F00079FF6B684F4AC3F30313D35CD8404E4B50
:1021000018604E4B1868FFF76DF80020AAE71368B7
:1021100023F007032B431360136803F00703AB425C
:102120009FD1B6E7424E13F0040F1EBF726842F40F
:10213000E0627260190742BF736843F460537360D2
:10214000A36833F0800212D023F02002902A0ED030
:1021500023F04002A02A0AD023F01002C02A06D0A1
:10216000F02B04D040F25F312F48FEF7E0FB73689C
:10217000A26823F0F003134373608DE76368022BBA
:1021800004D940F266312848FEF7D1FB6268284E38
:10219000012A33681CD113F4003F3FF462AF736827
:1021A00041F2883823F0030313437360FFF706FD01
:1021B00007467368626803F00C03B3EB820F3FF4C9
:1021C0006EAFFFF7FBFCC01B4045F2D9032049E787
:1021D000022A02D113F0007FDFE713F0020FDCE7E1
:1021E000136823F007032B431360136803F00703FE
:1021F000AB427FF436AF59E7E36833F480620CD02A
:1022000023F40072B2F5A06F07D0B3F5C06F04D00D
:102210004FF469710448FEF78AFB6B68E26823F4A7
:10222000E06313436B6047E7FD9A0008002002401B
:1022300000100240809A00080000002008000020E2
:10224000044B054A5B68C3F30223D35C034A10685E
:10225000D840704700100240909A0008000000200B
:10226000044B054A5B68C3F3C223D35C034A10687E
:10227000D840704700100240909A000800000020EB
:1022800038B50D46044620B940F223511148FEF7F7
:102290004EFB25B940F224510E48FEF748FB0F23B0
:1022A00023600D4B5A6802F0030262605A6802F024
:1022B000F002A2605A6802F4E062E2605B68DB0848
:1022C00003F4E0632361054B1B6803F007032B60F5
:1022D00038BD00BFFD9A00080010024000200240F7
:1022E00003682DE9F34113F0130F044603D16C2169
:1022F0004648FEF71CFB2368D90728D5636833F4EA
:10230000407303D074214148FEF711FB404DEB6947
:10231000DA0044D40126EB6943F08053EB61EB69AA
:1023200003F080530193019B3A4F3B68DB0538D59E
:102330002B6A13F4407348D12B6A626823F440730C
:1023400013432B621EB1EB6923F08053EB612368CA
:102350009B070ED5A36833F4404303D0B9212B4823
:10236000FEF7E5FA2A4AA168536823F440430B4379
:102370005360206810F0100024D0E36833F4800329
:1023800004D040F215112148FEF7D1FA204AE16845
:102390005368002023F480030B43536012E00026AF
:1023A000C2E73B6843F480733B60FFF707FC80465D
:1023B0003B68D805BCD4FFF701FCA0EB08006428FB
:1023C000F6D9032002B0BDE8F081626802F44072E1
:1023D0009A42B1D00120104A2B6AC2F84004002072
:1023E00023F44071C2F840042962D907A4D5FFF74D
:1023F000E5FB41F2883807462B6A9A079CD4FFF721
:10240000DDFBC01B4045F7D9DBE700BF439B00085D
:1024100000100240007000400000424270B50446C7
:10242000374B86B002AD03F110062A46186859688A
:10243000083303C2B3421546F7D140F2012314F02A
:10244000130FADF8043004D14FF4CB712D48FEF7D3
:102450006EFA022C47D0102C03D0012C24D000207F
:1024600036E0294A5168106810F0807030D0C1F30E
:10247000834318336B44C90313F8100C49BF5368E6
:10248000224BC3F34043183341BF6B4413F8141C71
:102490001F4BB3FBF1F3584353685B0218D403237B
:1024A0004000B0FBF3F013E040F20231164A136A29
:1024B0001940B1F5817F1FD003F44073B3F5007F5D
:1024C00008D149F64043506A10F0020018BF184680
:1024D00006B070BDB3F5407FC1D110684FF2244300
:1024E00010F40030F2E7FFF7BBFE074B5B68C3F365
:1024F000813301335B00D4E74FF40040E8E700BFCD
:10250000329B0008439B00080010024000093D0078
:1025100000127A002DE9F04FDFF89092044648450A
:102520000D4685B012D0A24B98420FD003F58063C0
:1025300098420BD003F58063984207D003F580637F
:10254000984203D0BD219B48FEF7F1F92B689AB25F
:1025500012B11B0C1B041BB1BE219648FEF7E7F914
:102560006B68032B17D9A3F11102012A13D99249E1
:1025700023F400128A420ED001F580118B420AD05A
:10258000A1F570218A4206D08C4A934203D0BF2124
:102590008848FEF7CCF90026B046DFF824A2DFF821
:1025A00024B2296831FA08F302D105B0BDE8F08FF2
:1025B000012202FA08F232EA010301EA020740F0BE
:1025C00094804C4513D07A498C4210D07E4B9C426B
:1025D0000DD001F500618C4209D001F580618C427B
:1025E00005D0CD2173480192FEF7A1F9019A6968DF
:1025F000032908D80139022900F28A80DFE811F0A6
:10260000A100B600CC00122900F0BB8070D81129BF
:1026100000F0A180FF2F98BF22464FEA880198BFA3
:1026200008464FF00F0C84BF221DA1F12000116855
:102630000CFA00FE21EA0E0106FA00F001431160D7
:102640006868C30051D5DAF8182028F0030142F079
:102650000102CAF81820DAF8182001F1804102F0CE
:102660000102039201F5803108F0030E039A4FEA4C
:102670008E0E8A680CFA0EFC4C4522EA0C0C00F017
:102680008F804B4A944200F08D804F4B9C4200F06B
:102690008B8002F5006294420CBF0322042202FAEE
:1026A0000EF242EA0C028A60DBF80020C1034CBF44
:1026B0003A43BA43CBF80020DBF8042083034CBF35
:1026C0003A43BA43CBF80420DBF80820C1024CBFE0
:1026D0003A43BA43CBF80820DBF80C2083024CBF06
:1026E000174322EA0707CBF80C7008F1010858E7F6
:1026F000324881420CD01ED8A0F58010814207D00C
:1027000000F57020814203D0A0F58010814281D174
:10271000A968022905D9F72126480192FEF707F991
:10272000019AA968002939D001294FF008060CBF89
:10273000226162616EE725488142E9D000F5803070
:10274000E4E7EA68013A022A03D9D5211948FEF7DD
:10275000EEF8EE685EE7EA68013A022A03D9DC2166
:102760001448FEF7E4F8EE68043653E7EA68013AE5
:10277000022A03D9E3210F48FEF7D9F8EE6808369C
:1027800048E7EA68013A022A03D9EA210948FEF734
:10279000CEF8EE680C363DE700263BE7042639E725
:1027A00000227CE701227AE7022278E70008014054
:1027B000000C01407B9B000800001110000022105B
:1027C00000100240000401400010014000003110E0
:1027D00070B5054616460C4621B94FF4EA71084813
:1027E000FEF7A5F8012E06D940F2D5110448FEF7F0
:1027F0009EF82C6170BD002EFBD12404F9E700BFC8
:102800007B9B000838B505460C4621B94FF4F6719C
:102810000548FEF78CF8E96804EA010324EA01049C
:1028200044EA03442C6138BD7B9B0008044A08B588
:102830005169014202D0506104F09EFB08BD00BF07
:102840000004014010B5044600287ED00368404AC9
:10285000934215D01432934212D0143293420FD0C7
:10286000143293420CD01432934209D01432934262
:1028700006D01432934203D09A213648FEF757F817
:10288000636833F0100206D0B3F5804F03D09B216C
:102890003048FEF74CF8A36833F0400303D09C2186
:1028A0002C48FEF744F8E36833F0800303D09D2101
:1028B0002848FEF73CF8236933F4807206D0B3F55C
:1028C000007F03D09E212348FEF731F8636933F47B
:1028D000806206D0B3F5006F03D09F211D48FEF73C
:1028E00026F8A36933F0200303D0A0211948FEF78E
:1028F0001EF8E36933F4405303D0A1211548FEF7D5
:1029000016F814222168144B0B44B3FBF2F39B001E
:102910002364124B0A68E363D4E901300343E0689F
:1029200022F47F520343206922F03002034360699E
:102930000343A0690343E069034313430B60002092
:102940004FF48073A063238410BD0120FCE700BF17
:1029500008000240B19B0008F8FFFDBF00000240E4
:102960002DE9F041164698465A1E4FF6FE739A42DC
:1029700005460F4604D940F26F112048FDF7D7FFF6
:1029800095F82030012B36D0012385F8203095F8BA
:1029900021300220012B4FF0000229D12C6885F84C
:1029A0002100AA63226822F001022260D5E90F21EA
:1029B0008B4053606B68C4F80480102BEB6A0BBF2C
:1029C000A660A760E760E66053B1236843F00E039A
:1029D00000202360236843F001032360BDE8F081F9
:1029E000236823F004032360236843F00A03EFE71E
:1029F00085F82020F2E70220F0E700BFB19B000835
:102A000090F82130022B06D004238363002380F842
:102A100020300120704703681A6822F00E021A6005
:102A20001A6822F001021A600123D0E90F218B40BD
:102A300053604FF4807303840020704708B590F80A
:102A40002130022B03D004238363012008BD0368D7
:102A50001A6822F00E021A601A6822F001021A6047
:102A6000174A93421CD0143293421BD01432934223
:102A70001AD0143293421AD0143293421AD014321C
:102A800093420CBF4FF480134FF080730D4A536094
:102A90004FF480730384436B7BB198470020D5E7E4
:102AA0000123F3E71023F1E74FF48073EEE74FF4CF
:102AB0008053EBE74FF48033E8E71846C6E700BFE2
:102AC000080002400000024070B40425C66B026C8E
:102AD0003468036895402542196832D04D0730D5D7
:102AE0001A6896065EBF1A6822F004021A603D4A10
:102AF000934219D01432934218D01432934217D013
:102B00001432934217D01432934217D014329342A6
:102B10000CBF4FF480034FF08063334A5360C36AA5
:102B2000002B5CD070BC18470423F6E74023F4E781
:102B30004FF48063F1E74FF48043EEE74FF48023D6
:102B4000EBE702259540254235D08D0733D51A682D
:102B5000940606D41A6822F00A021A60012280F84C
:102B60002120204A934219D01432934218D01432B3
:102B7000934217D01432934217D01432934217D095
:102B8000143293420CBF4FF400134FF00073164AF7
:102B90005360002380F82030836AC1E70223F6E700
:102BA0002023F4E74FF40073F1E74FF40053EEE70E
:102BB0004FF40033EBE70825954025420FD0090775
:102BC0000DD5196821F00E011960012303FA02F2F4
:102BD000726083634FF480730384036BA0E770BC5F
:102BE000704700BF0800024000000240C31E042BD3
:102BF00010B5044603D992210848FDF798FE230238
:102C00004FF6FF04064903F4E063CA681440234307
:102C100043F0BF6343F40033CB6010BDE69B000874
:102C200000ED00E00F2A70B505460C46164603D9A4
:102C3000AA211B48FDF77BFE0F2C03D9AB211848B6
:102C4000FDF775FE174BD868C0F30220C0F10703EB
:102C5000021D042B28BF0423062A4FF0FF3298BF21
:102C6000002002FA03F388BF033824EA03038340F9
:102C700002FA00F026EA0006002D43EA0603ACBF84
:102C800005F16045084A4FEA0313DBB2ABBF05F517
:102C9000614505F00F0585F80033535570BD00BF41
:102CA000E69B000800ED00E014ED00E0002803DAE8
:102CB000BE210648FDF73BBE0123420900F01F007C
:102CC00003FA00F0024B43F822007047E69B00082D
:102CD00000E100E0002803DACE210948FDF727BE15
:102CE0000122430900F01F0002FA00F0054A2033D8
:102CF00042F82300BFF34F8FBFF36F8F704700BFC1
:102D0000E69B000800E100E00122014B1A627047D7
:102D100000000E42036830B59A69D869996995B286
:102D20008CB2A54217BFD86980B280B240EA014098
:102D300008BF40EA024030BD0368186A5B6A9BB274
:102D400043EA004070470023092803D840EA0310F3
:102D5000C0B270470A380133C0B2F5E70A2203094E
:102D600000F00F0002FB0300C0B2704730B503460D
:102D700000F5FA641720092548430229B0FBF5F550
:102D800017D8043210194FF4C87203F2CF73B3FB93
:102D9000F2F2284400EB930010446422B3FBF2F3F8
:102DA000C01A0723B0FBF3F3C3EBC303C01AC0B2CE
:102DB00030BD4FF4C873B4FBF3F3901C2044284497
:102DC00000EB940018446423B4FBF3F4001BE8E721
:102DD00038B50446FEF7F2FE054623685A689206A7
:102DE00005D500205A6842F010025A6038BDFEF73F
:102DF000E5FE401BB0F57A7FEFD90320F6E70268C5
:102E000038B55368044623F010035360FEF7D6FE2E
:102E1000054623685B689B0601D5002038BDFEF798
:102E2000CDFE401BB0F57A7FF3D90320F6E738B525
:102E300005460C46FFF7CCFF58B92B68220CA4B20C
:102E40009A612846DC61FFF7DAFF003818BF0120DD
:102E500038BD0120FCE738B505460C46FFF7B8FF42
:102E600058B92B68220CA4B21A6228465C62FFF79C
:102E7000C6FF003818BF012038BD0120FCE7000064
:102E800070B50D461646044600283CD000293AD0BD
:102E9000012A04D940F2CA214248FDF748FD237CAB
:102EA0000220012B7BD0012360742374287866BB39
:102EB000172804D940F2D3213A48FDF738FD6B7842
:102EC0003B2B04D94FF435713648FDF730FDAB7814
:102ED0003B2B04D940F2D5213248FDF728FD3C2098
:102EE0006E78297846434FF4616000FB0166A8784C
:102EF000064431462046FFF79AFF054698B304235F
:102F0000637400232374012547E0FFF727FF172888
:102F100004D940F2DD212348FDF709FD6878FFF769
:102F20001DFF3B2804D940F2DE211E48FDF7FFFCBF
:102F3000A878FFF713FF3B2804D940F2DF21194896
:102F4000FDF7F5FC2878FFF709FF01466878FFF7E1
:102F500005FF3C2646434FF4616000FB0166A878FC
:102F6000FFF7FCFEC4E722682046536823F0050300
:102F70005360FFF7E1FE86420BD900F5A83101F559
:102F8000C0712046FFF767FF18B1042325746374EE
:102F9000B9E70123637400232374284670BD0546F6
:102FA000FBE700BF1E9C00082DE9F0470E461746C0
:102FB000054610B90120BDE8F0870029FAD0012AA2
:102FC00004D940F22D315948FDF7B1FC2B685B68FC
:102FD00013F00408EED12846FFF79CFE4FF461631E
:102FE000B0FBF3F2044603FB12033C20B3FBF0F109
:102FF00000FB1133B3704E4B71709C4240F28B80DA
:103000001823B2FBF3F903FB192228463270FFF7AD
:1030100093FEB0F1FF3F824605D084422CBF4FF0B3
:10302000FF3AA0EB040A4349284601FB1944214614
:10303000FFF7FDFE0028BDD1BAF1FF3F27D004EB1A
:103040000A012846FFF707FF0028B3D164224FF496
:10305000C87140F2D52CE87B6C7BAB7BC14518D1A5
:10306000E1B2DAB2E8736973AA73FFF77FFE2873DF
:103070005FB13078FFF767FE30707078FFF763FE5E
:103080007070B078FFF75FFEB070002093E7514694
:10309000D7E704F1FF3EBEF1090F0ED90C2C3CD04E
:1030A00024F0020EBEF1040F02D0BEF1090F0BD1C5
:1030B0001D2B0DD90123013434E02CFA0EFE1EF035
:1030C000010FEDD01E2BF4E7022C2BD11B2B01D8C6
:1030D000013327E01C2B17D110F0030F83B215D159
:1030E000B3FBF2FE02FB1E3E1FFA8EFEBEF1000F86
:1030F0000FD1B3FBF1FE01FB1E339BB2002B16BFB9
:1031000001231D2303240DE01D2B0BD101230324D8
:1031100008E01D2306E03270AAE71E2BD8D9012350
:103120001C46013008F1010898E700BF1E9C00080A
:103130007F5101008051010070B50D4616460446CE
:1031400000284ED000294CD0012A04D94FF46771D1
:103150004748FDF7ECFB237C0220012B00F0868022
:10316000012360742374E878002E3CD1632804D9CD
:1031700040F2A5313E48FDF7DAFB6B78013B0B2BA3
:1031800004D940F2A6313A48FDF7D1FBAB78013BB8
:103190001E2B04D940F2A7313548FDF7C8FBEB7868
:1031A000E3736B786373AB78A373A27B617BE07B83
:1031B000FFF7DCFD207328702046FFF7ABFD2D4B99
:1031C00098424FD92C4DB0FBF5F105FB1105204677
:1031D0002946FFF72CFE064698B3042363740023A8
:1031E0002374012042E0FFF7B9FD632804D94FF4AE
:1031F0006C711F48FDF79BFB6878FFF7AFFD013846
:10320000C0B20B2804D940F2B1311948FDF78FFB49
:10321000A878FFF7A3FD0138C0B21E2804D940F2F8
:10322000B2311348FDF783FBE878FFF797FDE073B1
:103230006878FFF793FD6073A878FFF78FFDA073A0
:10324000B3E72046FFF778FD85420BD900F5A8319A
:1032500001F5C0712046FFF7FEFD18B10423267466
:103260006374BEE7012300206374207470BD00BF47
:103270001E9C00088F5F0100805101000023F7B5FC
:103280000C4616460546ADF804308DF8063018B9E0
:103290000121084603B0F0BD0029F9D0012A04D964
:1032A00040F20E411048FDF742FB01A900222846DA
:1032B000FFF77AFE01460028EAD12B7B2370E87BDA
:1032C000E0706F7B6770AA7BA270002EE1D0FFF7E1
:1032D0003AFDE0703846FFF736FD60701046FFF7A4
:1032E00032FDA070D5E700BF1E9C000838B504462B
:1032F000A8B10268536823F008035360FEF75EFC30
:10330000054623685B681B0701D5002038BDFEF722
:1033100055FC401BB0F57A7FF3D90320F6E7012076
:10332000F4E7000010B5044690B30268354B9A42AA
:1033300004D040F21D113448FDF7F9FAA36833F0C8
:10334000800209D023F40073B3F5807F04D04FF4DA
:103350008F712D48FDF7EBFA6FF480126368A3F5C7
:103360008013934204D240F21F112748FDF7DFFA81
:10337000637C03F0FF021BB920462274FDF70EFCAC
:10338000022320466374FFF7B1FF18B1042363746E
:10339000012036E02046FFF71BFD0028F6D1226809
:1033A000A068536823F007035360184A18B1116BE3
:1033B00021F001011163D36A23F460730343D362E4
:1033C0006068431C05D10120FFF728F80028DDD0F4
:1033D00001382268936823F00F0343EA1043936097
:1033E000D36880B21B0C1B041843D0602046FFF743
:1033F00006FD012310B104226274C9E76373E381FF
:10340000637410BD002800401E9C0008006C004042
:10341000034670B1027C0220012A0BD0196858744F
:103420000A68002042F001020A60012218745A74EE
:1034300070470120704770477047036810B51A68DD
:103440000446D10712D55A68D2070FD55B685B07CF
:103450000DD5FFF7F1FF6FF0040223685A600423D3
:1034600022686374536823F00103536010BDFFF7B3
:10347000E2FF0123F4E70000036A2DE9F04123F0A5
:1034800001030362056AD0F8048086690B6826F0A0
:1034900073061E438B6825F002051D431A4B044634
:1034A00098420F4627D1CB6833F0080304D041F689
:1034B00041211648FDF73BFAFB6825F008051D433E
:1034C000BB6925F0040533F4007304D041F64E21A6
:1034D0000E48FDF72CFA7B6933F4807304D041F673
:1034E0004F210A48FDF723FAD7E9053228F440783E
:1034F000134343EA08087B68C4F80480A661636349
:103500002562BDE8F08100BF002C0140539C0008FB
:10351000036A2DE9F04123F480730362056AD0F851
:103520000480C6690B6826F073061E438B6825F479
:10353000007545EA03251B4B044698420F4628D1E7
:10354000CB6833F0080304D041F6D7211648FDF7C5
:10355000EEF9FB6825F4006545EA0325BB6925F40F
:10356000806533F4007304D041F6E4210E48FDF782
:10357000DEF97B6933F4807304D041F6E5210A4813
:10358000FDF7D5F9D7E9053228F44058134348EA46
:1035900003187B68C4F80480E661E3632562BDE834
:1035A000F08100BF002C0140539C0008036A2DE904
:1035B000F04123F480530362066AD0F80480C7699F
:1035C0000B6827F4E64747EA03278B6826F4005682
:1035D00046EA03360D4B044698420D460DD14B6921
:1035E00033F4807304D041F623310948FDF79FF985
:1035F0006B6928F4804848EA83186B68C4F8048033
:10360000E76123642662BDE8F08100BF002C014021
:10361000539C000803681E4A10B5934204460FD01D
:10362000B3F1804F0CD0A2F59432934208D002F54A
:103630008062934204D040F2CF111648FDF777F92B
:1036400094F83D30012B20D1022384F83D302368CB
:10365000DA6842F00102DA600D4A93420AD0B3F10F
:10366000804F07D0A2F59432934203D002F58062D6
:10367000934204D19A6802F00702062A03D01A681E
:1036800042F001021A60002000E0012010BD00BFDE
:10369000002C0140539C00080368164A10B5934261
:1036A00004460FD0B3F1804F0CD0A2F59432934270
:1036B00008D002F58062934204D040F2F7110E4820
:1036C000FDF735F92368DA6822F00102DA6041F289
:1036D0001112196A114208D140F24442196A11428A
:1036E00002BF1A6822F001021A600123002084F848
:1036F0003D3010BD002C0140539C000870477047BE
:1037000070477047036810B51A69044691070ED5D3
:10371000DA6892070BD56FF002021A610122027774
:103720009B699B0777D0FFF7EAFF00232377236885
:103730001A69500710D5DA6851070DD56FF00402E9
:103740001A61022222779B69204613F4407F68D0D9
:10375000FFF7D5FF0023237723681A6912070FD5D7
:10376000DA6810070CD56FF008021A61042222777C
:10377000DB69204699075AD0FFF7C1FF0023237762
:1037800023681A69D20610D5DA68D0060DD56FF015
:1037900010021A6108222277DB69204613F4407F69
:1037A0004BD0FFF7ACFF0023237723681A69D107BA
:1037B00008D5DA68D20705D56FF0010220461A61F4
:1037C000FDF7AAF823681A69100608D5DA68110609
:1037D00005D56FF0800220461A6100F092FD236843
:1037E0001A69520608D5DA68500605D56FF040020E
:1037F00020461A61FFF785FF23681A69910622D5D2
:10380000DA6892061FD56FF020022046BDE810400E
:103810001A6100F075BDFFF771FF2046FFF770FFDA
:1038200083E7FFF76BFF2046FFF76AFF92E7FFF79A
:1038300065FF2046FFF764FFA0E7FFF75FFF204624
:10384000FFF75EFFAFE710BD1A4A036890420AD047
:10385000B0F1804F07D0A2F59432904203D002F528
:103860008062904215D14A6823F070031343114AD5
:1038700090420AD0B0F1804F07D0A2F59432904226
:1038800003D002F58062904203D1CA6823F44073EA
:1038900013434A6923F08003134303608B68C362B8
:1038A0000B688362034B984204BF0B6903630123D7
:1038B00043617047002C014010B5044600285FD0DA
:1038C0000368304A93420FD0B3F1804F0CD0A2F579
:1038D0009432934208D002F58062934204D040F2C1
:1038E00013112948FDF723F8A36833F010020AD01A
:1038F00023F04002202A06D0402B04D04FF48A71D6
:103900002148FDF714F8236933F4807207D0B3F52A
:10391000007F04D040F215111B48FDF708F8A36999
:1039200033F0800304D04FF48B711748FCF7FFFF8E
:1039300094F83D3003F0FF0223B9204684F83C2080
:10394000FDF7A0F90223206884F83D30211DFFF720
:103950007BFF0123002084F8463084F83E3084F851
:103960003F3084F8403084F8413084F8423084F8A5
:10397000433084F8443084F8453084F83D3010BD3D
:103980000120FCE7002C0140539C000810B50446C0
:1039900000285FD00368304A93420FD0B3F1804FC4
:1039A0000CD0A2F59432934208D002F58062934283
:1039B00004D040F213512948FCF7B9FFA36833F053
:1039C00010020AD023F04002202A06D0402B04D057
:1039D00040F214512148FCF7AAFF236933F48072A6
:1039E00007D0B3F5007F04D040F215511B48FCF717
:1039F0009EFFA36933F0800304D040F216511748AC
:103A0000FCF795FF94F83D3003F0FF0223B9204600
:103A100084F83C20FDF722F90223206884F83D3029
:103A2000211DFFF711FF0123002084F8463084F8A0
:103A30003E3084F83F3084F8403084F8413084F8D8
:103A4000423084F8433084F8443084F8453084F8B8
:103A50003D3010BD0120FCE7002C0140539C0008C4
:103A6000036A2DE9F04123F010030362056AD0F8E0
:103A7000048086690B6826F4E64646EA03268B68CE
:103A800025F0200545EA03151A4B044698420F46D7
:103A900028D1CB6833F0080304D041F68C211648B6
:103AA000FCF745FFFB6825F0800545EA0315BB6977
:103AB00025F0400533F4007304D041F69A210E48F6
:103AC000FCF735FF7B6933F4807304D041F69B210A
:103AD0000948FCF72CFFD7E9053228F44068134366
:103AE00048EA83087B68C4F80480A661A363256262
:103AF000BDE8F081002C0140539C000832F00C031B
:103B000070B504460D46164606D03C2A04D041F254
:103B100027016648FCF70BFF2B6823F01003602B8E
:103B200004D041F228016148FCF701FFAB6833F093
:103B3000020304D041F229015C48FCF7F8FE2B692E
:103B400033F0040304D041F22A015848FCF7EFFE99
:103B500094F83C30012B00F0A7800123082E84F854
:103B60003C307BD006D86EB3042E51D0002084F8B0
:103B70003C0070BD0C2EF9D123684D4A93420FD002
:103B8000B3F1804F0CD0A2F59432934208D002F5E5
:103B90008062934204D041F267014448FCF7C7FEBB
:103BA00029462068FFF702FD23682969DA6942F493
:103BB0000062DA61DA6922F48062DA61DA6942EA83
:103BC00001226FE023683A4A93420FD0B3F1804F4D
:103BD0000CD0A2F59432934208D002F58062934251
:103BE00004D041F234013148FCF7A1FE2946206897
:103BF000FFF742FC236829699A6942F008029A613A
:103C00009A6922F004029A619A690A439A61ADE7BF
:103C10002368274A93420FD0B3F1804F0CD0A2F50E
:103C20009432934208D002F58062934204D041F26C
:103C300045011E48FCF77BFE29462068FFF710FF70
:103C4000236829699A6942F400629A619A6922F4A8
:103C500080629A619A6942EA0122D7E72368144A8E
:103C600093420FD0B3F1804F0CD0A2F5943293421F
:103C700008D002F58062934204D041F256010B480D
:103C8000FCF755FE29462068FFF742FC23682969A6
:103C9000DA6942F00802DA61DA6922F00402DA61D4
:103CA000DA690A43DA6161E7022062E7539C00089F
:103CB000002C014010B584680A4324F47F4442EA92
:103CC00003222243826010BD70B590F83C30054657
:103CD000012B0C464FF002004FD0012385F83D0028
:103CE00085F83C300B68B3F5805F0CD0B3F5005F0E
:103CF00009D033F0300306D0402B04D041F23241DA
:103D00008E48FCF714FE2B689A6822F47F4222F05A
:103D100077029A602268602A00F0148172D8402AE3
:103D200000F052812AD8202A03D01ED832F0100287
:103D30001DD1834A93420FD0B3F1804F0CD0A2F52E
:103D40009432934208D002F58062934204D041F24B
:103D5000A4417A48FCF7EBFD2A682168936823F0B8
:103D600070030B4343F0070390E0302AE1D00123B6
:103D7000002085F83D3085F83C0070BD502AF6D112
:103D80006F4A93420FD0B3F1804F0CD0A2F594321A
:103D9000934208D002F58062934204D041F271410F
:103DA0006648FCF7C4FD6368B3F5004F09D033F0F3
:103DB000020206D00A2B04D041F274415F48FCF79E
:103DC000B6FDE3680F2B04D941F275415B48FCF75F
:103DD000AEFD2B686168186AE6681C6A20F00A006C
:103DE00024F001041C629A69014322F0F00242EAC5
:103DF00006129A6119629A6822F0700242F0570224
:103E00009A60B4E7B2F5805F42D0B2F5005F57D058
:103E1000702AACD14A4A93420FD0B3F1804F0CD0F4
:103E2000A2F59432934208D002F58062934204D006
:103E300041F245414148FCF77AFDA36833F4405311
:103E400004D041F248413D48FCF771FD6368B3F589
:103E5000004F09D033F0020206D00A2B04D041F201
:103E600049413648FCF763FDE3680F2B04D941F262
:103E70004A413248FCF75BFDD4E90121E368286838
:103E8000FFF718FF2A68936843F0770393606EE7A3
:103E90002B4A93423FF46BAFB3F1804F3FF467AFCF
:103EA000A2F5943293423FF462AF02F580629342EE
:103EB0003FF45DAF41F23E412048FCF738FD56E744
:103EC0001F4A93420FD0B3F1804F0CD0A2F5943229
:103ED000934208D002F58062934204D041F25D41E2
:103EE0001648FCF724FDA36833F4405304D04FF484
:103EF000A3511248FCF71BFD6368B3F5004F09D0CE
:103F000033F0020206D00A2B04D041F261410B4883
:103F1000FCF70DFDE3680F2B04D941F2624107481D
:103F2000FCF705FDD4E90121E3682868FFF7C2FE2C
:103F30002A68936843F48043A8E700BF539C0008B5
:103F4000002C0140414A93420FD0B3F1804F0CD076
:103F5000A2F59432934208D002F58062934204D0D5
:103F600041F281413A48FCF7E2FC6368B3F5004F47
:103F700009D033F0020206D00A2B04D041F284416A
:103F80003348FCF7D4FCE3680F2B04D941F2854198
:103F90002F48FCF7CCFC2B686668186AE46820F0B0
:103FA0001000186299691A6A21F4704122F0A00287
:103FB00042EA061241EA043199611A629A6822F0D3
:103FC000700242F067021BE7204A93420FD0B3F120
:103FD000804F0CD0A2F59432934208D002F5806253
:103FE000934204D041F291411948FCF7A0FC636868
:103FF000B3F5004F09D033F0020206D00A2B04D0EB
:1040000041F294411248FCF792FCE3680F2B04D96B
:1040100041F295410E48FCF78AFC2B686168186AEA
:10402000E6681C6A20F00A0024F001041C629A6908
:10403000014322F0F00242EA06129A6119629A687C
:1040400022F0700242F04702DAE600BF002C014085
:10405000539C0008174B70B5984204460D4616460F
:104060000FD0B0F1804F0CD0A3F59433984208D014
:1040700003F58063984204D041F609510E48FCF7DD
:1040800056FC35F00C0306D03C2D04D041F60A5105
:104090000948FCF74CFC0122236A05F01F05AA40E1
:1040A00023EA02032362226A06FA05F51543256214
:1040B00070BD00BF002C0140539C000838B5364A43
:1040C0000368044693420D460AD0B3F1804F07D0EF
:1040D000A2F59432934203D002F5806293421CD140
:1040E0002DB994F83E30012B2FD0012038BD042D7E
:1040F00007D194F83F30012BF7D1022384F83F30E9
:1041000026E0082D07D194F84030012BEDD1022391
:1041100084F840301CE00C2D0AD040F299511F4821
:10412000FCF705FC002DDCD0042DE2D0082DEAD0F0
:1041300094F84130012BD8D13DB1042DDDD0082DAC
:10414000E5D0022384F8413002E0022384F83E30B7
:10415000012229462068FFF77DFF23680E4A93421B
:104160000AD15A6C42F400425A649A6802F007027B
:10417000062A0BD10020B9E7B3F1804FF5D0084AE9
:104180009342F2D002F580629342EED01A6842F078
:1041900001021A60EEE700BF002C0140539C0008AA
:1041A0000004004038B5284A0368044693420D468F
:1041B0000AD0B3F1804F07D0A2F59432934203D0D6
:1041C00002F58062934202D135F00C0304D040F234
:1041D000CD511E48FCF7ABFB002229462068FFF7B3
:1041E00039FF2368184A93420DD141F21112196A1E
:1041F000114208D140F24442196A114202BF5A6C7E
:1042000022F400425A6441F21112196A114208D193
:1042100040F24442196A114202BF1A6822F00102B8
:104220001A6001231DB984F83E30002038BD042DEA
:1042300002D184F83F30F8E7082D0CBF84F84030F5
:1042400084F84130F1E700BF002C0140539C000886
:1042500038B5294A0368044693420D460FD0B3F19E
:10426000804F0CD0A2F59432934208D002F58062C0
:10427000934204D040F286712048FCF758FB2B682B
:1042800033F0300306D0402B04D040F287711B4836
:10429000FCF74DFB6B6833F0800304D04FF4F16101
:1042A0001648FCF744FB94F83C300220012B22D046
:1042B000236884F83D005968286821F070010143A3
:1042C0009A6859600C498B420AD0B3F1804F07D0ED
:1042D000A1F594318B4203D001F580618B4204D16A
:1042E000696822F080020A439A600123002084F862
:1042F0003D3084F83C0038BD002C0140889C00080B
:10430000704770470368DA6822F49072DA605A697D
:1043100022F001025A61026B012A02BFDA6822F020
:104320001002DA60202380F83E30002303637047D8
:1043300042682F4B10B59A42044604D940F65361A7
:104340002C48FCF7F4FAE36833F4005304D040F649
:1043500054612848FCF7EBFA236933F4806207D0F4
:10436000B3F5C06F04D040F655612248FCF7DFFA80
:104370004FF6F3726369134200D123B940F65661D8
:104380001C48FCF7D4FA2368E1681A69206922F412
:1043900040520A431A61A268D9680243606921F455
:1043A000B05121F00C0102430A43DA605A69A16955
:1043B00022F440720A435A610F4A934215D1FDF725
:1043C0004FFF19234343626820689200B3FBF2F366
:1043D0006422B3FBF2F102FB11331B013233B3FB56
:1043E000F2F303EB0113836010BDFDF729FFE8E74B
:1043F00020AA4400C09C000800380140F8B50446DB
:104400000E4617461D462268136836EA030301D19B
:10441000002014E06B1CF7D095B923680320DA68FC
:1044200022F4D072DA605A6922F001025A61202324
:1044300084F83D3084F83E30002384F83C30F8BDE9
:10444000FDF7BCFBC01B8542DDD2E6E710B5044694
:1044500000285BD0816903682D4A00294AD0934225
:104460000CD0A2F57442934208D002F580629342C8
:1044700004D04FF4B6712748FCF759FAA36933F416
:10448000407304D040F26D112248FCF750FAA36843
:1044900033F4805304D040F273111E48FCF747FAFE
:1044A00094F83D3003F0FF0223B9204684F83C2005
:1044B000FCF742FD2423226884F83D30D36820466F
:1044C00023F40053D360FFF733FF236800201A69F9
:1044D00022F490421A615A6922F02A025A61DA687B
:1044E00042F40052DA602023206484F83D3084F8DE
:1044F0003E3010BD9342CAD0074A9342C7D002F55E
:1045000080629342C3D040F27111BDE70120F0E711
:1045100000380140C09C0008004400402DE9F843E9
:10452000994690F83D300446202B0E46174648D158
:10453000002944D0002A42D090F83C30012B40D0D2
:104540000123002580F83C302123056480F83D30AC
:10455000FDF734FBA3688046B3F5805FA784E7844A
:1045600003D123690BB935461E46002384F83C303D
:10457000E38C9BB253B94B46424640212046FFF79D
:104580003DFF50B9202384F83D3007E04B464246BA
:1045900080212046FFF732FF10B10320BDE8F883E9
:1045A00022684EB935F8023BC3F308035360E18C2F
:1045B000013989B2E184DBE716F8013BF6E7012017
:1045C000ECE70220EAE710B5036804465A6990F860
:1045D0003D10212911D111060FD55A69406B22F0E7
:1045E00080025A6108B1FEF70BFA2268D36823F003
:1045F000C003D360202384F83D3023685A6994F8BF
:104600003E1022290CD152060AD55A69A06B22F01D
:1046100040025A6108B1FEF7F3F92046FFF772FE37
:10462000002010BD7047704708B5406A03685A699A
:1046300090F83D1021290AD1120608D50022C28423
:10464000DA6822F0C002DA60202280F83D205B693F
:1046500090F83E20222A05D15B0603D50023C385AE
:10466000FFF750FE036C43F010030364FFF7DBFF1A
:1046700008BD08B50023406AC385C384FFF7D3FF94
:1046800008BD7047406A08B5036B012B04D1818DCA
:104690004908FFF7F6FF08BDFFF7C4FFFBE708B5C1
:1046A00003461B68406A1B6813F0200317D1C385BB
:1046B0000368DA6822F48072DA605A6922F0010233
:1046C0005A615A6922F040025A61202280F83E2045
:1046D000026B012A02BFDA6822F01002DA60036B73
:1046E000012B03D1818DFFF7CCFF08BD02F062FCE6
:1046F000FBE707B58168836AB1F5805F026834D152
:104700000169002934D15268C2F3080223F8022B50
:10471000C28D8362013A92B2C2851ABB0368D9681E
:1047200021F02001D960D96821F48071D9605969DC
:1047300021F001015961202180F83E10016B01290F
:1047400020D10263D96821F01001D9601968C90627
:1047500005D501921A6801925B680193019B818DD6
:10476000FFF78FFF03B05DF804FB39B9016929B980
:104770005268D2B21A70836A0133C9E7526802F0F4
:104780007F02F7E702F016FCECE70000036837B59C
:104790001A68044612F00F0FD9685D690CD19506AE
:1047A00067D58D0665D590F83E30222B5BD103B0DE
:1047B000BDE83040FFF79DBF05F0010001F49075A2
:1047C000054356D0D50705D5CB0542BF236C43F032
:1047D00001032364550704D518B1236C43F0020389
:1047E0002364930704D518B1236C43F004032364B6
:1047F000150707D501F0200303431EBF236C43F0C8
:1048000008032364236C73B3920608D58B0606D580
:1048100094F83E30222B02D12046FFF76AFF23682E
:1048200020465B69256C03F0400305F008051D4335
:104830001BD0FFF767FD23685A69550610D55A69E2
:10484000A06B22F040025A6150B1534B4363FEF714
:10485000F5F840B1A06B436B03B0BDE8304018479A
:104860002046FFF7E0FE03B030BDFFF7DCFE256415
:10487000F9E7206B012855D1D00653D5CD0651D587
:10488000002101911A6801925A680192019A5A69AD
:1048900012F040022AD0A06B0268526892B2002A3D
:1048A000E1D0A58D9542DED9E2858269202A15D016
:1048B000DA6822F48072DA605A6922F001025A61E1
:1048C0005A6922F040025A61202284F83E20216376
:1048D000DA6822F01002DA60FEF792F8E38DA18D1B
:1048E000C91A89B22046FFF7CCFEBCE7E18D88B239
:1048F000E18D89B20029B6D0A18D091A89B20029AB
:10490000B1D0D86820F49070D860586920F00100C8
:104910005861202084F83E002263DA6822F01002F9
:10492000DA60DFE7100626D50D0624D594F83D2081
:10493000212A98D1A168226AB1F5805F16D1216938
:10494000A1B932F8021BC1F3080159602262E28C5E
:10495000013A92B2E284002A85D1DA6822F080021C
:10496000DA60DA6842F04002DA607CE7511C2162CA
:1049700012785A60EBE750067FF575AF4A067FF56F
:1049800072AFDA68204622F04002DA60202384F811
:104990003D3002F0F7FA66E77346000890F83D20D4
:1049A00090F83E001043704773B51346002582858A
:1049B000222204468162056480F83E20806B124A00
:1049C00026688262114AC262114AC0E90C250A4671
:1049D000311DFDF7C5FF2846236801951A6801922D
:1049E0005A6884F83C500192019ADA6842F4807265
:1049F000DA605A6942F001025A615A6942F0400293
:104A00005A6102B070BD00BF9F460008854600088D
:104A10002946000870B490F83E60202E10D161B194
:104A20005AB190F83C40012C0AD0012480F83C4057
:104A30000024046370BCFFF7B7BF012070BC70474F
:104A40000220FBE713B5044640B94FF0500383F34F
:104A50001188BFF36F8FBFF34F8FFEE720230193C1
:104A6000019B202B08D04FF0500383F31188BFF334
:104A70006F8FBFF34F8FFEE7002340F8043B00F039
:104A8000E9F801232046237702B010BD38B5202075
:104A900002F048F8044628B1002540F8045B00F015
:104AA000D9F82577204638BD2DE9F047DDF820906C
:104AB0000C4617469846064640B94FF0500383F31C
:104AC0001188BFF36F8FBFF34F8FFEE711F07F4A5E
:104AD00008D04FF0500383F31188BFF36F8FBFF3FB
:104AE0004F8FFEE741B94FF0500383F31188BFF3B6
:104AF0006F8FBFF34F8FFEE701F0CCF958B9B9F1D2
:104B0000000F08D04FF0500383F31188BFF36F8F6D
:104B1000BFF34F8FFEE700F0BBFE356804EA0503E4
:104B2000B8F1000F15D1B3B9B9F1000F0FD0002FB4
:104B30000CBF00214FF08071B8F1000F01D041F09F
:104B400080614A462143301D01F088F80025CA469D
:104B500005E09C42E8D117B125EA0403336000F078
:104B600035FFBAF1000F1CD048B94FF0E0234FF0E9
:104B70008052C3F8042DBFF34F8FBFF36F8F01F046
:104B8000DBF9830105460AD402F0ECF8356804EA43
:104B90000503B8F1000F07D143B902F003F925F07E
:104BA0007F452846BDE8F0879C42F6D1002FF4D01F
:104BB00025EA04043460F0E72DE9F0410D4604468F
:104BC00040B94FF0500383F31188BFF36F8FBFF3E9
:104BD0004F8FFEE711F07F4608D04FF0500383F36C
:104BE0001188BFF36F8FBFF34F8FFEE700F10C0703
:104BF00000F04EFE21682069294321608742216828
:104C000007D121EA0601216000F0E0FE2068BDE83E
:104C1000F081D0E9002822F07F4312F0806F03EA90
:104C2000010502D11DB94046E8E7AB42FBD1D201F4
:104C300041F0007148BF1E4301F09CF8F3E7FFF715
:104C4000BBBF000013460A460146014801F0EEBB17
:104C50003F4C00084FF0FF3200F10803C0E9022387
:104C600043600361002303607047002303617047C2
:104C700043689A684B608A609A68516099600368DB
:104C8000086101330360704730B50C68631C0AD1BA
:104C900003695A684A6091608B60596003680861D3
:104CA0000133036030BD00F10802134652681568F5
:104CB000A542FAD9EDE70369D0E901128A60516093
:104CC0005968814208BF5A60002202611A68013A9D
:104CD0001A601868704710B5044602F043F8A46BD8
:104CE00002F060F8B4FA84F0400910BDF8B515463A
:104CF000026C0446866B52B9076847BB406801F0F6
:104D0000D9F80546676001362846A663F8BD65B93F
:104D1000806804F09FF9A368226C13446268A36062
:104D20009342F0D32368A360EDE7C06804F092F9E2
:104D3000226CE36851429B1A2268E36093423EBFB3
:104D400063685B18E360022D01D116B1013E0025B6
:104D5000D9E73546D7E703461A6C084610B462B166
:104D6000DC68596814448C4228BF1968DC6028BF8D
:104D7000D960D96810BC04F06DB910BC704770B52B
:104D8000044601F0EFFF94F8455004F124066DB29B
:104D9000002D14DCFF2384F8453002F003F801F005
:104DA000E1FF94F8445004F110066DB2002D12DCBE
:104DB000FF2384F84430BDE8704001F0F3BF636A1C
:104DC000002BE7D0304600F095FF08B101F05CF809
:104DD000013D6DB2DCE72369002BE9D0304600F0DD
:104DE00089FF08B101F050F8013D6DB2DEE738B53A
:104DF0000D46044640B94FF0500383F31188BFF3CA
:104E00006F8FBFF34F8FFEE701F0ACFFD4E90F3196
:104E10004B432268D0185B1A13446060E3600020A3
:104E2000FF23A063A26084F8443084F84530A5B91C
:104E3000236973B104F1100000F05CFF48B14FF03A
:104E4000E0234FF08052C3F8042DBFF34F8FBFF320
:104E50006F8F01F0A7FF012038BD04F11000FFF7AC
:104E6000F9FE04F12400FFF7F5FEF2E737B50D4631
:104E70001C4640B94FF0500383F31188BFF36F8F86
:104E8000BFF34F8FFEE743B94FF0500383F3118810
:104E9000BFF36F8FBFF34F8FFEE74AB191B94FF069
:104EA000500383F31188BFF36F8FBFF34F8FFEE77B
:104EB00041B14FF0500383F31188BFF36F8FBFF3FD
:104EC0004F8FFEE750230193019B502B08D04FF0EA
:104ED000500383F31188BFF36F8FBFF34F8FFEE74B
:104EE0000121002D08BF2246C4E90F0584F84610B1
:104EF00020462260FFF77BFF20469DF8183084F89B
:104F00004C3003B030BDF8B50D461746064640B9E3
:104F10004FF0500383F31188BFF36F8FBFF34F8FB0
:104F2000FEE74843503001F0FDFD044670B1002318
:104F300080F8463065B100F1500301212046C4E9F4
:104F40000F652360FFF753FF84F84C702046F8BDCF
:104F50000346F2E72DE9F04385B088461F46044634
:104F6000019240B94FF0500383F31188BFF36F8F64
:104F7000BFF34F8FFEE751B9036C43B14FF05003BD
:104F800083F31188BFF36F8FBFF34F8FFEE7022FBC
:104F90000BD1E36B012B08D04FF0500383F3118842
:104FA000BFF36F8FBFF34F8FFEE700F073FF06462E
:104FB00050B9019B4BB14FF0500383F31188BFF3FD
:104FC0006F8FBFF34F8FFEE700264FF0000937E0E9
:104FD000019D1DB901F0E6FE002052E016B902A8BD
:104FE00000F00AFF01F0DEFE00F052FC01F0BAFE14
:104FF00094F84430FF2B08BF84F8449094F845306F
:10500000FF2B08BF84F8459001F0CCFE01A902A84F
:1050100000F0FEFE00284AD101F0A4FEA26BE36B73
:105020009A4231D101F0BEFE019904F1100000F066
:10503000FBFD2046FFF7A3FE00F0C8FC60B301268D
:1050400001F090FEA26BE36B9A4201D3022FBFD115
:105050003A4641462046FFF749FE636A1BB104F118
:10506000240000F047FE48B14FF0E0234FF080529B
:10507000C3F8042DBFF34F8FBFF36F8F01F092FE83
:10508000012005B0BDE8F08301F08CFE2046FFF75B
:1050900076FE00F09BFCD2E74FF0E0234FF0805209
:1050A000C3F8042DBFF34F8FBFF36F8FC7E72046C0
:1050B000FFF765FE00F08AFC8EE72DE9F84389468C
:1050C00090461F46044640B94FF0500383F31188C1
:1050D000BFF36F8FBFF34F8FFEE751B9036C43B13E
:1050E0004FF0500383F31188BFF36F8FBFF34F8FDF
:1050F000FEE7022F0BD1E36B012B08D04FF05003DA
:1051000083F31188BFF36F8FBFF34F8FFEE701F07A
:1051100005FFEFF311864FF0500383F31188BFF3BF
:105120006F8FBFF34F8FA26BE36B9A4201D3022FB5
:1051300022D194F845503A46494620466DB2FFF7D1
:10514000D5FD6B1C13D1636A0BB901200BE004F190
:10515000240000F0CFFD0028F7D0B8F1000FF4D004
:105160000120C8F8000086F31188BDE8F8830135F6
:105170006DB284F84550E8E70020F4E72DE9FF41DF
:105180000F460446019240B94FF0500383F3118853
:10519000BFF36F8FBFF34F8FFEE751B9036C43B17D
:1051A0004FF0500383F31188BFF36F8FBFF34F8F1E
:1051B000FEE700F06FFE064650B9019B4BB14FF081
:1051C000500383F31188BFF36F8FBFF34F8FFEE758
:1051D00000264FF000083DE0019D1DB901F0E2FD01
:1051E000002056E016B902A800F006FE01F0DAFD34
:1051F00000F04EFB01F0B6FD94F84430FF2B08BFE1
:1052000084F8448094F84530FF2B08BF84F845802B
:1052100001F0C8FD01A902A800F0FAFD002841D163
:105220002046FFF758FDB8B3019904F1240000F0BF
:10523000FBFC2046FFF7A3FD00F0C8FB48B94FF088
:10524000E0234FF08052C3F8042DBFF34F8FBFF31C
:105250006F8F012601F086FDA56B002DBCD039466D
:105260002046013DFFF777FDA563236973B104F183
:10527000100000F03FFD48B14FF0E0234FF08052A6
:10528000C3F8042DBFF34F8FBFF36F8F01F08AFD7A
:10529000012004B0BDE8F0812046FFF770FD00F06A
:1052A00095FBD6E72046FFF76AFD00F08FFB20460E
:1052B000FFF711FD0028CCD092E72DE9F84389468D
:1052C0009046054640B94FF0500383F31188BFF371
:1052D0006F8FBFF34F8FFEE751B9036C43B14FF0AF
:1052E000500383F31188BFF36F8FBFF34F8FFEE737
:1052F00001F014FEEFF311874FF0500383F3118890
:10530000BFF36F8FBFF34F8FAC6B1CB395F8446046
:105310004946284676B2FFF71EFD013C731CAC637C
:1053200013D12B690BB901200BE005F1100000F03F
:10533000E1FC0028F7D0B8F1000FF4D00120C8F844
:10534000000087F31188BDE8F883013676B285F84E
:105350004460E8E72046F4E7002310B5064A52F817
:1053600033402CB942F8331002EBC303586010BD30
:105370000133082BF3D1FAE78803002070B5044607
:105380000D46164601F0EEFC94F84430FF2B04BFA6
:10539000002384F8443094F84530FF2B04BF0023E9
:1053A00084F8453001F0FEFCA36B2BB93246294648
:1053B00004F1240000F07EFC2046BDE87040FFF7B9
:1053C000DEBC00002DE9F041044601F0CBFC304B7F
:1053D000304E1A68304F01321A603568002D4BD1BB
:1053E00034601B68012B1FD1B84640460135FFF7DA
:1053F00031FC382D08F11408F7D1DFF8A080284DD2
:105400004046FFF727FC2846FFF724FC2548FFF716
:1054100021FC2548FFF71EFC2448FFF71BFC244B0A
:10542000C3F80080234B1D601420234A1368013306
:105430001360224A63641168E36A8B4200FB0370C5
:1054400004F1040188BF1360FFF712FC01F0AAFC0D
:105450001B4B1B6873B13368DA6AE36A9A4209D25C
:105460004FF0E0234FF08052C3F8042DBFF34F8F6D
:10547000BFF36F8FBDE8F081114B1B68002BD3D1B8
:105480003368DA6AE36A9A4298BF3460CCE700BFB7
:1054900034080020C8030020D40300204C0800205A
:1054A000600800207C080020A80800209408002044
:1054B000CC030020D003002044080020480800202E
:1054C00090080020F8B50646144B154D1C68286856
:1054D0000F460430FFF7EFFB731C07D137B1296883
:1054E00010480431BDE8F840FFF7C2BB2B68A4198F
:1054F0005C6007D30C4B18682968BDE8F84004319C
:10550000FFF7C2BB094B186829680431FFF7BCFBE1
:10551000074B1A68A24288BF1C60F8BDBC08002077
:10552000C803002094080020D0030020CC030020F2
:105530007408002040B94FF0500383F31188BFF383
:105540006F8FBFF34F8FFEE74269064B9A4207D138
:10555000806A054B984203D0B0FA80F0400970474A
:1055600000207047940800207C080020064A136839
:105570001968064B19B94FF0FF321A60704712686C
:10558000D268D2685268F8E7CC0300207408002083
:1055900010B590F8593004463BB9006B01F052FB4E
:1055A0002046BDE8104001F04DBB012BF9D0022B85
:1055B00008D04FF0500383F31188BFF36F8FBFF310
:1055C0004F8FFEE710BD000080B5134C134F144DF4
:1055D000236873B9134B1B68012BF8D94FF0E023F4
:1055E0004FF08052C3F8042DBFF34F8FBFF36F8F7E
:1055F000EDE701F0B7FBFB68DE68301DFFF75BFBF2
:105600002B68013B2B602368013B236001F0CAFB40
:105610003046FFF7BDFFDBE738080020A808002070
:1056200034080020D40300202DE9F0470D46DDE9C1
:1056300009844FEA82094A460646A521206B1F4687
:1056400003F016FD226BA9F1040991446B1E29F0A9
:10565000070904F134020F3513F8011F02F8011B8A
:1056600009B1AB42F8D1089D4FF0000A372D28BF91
:105670003725201DC4E9135AE56284F843A0FFF7DB
:10568000F4FAC5F1380504F11800FFF7EEFAC4F892
:1056900054A03A46314648462461A561646284F8C4
:1056A00058A001F037FB2060B8F1000F01D0C8F816
:1056B0000040BDE8F08770B586B0DDE90B5445B910
:1056C0004FF0500383F31188BFF36F8FBFF34F8FF9
:1056D000FEE744B94FF0500383F31188BFF36F8F97
:1056E000BFF34F8FFEE75C260596059E5C2E08D023
:1056F0004FF0500383F31188BFF36F8FBFF34F8FC9
:10570000FEE72563022584F8595004AD01950A9DF2
:1057100002940095FFF788FF2046FFF753FE049898
:1057200006B070BD2DE9F043074685B0900088466D
:105730001646994601F0F6F90546E8B15C2001F0FD
:10574000F1F90446A8B1002380F859300D9B056398
:1057500001930C9B324641460290009338464B46DB
:10576000FFF762FF2046FFF72DFE012005B0BDE8E0
:10577000F083284601F066FA4FF0FF30F6E70000AC
:1057800070B5044640B94FF0500383F31188BFF35E
:105790006F8FBFF34F8FFEE7174D2B68834229D0E1
:1057A00001F0E0FA2046FFF7C5FEF8B1261D3046AD
:1057B000FFF781FA1420114AE36A11688B4288BF0F
:1057C00013600F4A314600FB0320FFF751FA2B68A4
:1057D000E26ADB6A9A4209D34FF0E0234FF080522D
:1057E000C3F8042DBFF34F8FBFF36F8FBDE8704038
:1057F00001F0D8BA70BD00BFC803002048080020DF
:10580000D403002010B5002488B007AA06A905A873
:10581000CDE9054401F04AF9059B079A0293069BDE
:105820001649CDE9004316482346FFF744FF18B355
:1058300000F0E0FB012814D14FF0500383F31188EE
:10584000BFF36F8FBFF34F8F4FF0FF320D4B1A60D6
:105850000D4B18600D4B1C6008B0BDE8104001F006
:1058600001BB013008D14FF0500383F31188BFF31F
:105870006F8FBFF34F8FFEE708B010BDF69C000896
:10588000C95500087408002090080020BC080020BA
:10589000024A136801331360704700BF40080020BC
:1058A000014B1868704700BFBC0800202DE9F84F75
:1058B0003B4B1B68002B6DD13A4B1D6801351D60B9
:1058C000BDB9394B1A68126842B14FF0500383F3E7
:1058D0001188BFF36F8FBFF34F8FFEE7334A19680C
:1058E000106818601160324A136801331360FFF7C3
:1058F0003DFE304E002433682F4FAB4210D91422A6
:105900002E4B1B68DB6A5343FB58022B28BF012434
:105910002B4B1B68002B0CBF20460120BDE8F88FE5
:10592000DFF88490DFF89CA0D9F800301B681BB921
:105930004FF0FF333360E2E7D9F80030DB68D3F88B
:105940000CB0DBF80420954201D23260D7E70BF1AE
:1059500004084046FFF7AFF9DBF828201AB10BF135
:105960001800FFF7A8F91423DBF82C00DAF8002060
:105970004146904288BFCAF8000003FB0070FFF761
:1059800077F90E4BDBF82C201968CB6A9A4228BFB6
:105990000124C9E70C4A0024136801331360B7E7F8
:1059A00040080020BC080020CC030020D0030020C9
:1059B0007808002074080020D4030020C8030020C9
:1059C000C0080020480800203C0800202DE9F041D4
:1059D000304C236843B94FF0500383F31188BFF371
:1059E0006F8FBFF34F8FFEE701F0BCF92368013BD7
:1059F000236024682CB1002401F0D4F92046BDE8CE
:105A0000F081254B1B68002BF5D0244D244EDFF888
:105A100094801DE0EB68DC68271D04F11800FFF797
:105A20004AF93846FFF747F91420E36A326800FB69
:105A300003809342394688BF3360FFF719F91A4B48
:105A4000E26A1B68DB6A9A4202D30122174B1A6092
:105A50002B68002BDED10CB1FFF788FD144D2C68AC
:105A600044B10127114EFFF721FF00B13760013C1F
:105A7000F9D12C600D4B1B68002BBCD04FF0E023FC
:105A80004FF08052C3F8042DBFF34F8FBFF36F8FD9
:105A90000124B1E740080020340800207C080020E1
:105AA00048080020D4030020C8030020C0080020BC
:105AB0003C08002008B550B94FF0E0234FF0805269
:105AC000C3F8042DBFF34F8FBFF36F8F08BD0A4B90
:105AD000196841B14FF0500383F31188BFF36F8F02
