:020000040800F2
:1000000000500020CD6A00088D0B0008910B0008FD
:10001000950B0008990B00089D0B000800000000DC
:10002000000000000000000000000000A10B00081C
:10003000A50B000800000000A90B0008AD0B00088C
:10004000156B0008156B0008156B0008B10B000854
:10005000156B0008156B0008D50B0008156B000820
:10006000156B0008156B0008156B0008156B000870
:10007000156B0008156B0008DD0B0008E90B000884
:10008000F50B0008010C0008156B0008156B000843
:10009000156B0008156B0008156B0008156B000840
:1000A000156B0008156B0008156B0008156B000830
:1000B000156B0008156B00080D0C0008156B000887
:1000C000156B0008156B0008156B0008156B000810
:1000D000156B0008210C0008390C0008156B00088E
:1000E000156B0008156B0008156B00080000000078
:1000F0000000000000000000000000000000000000
:0C01000000000000000000005FF808F1A3
:1001100010B5054C237833B9044B13B10448AFF341
:1001200000800123237010BD80000020000000002B
:10013000F475000808B5034B1BB103490348AFF33E
:10014000008008BD0000000084000020F475000855
:10015000034613F8012B002AFBD1181A0138704707
:1001600070B54FF0FF0C4CF4E06C1CEA11541DBF4D
:100170001CEA135594EA0C0F95EA0C0F00F0DEF818
:100180002C4481EA030621EA4C5123EA4C5350EAFD
:10019000013518BF52EA033541F4801143F480134E
:1001A00038D0A0FB02CE4FF00005E1FB02E506F0DF
:1001B0000042E0FB03E54FF00006E1FB03569CF034
:1001C000000F18BF4EF0010EA4F1FF04B6F5007F3A
:1001D00064F5407404D25FEA4E0E6D4146EB0606AC
:1001E00042EAC62141EA55514FEAC52040EA5E5035
:1001F0004FEACE2EB4F1FD0C88BFBCF5E06F1ED8DF
:10020000BEF1004F08BF5FEA500E50F1000041EB15
:10021000045170BD06F0004646EA010140EA0200C2
:1002200081EA0301B4EB5C04C2BFD4EB0C0541EAE4
:10023000045170BD41F480114FF0000E013C00F3F9
:10024000AB8014F1360FDEBF002001F0004170BD1D
:10025000C4F10004203C35DA0C341BDC04F1140436
:10026000C4F1200500FA05F320FA04F001FA05F2C2
:1002700040EA020001F0004221F0004110EBD3708F
:1002800021FA04F642EB06015EEA430E08BF20EABB
:10029000D37070BDC4F10C04C4F1200500FA04F35E
:1002A00020FA05F001FA04F240EA020001F00041F0
:1002B00010EBD37041F100015EEA430E08BF20EA63
:1002C000D37070BDC4F1200500FA05F24EEA020EAB
:1002D00020FA04F301FA05F243EA020321FA04F0DA
:1002E00001F0004121FA04F220EA020000EBD37091
:1002F0005EEA430E08BF20EAD37070BD94F0000F91
:100300000FD101F00046400041EB010111F4801FC4
:1003100008BF013CF7D041EA060195F0000F18BF75
:10032000704703F00046520043EB030313F4801FB1
:1003300008BF013DF7D043EA0603704794EA0C0F6B
:100340000CEA135518BF95EA0C0F0CD050EA410681
:1003500018BF52EA4306D1D181EA030101F00041FE
:100360004FF0000070BD50EA410606BF1046194626
:1003700052EA430619D094EA0C0F02D150EA013632
:1003800013D195EA0C0F05D152EA03361CBF104673
:1003900019460AD181EA030101F0004141F0FE4112
:1003A00041F470014FF0000070BD41F0FE4141F496
:1003B000780170BD81F0004102E000BF83F000438E
:1003C00030B54FEA41044FEA430594EA050F08BFF0
:1003D00090EA020F1FBF54EA000C55EA020C7FEAB4
:1003E000645C7FEA655C00F0E2804FEA5454D4EB31
:1003F0005555B8BF6D420CDD2C4480EA020281EAFB
:10040000030382EA000083EA010180EA020281EA32
:100410000303362D88BF30BD11F0004F4FEA013184
:100420004FF4801C4CEA113102D0404261EB410193
:1004300013F0004F4FEA03334CEA133302D0524219
:1004400063EB430394EA050F00F0A780A4F10104D5
:10045000D5F1200E0DDB02FA0EFC22FA05F280180F
:1004600041F1000103FA0EF2801843FA05F35941F5
:100470000EE0A5F120050EF1200E012A03FA0EFC74
:1004800028BF4CF0020C43FA05F3C01851EBE3719E
:1004900001F0004507D54FF0000EDCF1000C7EEBBB
:1004A00000006EEB0101B1F5801F1BD3B1F5001FF9
:1004B0000CD349085FEA30004FEA3C0C04F1010418
:1004C0004FEA445212F5800F80F09A80BCF1004F41
:1004D00008BF5FEA500C50F1000041EB045141EAC3
:1004E000050130BD5FEA4C0C404141EB0101013C8C
:1004F00028BFB1F5801FE9D291F0000F04BF01467B
:100500000020B1FA81F308BF2033A3F10B03B3F14C
:1005100020020CDA0C3208DD02F1140CC2F10C02DC
:1005200001FA0CF021FA02F10CE002F11402D8BF3A
:10053000C2F1200C01FA02F120FA0CFCDCBF41EA06
:100540000C019040E41AA2BF01EB0451294330BDD5
:100550006FEA04041F3C1CDA0C340EDC04F11404B2
:10056000C4F1200220FA04F001FA02F340EA030089
:1005700021FA04F345EA030130BDC4F10C04C4F1CF
:10058000200220FA02F001FA04F340EA03002946AF
:1005900030BD21FA04F0294630BD94F0000F83F4F9
:1005A000801306BF81F480110134013D4EE77FEADC
:1005B000645C18BF7FEA655C29D094EA050F08BF28
:1005C00090EA020F05D054EA000C04BF1946104609
:1005D00030BD91EA030F1EBF0021002030BD5FEA4D
:1005E000545C05D14000494128BF41F0004130BD75
:1005F00014F580043CBF01F5801130BD01F00045C9
:1006000045F0FE4141F470014FF0000030BD7FEA3B
:10061000645C1ABF194610467FEA655C1CBF0B4636
:10062000024650EA013406BF52EA033591EA030F4D
:1006300041F4002130BD00BF90F0000F04BF002145
:10064000704730B54FF4806404F132044FF0000578
:100650004FF0000150E700BF90F0000F04BF0021F1
:10066000704730B54FF4806404F1320410F0004557
:1006700048BF40424FF000013EE700BF42004FEA52
:10068000E2014FEA31014FEA02701FBF12F07F43CF
:1006900093F07F4F81F06051704732F07F4208BF86
:1006A000704793F07F4F04BF41F40021704730B58D
:1006B0004FF4607401F0004521F000411CE700BFD9
:1006C00050EA010208BF704730B54FF000050AE05C
:1006D00050EA010208BF704730B511F0004502D55D
:1006E000404261EB41014FF4806404F132045FEA5F
:1006F000915C3FF4D8AE4FF003025FEADC0C18BF08
:1007000003325FEADC0C18BF033202EBDC02C2F1F9
:10071000200300FA03FC20FA02F001FA03FE40EA8B
:100720000E0021FA02F11444BDE600BF4FEA410277
:10073000B2F1E04324BFB3F5001CDCF1FE5C0DD93F
:1007400001F0004C4FEAC0024CEA5070B2F1004F89
:1007500040EB830008BF20F00100704711F0804F8C
:1007600021D113F13872BCBF01F00040704741F451
:1007700080114FEA5252C2F11802C2F1200C10FA55
:100780000CF320FA02F018BF40F001004FEAC12339
:100790004FEAD32303FA0CFC40EA0C0023FA02F3DD
:1007A0004FEA4303CCE77FEA625307D150EA0133B3
:1007B0001EBF4FF0FE4040F44000704701F0004083
:1007C00040F0FE4040F40000704700BF4FEA400296
:1007D000B2F1FE4F0FD34FF09E03B3EB12620DD96F
:1007E0004FEA002343F0004310F0004F23FA02F0D9
:1007F00018BF404270474FF00000704712F1610F80
:1008000001D1420205D110F0004008BF6FF0004056
:1008100070474FF00000704742000ED2B2F1FE4F19
:100820000BD34FF09E03B3EB126209D44FEA0023BF
:1008300043F0004323FA02F070474FF00000704786
:1008400012F1610F01D1420202D14FF0FF30704727
:100850004FF00000704700BF012330B54FF48031E6
:1008600095B00520002402254FF48032CDE90D33E8
:100870004FF4E013CDE90A010AA812921393CDE9CF
:100880000F44CDE90544CDE90744CDE901440C947A
:10089000049400941195039401F038F80F22022378
:1008A000CDE9042300224FF48063294604A8CDE952
:1008B0000623089401F0A2FA01224FF480736846DF
:1008C000CDE9002301F0E8FB15B030BD08B500F01C
:1008D000E7FFFFF7C1FF00F02BF800F0ADF800F0E4
:1008E00005F903F097FD03F03FFC03F059FC0022EB
:1008F0001E20114602F028FA1E2002F06FFA012293
:100900000320114602F020FA032002F067FA0222C7
:100910000121062002F018FA062002F05FFA03F027
:10092000ABFD03F0F1FDFCE7704700BF704700BF6F
:1009300070B5002488B0CDE90444CDE90644394BB4
:10094000394D9A69394E42F010029A619A692846E7
:1009500002F010020092009A9A6948F2E01142F007
:1009600020029A619A6902F020020192019A9A6922
:1009700042F004029A619A6902F004020292029A19
:100980009A6942F008029A619B69224603F00803C3
:100990000393039B01F034FF224630464FF6FB41A0
:1009A00001F02EFF4FF40052032304A92048CDE9A3
:1009B000042301F09DFC022101221E4B28460691D2
:1009C00004A9CDE9042301F093FC41F612020323AC
:1009D000284604A9CDE90423002401F089FC48F24B
:1009E000E01201232846022504A9CDE90423CDE91C
:1009F000064501F07DFC4FF6FB420123304604A979
:100A0000CDE90423CDE9064501F072FC4FF44172B3
:100A10000323304604A9CDE9042301F069FC08B0A2
:100A200070BD00BF0010024000080140000C0140F2
:100A3000001001400000111000234FF0FF314FF46F
:100A4000807210B51648174C82B0C0E901120460DC
:100A5000ADF8003001938DF8023000F035FBA0B9FD
:100A60000022082369460E48ADF800308DF80220B8
:100A700000F0DAFB80B90C4B0022094801A9019370
:100A800000F0E8FC20B902B010BDFFF74DFFE7E72A
:100A9000FFF74AFF02B010BDFFF746FFEBE700BFCC
:100AA0009C00002000280040020101160C4B026847
:100AB0009A4200D0704700B583B002F0D9F9012006
:100AC000084B0949DA6942F00062DA61DB6903F038
:100AD00000630193019BC1F83C0403B05DF804FB83
:100AE0000028004000100240000042420023632121
:100AF00010B580224FF42F74174886B0C0E9023138
:100B0000CDE9033302930093036105930193134BE3
:100B100044608261036002F0F7F990B94FF48053AA
:100B20000D4802A9029302F0E7FA88B900220023D7
:100B300069460948CDE9002302F084FD20B906B0DA
:100B400010BDFFF7F1FEE9E7FFF7EEFE06B010BDBE
:100B5000FFF7EAFEEAE700BFB0000020000800400F
:100B6000094B02689A4200D0704703F50233DA69F4
:100B700082B042F00402DA61DB6903F004030193FE
:100B8000019B02B0704700BF00080040704700BFE3
:100B9000FEE700BFFEE700BFFEE700BFFEE700BFC5
:100BA000704700BF704700BF704700BF00F08ABEAB
:100BB00008B5064800F02CFE05484FF4805101F0BE
:100BC00039FEBDE80840012005F0D4B89C000020A3
:100BD000000C0140012001F043BE00BF014802F0BB
:100BE00001B800BF40010020014801F0FBBF00BF79
:100BF000FC000020014801F0F5BF00BF8401002087
:100C0000014801F0EFBF00BFC801002008B503484C
:100C100002F06EFCBDE8084004F0A0BCB00000206B
:100C200010B5044C204603F049F92046BDE81040B9
:100C300005F0F8BE0C02002010B5044C204603F06D
:100C40003DF92046BDE8104005F0B2BC500200203E
:100C5000104B00B59A6983B042F001029A619A691B
:100C6000062002F001020092009ADA6942F08052F6
:100C7000DA61DB6903F080530193019B02F046F8CF
:100C8000054A536823F0E06343F00073536003B0F8
:100C90005DF804FB001002400000014070B50446FE
:100CA0000E4600F01BFE054605E000F017FE401B57
:100CB000B0F57A7F1FD823685A689206F5D55A682E
:100CC000310C42F01002B6B25A6019625E625A6884
:100CD00022F010025A6000F001FE054605E000F027
:100CE000FDFD401BB0F57A7F05D823685B689B0645
:100CF000F5D5002070BD012070BD00BF2DE9F04F7B
:100D00001746026883B0556815F0040540F0D4809A
:100D100004460E469169D06993691FFA81FE1FFA55
:100D200083FCE64500F0CC80D1691FFA81F949EADD
:100D300003494FF46161BF4BBF48A3FB09384FEA39
:100D4000D82801FB1891BD4B8145A3FB01C34FEA95
:100D500053137370C3EB0313A1EB8303B37040F21F
:100D6000B480B74BA3FB08131B0903EB4303A8EBA9
:100D7000C3033370116A536A1FFA83FA4AEA014ABD
:100D8000BAF1FF3F05D0D1452CBF4FF0FF3AAAEB97
:100D9000090A00F0A3FD834607E000F09FFDA0EBE9
:100DA0000B00B0F57A7F00F2878023685A689206BC
:100DB000F3D5A34AA2FB0828A24A4FEA181802FB5F
:100DC00018995A6842F010025A604FEA19429A6123
:100DD0001FFA89F2DA615A6822F010025A6000F0B4
:100DE0007DFD834606E000F079FDA0EB0B00B0F539
:100DF0007A7F61D823685B689B06F4D5BAF1FF3F20
:100E000054D0204609EB0A01FFF748FF002853D1D0
:100E10000023E07B627BA17B012A00F0C380032AD0
:100E200000F08780052A00F0C080072A00F0C0800B
:100E3000082A00F0C0800A2A00F0D9800C2A00F0AD
:100E4000D980042A00F0A680062A00F0E980092A49
:100E500000F0E9800B2A00F0E9804FF0640BDFF826
:100E6000E8C11FFA80FAACFB0AEC00F0030ECDF8E3
:100E700004E04FEA5C1E0BFB1EAE4FF4C87B4FEA4A
:100E8000DC1C0BFB1CAC0133022A99461FFA8EFEB8
:100E90001FFA8CFC53D11B2900F2DC80C84501F1FC
:100EA000010140F2DE8009F10109F4E751462046D4
:100EB000FFF7F4FE0028ABD0012003B0BDE8F08FAF
:100EC0001FFA80F949EA014933E786F8008067B3E1
:100ED0003378092B09D900220A3BDBB2092B02F136
:100EE0000102F9D843EA0213DBB272783370092A9F
:100EF00009D900230A3AD2B2092A03F10103F9D829
:100F000042EA0312D2B2B3787270092B08D90A3BB5
:100F1000DBB2092B05F10105F9D843EA0513DBB271
:100F20000020B37003B0BDE8F08F384603B0BDE8D1
:100F3000F08F4FF0040C1E2930D801310133984551
:100F40003FF66AAF022AE0736273A17300F5FA6399
:100F500034D93D481944023101EB9301DFF8ECC06C
:100F6000A0FB030302EB4200C2EBC002ACFB020297
:100F700001EBD31101EB5202A2EB5312344BA3FB52
:100F80000213D11A03EB51039B08C3EBC303D31A1B
:100F900023739CE74FF0050C1D29CED96246012131
:100FA0000133CCE74FF0020CC5E74FF0060CC2E767
:100FB0004FF0080CBFE74FF0090CBCE702EB420C06
:100FC000DFF888E0C2EBCC02AEFB02C24FEA520C63
:100FD0005A1804321C4B00F2CF70624402EB9002AC
:100FE000A3FB003002EBD012A2EB5012C6E74FF089
:100FF0000B0CA0E71E29A0D90133984500F1010090
:1010000003D902210122013399E701234FF0020C99
:101010001A461946A3736273E07300F5FA63D7E7C3
:101020004FF0070CB8E74FF00A0CB5E74FF00C0C87
:10103000B2E700BFC5B3A2917F51010089888888BB
:10104000ABAAAAAA805101001F85EB51398EE33863
:10105000254992241C2909D01D2913D0C8453FF6E3
:1010600022AF4FF0050C0222CBB2D3E7019BABB904
:10107000BEF1000F0DD1BCF1000F0FD1C84514D93E
:1010800009F101094B46984515D902210322013384
:1010900055E7C84509D909F10103F4E7C8450AD95C
:1010A0000221032209F1010349E71D234FF0050C3A
:1010B00002221946AEE703220121E07300F5FA632C
:1010C0006273A17345E700BF002800F0A48038B523
:1010D0000268524B04469A4204D040F21D11504817
:1010E000FFF724FCA36833F0800272D16FF4801202
:1010F0006368A3F58013934276D3637C03F0FF0209
:10110000002B7BD0022322686374536823F008030A
:10111000536000F0E3FB054605E000F0DFFB431BF6
:10112000B3F57A7F51D823685B681807F5D500F0CE
:10113000D5FB054605E000F0D1FB401BB0F57A7FFA
:1011400043D823685A689106F5D55968A06841F0DC
:1011500010015960596821F00701596020B13149E7
:101160000A6B22F001020A632E49CA6A22F46072F5
:101170000243CA6261684A1C45D098688DB220F06B
:101180000F0040EA11419960DA68120C12042A43F8
:10119000DA605A6822F010025A6000F09FFB0546A0
:1011A00005E000F09BFB401BB0F57A7F0DD823686B
:1011B0005B689B06F5D5002340F201110122E37321
:1011C000A4F80D106274184638BD0423637401201E
:1011D00038BD23F40073B3F5807F87D04FF48F714F
:1011E0000F48FFF7A3FB81E740F21F110C48FFF700
:1011F0009DFB637C03F0FF02002B83D12046227409
:10120000FFF754FC7EE7012000F0EEFF0028DCD061
:101210002368411EB1E70120704700BF002800404D
:101220001C760008006C0040002800F0E88070B5D3
:101230000E46002900F0E580012A04461FD8037CF1
:10124000012B00F0E08001210223017443741ABBDA
:101250003378172B00F2CD8073783B2B00F2A880F7
:10126000B2783B2A00F29D804FF461607378317848
:10127000C3EB03139D0000FB0155154449E040F208
:10128000CA216248FFF752FB237C012B00F0BB8090
:10129000012202232274637433781A0902EB82025A
:1012A00003F00F0303EB4203DBB2172B00F29B802A
:1012B00073781A0902EB820203F00F0303EB420377
:1012C000DBB23B2B00F28980B3781D0905EB850565
:1012D00003F00F0303EB4505E9B23B296ED84FF449
:1012E000616C33787278180900EB800003F00F030B
:1012F00003EB4005130903EB830602F00F0303EB36
:101300004603DBB2C3EB0313E8B29D000CFB0055B0
:101310000D4400F0E3FA064605E000F0DFFA831B17
:10132000B3F57A7F37D823685A689106F5D559689E
:101330002A0C41F0100159609A61AAB2DA615A6828
:1013400022F010025A6000F0C9FA064605E000F0EB
:10135000C5FA801BB0F57A7F1DD823685A689206BB
:10136000F5D55A6822F005025A601A6A596A89B29C
:1013700041EA02418D4205D80023012223746274A0
:10138000184670BD01F5A831204601F5C071FFF780
:1013900085FC0028F0D0042200236274237401200D
:1013A00070BD40F2D5211948FFF7C0FAB2785BE76B
:1013B0004FF435711548FFF7B9FA51E740F2DF21D4
:1013C0001248FFF7B3FAB3781D0905EB850503F062
:1013D0000F0303EB4505E9B281E740F2DE210B483C
:1013E000FFF7A4FA70E740F2DD210848FFF79EFA04
:1013F0005EE740F2D3210548FFF798FA2CE7012079
:101400007047012070BD022070BD00BF1C7600082F
:10141000D8B170B50D46B1B1012A0446164606D8BA
:10142000324629462046BDE87040FFF767BC40F2CF
:101430002D310748FFF77AFA324629462046BDE8A3
:101440007040FFF75BBC012070BD0120704700BFFA
:101450001C760008002800F03A8170B50D4600297E
:1014600000F03781012A044637D8037C012B00F0B5
:1014700032810121022301744374002A3AD1EB78AE
:10148000632B00F2C7806B78013B0B2B00F2CE8000
:10149000AB78013B1E2B00F2C380E878E0736978DB
:1014A000B5F801200229AB78A4F80D2000F5FA6206
:1014B00066D98A4801EB4106C1EBC601A0FB0101D8
:1014C0000733134403EB5103854903EB9203A1FB5C
:1014D0000221844AA3EB511369E04FF467718248FB
:1014E000FFF724FA237C012B00F0F5800122022370
:1014F00022746374EB781A0902EB820203F00F0383
:1015000003EB4203DBB2632B7ED86B781A0903F03E
:101510000F0302EB8202013B03EB4203DBB20B2B16
:101520006CD8AB781A0903F00F0302EB8202013B7F
:1015300003EB4203DBB21E2B5AD8EB78180900EB01
:10154000800203F00F0000EB4200C0B2E0736B7842
:10155000190901EB810203F00F0101EB4201C9B24D
:101560006173AA7802294FEA121303EB830602F093
:101570000F0303EB4603DBB2A37300F5FA6298D8BE
:1015800004331344554E01EB4102C1EBC201A6FBEB
:101590000121534A00F2CF7003EB510303EB900398
:1015A000A2FB00204F4A03EBD013A3EB5013A2FB86
:1015B0000312991A02EB51029208C2EBC2029A1A64
:1015C000D2B222732A7023689969DD699A698EB252
:1015D00090B2864230D0DD69444BADB245EA024557
:1015E0009D422FD80023012223746274184670BDD7
:1015F00040F2B2313C48FFF799F99EE740F2B13131
:101600003948FFF793F98CE74FF46C713648FFF7D0
:101610008DF97AE740F2A5313348FFF787F932E7D1
:1016200040F2A7313048FFF781F936E740F2A631A2
:101630002D48FFF77BF92BE72C4BADB245EA01456E
:101640009D42CFD900F04AF9064605E000F046F980
:10165000801BB0F57A7F34D823685A689106F5D597
:10166000234E244AA6FB0516360C02FB16565A6872
:10167000310C42F010025A60B2B29961DA615A68D4
:1016800022F010025A6000F029F9054605E000F04A
:1016900025F9401BB0F57A7F13D823685A68920663
:1016A000F5D51A6A596A89B241EA02418E4299D93E
:1016B00001F5A831204601F5C071FFF7EFFA0028C7
:1016C00090D00422002362742374012070BD012095
:1016D0007047012070BD022070BD00BF398EE33815
:1016E0001F85EB51254992241C7600088F5F01006D
:1016F00007452EC280510100F0B5002783B0ADF838
:1017000004708DF80670002856D00C46002953D07E
:10171000012A1646054644D83A4601A9FFF7EEFAD3
:10172000002849D1EA6895F80FE095F80DC0AB7B29
:101730002260002E41D0BEF1090F0DD90022AEF17A
:101740000A0E5FFA8EFEBEF1090F02F10102F6D811
:101750004EEA021E5FFA8EFEBCF1090F84F803E028
:101760000DD90022ACF10A0C5FFA8CFCBCF1090F18
:1017700002F10102F6D84CEA021C5FFA8CFC092B3C
:1017800084F801C009D900220A3BDBB2092B02F11F
:101790000102F9D843EA0213DBB20020A37003B0C0
:1017A000F0BD40F20E410B48FFF7C0F83A4628461C
:1017B00001A9FFF7A3FA10B1012003B0F0BD2B7B04
:1017C000237095F80FE095F80DC0BEF1090FAB7BC3
:1017D000B4D8C1E71C760008034688B1027C012A10
:1017E00010D002224FF0010C002100685A740268E8
:1017F00042EA0C020260084683F811C0197470476F
:101800000120704702207047704700BF704700BF3B
:1018100003681A68D10711D55A68D2070ED55B68DC
:1018200010B55B0704460AD4FFF7EEFF01232268D8
:101830006374536823F00103536010BD7047FFF7D2
:10184000E5FF04236FF0040122685160637453685C
:1018500023F00103536010BD38B54FF47A730D4A7D
:10186000054611780C4AB3FBF1F31268B2FBF3F0B2
:1018700001F0E2FA08B90F2D01D9012038BD044664
:10188000024629464FF0FF3001F05EFA034B204636
:101890001D6038BD0000002008000020040000206A
:1018A000074A08B51368032043F01003136001F0E2
:1018B0002DFA0020FFF7D0FFFFF7CAF9002008BD7E
:1018C00000200240034A044B11681B780B4413604C
:1018D000704700BFF800002000000020014B18688E
:1018E000704700BFF800002038B50446FFF7F6FF48
:1018F000631C054602D0044B1B781C44FFF7EEFF27
:10190000401BA042FAD338BD00000020002800F0A0
:101910005A822DE9F0410368044682B0002B00F0A2
:1019200084801E0700F0C581DD0734D5636833F479
:10193000803203D0B3F5A02F40F09D819F4A5368B9
:1019400003F00C03042B1DD0536803F00C03082B89
:1019500015D06368B3F5803F00F07A81002B00F06A
:10196000AF81B3F5A02F00F00882944B1A6822F4DF
:1019700080321A601A6822F480221A606DE153687E
:10198000D803E6D58D4B1B68990303D56368002BFC
:1019900000F0778123689F071ED52369012B00F291
:1019A000198163691F2B00F21E81844B5A6812F063
:1019B0000C0F40F0DE80814B1B689D0703D5236927
:1019C000012B40F05E817D4A6169136823F0F803C2
:1019D00043EAC103136023681A0726D5A369012BC4
:1019E00000F21881002B00F004810122744B734E29
:1019F000C3F88024FFF772FF054605E0FFF76EFF8E
:101A0000401B022800F25181736A9B07F6D56D4B8B
:101A10006D4A1B68A2FB03235B0A019300BF019B75
:101A20005A1E0192002BF9D123685D073FD5E36868
:101A3000012B06D9052B04D040F211216348FEF793
:101A400075FF5E4BDA69D00040F1ED800025604EF5
:101A50003368D90540F11981E368012B0FD0002BC1
:101A600000F04481052B554B1A6A00F0938122F057
:101A700001021A621A6A22F004021A6204E04F4A52
:101A8000136A43F001031362FFF728FF41F288381D
:101A900006464A4F05E0FFF721FF801B404500F254
:101AA00004813B6A9B07F6D5002D40F06081E06918
:101AB000022800F2C380002857D0404D6B6803F025
:101AC0000C03082B00F04381022840F06B81236A4D
:101AD00033F4803304D04FF42E713C48FEF726FFD8
:101AE000636A33F4402223F4802110D0B2F5801FC2
:101AF0000DD0B2F5001F0AD0B1F5401F07D0B3F5E5
:101B0000601F04D040F2B9213048FEF70FFF0022D9
:101B10002B4B2A4E1A66FFF7E1FE054605E0FFF75C
:101B2000DDFE401B022800F2C08033689901F6D424
:101B3000226AB2F5803F00F0488101201F4D616AA2
:101B40006B6823F474130B431D4913436B600866E1
:101B5000FFF7C4FE044605E0FFF7C0FE001B0228A5
:101B600000F2A3802B689A01F6D5002002B0BDE8F0
:101B7000F0815A6802F00C02082A00F0E380236921
:101B8000002B00F0CE8001220D4B0C4E1A60FFF7A7
:101B9000A5FE054605E0FFF7A1FE401B022800F266
:101BA000848033689807F6D53368626923F0F803B8
:101BB00043EAC203336023680EE700BF001002400F
:101BC0000000424208000020D34D62105476000805
:101BD0000070004040F2A1118548FEF7A7FE63693E
:101BE0001F2B7FF6E2AE4FF4D1718148FEF79EFEC7
:101BF000DBE6804A804EC2F88034FFF76FFE054670
:101C000004E0FFF76BFE401B02284ED8736A9F0763
:101C1000F7D409E74FF4F1717548FEF787FEA36921
:101C2000002BE6D0E1E6DA69012542F08052DA6164
:101C3000DB6903F080530093009B08E76C4840F297
:101C4000AF21FEF773FEE06900287FF436AF8CE722
:101C5000694A136843F480331360FFF73FFE664E12
:101C6000054604E0FFF73AFE401B64281DD83368A0
:101C70009A03F7D58EE640F26D115D48FEF756FEE9
:101C80005CE6012002B0BDE8F081336843F4807364
:101C90003360FFF723FE07463368DA053FF5DCAE15
:101CA000FFF71CFEC01B6428F6D9032002B0BDE874
:101CB000F08140F267114E48FEF738FE236833E6A4
:101CC0004D4D2B6823F480332B602B6823F4802345
:101CD0002B60FFF703FE064604E0FFF7FFFD801BC5
:101CE0006428E2D82B689B03F7D453E6424E41F2B6
:101CF0008838336A23F001033362336A23F0040324
:101D00003362FFF7EBFD074604E0FFF7E7FDC01B7A
:101D10004045CAD8336A9807F7D4002D3FF4C7AEC0
:101D200025E0344A344E1360FFF7D8FD054604E041
:101D3000FFF7D4FD401B0228B7D833689907F7D4C2
:101D4000236849E65B68DE033FF519AF33E60128F7
:101D50003FF40CAF6B68226A03F48031914290D15A
:101D6000606A03F47013181A18BF0120FEE6224AB5
:101D7000D36923F08053D36199E603F18043A3F53F
:101D80003C331A6842F480221A601A6842F48032A6
:101D90001A6062E742F004021A621A6A42F0010213
:101DA0001A6271E60022134B1A66FFF797FD04468C
:101DB00005E0FFF793FD001B02283FF676AF2B6886
:101DC0009B01F6D4D1E601207047A16831F40033BD
:101DD00006D040F2CF210648FEF7A8FDA168226A8E
:101DE0000548436823F400330B434360A5E600BF76
:101DF000547600080000424200100240002800F023
:101E000006812DE9F041036804461B070D4686B0A4
:101E100000F0DE80022D00F2D580864A136803F0C0
:101E20000703AB420DD2136823F007032B43136063
:101E3000136803F00703AB4203D0012006B0BDE8EE
:101E4000F08123689F072CD55E0704D57A494A683C
:101E500042F4E0624A60180704D577494A6842F4C0
:101E600060524A60A16831F0800214D021F0200253
:101E7000902A10D021F04002A02A0CD021F01002AC
:101E8000C02A08D0F02906D040F25F316B48FEF737
:101E90004DFDA16823686848426822F0F0020A43B9
:101EA0004260D90726D56368022B00F2B680624AE9
:101EB000012B126800F0AD80022B00F0A480960781
:101EC000BBD55D4E41F28838726822F0030213439D
:101ED0007360FFF703FD074605E0FFF7FFFCC01B3B
:101EE000404500F2A1807368626803F00C03B3EB15
:101EF000820FF2D14F4A136803F00703AB4209D9AE
:101F0000136823F007032B431360136803F00703E0
:101F1000AB4292D12368580718D5E16831F480624A
:101F20000ED021F40072B2F5A06F09D0B1F5C06FE8
:101F300006D04FF469714148FEF7F8FCE168236868
:101F40003D48426822F4E0620A434260190718D50E
:101F5000226932F480630DD022F40073B3F5A06FD0
:101F600008D0B2F5C06F05D040F2AB313348FEF770
:101F7000DDFC226930494B6823F4605343EAC20315
:101F80004B6040F201242E4B06AD0FCB05E90F004C
:101F90002949ADF804404A6802F00C03082B1DD013
:101FA000284B254A284852682849C2F30312805C0E
:101FB000274AC34008681360FFF74EFC002006B0B4
:101FC000BDE8F08140F239311C48FEF7AFFC24E750
:101FD0004FF44E711948FEF7A9FC1BE7C2F3834387
:101FE00018336B44D20313F8103C1FD54A681549C7
:101FF000C2F3404201FB03F318326A4412F8142C76
:10200000B3FBF2F3CDE797013FF55BAF15E7012096
:10201000704792033FF555AF0FE740F2663107482E
:10202000FEF784FC636842E7032007E7094A02FBE6
:1020300003F3B6E700200240001002405476000887
:102040008C76000800127A006078000804000020F6
:102050000800002000093D00044B054A5B68054963
:10206000C3F30223CB5C1068D840704700100240D5
:102070000800002070780008044B054A5B68054999
:10208000C3F3C223CB5C1068D840704700100240F5
:1020900008000020707800082DE9F041036804462C
:1020A00013F0130F82B05ED0D80739D5636833F4CC
:1020B000407376D1484BDA69D1005AD4DA69474D7A
:1020C00042F08052DA61DB69012603F0805301930C
:1020D000019B2B68DA0551D53F4D2B6A13F44073F1
:1020E00011D0616801F440729A420DD0002001279E
:1020F0002B6A3B4A23F44071C2F84074C2F8400492
:10210000D807296259D46168334A136A23F44073AB
:102110000B4313621EB1D36923F08053D36123684C
:102120009A070FD5A16831F4404205D0B9212D4856
:10213000FEF7FCFBA16823682748426822F440426E
:102140000A43426013F010000AD0E26832F48003C0
:102150002CD1002020494B6823F4800313434B60AB
:1021600002B0BDE8F0816C211E48FEF7DFFB23685A
:102170009AE71A4D00262B68DA05ADD42B6843F494
:1021800080732B60FFF7AAFB07462B68DB05A3D4FF
:10219000FFF7A4FBC01B6428F7D9032002B0BDE8F9
:1021A000F08174210F48FEF7C1FB83E740F215115F
:1021B0000C48FEF7BBFBE268CBE7FFF78FFB41F271
:1021C0008838074604E0FFF789FBC01B4045E4D888
:1021D0002B6A9907F7D596E700100240007000407F
:1021E00000004242A076000810B53B4B86B0044682
:1021F0000FCB0DF1180C0CE90F0040F2012314F085
:10220000130FADF8043008D0022C0DD0102C2FD0B5
:10221000012C15D0002006B010BD4FF4CB712F4813
:10222000FEF784FB022CF1D1FFF726FF2C4B5B68F5
:10223000C3F3813301335B00B0FBF3F006B010BD94
:1022400040F2023226490B6A1A40B2F5817F33D040
:1022500003F44073B3F5007F31D0B3F5407FD9D19B
:102260004FF22443086810F4003018BF1846D2E734
:102270001B4B5A68186810F08070CCD0C2F38341B1
:1022800018316944D20311F8100C20D55B68154A47
:10229000C3F3404318336B4413F8143CB2FBF3F31D
:1022A00003FB00F00E4B5B685B02B4D40E4B4000A6
:1022B000A3FB00304008AEE74FF40040ABE749F61F
:1022C0004043486A10F0020018BF1846A3E7074BC6
:1022D00003FB00F0E6E700BF8C760008A07600085C
:1022E0000010024000127A00ABAAAAAA00093D0021
:1022F0002DE9F04FAC4B064698420F4683B013D001
:1023000003F5806398420FD003F5806398420BD0A9
:1023100003F58063984207D003F58063984203D0A9
:10232000BD21A248FEF702FB39688BB223B10B0C2A
:102330001B04002B00F01881BE219C48FEF7F6FA22
:102340007B68012B1AD9A3F11102012A16D99A1E12
:10235000012A13D9964923F400128A420ED001F5BE
:1023600080118B420AD0A1F570218A4206D0914A91
:10237000934203D0BF218D48FEF7D8FA396800296F
:1023800000F0CB804FF0000A874B5546DFF828B2AB
:10239000DFF828928A4A04E0013531FA05F000F0AE
:1023A000BC800124AC4034EA010004EA0108F3D106
:1023B0009E4212D0964210D082498E420DD001F535
:1023C00080618E4209D001F580618E4205D0CD2119
:1023D0007648FEF7ABFA7A4A734B7968122900F215
:1023E0009F80122923D8DFE811F0A800F300D7005E
:1023F00011012200220022002200220022002200DD
:10240000220022002200220022002200D000C90067
:10241000A0F58010814200F0908000F5702081428C
:1024200000F08B80A0F58010814200F08680B8F12A
:10243000FF0F00F28D8034464FEA850E0F20216891
:102440000AFA0EFC00FA0EFE21EA0E0141EA0C0126
:1024500021607968CC0040F18580DBF8184005F0F8
:10246000030C44F00104CBF81840DBF818404FEAA5
:102470008C0C04F001040194019C25F0030404F188
:10248000804404F58034D4F808E000FA0CF09E4251
:102490002EEA000013D0964200F0B180DFF824E16C
:1024A000764500F0A580DFF820E176450CBF4FF0BF
:1024B000030E4FF0040E0EFA0CFC40EA0C00A06074
:1024C000D9F80000CC034CBF40EA080020EA08001D
:1024D000C9F80000D9F804008C034CBF40EA08009A
:1024E00020EA0800C9F80400D9F80800CC024CBF63
:1024F00040EA080020EA0800C9F8080011F4001FAB
:10250000D9F80C102AD041EA0801C9F80C10396832
:10251000013531FA05F07FF444AF03B0BDE8F08F28
:102520002448814209D07FF673AF2848814204D005
:1025300000F5803081427FF47AAFB96802296FD804
:10254000002966D1B8F1FF0F4FF0040A7FF673AF90
:102550004FEA850EAEF1200E341D6FE721EA080127
:10256000C9F80C10396817E77B68012B7FF60AAFB2
:10257000A3F11102012A3FF6EAAEFFE6F968481E10
:10258000022857D801F10C0A51E7F968481E0228C1
:1025900060D801F1040A4AE7F968481E022851D8B8
:1025A00001F1080A43E700BF00080140D87600089F
:1025B0000000111000002210001002400004014031
:1025C000000C0140001001400014014000003110D7
:1025D000D7F80CA00AF1FF3102297FF628AFD521E8
:1025E0002048FEF7A3F9D7F80CA01F4B1F4A1EE79F
:1025F0004FF0020E0EFA0CFC40EA0C005FE74FF0C1
:10260000010E0EFA0CFC40EA0C0058E74FF0000AED
:102610000DE701294FF0080A0CBF3461746106E729
:10262000F7211048FEF782F9B968104A0E4B0029CD
:1026300088D0EEE7EA210B48FEF778F9F9680B4AF3
:10264000094B9FE7E3210748FEF770F9F968074A4D
:10265000054BA5E7DC210348FEF768F9F968034A52
:10266000014B96E7D876000800080140000C0140B5
:102670002DE9F04F544B054698420C4683B014D0D8
:1026800003F58063984210D003F5806398420CD024
:1026900003F58063984208D003F58063984204D024
:1026A0004FF4B4714948FEF741F9A3B2002B73D03F
:1026B000230C1B04002B40F081804FF0040A002003
:1026C00005EB0A0301274FF00F090246A046404ED2
:1026D000019347E00BF5806B5D4567D0DFF8F4B000
:1026E0005D4566D0DFF8F0B05D450ABF4FF0030BE3
:1026F0000AFA01F10BFA01F18C456FEA030115D1D9
:10270000D4F808C02CEA0E0CC4F808C0346824EAD7
:1027100003043460746824EA03047460B46824EA2F
:102720000304B460F46824EA0304F460FF2B99BF47
:10273000AC460446DDF804C0A0F12004DCF800300B
:1027400009FA04FE23EA0E030AFA04F42343CCF840
:102750000030EB681940E960013238FA02F300F109
:10276000040020D007FA02F313EA0803F4D022F0A1
:10277000030404F18044DFF850B004F5803402F023
:102780000301D4F808C0890009FA01FE5D450EEA8C
:102790000C0C9FD10021AFE740F269110B48FEF706
:1027A000C5F8002C89D103B0BDE8F08F07FA01F11C
:1027B000A2E74FF0020B0BFA01F19DE740F269111D
:1027C0000248FEF7B3F878E700080140D876000821
:1027D00000040140001001400014014038B50546D6
:1027E0000C4629B1AB681C4214BF0120002038BD43
:1027F0004FF4DA710148FEF799F8F3E7D87600084C
:1028000070B506460C46154661B1012D03D805B9D1
:102810002404346170BD40F2D5110548FEF786F8F6
:10282000346170BD4FF4EA710148FEF77FF8ECE7C0
:10283000D876000838B505460C4641B1E96804EA87
:10284000010324EA010444EA03442C6138BD4FF437
:10285000F6710248FEF76AF8F0E700BFD876000884
:10286000044A5169014200D1704708B5506101F036
:10287000CFFE08BD00040140002800F098800368E6
:102880004C4A70B59342044615D01432934212D08C
:10289000143293420FD0143293420CD0143293422C
:1028A00009D01432934206D01432934203D09A21B5
:1028B0004148FEF73BF8636833F010024DD1A3683E
:1028C00033F0400354D1E36833F0800358D12369D7
:1028D00033F4807202D0B3F5007F56D1636933F4CC
:1028E000806202D0B3F5006F58D1A36933F02003A2
:1028F00003D0A0213048FEF719F8E06930F44053C6
:1029000004D02D48A121FEF711F8E06921682B4A77
:102910002B4B0A44A3FB023212094FF4807E920033
:102920000D6822640022636825F47F5CA5682CF0A2
:10293000300C2B43E568234E2B432569E6632B437C
:1029400065692B43A5692B4343EA0C0303430B60E2
:10295000A4F820E01046A26370BDB3F5804FAED05E
:102960009B211548FDF7E2FFA36833F04003AAD08E
:102970009C211148FDF7DAFFE36833F08003A6D00D
:102980009D210D48FDF7D2FFA1E79E210A48FDF7E2
:10299000CDFF636933F48062A7D0A3E79F21064887
:1029A000FDF7C4FFA36933F02003A6D0A1E70120FF
:1029B000704700BF0800024010770008F8FFFDBF15
:1029C000CDCCCCCC0000024000283BD038B502680A
:1029D0001D4B04469A4216D014339A4213D0143336
:1029E0009A4210D014339A420DD014339A420AD02E
:1029F00014339A4207D014339A4204D0E521134885
:102A0000FDF794FF2268124912481144A0FB01010E
:102A10001068002320F001001060012009090E4D0C
:102A20008900136053609360D360216400FA01F160
:102A3000E563696023841846C4E90A33C4E90C33AA
:102A4000A36338BD012070470800024010770008DA
:102A5000F8FFFDBFCDCCCCCC000002402DE9F04109
:102A60004FF6FE751E46013BAB4204460F469046AC
:102A700035D894F82030012B3AD0012294F8213037
:102A800084F82020934205D0002384F820300220CF
:102A9000BDE8F081022284F8212000222568A2638B
:102AA000226C93402A6822F001022A60E26B536094
:102AB00063686E60102BE36A0BBFC5F80880AF60D7
:102AC000EF60C5F80C80B3B12B6843F00E032B60A8
:102AD0002B68002043F001032B60BDE8F08140F239
:102AE0006F110948FDF722FF94F82030012BC4D163
:102AF0000220BDE8F0812B6823F004032B602B68D3
:102B000043F00A032B60E3E71077000890F82120D8
:102B10000346022A06D0042100220120996383F88B
:102B20002020704701214FF4807C10B41A681C6C7F
:102B30000020A140146824F00E041460146824F0EE
:102B400001041460DA6B5160A3F820C010BC704718
:102B500090F821200346022A03D0042201209A6320
:102B60007047026810B511681B4821F00E01116012
:102B70001168824221F00101116021D017498A4277
:102B80001AD014318A421DD014318A421DD014311A
:102B90008A421DD014318A420CBF4FF480124FF08C
:102BA00080724FF480700E4C596B6260188429B1AA
:102BB00018468847002010BD1022F2E7084610BDD5
:102BC0000122EEE74FF48072EBE74FF48052E8E722
:102BD0004FF48032E5E700BF080002401C000240CD
:102BE00000000240042270B4C66B016C34680368B4
:102BF0008A4022421D681FD06A071DD51A689106B7
:102C000003D41A6822F004021A603E4A934250D05C
:102C10001432934260D01432934267D014329342FC
:102C20006AD0143293425CD0143293420CBF4FF4FA
:102C300080034FF080633DE002228A40224222D08E
:102C4000AA0720D51A68910606D401211A6822F035
:102C50000A021A6080F821102A4A934231D01432B5
:102C6000934241D01432934243D01432934235D030
:102C70001432934243D0143293420CBF4FF40013EA
:102C80004FF000731EE008228A40224217D02A0724
:102C900015D51A684FF4807422F00E021A600123D1
:102CA000026B03FA01F17160836304843AB170BC72
:102CB000104704231449C26A4B60002AF7D170BC44
:102CC000704702230021104C826A636080F8201054
:102CD000002AF4D070BC10474023EBE74FF40053B8
:102CE000F0E74FF48023E5E72023EBE74FF4806320
:102CF000E0E74FF40073E5E74FF48043DAE74FF481
:102D00000033DFE70800024000000240C31E042B2E
:102D100010B504460ED84FF6FF01094A2302D468C5
:102D200003F4E0630C40234343F0BF6343F40033F8
:102D3000D36010BD92210348FDF7F8FDEBE700BF1B
:102D400000ED00E0487700080F2A70B516460546EA
:102D50000C4637D80F2C30D81D4BDB68C3F3022349
:102D6000C3F10700042803F1040228BF0420062A47
:102D700018D94FF0FF32033B9A4026EA02064FF083
:102D8000FF31814024EA01049C40002D44EA0604FE
:102D90000BDB240105F16045E4B205F5614585F8DA
:102DA000004370BD00263346E9E70A4B05F00F05E6
:102DB0002401E4B22B441C7670BDAB210648FDF71C
:102DC000B5FDC9E7AA210448FDF7B0FDC2E700BF81
:102DD00000ED00E0FCEC00E048770008002808DB8C
:102DE000012300F01F01054A40098B4042F82030C2
:102DF0007047BE210248FDF799BD00BF00E100E029
:102E00004877000800280EDB01220949430900F039
:102E10001F00203302FA00F041F82300BFF34F8F68
:102E2000BFF36F8F7047CE210248FDF77FBD00BF13
:102E300000E100E0487700080138B0F1807F0FD250
:102E40004FF0E0234FF0F00C0022072110B4054CA6
:102E5000586184F823C010469A6110BC196170470C
:102E60000120704700ED00E020BF00BF704700BFA9
:102E70000122014B1A62704700000E42012838B54A
:102E800004460D4604D94FF4E9711C48FDF74EFD88
:102E90006B1E012B18D81A4B1A491A68012D22F003
:102EA00002021A60186820F0010044EA00041C6065
:102EB0000B6943F004030B611AD130BF114A136947
:102EC00023F00403136138BD40F2D3110B48FDF722
:102ED0002DFD0B4B0B491A6822F002021A6018688C
:102EE00020F0010004431C600B6943F004030B61F4
:102EF00040BFFFF7B9FFFFF7B7FFDFE780770008B4
:102F00000070004000ED00E0002800F0AA80036897
:102F1000554A10B5934204460FD0B3F1804F0CD000
:102F2000A2F59432934208D002F58062934204D015
:102F300040F213114D48FDF7F9FCA36833F010027D
:102F40000AD023F04002202A06D0402B04D04FF4B0
:102F50008A714648FDF7EAFC236933F4807202D097
:102F6000B3F5007F73D1A36933F0800321D194F8C6
:102F70003D3003F0FF023BB3022322683A4984F854
:102F80003D308A4213684ED0B2F1804F22D0A1F575
:102F900094318A421ED001F580618A421AD0A0691C
:102FA00023F080030343E16813606368D162936296
:102FB00021E04FF48B712D48FDF7B8FC94F83D30BB
:102FC00003F0FF02002BD7D1204684F83C20FDF708
:102FD000C7FDD1E7A16823F0700320690B4323F4F8
:102FE0004073A169034323F08003E0680B436168E9
:102FF0001360D06291620123536184F8463084F8F3
:103000003E3084F83F3084F8403084F8413084F812
:10301000423084F8433084F8443084F8453084F8F2
:103020003D30002010BDA06823F0700321690343E8
:1030300023F440730B43A16923F080030B43136017
:10304000E368D3626368936263691363D3E740F212
:1030500015110648FDF76AFCA36933F0800386D09A
:10306000A7E70120704700BF002C0140B877000897
:103070001E4A036810B5934204460FD0B3F1804F47
:103080000CD0A2F59432934208D002F580629342AC
:1030900004D040F2CF111648FDF748FC94F83D30BB
:1030A000012B1FD10222236884F83D20DA680F49E2
:1030B00042F001028B42DA6009D0B3F1804F06D0B2
:1030C0000C4A934203D002F58062934204D19A687D
:1030D00002F00702062A07D01A68002042F0010217
:1030E0001A6010BD012010BD002010BD002C014051
:1030F000B87700080004004090F83C30012B00F045
:1031000047810223012270B580F83C2080F83D30D1
:103110000B680446B3F5805F0D4600F00881B3F5F7
:10312000005F00F0238133F0300240F027812268F5
:10313000602B916821F47F4121F07701916000F0CC
:1031400069816FD8402B00F0298145D9502B3BD1A4
:10315000904B9A420FD0B2F1804F0CD0A3F594332C
:103160009A4208D003F580639A4204D041F271413B
:103170008948FDF7DBFB6B68B3F5004F09D033F0EE
:10318000020206D00A2B04D041F274418248FDF7B6
:10319000CDFBEE680F2E00F2968123686968186AED
:1031A00020F00A000143186A20F0010018629A69B1
:1031B00022F0F00242EA06129A6119629A6822F03D
:1031C000700242F057029A600023012284F83C30DA
:1031D00084F83D20184670BD202B02D01ED9302B1C
:1031E000F2D16C498A4211D0B2F1804F0ED0A1F5D4
:1031F00094318A420AD001F580618A4206D041F2B8
:10320000A4416548FDF792FB22682B68916821F084
:1032100070010B4343F007039360D5E733F01001CF
:10322000D2D1DEE7B3F5805F00F08880B3F5005FB0
:103230003DD1584B9A420FD0B2F1804F0CD0A3F53C
:1032400094339A4208D003F580639A4204D041F245
:103250005D415148FDF76AFBAB6833F4405304D03D
:103260004FF4A3514C48FDF761FB6B68B3F5004F79
:1032700009D033F0020206D00A2B04D041F261419A
:103280004548FDF753FBE8680F2800F20E812268DD
:10329000AB6891686D6821F47F412B430B4343EA8F
:1032A00000239360936843F4804393608CE7702B12
:1032B0008AD1384B9A420FD0B2F1804F0CD0A3F58F
:1032C00094339A4208D003F580639A4204D041F2C5
:1032D00045413148FDF72AFBAB6833F4405304D035
:1032E00041F248412C48FDF721FB6B68B3F5004FD4
:1032F00009D033F0020206D00A2B04D041F2494132
:103300002548FDF713FBE8680F2800F2C780226804
:10331000AB6891686D6821F47F412B430B4343EA0E
:1033200000239360936843F0770393604CE702684F
:10333000936823F47F4323F077039360154B9A42FD
:103340003FF442AFB2F1804F3FF43EAFA3F5943368
:103350009A423FF439AF03F580639A423FF434AFA9
:1033600041F23E410C48FDF7E1FA2DE7026893680F
:1033700023F47F4323F0770393605AE7402A3FF416
:10338000D6AE41F232410448FDF7D0FA2B68CEE6C2
:1033900002207047002C0140B87700084D4B9A423C
:1033A0000FD0B2F1804F0CD0A3F594339A4208D0DD
:1033B00003F580639A4204D041F291414648FDF7FB
:1033C000B5FA6B68B3F5004F09D033F0020206D0AE
:1033D0000A2B04D041F294413F48FDF7A7FAEE686A
:1033E0000F2E69D823686968186A20F00A00014323
:1033F000186A20F0010018629A6922F0F00242EA8D
:1034000006129A6119629A6822F0700242F047022D
:103410009A60D9E62F4B9A420FD0B2F1804F0CD070
:10342000A3F594339A4208D003F580639A4204D0FE
:1034300041F281412848FDF779FA6B68B3F5004FF6
:1034400009D033F0020206D00A2B04D041F28441A5
:103450002148FDF76BFAEE680F2E18D823686D68C7
:10346000186A20F01000186299691A6A21F47041F4
:1034700022F0A00242EA051241EA063199611A627D
:103480009A6822F0700242F067029A609CE641F26C
:1034900085411148FDF74AFAEE68DFE70E4841F230
:1034A0004A41FDF743FAE86831E70B4841F26241CF
:1034B000FDF73CFAE868EAE641F295410648FDF777
:1034C00035FAEE688EE741F275410348FDF72EFAB2
:1034D000EE6862E6002C0140B8770008704700BF34
:1034E000704700BF704700BF704700BF704700BF04
:1034F000036810B51A690446910702D5DA68920785
:103500005FD41A69500702D5DA68510746D41A69A0
:10351000120702D5DA6810072ED41A69D20602D52E
:10352000DA68D00618D41A69D10702D5DA68D2074A
:103530005DD41A69100602D5DA6811065FD41A69DB
:10354000520602D5DA68500661D41A69910602D58E
:10355000DA68920643D410BD6FF010010822196199
:103560002277DB69204613F4407F64D0FFF7BAFF6F
:10357000002223682277D6E76FF008010422196140
:103580002277DB692046990752D1FFF7A9FF204631
:10359000FFF7AAFF002223682277BEE76FF004013D
:1035A0000222196122779B69204613F4407F3CD1A7
:1035B000FFF796FF2046FFF797FF00222368227748
:1035C000A5E76FF002010122196102779B699B0751
:1035D00025D0FFF787FF00222368227791E76FF05D
:1035E00020022046BDE810401A6100F08BB86FF051
:1035F000010220461A61FFF771FF236899E76FF017
:10360000800220461A6100F07FF8236897E76FF088
:10361000400220461A61FFF769FF236895E7FFF72C
:103620005FFF2046FFF760FFD5E7FFF75BFFC4E7CA
:10363000FFF758FFAEE7FFF753FF2046FFF754FFB1
:1036400096E700BF38B52C4A0368044693420D46FE
:103650000FD0B3F1804F0CD0A2F59432934208D032
:1036600002F58062934204D040F286712348FDF750
:103670005DF92B6833F0300306D0402B04D040F2C4
:1036800087711E48FDF752F96B6833F0800328D12B
:1036900094F83C30012B2DD00222236884F83D2081
:1036A0005A682968144822F070020A4383429968D4
:1036B0005A6009D0B3F1804F06D0114A934203D02B
:1036C00002F58062934204D16A6821F080011143BF
:1036D00099600023012284F83C3084F83D2018468C
:1036E00038BD4FF4F1610548FDF720F994F83C30FE
:1036F000012BD1D1022038BD002C0140F077000809
:1037000000040040704700BF704700BF38B54268F2
:10371000344B04469A4255D8E36833F4005304D03E
:1037200040F654613048FDF701F9236933F48062B3
:1037300002D0B3F5C06F4FD14FF6F37360691842F2
:1037400039D1002837D02368E2681969256921F446
:10375000405111431961D968A26821F4B05121F098
:103760000C012A430A430243DA605A69A0691F49DF
:1037700022F4407202438B425A6129D0FEF76CFC5E
:103780000346626803EB8303920003EB8303B3FBFE
:10379000F2F34FF0640C16492068A1FB0342520972
:1037A0000CFB12331B013233A1FB0313120102EB9A
:1037B0005313836038BD0C4840F65661FDF7B6F8E8
:1037C0006069C0E740F653610748FDF7AFF8A3E72B
:1037D000FEF752FC0346D4E740F655610248FDF778
:1037E000A5F8A9E720AA440028780008003801407D
:1037F0001F85EB5100286ED038B583690446002B35
:1038000043D0026835498A4251D0A1F574418A42B9
:103810004DD001F580618A4249D04FF4B6713048ED
:10382000FDF784F8A369002B41D1A36833F48053DA
:1038300004D040F273112A48FDF778F894F83D302F
:1038400003F0FF02002B40D02423226884F83D308F
:10385000D368204623F40053D360FFF757FF0025B9
:103860002021236828461A6922F490421A615A6975
:1038700022F02A025A61DA6842F40052DA602564C2
:1038800084F83D1084F83E1038BD0368134A934213
:10389000CBD0A2F574429342C7D002F58062934226
:1038A000C3D040F271110E48FDF740F8BDE723F494
:1038B0000072B2F5807FB8D0B3F5007FB5D040F28A
:1038C0006D110748FDF732F8AFE7204684F83C2039
:1038D00000F082FCB8E70120704700BF00380140CB
:1038E0002878000840B30368144A10B59342044690
:1038F0000DD0A2F57442934209D002F58062934242
:1039000005D040F2A3210E48FDF710F823682422C9
:1039100084F83D20DA68204622F40052DA6000F094
:103920003DFD0023236484F83C3084F83D3084F866
:103930003E301846236310BD012070470038014017
:10394000287800082DE9F8431D4690F83D30202BDB
:1039500068D18846002940D01746002A3DD090F80B
:103960003C300446012B5DD0212301224FF0000999
:1039700080F83C20C0F8409080F83D30FDF7AEFF65
:10398000A3680646B3F5805FA784E7844DD0002383
:1039900084F83C30E38C9BB2002B58D02368691C20
:1039A0001ED11A681206FCD5B8F1000F35D018F8F0
:1039B000012B5A60E28C013A92B2E284E28C92B21C
:1039C000002AECD1681C36D11A685106FCD5202398
:1039D00084F83D300020BDE8F8830120BDE8F8837D
:1039E0001A681706E0D42DB1FDF778FF801B8542D9
:1039F0002368D4D220210025DA68032022F4D07273
:103A0000DA605A6922F001025A6184F83D1084F8A4
:103A10003C5084F83E10BDE8F88339F8022BC2F31D
:103A20000802C6E70220BDE8F8832369002BAED167
:103A3000C1469846ABE71A685206C8D4002DD9D0C3
:103A4000FDF74CFF831B9D422368BBD2D2E723685E
:103A5000B8E700BFF8B5044690F83D0020282DD106
:103A600051B34AB394F83C00012827D000254FF009
:103A7000010E4FF0210C606B114F124EE284A284B4
:103A80002564216284F83CE084F83DC01346226836
:103A9000C0E90A760C4E043245630663FEF7DEFF8A
:103AA0006FF04002236828461A6084F83C505A6937
:103AB00042F080025A61F8BD0120F8BD0220F8BD35
:103AC000C13C0008F13C0008053D000890F83E307C
:103AD000202B3FD100293BD0002A39D0F0B590F8F7
:103AE0003C300446012B83B036D000254FF0010E48
:103AF0004FF0220C81628285194F806B194E25632D
:103B000084F83CE02564134684F83EC00A462168E8
:103B1000C0E90A76144E043145630663FEF79EFF42
:103B20002846236801951A6801925A6884F83C5027
:103B30000192019ADA6842F48072DA605A6942F0BE
:103B400001025A615A6942F040025A6103B0F0BD65
:103B50000120704702207047022003B0F0BD00BF73
:103B6000B13D0008953D0008053D000810B503680B
:103B70000446596990F83D20212A06D0596994F8E5
:103B80003E20222A18D0002010BD0906F6D55A6919
:103B9000406B22F080025A6110B1FEF7B7FF236834
:103BA0002021DA6822F0C002DA6084F83D105969F9
:103BB00094F83E20222AE6D14A06E4D55A69A06B41
:103BC00022F040025A6110B1FEF7A0FF2368DA68C4
:103BD00022F49072DA605A6922F001025A61226B73
:103BE000012A03D1DA6822F01002DA6020220023D1
:103BF00084F83E200020236310BD00BF90F83E30C3
:103C0000202B42D1002942D0002A40D02DE9F0419A
:103C100090F83C300446012B82B03AD000250126B2
:103C20004FF02208816282851346806B0A46DFF8D6
:103C300084E02168DFF880C0204F266384F83C6070
:103C40002564043184F83E80C0E90AECC0E90C75B3
:103C5000FEF704FF236801951A6801925A6884F8F8
:103C60003C500192019ADA6842F48072DA605A6933
:103C700032435A615A6942F040025A61226BB242A1
:103C80000BD0012002B0BDE8F08102207047012076
:103C90007047022002B0BDE8F08100951A682846FE
:103CA00000925A680092009ADA6842F01002DA60D4
:103CB000E8E700BFB13D0008953D0008053D00085C
:103CC00008B50368406A1B6813F020030AD1026834
:103CD000C384536923F080035361D36843F04003E6
:103CE000D36008BD00F09CFC08BD00BF704700BF5A
:103CF00008B5406AFFF7FAFF08BD00BF704700BF74
:103D0000704700BF08B5406A0368596990F83D20C4
:103D1000212A0BD0596990F83E20222A16D0036C34
:103D200043F010030364FFF7EBFF08BD0906F1D56C
:103D300000222021C284DA6822F0C002DA6080F812
:103D40003D10596990F83E20222AE8D14A06E6D56E
:103D50000022C285DA6822F49072DA605A6922F091
:103D600001025A61026B012A03D1DA6822F01002C3
:103D7000DA602022002380F83E200363CFE700BFF3
:103D800008B50023406AC385C384FFF7B9FF08BDA7
:103D9000704700BF406A08B5036B012B02D0FFF7E4
:103DA000ADFF08BD818D4908FFF7F2FF08BD00BFD8
:103DB00008B50368406A1B6813F0200313D1202163
:103DC0000268C385D36823F48073D360536923F0FA
:103DD00001035361536923F04003536180F83E109F
:103DE000036B012B09D0036B012B02D000F028FCE0
:103DF00008BD818DFFF7CCFF08BDD36823F0100309
:103E0000D360F0E78368B3F5805F3BD0826A002B14
:103E100030D003685B6803F07F031370836A01335B
:103E20008362C38D013B9BB2C38553BB4FF0200C13
:103E3000026800B5D16883B021F02001D160D1685B
:103E400021F48071D160516921F00101516180F844
:103E50003EC0016B012920D10363D16821F010011C
:103E6000D1601168C90622D4818DFFF791FF03B09C
:103E70005DF804FB0369002BCBD103685B6813700A
:103E8000CCE7704703696BB90268836A5268C2F372
:103E9000080223F8022B8362C3E700F0D1FB03B0D2
:103EA0005DF804FB0368826A5B681370B6E70193F0
:103EB0001368019353680193019BD5E730B50368FC
:103EC00004461A6883B012F00F0FD9685D694ED1AD
:103ED000950602D58D0600F19080206B01280BD04D
:103EE000100602D50D0600F19280500602D54A0652
:103EF00000F1AB8003B030BDD006F1D5CD06EFD5D3
:103F0000002101911A6801925A680192019A5A6936
:103F100012F0400200F0D280A06B0268526892B2A8
:103F2000002AE7D0A58D9542E4D9E2858269202A4E
:103F300016D0DA6822F48072DA605A6922F001023F
:103F40005A615A6922F040025A61202284F83E20C8
:103F50002163DA6822F01002DA60FEF7D7FDA58D42
:103F6000E18D2046691A89B2FFF712FFC2E705F01A
:103F7000010501F490702843AFD0D00705D5C805DE
:103F800003D5206C40F001002064500730D54DB1BE
:103F9000206C40F002002064900703D5206C40F0B4
:103FA00004002064100707D501F02000284303D047
:103FB000206C40F008002064206C00289AD0900605
:103FC00009D58A0607D594F83E20222A03D1204637
:103FD000FFF718FF23685A69256C02F0400205F0CC
:103FE000080515433CD12046FFF78AFE256481E78A
:103FF0009007D7D5002DD1D1D4E790F83E30222BB1
:104000007FF478AF03B0BDE83040FFF7FBBE94F813
:104010003D20212A7FF46EAFA268B2F5805F6ED09A
:10402000226A511C216212785A60E28C013A92B2E3
:10403000E284002A7FF45EAFDA6822F08002DA6060
:10404000DA6842F04002DA6054E72021DA6820465C
:1040500022F04002DA6084F83D1000F0E1FA49E70E
:10406000DA6822F49072DA605A6922F001025A6129
:10407000226B012A03D1DA6822F01002DA600022F2
:10408000202184F83E1022635A69550612D55A69D8
:10409000A06B22F040025A6160B11E4B4363FEF7F1
:1040A00057FD00283FF426AFA06B436B03B0BDE87B
:1040B000304018472046FFF723FE1BE7E08DE18DD7
:1040C00080B289B200293FF415AFA18D081A81B2E0
:1040D00000293FF40FAF2025D86820F49070D860F5
:1040E000586920F00100586184F83E502263DA6874
:1040F000204622F01002DA60FFF74AFEFAE6226953
:10410000002A8DD1226A32F8021BC1F308015960DE
:1041100022628AE7813D000810B44FF000604FF43E
:104120001F040E4B0E4A196841F0010119605968CD
:104130000A405A601A680B4922F0847222F48032D5
:104140001A601A6822F480221A605A6822F4FE0269
:104150005A609C6010BC8860704700BF001002402D
:104160000000FFF800ED00E000234FF4E1310C22E5
:1041700010B50948094CC0E90113C0E90333C0E98F
:1041800005230460C361FFF735FB00B910BDBDE82E
:104190001040FCF7C9BB00BF0C02002000380140F2
:1041A00000234FF4E1310C2210B50948094CC0E955
:1041B0000113C0E90333C0E905230460C361FFF7BD
:1041C00019FB00B910BDBDE81040FCF7ADBB00BF46
:1041D000500200200044004070B50024634A036888
:1041E00088B093420546CDE90444CDE9064404D0A5
:1041F0005F4A934259D008B070BD5E4B5E489A69E1
:104200005E4E42F480429A619A6902F480420092C2
:10421000009A9A6942F004029A619B694FF4007215
:1042200003F004030193019903210223079104A9D8
:10423000CDE90423FEF75CF84FF4806200234E487A
:1042400004A9CDE904230694FEF752F880234C4AD2
:104250003046C6E90024C6E90444C6E90644B46011
:10426000F360FEF709FB002876D10023802210219D
:10427000444CAE63C4E90232C4E90433C4E90633F2
:10428000414B2046756261602360FEF7F5FA002815
:104290005FD10022252011466C636562FEF754FD54
:1042A0002520FEF79BFD08B070BD324B3248DA691D
:1042B000364E42F40032DA61DA6902F400320292D8
:1042C000029A9A6942F004029A619B69042203F0FF
:1042D00004030393039903210223079104A9CDE961
:1042E0000423FEF705F808220023234804A9CDE99A
:1042F00004230694FDF7FCFF8023254A3046C6E9D7
:104300000024C6E90444C6E90644B460F360FEF73D
:10431000B3FA20BB0023802210211E4CAE63C4E9F7
:104320000232C4E90433C4E906331B4B20467562EC
:1043300061602360FEF7A0FAA0B900222620114692
:104340006C636562FEF700FD2620FEF747FD08B0AE
:1043500070BDFCF7E9FA9CE7FCF7E6FA85E7FCF7A5
:10436000E3FAD7E7FCF7E0FAE7E700BF00380140DF
:10437000004400400010024000080140FC00002002
:104380005800024040010020440002408401002007
:104390006C000240C8010020800002401A4A0368F5
:1043A00010B59342044603D0184A934216D010BD6C
:1043B00002F5584293694FF4C06123F4804393613E
:1043C0001348FEF755F9A06BFEF7FEFA606BFEF797
:1043D000FBFABDE810402520FEF714BD02F5E632D9
:1043E000D3690C2123F40033D3610948FEF740F967
:1043F000A06BFEF7E9FA606BFEF7E6FABDE8104045
:104400002620FEF7FFBC00BF0038014000440040FA
:10441000000801400022174B00B5596983B041F0F4
:10442000010159615B69114603F0010301930E20FC
:10443000019BFEF789FC0E20FEF7D0FC00220F2026
:104440001146FEF781FC0F20FEF7C8FC0022102069
:104450001146FEF779FC1020FEF7C0FC0022112067
:104460001146FEF771FC112003B05DF804EBFEF776
:10447000B5BC00BF0010024010B584B002F0D8F8FF
:1044800068B300BF02F0BCFA012000F001F9174840
:10449000FDF7A2F9C820FDF727FA00F009FF642014
:1044A000FDF722FA01F058FD01F06AFC01F0A6FBCD
:1044B0004FF4967001F04AFB0D48FEF7D9FD00F06D
:1044C000CFF800220B4C0C480C49CDE901040091B7
:1044D000104611460A4B02F01FF904B010BD024607
:1044E0000146084B02F018F9CCE700BF9C00002001
:1044F000B000002094780008A0780008AC7800088C
:1045000088780008787800083A4B10B51A785AB1C4
:1045100000244FF496701C7001F012FB22462146D5
:104520002046354B02F0F8F802F0AAFA01F01CFC24
:1045300000B910BD002001F01DFC00F0C3F800F030
:10454000EBFF01F03BFC00284FD101F019FC01F01A
:1045500097FA01F029FB0028EBD00022274B1146E7
:10456000104602F0D9F8002000F092F8002001F087
:10457000EDFA01224FF480512148FEF741F9012163
:104580000846FEF77BFCFDF78BF9FCF765F9FCF7B5
:10459000CFF9FFF73FFFFFF7E7FD1A48FDF71CF9DA
:1045A00001F0DAFCC820FDF79FF900F081FE012040
:1045B00000F06EF86420FDF797F900F051F802F072
:1045C0001FFA4FF4967001F0C1FA6420FDF78CF9E0
:1045D000FCF78CFA0C48FEF74BFDBDE810400022BA
:1045E0000A4B1146104602F097B801F0C9FB01F0E2
:1045F00005FBAAE794020020B4780008E0780008E0
:10460000000C01409C000020B0000020F878000859
:10461000012804BF014B1870704700BF94020020AE
:10462000054A0368934203D0044A934202D070477C
:1046300002F034BA01F0F4BF0038014000440040F9
:10464000054A0368934203D0044A934202D070475C
:1046500002F03ABA01F0EABF0038014000440040DD
:1046600008B5084802F0F2FA6420FDF73DF9064863
:1046700002F0ECFA6420FDF737F9BDE80840034882
:1046800002F0E4BA0C7900081479000824790008D3
:10469000012808B509D0002220210848FEF7B0F80B
:1046A0000022074B1A711A6008BD024620210348F8
:1046B000FEF7A6F87822024B1A7008BD000C0140E4
:1046C0009802002038B5274C22781AB1013AD5B2A9
:1046D0002570F5B1637853B15A1ED2B20A2A6270BE
:1046E0003AD0062A10D003F0F703012B0CD0A378A0
:1046F0001BB1013BDBB2A3709BB1E3781BB1013B63
:10470000DBB2E370BBB138BD174802F09FFAA37863
:10471000EEE72A4620211548FEF772F8257125603C
:10472000EBE70223012220211048E370FEF768F82E
:1047300078232370E1E70E4802F088FA6420FDF741
:10474000D3F80C4802F082FA6420FDF7CDF8BDE8FA
:104750003840094802F07ABA084802F077FAA3789C
:10476000C6E700BF980200205C790008000C0140F9
:104770000C790008147900082479000848790008A9
:104780002DE9F04FBD498BB0054602F067FA0028CD
:1047900000F0508101220E23B94C2271637028462B
:1047A000B84902F05BFAD8B100222021B648FEF7E2
:1047B00027F800224FF400332846B44922712360C1
:1047C00002F04CFA48B100222021AF48FEF718F859
:1047D00000224FF40033227123600BB0BDE8F08F4C
:1047E0002846AA4902F03AFA07460028EBD1267972
:1047F000012EF2D12846A64902F030FA0028ECD06A
:10480000C389427B5BBA9BB243EA0243A14A93420B
:1048100000F07482A2F5C022A2F5C062934200F0BB
:104820006F8202F5E02202F2F752934200F06A82B0
:1048300002F53B3202F2FF32934200F06882A2F5A9
:104840003F32EF3A934200F06782A2F55F22A2F274
:104850000C62934200F0658202F54E2202F60B7262
:10486000934214BF072306230793438A427C5BBA13
:104870009BB253EA024300F03F82874A934240D002
:10488000A2F57F320C3A934200F03F8202F5DF221C
:1048900002F58262934200F03D82A2F53F22A2F52A
:1048A0008072934200F03B8202F53F2202F207122F
:1048B000934200F03982A2F53B320B3A934200F06A
:1048C0003582023A934200F03382A2F51022053A73
:1048D000934200F02F82714A934200F02D82A2F59C
:1048E0008022A2F5FE72934200F02882A2F5734264
:1048F000FE3A934200F02482694EB34214BF0D2663
:104900000C26437DA3F13001C9B2092900F285814B
:1049100001EB81014900C9B2837DA3F13007FFB2E9
:10492000092F06D9A3F14102052A00F2BF81373BC6
:10493000DFB2037EA3F1300C5FFA8CFCBCF1090FEF
:1049400000F25B810CEB8C0C4FEA4C0C5FFA8CFC98
:10495000437EA3F130085FFA88F8B8F1090F07D950
:10496000A3F14102052A00F29781373B5FFA83F8F1
:10497000C37EA3F13005EDB2092D00F2308105EBC5
:1049800085056D00EDB2037FA3F130095FFA89F967
:10499000B9F1090F07D9A3F14102052A00F272818A
:1049A000373B5FFA83F9837FA3F1300E5FFA8EFE07
:1049B000BEF1090F00F202810EEB8E0E4FEA4E0E91
:1049C0005FFA8EFEC37FA3F1300A5FFA8AFABAF16A
:1049D000090F08D9A3F14102052A00F26F81A3F162
:1049E000370A5FFA8AFA90F82120A2F13003DBB28D
:1049F000092B00F2D180C3EB431203EB8203DB00EF
:104A00009BB290F822B0ABF13002D2B2092A16D98B
:104A1000ABF14102052A0FD9ABF16102052A00F280
:104A20006881ABF15702D2B202EB820202EB820242
:104A3000920009E0124CB2E6ABF13702D2B202EBBF
:104A4000820202EB8202920090F823B01344ABF191
:104A50003002D2B2092A9BB227D9ABF14102052A12
:104A600020D9ABF16102052A00F23E81ABF1570279
:104A7000D2B202EB820252001AE000BF7079000845
:104A8000980200207C790008000C01408879000819
:104A9000947900086E7553006E614A00706553008A
:104AA00063654400ABF13702D2B202EB82025200DE
:104AB00090F824001A44A0F13003DBB2092B92B223
:104AC00062D89BB213449BB2A3F5FA62632A54D80E
:104AD000002E52D00D2E50D03944C9B24A1E1E2A83
:104AE0004BD808EB0C00C0B2172846D809EB0502DA
:104AF000D2B23B2A41D80AEB0E05EDB23B2D3CD891
:104B0000ADF82630079B8DF825608DF82430002302
:104B100065F30703002562F30F2360F3174361F386
:104B20001F6388480893FEF7DDFE2A462021864849
:104B30002570FDF765FE08A801F026F908A801F028
:104B400051FA08A801F05AF89DF820109DF821307C
:104B50009DF82220CDE904319DF825009DF82330F1
:104B6000BDF82610CDE90232CDE900102A462946CB
:104B70002846764B01F0D0FD01E00A236370012343
:104B800063710BB0BDE8F08FA0F14103052B70D825
:104B9000A0F13703DBB295E7A2F14103052B60D901
:104BA000A2F16103052B00F29780573AD2B2C2EB13
:104BB000421302EB8303DB009BB222E7A3F1410225
:104BC000052A46D9A3F16102052A00F28280573BEB
:104BD00003EB83034FEA430E5FFA8EFEF2E6A3F186
:104BE0004102052A3FD9A3F16102052A7FD8573B2C
:104BF00003EB83035D00EDB2C5E6A3F14102052A94
:104C00001FD9A3F16102052A6BD8573B03EB83033D
:104C10004FEA430C5FFA8CFC9AE6A3F14102052AA5
:104C200009D9A3F16102052A59D8573B03EB830345
:104C30005900C9B270E6373B03EB83035900C9B290
:104C40006AE6373B03EB83034FEA430C5FFA8CFCC5
:104C50007EE6373B03EB83034FEA430E5FFA8EFE9B
:104C6000B0E6373AA2E7373B03EB83035D00EDB2D2
:104C700089E6A0F16103052B96BFA0F15703FF233E
:104C8000DBB21FE7A3F16102052A96BF573B4FF045
:104C9000FF095FFA83F986E6A3F16102052A96BF50
:104CA000573B4FF0FF085FFA83F861E6A3F161021A
:104CB000052A96BF573BFF27DFB23AE6A3F1610210
:104CC000052A96BFA3F1570A4FF0FF0A5FFA8AFA46
:104CD00089E64FF0F60E75E64EF2184391E6F6219E
:104CE0001AE64FF0F60C33E640F6F612E0E6F6254B
:104CF00049E646F29C32A7E61E4602E60797B4E56F
:104D00000796B2E502230793AFE50226F9E50323F0
:104D10000793AAE50326F4E504230793A5E50426F3
:104D2000EFE505230793A0E50526EAE50626E8E575
:104D30000726E6E50826E4E50926E2E50A26E0E599
:104D40000B26DEE50C020020000C0140A4790008CF
:104D5000F0B5002406462E4D85B00022402128469D
:104D6000FDF74EFD06FA04F212F0800218BF012290
:104D700080212846FDF744FD0134012240212846C8
:104D8000FDF73EFD082CE8D1002240212048FDF728
:104D900037FD012280211E48FDF732FD012240210E
:104DA0001B48FDF72DFD8026002701231848694682
:104DB000C7240546CDE900670293FDF799FA02E0A2
:104DC00013F0FF0419D080212846FDF707FD631E6C
:104DD0000028F5D180261127022369460C480124BA
:104DE000CDE900670393FDF783FA002240210848CC
:104DF000FDF706FD204605B0F0BD802611270223F1
:104E000069460348CDE900670393FDF771FAECE7C3
:104E1000000C0140000000002DE9F043012287B0A2
:104E200080211248FDF7ECFC012240210F48FDF7DC
:104E3000E7FC002280210D48FDF7E2FC0B48002230
:104E40004021FDF7DDFC8020FFF782FFB0B9084E5E
:104E50000022084B11461046326001F05DFC012231
:104E6000054B1A7007B0BDE8F08300BF000C01408D
:104E7000A0020020EC7900089F020020E520FFF747
:104E800067FF0028E3D001228021CD48FDF7B8FC60
:104E900001224021CA48FDF7B3FC00228021C84806
:104EA000FDF7AEFCC64800224021FDF7A9FC812099
:104EB000FFF74EFF0028CAD01420FCF715FD4FF075
:104EC00080084FF000090123BD4802A908240025ED
:104ED0000646CDE902890493FDF70AFA0122402132
:104EE0003046FDF78DFC80213046FDF777FC034608
:104EF0006D00012BEDB208BF01354FF000024FF0FD
:104F00004001304604F1FF3408BFEDB2FDF778FCF4
:104F100014F0FF04E2D1022111238022A848059158
:104F200002A9CDE90223FDF7E3F980212246A44836
:104F3000FDF766FC22464021A148FDF761FC4021B7
:104F400001229F48FDF75CFC224640219C48FDF76A
:104F500057FC012280219A48FDF752FC0121802252
:104F600000230491964802A9CDE902230827FDF702
:104F7000BFF9934E2D02012240213046FDF740FC3F
:104F800080213046FDF72AFC03466400012BE4B281
:104F900008BF01344FF000024FF04001304608BF17
:104FA000E4B2FDF72DFC7A1E12F0FF07E3D1802258
:104FB0001123CDE902230223814802A90593FDF7BD
:104FC00097F9012280217E48FDF71AFC0122402139
:104FD0007B48FDF715FC3A4640217948FDF710FC67
:104FE0003A4680217648FDF70BFC254401224021FA
:104FF0007348FDF705FCADB2012280217048FDF732
:10500000FFFB25F00300FBF727FB00226D4BFBF7AE
:10501000A7F800226C4BFBF7A3F800226B4BFBF7C1
:10502000CDF9FBF783FBFBF7F7FB0346684E03EB79
:1050300083035B000A207380FCF756FC0122802169
:105040005F48FDF7DDFB402101225D48FDF7D8FBFD
:105050003A4680215A48FDF7D3FB59483A46402149
:10506000FDF7CEFB8020FFF773FE00283FF4F0AE83
:10507000E320FFF76DFE00283FF4EAAE0122802115
:105080004F48FDF7BDFB402101224D48FDF7B8FB1D
:105090003A4680214A48FDF7B3FB49483A46402149
:1050A000FDF7AEFB8120FFF753FE00283FF4D0AEA2
:1050B0003C20FCF719FC0121802200230491404888
:1050C00002A9CDE902230824FDF712F93C4D012283
:1050D00040212846FDF794FB7A0080212846D7B26C
:1050E000FDF77CFB0346012B08BF01374FF00002A0
:1050F0004FF04001284604F1FF3408BFFFB2FDF72E
:105100007FFB14F0FF04E2D1802211232C48CDE96B
:1051100002234FEA07280223074602A90593FDF759
:10512000E7F8802138462246FDF76AFB22464021F7
:105130003846FDF765FB402138460122FDF760FB4C
:10514000224640213846FDF75BFB0122802138468C
:10515000FDF756FB012308258022049300233846DF
:105160000DEB0501CDE90223FDF7C2F80122402134
:105170003846FDF745FB80213846FDF72FFB0346F7
:105180006400012BE4B208BF01344FF000024FF07D
:105190004001384605F1FF3508BFE4B2FDF730FBAA
:1051A00015F0FF05E2D10223802205931123044864
:1051B00002A9CDE90223FDF79BF80122802109E035
:1051C000000C01400000F03E00405F40000018402D
:1051D000A00200202A48FDF713FB402101222848A5
:1051E000FDF70EFB2A4640212548FDF709FB2A461C
:1051F00080212348FDF704FB44440122402120483C
:10520000FDF7FEFAA4B2012280211D48FDF7F8FA4D
:1052100024F00300FBF720FA00221A4BFAF7A0FF54
:1052200013A3D3E90023FAF79BFF13A3D3E90023C9
:10523000FBF7C4F80022144BFAF792FFFBF776FA5B
:10524000FBF7C4FA044671882A4600910F4B2946A1
:105250003480284601F060FAB6F900400C4B2A462B
:1052600029462846009401F057FA0A4B1D70F9E5CB
:10527000D7A3703D0AF76540CDCCCCCCCC6C474071
:10528000000C01400000F03E00002440D0790008EE
:10529000E07900089F020020014BB3F9000070473D
:1052A000A0020020014B5888704700BFA0020020D8
:1052B0002DE9704380221123022484B0694691486D
:1052C000CDE900230394FDF713F81123402269462A
:1052D0008C48CDE900230394FDF70AF80122402110
:1052E0008848FDF78DFA012280218648FDF788FA6B
:1052F000012280218348FDF783FA01224021814861
:10530000FDF77EFA002280217E48FDF779FA7D487C
:1053100000224021FDF774FA8020FFF719FD58B9EB
:10532000002201247848114604701046774B04B0DF
:10533000BDE8704301F0F0B9E720FFF709FD002850
:10534000EED0012280216F48FDF75AFA0122402158
:105350006C48FDF755FA002280216A48FDF750FAA3
:10536000684800224021FDF74BFA8120FFF7F0FC4E
:105370000028D5D04FF080084FF000090123614884
:105380006946082400250646CDE900890293FCF70A
:10539000AFFF012240213046FDF732FA802130462E
:1053A000FDF71CFA03466D00012BEDB208BF013575
:1053B0004FF000024FF04001304604F1FF3408BFC7
:1053C000EDB2FDF71DFA14F0FF04E2D10220112323
:1053D0008022694603904B48CDE90023FCF788FF03
:1053E000012280214748FDF70BFA40210122454860
:1053F000FDF706FA224640214248FDF701FA012254
:1054000080214048FDF7FCF9402101223D48FDF78D
:10541000F7F9224680213B48FDF7F2F93948224648
:105420004021FDF7EDF98020FFF792FC00283FF4C2
:1054300077AFE620FFF78CFC00283FF471AF05F052
:10544000380040F00200FFF783FC00283FF468AF0B
:10545000224680212B48FDF7D3F90122402129481B
:10546000FDF7CEF9284D012280212648FDF7C8F925
:105470000A202C70FCF738FA012280212148FDF720
:10548000BFF9402101221F48FDF7BAF922468021C9
:105490001C48FDF7B5F91B4822464021FDF7B0F93D
:1054A0008020FFF755FC20B3FE20FFF751FC00B32E
:1054B000224680211348FDF7A3F90122402111481B
:1054C000FDF79EF9012280210E48FDF799F90F2082
:1054D000FCF70AFA2246214620460D4B2C7001F0BB
:1054E0001BF96420FCF700FA04B0BDE87043FFF735
:1054F00093BC0022074B1146104601F00DF9012321
:105500002B70EEE7000C01409F020020087A000893
:105510001C7A0008307A000810B50E4B1A783AB998
:105520000D4C23780133DBB2092B0CD8237010BD4E
:105530000022094C1A702270FFF7BAFE237801335B
:10554000DBB2092BF2D900232370BDE81040FFF72E
:1055500063BC00BF9F0200209E0200202DE9F04F97
:105560008DB02822002102A801F0FAFA0020B44BE5
:105570000546DE79B34A002E08BF0A2692F800805D
:105580009C7AB14A93F809C002EB041414F808E0BD
:10559000197A5C7B02EB061616F8086002EB011123
:1055A00002EB041402EB0C1212F808C0DF7A1A7B2B
:1055B00066F307008DF810608DF82060A34E14F894
:1055C000084006EB071706EB02164FEACE12D2B2DE
:1055D0004FEA5E0E17F808708DF815206EF3070578
:1055E000224316F8086062F30F2511F8081067F3DC
:1055F000174566F31F650195CD018DF825204A08F2
:10560000E9B20C4362F30F2064F317406CF31F60A0
:10561000B8F1070F8DF816708DF826708DF813C04D
:105620008DF823C08DF817608DF814E08DF824E014
:105630008DF812108DF8224000908DF811208DF811
:1056400021208DF8276000F20B81814A197812F829
:10565000084002EB08052E7C587802EBC101E501F9
:10566000640811F8087044EA06147A4902EBC00095
:10567000E4B210F8080045EA87058DF818408DF867
:10568000084001EB080494F8504045EAD005400179
:10569000C0B293F803C0EDB28DF80A0040EA94005E
:1056A000A4018DF819508DF809508DF81A005F7912
:1056B00018799E799D7864B2BCF1000F00F0BD802E
:1056C0004FEACC0C02EBC00302EB080010F80C0010
:1056D00013F8083044EA400440008DF80B0001EB59
:1056E000080090F848001B01DBB28DF81B4043EA2C
:1056F0005004C0018DF80C308DF81C4040B2002FD2
:1057000000F05C81FB0002EBC60601EBC5051A4404
:10571000414412F8082091F8404015F8081016F896
:1057200008308DF80F1040EA8201920041EAD3015F
:1057300042EAD3025B01DBB28DF81D1043EA04019B
:105740008DF81E108DF80D208DF80E304FF0000BE7
:105750004FF0010A404E414DC6F88CB10DF1FF39B2
:10576000C6F890A1082499F809C099F8197099F819
:10577000290019F8011F99F8102099F820304FEAF4
:10578000DC1EC5F898E14FEAD71EC5F894E14FEA50
:10579000D01EC5F89CE14FEAD11EC6F880E1013C5D
:1057A0004FEAD21EC6F884E14FEA4C0C4FEAD31EF2
:1057B0007F004000490052005B0014F0FF04C6F86F
:1057C000A8E15FFA8CFCC5F8BCA1FFB2C0B2C9B2B7
:1057D000D2B2DBB2C5F8BCB1D1D189F820300DF11D
:1057E00007034B4589F808C089F8187089F8280024
:1057F00089F8001089F81020B4D108F00103C6F828
:10580000B431C8F34003C6F8B831C8F38003C6F812
:10581000BC310C4AC8F3C003C5F8A031C6F88CA14E
:10582000C6F8904113780133DBB20F2B8ABF054BCA
:1058300013701C700DB0BDE8F08F4FF0580C41E7AD
:10584000A8020020A5020020D47B0008A47D000847
:10585000E47A00087C7B000800802142000021429D
:1058600000F07EFAA8F108047E49E4B247780A19EC
:10587000857892F838207C4B092F8DF81820A3FBEF
:105880000702A3FB050398BF58204FEAD20202EBA0
:10589000820688BFD000A7EB4606744AF6B202EB38
:1058A000C606375D0E1996F848601044005D760014
:1058B0008DF81A607E08092D46EA00164FEAC710D7
:1058C0008DF80A0094BF582067484FEAD30303EBD2
:1058D0008303A5EB430388BFA0FB0550DBB288BF61
:1058E00000F0F80002EBC3031B5D0244105D21448D
:1058F00091F84020590841EA0011DB015C485FFA49
:1059000083F893008DF81C3005788DF809608DF8C8
:105910000B108DF80C80FFF7BFFC0646FFF7C2FCAA
:10592000544B083D1C78EDB2002C49D1002E66DBAB
:105930006421514BB6B2A3FB0623580901FB10604A
:10594000494A80B2A2FB0010A2FB0612D20802EB69
:105950008202A6EB4206C3F34713C0F3C707F6B2B1
:10596000002B45D018462346444A02EBC000405D58
:1059700002EBC60143EA500302EBC700405D2A4434
:1059800043EAD0138DF80D3092F86830495D1B0959
:105990008DF81E3043EA511343EA4003C9008DF8E5
:1059A0000E308DF80F10002C52D192F87030304A22
:1059B000DB0892F800808DF81F30C7E65823A2E676
:1059C00064212D4BA3FB00235F0901FB1707264A27
:1059D000BFB2A2FB0717A2FB0012D20802EB8202A1
:1059E000A0EB4202C3F34713C7F3C707D6B213B9FC
:1059F0000B20224AB9E71846204A0023B5E764275E
:105A00007142DFF864C01C4889B2A0FB0130ACFBD6
:105A10000163DB0803EB8303A1EB4306430907FBA8
:105A20001317164ABFB2ACFB0737531993F860102F
:105A3000C0F3471048EA911300288DF80C304FEA64
:105A4000810308BF0C20F6B2C7F3C707DBB28CE7AF
:105A500092F87830064ADB0892F800808DF81F3003
:105A600074E600BF7C7B0008CDCCCCCCE47A000887
:105A7000A5020020B80200201F85EB51647A0008BF
:105A800090F802C02B4A70B5A2FB0C612A4BC908E2
:105A9000D97101EB8101ACEB4101197241786425A8
:105AA000A2FB016C4FEADC0C83F809C00CEB8C0CF8
:105AB000A1EB4C0C83F80AC001784FF00B0EA2FB4F
:105AC000016C4FEADC0C83F80BC00CEB8C0CA1EBE7
:105AD0004C0C83F80CC0C178184CA2FB016C4FEA47
