:020000040800F2
:10000000400B0020A1010008D74C0008114900084E
:10001000D54C0008DF0E0008E95900080000000078
:10002000000000000000000000000000295100084E
:100030004310000800000000174D0008B9530008E5
:10004000BB010008BB010008BB010008DD4F000830
:10005000BB010008BB01000809150008BB0100082E
:10006000BB010008BB010008BB010008BB01000880
:10007000BB010008BB010008011000080D100008BA
:10008000BB010008BB010008BB010008BB01000860
:10009000BB010008BB010008BB010008BB01000850
:1000A000BB010008BB010008BB010008BB01000840
:1000B000BB010008BB0100086D540008BB0100082B
:1000C000BB010008BB010008BB010008BB01000820
:1000D000BB01000859590008BB010008BB0100081A
:1000E000BB010008BB010008BB01000800F002F8DA
:1000F00000F047F80AA090E8000C82448344AAF17B
:100100000107DA4501D100F03CF8AFF2090EBAE878
:100110000F0013F0010F18BFFB1A43F0010318473B
:10012000B46B0000D46B0000103A24BF78C878C1CB
:10013000FAD8520724BF30C830C144BF04680C60ED
:10014000704700000023002400250026103A28BF35
:1001500078C1FBD8520728BF30C148BF0B60704739
:10016000642900F07180002070471FB59DE80300EE
:1001700000F044FC00F036FA1FBD10B500F09BFA09
:1001800010BD00F0FEFA1146FFF7EFFF05F094FDF9
:1001900000F002FC03B4FFF7F0FF03BC00F0C0FD69
:1001A0000948804709480047FEE7FEE7FEE7FEE70B
:1001B000FEE7FEE7FEE7FEE7FEE7FEE70448054947
:1001C000054A064B7047000025540008ED00000862
:1001D00040030020400B0020400700204007002083
:1001E0000FB4044910B503AA029800F0CDF910BC71
:1001F0005DF814FB3402002070B504468569006880
:10020000C10601D5302600E02026C00707D070BD0A
:10021000D4E9012130469047206A401C20626D1EBF
:10022000F6D570BD70B5044685690078C00707D162
:1002300070BDD4E9012120209047206A401C206233
:100240006D1EF6D570BD00002DE9F0410646002474
:1002500010687529314616A510D0AFF3008000282C
:1002600002DA404213A507E031688A0701D512A5DA
:1002700002E0490704D511A5012401E0AFF3008095
:1002800000210A2206F1240709E0B0FBF2FCB0FBD2
:10029000F2F302FB1C00303078541846491C002849
:1002A000F3D123462A463046BDE8F04100F012B9AA
:1002B000000000002D0000002B00000020000000C6
:1002C0002DE9F05F894604464FF0000ADFF824B1BB
:1002D000FB44C0F820A02046E168884700287DD074
:1002E000252806D0D4E901219047206A401C2062CD
:1002F000F1E700255F462046E1688847202806464A
:1003000007DB312E05D2B81910F8200C08B10543CF
:10031000F1E7A80701D525F00405C4F81CA00027C3
:10032000C4F818A02A2E09D0304605F0B1FC38B325
:1003300004EB8708303EC8F8186019E059F8041B30
:10034000204604EB87029161E1688847012F064649
:1003500018D1E069002820DA25F020051DE0D8F842
:10036000180000EB800006EB40003038C8F8180099
:100370002046E1688847064605F08AFC0028EED151
:10038000012F0AD02E2E08D12046E16888477F1C15
:100390000646022F45F02005C4DBA069002803DAD9
:1003A000404245F00105A061E80701D025F01005A5
:1003B000A6B1A6F14100192802D8203645F40065FF
:1003C0004A463146204625604D46FFF7C9FE60B1DA
:1003D000012807D0ED1D25F0070000E007E000F13F
:1003E000080978E705F1040975E730467AE7206ADD
:1003F000BDE8F09FE069000030B505460B462A468F
:1004000013F8014B12F8010B08B1A042F8D01CB14F
:10041000002802D06D1CF1E7284630BD10B5203A07
:10042000C0F00B80B1E81850203AA0E81850B1E8AD
:100430001850A0E81850BFF4F5AF5FEA027C24BF63
:10044000B1E81850A0E8185044BF18C918C0BDE85A
:1004500010405FEA827C24BF51F8043B40F8043B23
:1004600008BF7047D20728BF31F8023B48BF11F8D8
:10047000012B28BF20F8023B48BF00F8012B704732
:100480004FF0000200B5134694469646203922BF2D
:10049000A0E80C50A0E80C50B1F12001BFF4F7AF78
:1004A000090728BFA0E80C5048BF0CC05DF804EB5A
:1004B000890028BF40F8042B08BF704748BF20F8C8
:1004C000022B11F0804F18BF00F8012B70477047C6
:1004D000704770472DE9F0470D469946924604460D
:1004E00000F124080168880604D5E06921F01001B4
:1004F000216000E00120A84201DD471B00E0002749
:10050000A1697A1902EB0900081AA0612078C006D7
:1005100002D42046FFF770FE002608E0D4E901214E
:100520001AF806009047206A401C761C20624E454F
:10053000F4DB2078C0060AD52046FFF75DFE06E012
:10054000D4E9012130209047206A401C2062381EE7
:10055000A7F10107F4DC07E0D4E9012118F8050050
:100560009047206A401C2062281EA5F10105F3DC9B
:100570002046FFF757FE2078000602D50220BDE88E
:10058000F0870120FBE70000074B70B50D467B4468
:1005900000F011F80446284600F020F810B14FF0A2
:1005A000FF3070BD204670BD0F57000001694A1C26
:1005B00002610878704700B58FB0CDE901310021A4
:1005C000059105497944CDE9031011466846FFF7C6
:1005D00077FE0FB000BD0000E5FFFFFF007B00F0DD
:1005E0008000704710B542485421FFF749FF414849
:1005F0005421FFF745FF40485421FFF741FF3F4991
:100600003B483C4A3F4B08603D490A603A49196003
:10061000531C0365481C1065012008653B48344A9B
:1006200039A1784400F01CF920B9384878440A38D8
:1006300000F0BBF937482F4A35A1784400F010F993
:1006400020B9344878440A3800F0AFF932482A4AD1
:100650002FA1784400F004F920B92F4878440A38D3
:1006600000F0A3F940232248DC000021224600F0DC
:10067000D4F820B125487844543800F096F91D4844
:1006800022464023002100F0C8F820B121487844D8
:10069000543800F08AF9184822461023002100F04F
:1006A000BCF8002806D01C487844BDE810405638F5
:1006B00000F07BB910BD104870B5006D20F001044A
:1006C0000B4800F043F90B4800F040F90A4800F0ED
:1006D0003DF909E0206D20F00105204600F036F9D3
:1006E000204600F073F82C46002CF3D170BD0000BA
:1006F000E0010020340200208802002030000020A9
:100700003400002038000020720000009F660000C6
:10071000770000008B660000776600000EB5CDE91B
:10072000000100F0DDFA029069460120ABBE0EBD6B
:1007300008B5694600900220ABBE08BD1FB58DE824
:10074000070069460520ABBE04B010BD1FB58DE89B
:100750000F0069460620ABBEF6E708B56946009073
:100760000920ABBE08BD1CB5CDE9000169460A20D1
:10077000ABBE1CBD704708B5694600900C20ABBEEF
:1007800008BD754600F018F9AE46050069465346A7
:1007900020F00700854618B020B5FFF70FFDBDE833
:1007A00020404FF000064FF000074FF000084FF0D8
:1007B000000B21F00701AC46ACE8C009ACE8C00969
:1007C000ACE8C009ACE8C0098D46704770B5044676
:1007D000051F00F0F7F80068002C14BF446870BDD6
:1007E000002C18BFAC423CBF20466468F8D30168B7
:1007F0000A18AA4218BF456003D12A680546114469
:10080000016028684119A1421CBF6C6070BD61681D
:10081000696021680844286070BD70B5C468A50788
:1008200013D0650211D4B2F5807F09D0B2F5007FF4
:1008300006D0B2F5806F08D1012300F1240106E053
:100840005D1E6FF07F46B54201D3012070BD01618E
:10085000C361416024F470611143C160002070BD28
:100860002DE9F0410C4607461646104600F06EF89A
:100870002078611C61280AD0722802D077283CD1E8
:1008800002E00125002405E00225042402E00824FA
:1008900048F2020511F8010B2B2806D0622809D076
:1008A00011F8010C74280AD00BE045F0030544F060
:1008B0000204EFE745F0040544F00104EAE744F0E0
:1008C000100438462146FFF729FF411C15D00021AE
:1008D000316171604FF40071F560F1617061200762
:1008E00004D530460222002100F0E6F8306D40F0D9
:1008F000010030653046BDE8F0810020FBE72DE9BE
:10090000F0410D460646104C206DC10704D0410849
:1009100004D020F00104F7E722460EE0542000F056
:100920009CF807000ED0206D47F0010108435421C8
:1009300020653846FFF7A4FD3A4629463046BDE813
:10094000F0418DE70020D6E7E00100202DE9F047D7
:1009500004464FF000094FF0FF37C568D4E904861C
:10096000A80707D0204600F057F93046FFF7E0FE11
:10097000002802DA3846BDE8F087280502D540464F
:10098000FFF724FF4C212046FFF77AFD206D20F071
:10099000010020654846EEE710B50446AFF300803D
:1009A0002046BDE81040FFF7F5BB10B500F07EF91A
:1009B000BDE8104000F074B900487047DC02002028
:1009C0007047000000487047E402002070477047FD
:1009D0007047704738B504460A4600206946AFF3B1
:1009E0000080002808BF38BD02460099204600F06C
:1009F000A4F9012038BD012000F0F3B9F8B5AFF338
:100A00000080054600200C46102000BF0646A819AD
:100A1000A0420DD9324669460020AFF3008007009E
:100A200008BF00F0DEF90098A04218BF0546C419BF
:100A3000FFF7C8FF05600746F01D20F007004619C4
:100A4000284600F073F9B44208BFF8BDA21B314636
:100A50003868BDE8F84000F070B970B50646FFF799
:100A6000B1FF056806F10B0020F00704B4429CBFFB
:100A7000002070BD2B466A68BAB11068A04210D33E
:100A800004F1080188423CBF5068586007D35168A0
:100A9000101941601168091B016058601460101D35
:100AA00070BD13465268002AE7D121462846FFF759
:100AB00091FF0028DED170BD2DE9F04104461646B5
:100AC0000D464769007B80072ED03846FFF745FE6C
:100AD00050BB3EB3012E02D0022E25D104E02046A9
:100AE00000F045F905441DE03846FFF744FEE16893
:100AF000002841F01001E16005DA204600F058F8C6
:100B00000120BDE8F081C9030BD56268E16A91421A
:100B100000D81146A26911442269891A814200DD78
:100B200008460544002D01DA0220EAE7E16A606820
:100B3000E268814206D29103E06203D522F40031DB
:100B400041F01002A6690027AE4213DCE16A81423F
:100B500001D90B4600E0034603EB060C2369ACEB1E
:100B6000030CAC4506DD814201D98C4600E0844689
:100B70009C4505D1A760276042F02000A5620DE0EA
:100B8000AD1BE669AE1B8142A66000D90846C01ABB
:100B9000281A20605819606022F02000034908409C
:100BA000E060002084F84870ABE70000BFCFD7FFBB
:100BB000C16821F4001141F08001C1600021816011
:100BC000016070472DE9F047814614460E464FF00C
:100BD000FF383248D5685769054209D03846A169BF
:100BE000FFF7C1FD002811DB2C48C0430540E5603C
:100BF0002B46324649463846FFF7A0FDA16920F052
:100C00000042B21A11440028A16103D02046FFF728
:100C1000CFFF4046BDE8F08770B504460569C06A5D
:100C20006168884200D80846E16821F42011E1603B
:100C3000C90312D5A84208D02246411B2846FFF717
:100C4000C1FF10B14FF0FF3070BD0020E562C4E974
:100C50000150E06820F48030E060002070BD10B5E5
:100C60000446C06820F02000E060A16AA0698842C4
:100C70000DD02046FFF7D0FFE06820F4405040F050
:100C80001000E060A06AA0612069E062606044F248
:100C90004001E0688843E06010BD000010000200E1
:100CA000002801D000F03CB87047000010B50146A4
:100CB00002A000F07DF8012010BD0000534947520A
:100CC000545245443A2052656469726563743A200F
:100CD00063616E2774206F70656E3A20000000001B
:100CE00010B5431C02E010F8011B71B18107FAD165
:100CF0004FF0013202C88C1A8C4314EAC211F9D0A9
:100D0000C01A0A0603D0C01E10BDC01A10BD0A04C6
:100D100001D0801E10BD0902FCD0401E10BD000095
:100D200001491820ABBEFEE7260002000021016049
:100D3000C0E90110704710207047034640688C4698
:100D4000002818BF88423CBF03464068F8D31868A3
:100D50001844884207D00CF1030020F00700001D62
:100D6000411A521A0146081D0A60FFF72FBD10B53F
:100D70000146C268900703D0900607D5886A0AE04A
:100D800000F03EF801210160881E10BD8B694868A3
:100D900018440B69C01A91F848301BB191F84910FA
:100DA000401A10BD1103FCD50028FADD401E10BD0D
:100DB00070B505460C460A2000E06D1C00F018F8DE
:100DC00035B128780028F8D102E0641C00F010F852
:100DD00014B120780028F8D1BDE870400A2000F056
:100DE00007B810B500F010F8BDE81040FFF758BF85
:100DF00008B569468DF800000320ABBE08BD0000B1
:100E000000487047DC02002010B5012805D0002101
:100E100003A0FFF7CDFF012010BD09A1F8E70000F6
:100E200053494752544D454D3A204F7574206F66D3
:100E30002068656170206D656D6F7279000000003B
:100E40003A2048656170206D656D6F727920636F1F
:100E5000727275707465640010B5154C00228021A3
:100E6000204601F093F9022000F0ECF80022402126
:100E7000204601F08BF9022000F0E4F80122402125
:100E8000204601F083F9022000F0DCF80022402126
:100E9000204601F07BF9022000F0D4F801228021E5
:100EA000204601F073F9BDE81040022000F0CAB8F6
:100EB000000C0140A0F13001092901D8C8B27047E7
:100EC000A0F14101052901D8373804E0A0F1610102
:100ED000052902D85738C0B27047FF207047FEE797
:100EE00070B5032903D20C314CB2401E00E04CB265
:100EF00001B2642591FBF5F091FBF5F605FB1611A7
:100F0000CD1701EB957500B201EBA501C51700EBFC
:100F1000957501EBA5011A25641C6C430A2594FB09
:100F2000F5F4404201EB400020441044401E40B222
:100F300007218C3090FBF1F201FB1200187070BD9C
:100F4000014903F0E7BC000020000020FFB5274B5B
:100F50001878401CC0B218703C280ED300201870BE
:100F60005978491CC9B259703C2906D358709978F0
:100F7000491CC9B29970182902D2002004B0F0BDF2
:100F80009870D8781AA2401CC4B2DC70E4CA5879B0
:100F9000D9888DE8E400022815D01DF80020A2426F
:100FA00009D20122401CC0B2DA7058710D2802D358
:100FB0005A71491CD980DA785979D8881B1DFFF7F6
:100FC0008FFF0120DAE78A0705D16425B1FBF5F62A
:100FD00005FB161242B94FF4C875B1FBF5F605FBD7
:100FE00016120AB11C22DAE71D22D8E726000020DB
:100FF000001F1C1F1E1F1E1F1F1E1F1E1F00000084
:10100000014800F033BC000024010020014800F03A
:101010002DBC0000E000002030B590F840500124C5
:10102000AC40C56B6C60046863604368102B036858
:1010300003D099600068C26030BD9A600068C160EA
:1010400030BD7047401E80B2FCD270472DE9F0479A
:1010500090F800C04778C4780679437990F80690F4
:1010600090F802A04F480D7E00EB020802EBCC0C7A
:1010700098F8108002EBC70745EA08150D7610F8BE
:10108000028045EA58050D764D7E10F8028045EA4B
:10109000C8154D7610F80CC045EA8C054D7610F851
:1010A00007C045EADC054D765FF0080501EB050C4D
:1010B0009CF810C001F805C06D1CEDB20A2DF5D3E7
:1010C0008D7E10F807C0DFF8DC8045EA4C1C81F803
:1010D0001AC08D7AC75D08F1980845EA47158D72E8
:1010E00008EB020595F850704CEA97078F76CF7E93
:1010F00095F850C047EA8C17FFB2CF7604B90B249D
:1011000002EBC40402EBC60610F804C047EA4C0721
:10111000CF76CF7A045D47EA4404CC720C7F875DBA
:1011200044EA07140C770F7B865D47EA06160E73B8
:1011300095F8486044EA56040C774C7F95F848606F
:1011400044EAC614E4B24C7703B90B2302EBC303A1
:10115000C65C44EA86064E774C7BC35C44EA830453
:1011600002EBC9034C73C75C02EBCA0246EAD7061E
:101170004E77C65C44EAD6044C738C7FC65C44EA66
:1011800046148C778E7BC05C46EA4010887395F8D5
:10119000400004438C77C87B18F802201043C873C2
:1011A000BDE8F087806500082DE9F0410839044664
:1011B000CDB200F061FA43780A220146B3FBF2F0A7
:1011C000B3FBF2F602FB16338E78B6FBF2F7B6FBF2
:1011D000F2F102FB1767214A267E2A4492F838C0B2
:1011E00046EA0C06267600B90B2005EBC00C1B481E
:1011F000667A983805EBC30310F80CC046EA0C1663
:10120000667210F803C046EA5C066672A67AC35C92
:1012100046EAC313A372A37E92F8486043EA4603EA
:10122000A37601B90B2105EBC101E37A415C43EAE6
:10123000011105EBC703E172C55C41EA5501E1729A
:10124000217BC05C41EAC0102073207F92F84010DF
:1012500040EA81002077BDE8F081000018660008B0
:101260002DE9F0470446A1F1080088460027C5B2E1
:1012700003F0E0F9064603F0D7F93B49DFF8EC90BC
:10128000A8F1080C4B7864210CF0FF080A2209EB46
:10129000080C6BB1B0FBF1F6B0FBF1F701FB1701E5
:1012A000B1FBF2F1B0FBF2F702FB1702F6B217E066
:1012B000002E04DA0127F043401C80B200E0B0B2F7
:1012C000B0FBF1F6B0FBF1F801FB1801B1FBF2F154
:1012D000B0FBF2F802FB1802F6B20FB11EB103E048
:1012E00076B90B260CE00C26207B9CF8607040EA57
:1012F00097102073607B9CF8607040EA87006073F1
:1013000009EBC606677B765D09EBC10147EA560625
:1013100066734F5D09EBC20046EAD7166673A67B7B
:10132000495D46EA4101A1739CF8686041EA1611E3
:10133000A173A67F9CF8687046EA1716A677425DEF
:1013400041EA5211A173E17B405D41EAC000E073C4
:10135000E07F33B19CF8781040EAD100E077BDE837
:10136000F0879CF87010F7E71C00002070660008FA
:101370002DE9F047C57990F808C0477A867A90F849
:101380000B9090F80CA0447B05B90A25554B91F8B9
:10139000008003EB051003EB0414855C48EA0508A4
:1013A00001F8018B10F80280CD7B45EA0805CD736A
:1013B000CD7F805C0543CD7703EB0C100D7810F8E2
:1013C00002C045EA5C050D704D7810F802C045EA90
:1013D000CC154D7091F810C010F802804CEA580CF2
:1013E00081F810C091F811C010F802804CEAC81CB6
:1013F00081F811C091F820C010F802804CEA580C16
:1014000081F820C091F821C0805C4CEAC01081F8BE
:10141000210014F802C045EA0C054D70A55C284374
:1014200081F8210003EB07108D78875C3D438D70B8
:101430008D7C875C3D438D7491F82250805C054320
:1014400081F8225003EB0610CD78835C45EA530304
:10145000CB700B79855C43EAC5130B71CD7C865C40
:1014600045EA5605CD740D7D865C45EAC6150D75B9
:1014700091F82350865C45EA560581F8235091F88F
:101480002450805C45EAC01081F82400A55C2B4301
:101490000B71A35C1843144B81F8240003EB091073
:1014A0004C79855C2C434C7111F8154F855C2C43AD
:1014B00001F8104B805C0C78044301F81F4903EBE2
:1014C0000A100C78835C1C4301F8104B845C0B7889
:1014D000234301F8103B805C0B7803430B70BDE89D
:1014E000F0870000F0660008C068000801A0FEF761
:1014F00077BE000041542B434950534E5450544939
:101500004D453F0D0A000000012000F045BC0000E1
:1015100010B521A0FEF764FE002004F0DDFA0020E3
:1015200003F094F901221103204800F02FFE01215D
:10153000084600F0C1FF00F06DFE03F03FFF03F02E
:10154000A5FA03F085FA03F0A9FB03F01DFB184888
:1015500001F02EFD00F042F8C82000F04DFB03F032
:101560006FF8012004F0B8FA642000F045FB04F0A5
:1015700081FA04F0FDF94FF4967003F067F96420E6
:1015800000F03AFB03F056FB0A4802F079F9BDE897
:10159000104009A0FEF724BE456E7465725F537457
:1015A0006F705F4D6F64650A0D000000000C014014
:1015B0004000002054000020457869745F53746F28
:1015C000705F4D6F64650A0D0000000070470000F9
:1015D00001480078704700002400002010B586B054
:1015E000002204A9194801F045FD002203A917486B
:1015F00001F0F4FC164C9DF8120020709DF81100CB
:1016000060709DF81000A0709DF80E00E0709DF8CD
:101610000D0060719DF80C0020719DF80F0000F521
:10162000FA60E080204603F0A7F82046FFF788FC28
:10163000A078227861788DE80700E3786279E18804
:1016400004A0FEF7CDFD06B010BD00004000002054
:10165000260000200D0A54696D653A2025642D2569
:10166000642D256420253032643A253032643A25D1
:10167000303264200D0A000000487047200000202E
:1016800010B58EB00446342208496846FEF7C6FEFF
:101690000D2100204FEA0D0252F82030A34203D062
:1016A000401CC0B28842F7D30EB010BD4C65000894
:1016B000004870472600002010B590F82110002245
:1016C000022905D00421816380F82020012010BD6B
:1016D00001680B6823F00E030B6001680B6823F0B0
:1016E00001030B6090F84030C46B012101FA03F351
:1016F000636080F8211080F82020104610BD0000A3
:1017000010B590F821100024022903D00421816330
:1017100001243DE001680A6822F00E020A600168B7
:101720000A6822F001020A601A4A0168914201D156
:10173000012121E0174A1432914201D110211BE00E
:10174000144A2832914201D1891515E0114A3C32E0
:10175000914201D189140FE00E4A5032914202D1D8
:101760004FF4803108E00B4A6432914202D14FF4C9
:10177000801101E04FF08071064A083A5160012162
:1017800080F82110002180F82010416B01B18847BA
:10179000204610BD0800024010B5040046D0244980
:1017A000206888421BD022491431884217D0204932
:1017B0002831884213D01E493C3188420FD01C4941
:1017C000503188420BD01A496431884207D01849F9
:1017D0007831884203D0E52116A004F060FA206831
:1017E000016821F001010160216800200860216882
:1017F0004860216888602168C8600D4A21685242AB
:1018000011441422B1FBF2F18A000949012308397D
:10181000C4E90F1293404B60A062E06220636063F2
:10182000A06384F8210084F8200010BD012010BDC1
:10183000080002402E2E2F447269766572732F5372
:10184000544D3332463178785F48414C5F44726979
:101850007665722F5372632F73746D3332663178ED
:10186000785F68616C5F646D612E63002DE9F05FE5
:10187000C16B0C6801680B68D0F840C0042202FA02
:101880000CF2494DDFF824A1494E4A4FDFF828B148
:10189000DFF828E122422CD05A072AD50A6892069E
:1018A00003D40A6822F004020A600168A94201D147
:1018B000042219E0514501D1402215E0B14202D184
:1018C0004FF4806210E0B94202D14FF480420BE045
:1018D000594502D14FF4802206E0714502D14FF400
:1018E000800201E04FF080622F4908394A60C16AE6
:1018F0003BE04FF0020808FA0CF818EA040F4FF02A
:1019000000094FF0010235D05FEA837832D50B68C9
:101910009B0605D40B6823F00A030B6080F8212096
:101920000168A94201D1022219E0514501D12022CA
:1019300015E0B14202D14FF4007210E0B94202D179
:101940004FF400520BE0594502D14FF4003206E04B
:10195000714502D14FF4001201E04FF000721249BC
:1019600008394A6080F82090816A00291AD0BDE8C1
:10197000F05F0847082505FA0CF5254212D01B0731
:1019800010D50B6823F00E030B6090F84010C36B6A
:1019900002FA01F15960826380F8212080F82090DA
:1019A000016BE2E7BDE8F09F080002401C00024026
:1019B0003000024044000240580002406C000240E7
:1019C00070B504007ED04A49206888421BD048493F
:1019D0001431884217D046492831884213D04449EF
:1019E0003C3188420FD04249503188420BD04049A7
:1019F0006431884207D03E497831884203D09A2129
:101A00003CA004F04CF9606840B1102806D0B0F555
:101A1000804F03D09B2137A004F041F9A0684028F3
:101A200004D018B19C2133A004F039F9E068802873
:101A300004D018B19D212FA004F031F9206948B1DC
:101A4000B0F5807F06D0B0F5007F03D09E2129A09D
:101A500004F025F9606948B1B0F5806F06D0B0F5A3
:101A6000006F03D09F2123A004F019F9A06928B1C9
:101A7000202803D0A0211FA004F011F9E06960B173
:101A8000B0F5805F09D0B0F5005F06D0B0F5405FDB
:101A900003D0A12117A004F002F904CC14481421AA
:101AA00040421044B0FBF1F08000E0631048083879
:101AB000A06302206077116843F6F0708143D4E997
:101AC000000300E012E01843D4E902352B43184329
:101AD0002369184363691843A369184308431060D6
:101AE0000020606301216177207770BD012070BD07
:101AF000080002402E2E2F447269766572732F53B0
:101B0000544D3332463178785F48414C5F447269B6
:101B10007665722F5372632F73746D33326631782A
:101B2000785F68616C5F646D612E63002DE9F04140
:101B3000884604460025581E4FF6FF711E4617467C
:101B4000884204D340F26F111DA004F0A8F894F865
:101B5000200001280DD0012084F8200094F82110E5
:101B60000020012907D084F8200002252846BDE87E
:101B7000F0810220FBE7022184F82110A063206895
:101B8000016821F00101016033463A464146204692
:101B9000FFF742FAE06A00282068016802D041F0AD
:101BA0000E0106E021F0040101602068016841F0A7
:101BB0000A0101602068016841F001010160D5E778
:101BC0002E2E2F447269766572732F53544D333223
:101BD000463178785F48414C5F4472697665722F70
:101BE0005372632F73746D3332663178785F686136
:101BF0006C5F646D612E630070B5044600F0FCFA02
:101C00000546601C02D004480078044400F0F4FA51
:101C1000401BA042FAD370BD000000202DE9F05F08
:101C2000434F0025DFF80C91DFF80CA1DFF80CB171
:101C30000E460446B8420DD04C450BD0544509D051
:101C40005C4507D03E48844204D04FF4B4713DA0B7
:101C500004F025F83004000C01D0300C63D040F2C1
:101C6000691138A004F01BF85DE00120A840304065
:101C700057D0434925F003020A44D2F808C0A90707
:101C80000B0F4FF00F0E0EFA03F101EA0C0CBC42E1
:101C900002D14FF0000810E04C4502D14FF001088E
:101CA0000BE0544502D14FF0020806E05C4502D13A
:101CB0004FF0030801E04FF0040808FA03F8E0458C
:101CC00012D193688B4393602E490A6882430A605D
:101CD000091D0A6882430A60091D0A6882430A6076
:101CE000091D0A6882430A60FF2801D8224601E0E4
:101CF00004F104024FEA850101D9A1F12001D2F8D3
:101D000000C00EFA01F32CEA030C4FF0040303FAAF
:101D100001F34CEA030CC2F800C0E16821EA0001BB
:101D2000E16005F1010536FA05F09ED1BDE8F09FAE
:101D300000080140000C0140001001400014014067
:101D4000001801402E2E2F447269766572732F534E
:101D5000544D3332463178785F48414C5F44726964
:101D60007665722F5372632F73746D3332663178D8
:101D7000785F68616C5F6770696F2E6300000000B8
:101D80000000014000040140012803D14FF4967087
:101D900002F0B8BD70470000044910B50A6802425D
:101DA00002D00860FFF7F0FF10BD000014040140EE
:101DB0002DE9F84F0026DFF89CB20D460446B146E7
:101DC00058450FD0A44884420CD0A448844209D07E
:101DD000A348844206D0A348844203D0BD21A2A0D8
:101DE00003F05DFF28680104090C01D0000C03D04A
:101DF000BE219DA003F053FF6868DFF8A8A2002869
:101E00001ED00128FCD01128FAD00228F8D01228C0
:101E1000F6D05045F4D0A4498842F1D0A349884275
:101E2000EED0A3498842EBD0A2498842E8D0A2492B
:101E30008842E5D00328E3D0BF218BA003F02FFF19
:101E400000E1012000FA06F807EA080747456FD1CC
:101E50005C450FD0804884420CD08048844209D031
:101E60007F48844206D07F48844203D0CD217EA0A3
:101E700003F015FF6868A0EB0A02504559D00EDC4C
:101E8000032875D006DC002853D0012819D0022879
:101E900069D131E0112821D0122864D13AE0B2F59D
:101EA000881F46D006DCB2F5803F42D0B2F5801FD5
:101EB00059D13EE0B2F5001F3BD0B2F5041F52D11C
:101EC00037E0E868022807D0012805D0032803D0AE
:101ED000D52165A003F0E3FEE8683EE0E86802284B
:101EE00007D0012805D0032803D0DC215EA003F031
:101EF000D6FEE868001D30E0E868022807D0012817
:101F000005D0032803D0E32157A003F0C8FEE868FA
:101F1000083022E0E868022807D0012805D003280D
:101F200003D0EA2150A003F0BAFEE8680C3014E0B8
:101F300087E0A86880B1012811D0022807D0F721D6
:101F400049A003F0ACFEA86830B1012807D04FF0DB
:101F50000809C4F8148006E00420814603E04FF02D
:101F60000809C4F81080FF2F05D8214605E0FFE7D7
:101F70004FF00000F1E704F104014FEA860001D9B7
:101F8000A0F120000B684FF00F0202FA00FC23EAD8
:101F90000C0309FA00FC43EA0C030B606868C000FC
:101FA0004FD54648816941F001018161806926F081
:101FB000030100F00100009041480B189868B10738
:101FC0004FEA117C02FA0CF290435C4501D10021EA
:101FD0000FE021498C4201D101210AE01F498C42C6
:101FE00001D1022105E01E498C4201D1032100E00C
:101FF000042101FA0CF1014399606868C00331487B
:10200000016801D5394300E0B94301606868800385
:102010002D48016801D5394300E0B9430160686883
:10202000C0022A48016801D5394300E0B943016084
:10203000686880022648016801D5394300E0B94349
:102040000160761C2F6837FA06F07FF4FAAEBDE81F
:10205000F88F000000080140000C01400010014012
:1020600000140140001801402E2E2F44726976653D
:1020700072732F53544D3332463178785F48414C58
:102080005F4472697665722F5372632F73746D3378
:1020900032663178785F68616C5F6770696F2E6354
:1020A000000000000000111000002110000031109D
:1020B0000000121000002210000032100010024038
:1020C00000000140000401400404014008040140F4
:1020D0000C04014070B50C00054604D14FF4DA71D0
:1020E00003A003F0DCFDA868204000D0012070BDF3
:1020F0002E2E2F447269766572732F53544D3332EE
:10210000463178785F48414C5F4472697665722F3A
:102110005372632F73746D3332663178785F686100
:102120006C5F6770696F2E630000000070B50C0073
:10213000054604D14FF4F67105A003F0B0FDE9683F
:1021400024EA0100214040EA0140286170BD0000FE
:102150002E2E2F447269766572732F53544D33328D
:10216000463178785F48414C5F4472697665722FDA
:102170005372632F73746D3332663178785F6861A0
:102180006C5F6770696F2E630000000070B51546C4
:102190000C00064604D14FF4EA7108A003F07FFD5D
:1021A00045B1012D04D040F2D51104A003F077FD14
:1021B000346170BD2004306170BD00002E2E2F44AC
:1021C0007269766572732F53544D33324631787885
:1021D0005F48414C5F4472697665722F5372632F7A
:1021E00073746D3332663178785F68616C5F6770E5
:1021F000696F2E630000000001488068704700008E
:102200000000002002488168027811448160704714
:1022100000000020074810B5016841F0100101607E
:10222000032000F003F9002000F006F800F024F885
:10223000002010BD0020024070B50D4D04464FF443
:102240007A712878B1FBF0F00A490968B1FBF0F027
:1022500001F0E1F948B9102C07D200222146501EA6
:1022600000F094F800206C6070BD012070BD00008B
:10227000000000200C0000200E4808B5816941F0E4
:1022800001018161816901F001010091C16941F0A1
:102290008051C161C06900F080500090062000F0BC
:1022A000C5F80548416821F0E06141F000714160E6
:1022B00008BD0000001002400000014010B50400FD
:1022C00003D5CE2109A003F0EAFC002C0DDB04F0BD
:1022D0001F01012088406109890001F1E021C1F856
:1022E0008001BFF34F8FBFF36F8F10BD2E2E2F4491
:1022F0007269766572732F53544D33324631787854
:102300005F48414C5F4472697665722F5372632F48
:1023100073746D3332663178785F68616C5F636FB8
:10232000727465782E63000010B5040003D5BE21D9
:1023300007A003F0B4FC002C09DB04F01F0101200E
:1023400088406109890001F1E021C1F8000110BD58
:102350002E2E2F447269766572732F53544D33328B
:10236000463178785F48414C5F4472697665722FD8
:102370005372632F73746D3332663178785F68619E
:102380006C5F636F727465782E63000070B51546DC
:102390000C460646102A03D3AA2114A003F07FFCA2
:1023A000102C03D3AB2111A003F079FC1E48006868
:1023B000C0F30223C3F107022046042A00D90422F5
:1023C000191D072901D2002300E0DB1E012404FAB5
:1023D00002F1491E014099409C40641E2C4021435B
:1023E0003046BDE8704003F043BC00002E2E2F4461
:1023F0007269766572732F53544D33324631787853
:102400005F48414C5F4472697665722F5372632F47
:1024100073746D3332663178785F68616C5F636FB7
:10242000727465782E6300000CED00E010B5044670
:1024300007280BD0062C09D0052C07D0042C05D07A
:10244000032C03D0922108A003F029FC154904F0C5
:10245000070208684FF6FF03184040EA0220124ABC
:102460001043086010BD00002E2E2F44726976655F
:1024700072732F53544D3332463178785F48414C54
:102480005F4472697665722F5372632F73746D3374
:1024900032663178785F68616C5F636F72746578FB
:1024A0002E6300000CED00E00000FA050149012058
:1024B0000862704700000E4270B50D46040006D059
:1024C000012C04D04FF4E97114A003F0E8FB012DB6
:1024D00006D0022D04D040F2D31110A003F0DFFB90
:1024E0001C48016821F002010160016821F001012E
:1024F00021430160184C206840F004002060012D49
:1025000009D040BF02F004FC02F002FC206820F079
:102510000400206070BD30BFF8E700002E2E2F446D
:102520007269766572732F53544D33324631787821
:102530005F48414C5F4472697665722F5372632F16
:1025400073746D3332663178785F68616C5F707771
:10255000722E63000070004010ED00E070B52EA3F5
:1025600006460FCB86B000258DE80F002EA0006830
:102570000490F00708D1B00706D4F00604D44FF455
:10258000CB712AA003F08BFB374C012E21D0022EF9
:102590003AD0102E35D160682168C90131D5C0F319
:1025A0008342C0031DF8025009D5606804A9C0F336
:1025B0004040085C2D49B1FBF0F0454301E02C4858
:1025C0004543606840021CD468000321B0FBF1F56C
:1025D00017E0216AC1F30120012803D1890701D541
:1025E000C5030EE0022805D1616A890702D549F6C4
:1025F000404506E0032804D12068800301D54FF24E
:10260000244506B0284670BD00F024FA6168C1F385
:102610008131491C4900D9E702030405060708096E
:102620000A0B0C0D0E0F1010010200002E2E2F446D
:102630007269766572732F53544D33324631787810
:102640005F48414C5F4472697665722F5372632F05
:1026500073746D3332663178785F68616C5F726372
:10266000635F65782E6300000010024000127A005C
:1026700000093D002DE9F84304460068504DC107AC
:102680000AD181076FD4C0067ED46C214DA003F01F
:1026900006FB2078C00763D06068002660B1B0F503
:1026A000807F09D0B0F5007F06D0B0F5407F03D021
:1026B000742144A003F0F3FAE869C00008D4E86983
:1026C00040F08050E861E869012600F080500090F9
:1026D0004B480168C90512D40168804641F48071F5
:1026E0000160FFF789FD074605E000BFFFF784FDA5
:1026F000C01B642823D8D8F80000C005F6D5286A86
:1027000010F4407021D0A18801F4407181421CD0A6
:10271000286A3C49012220F440700A6000220A60C5
:102720002862C00711D0FFF767FD074641F28838DD
:1027300008E000BFFFF760FDC11B414502D903203F
:10274000BDE8F883286A8007F4D5286A616820F418
:102750004070084328621EB1E86920F08050E861AB
:102760002078800716D5A06860B1B0F5804F09D0F9
:10277000B0F5004F06D0B0F5404F03D0B92111A0FD
:1027800003F08DFA686800E007E0A16820F440409B
:10279000084368602078C0060FD5E068B0F5800F68
:1027A00005D020B140F2151106A003F078FA686850
:1027B000E16820F48000084368600020C0E7000062
:1027C000001002402E2E2F447269766572732F53CB
:1027D000544D3332463178785F48414C5F447269DA
:1027E0007665722F5372632F73746D33326631784E
:1027F000785F68616C5F7263635F65782E63000069
:1028000000700040400442422DE9F0470F460500A9
:1028100078D02868C1070AD1810708D4410706D4B7
:10282000000704D44FF44E716FA003F038FA47B19B
:10283000012F06D0022F04D040F239316AA003F0F4
:102840002EFA774E306800F00700B84209D230689F
:1028500020F0070038433060306800F00700B842CD
:1028600077D128686F4C810729D5400703D5606868
:1028700040F4E06060602878000703D5606840F4A9
:1028800060506060A868A0B1802812D0902810D055
:10289000A0280ED0B0280CD0C0280AD0D02808D04C
:1028A000E02806D0F02804D040F25F314EA003F0BB
:1028B000F6F96068A96820F0F000084360602878A5
:1028C000C00737D0686868B101281CD002281DD025
:1028D00040F2663144A003F0E2F96868012812D0A2
:1028E000022813D020688007002832DA60686968FF
:1028F00020F0030008436060FFF77EFC804641F251
:10290000883910E025E020688003EDE72068800129
:10291000EAE700BFFFF770FCA0EB0801494502D9C8
:102920000320BDE8F0876068696800F00C00B0EB38
:10293000810FEFD1306800F00700B8420BD9306842
:1029400020F0070038433060306800F00700B842DC
:1029500001D00120E5E728784FF4806640074FF466
:10296000A0674FF4C0684FF4E06914D5E86860B11F
:10297000B0420AD0B84208D0404506D0484504D0FD
:102980004FF4697118A003F08AF96068E96820F4CF
:10299000E060084360602878000715D5286960B1B9
:1029A000B0420AD0B84208D0404506D0484504D0CD
:1029B00040F2AB310CA003F072F96068296920F491
:1029C000605040EAC100606000F054F86168164A47
:1029D000C1F30311515CC8401449086014480068F1
:1029E000FFF72AFC00209CE72E2E2F4472697665A3
:1029F00072732F53544D3332463178785F48414CCF
:102A00005F4472697665722F5372632F73746D33EE
:102A100032663178785F68616C5F7263632E630041
:102A20000020024000100240186500080C00002041
:102A3000040000200448054900684968044AC1F3BD
:102A40000221515CC84070470C0000200010024079
:102A5000286500080448054900684968044AC1F32C
:102A6000C221515CC84070470C0000200010024099
:102A70002865000812A185B00FC98DE80F0014A0C9
:102A8000144A006804905168134801F00C03042BA9
:102A900010D0082B0ED1C1F38343C9031DF80300E6
:102AA0000AD5516804AAC1F34041515C0A4A504317
:102AB000B0FBF1F005B0704708494843FAE7000061
:102AC00002030405060708090A0B0C0D0E0F10106F
:102AD000010200000010024000127A0000093D00CF
:102AE0002DE9F84F04007DD0FA4EFB4D20684FF0E1
:102AF000010A4FF000084FF4803960B1C1070DD1D1
:102B0000810762D401076ED440076DD440F267118B
:102B1000F2A003F0C4F82078C00753D060684FF4E7
:102B2000A02740B1484506D0B84204D040F26D110C
:102B3000EAA003F0B4F86868C0F38100012807D068
:102B40006868C0F38100022809D16868C00306D50F
:102B50002868800336D560680028C4D032E06068F9
:102B6000484503D1286840F4803009E008B1B842F4
:102B70000DD0286820F480302860286820F4802058
:102B80002860606888B1FFF737FB074609E02868CE
:102B900040F480202860E5E7FFF72EFBC01B642887
:102BA00077D828688003F7D50CE0FFF725FB0746A8
:102BB00005E000BFFFF720FBC01B6428F0D82868A1
:102BC0008003F7D4207880074ED5206930B10128E2
:102BD00004D040F2A111C1A003F061F860691F2880
:102BE00008D902E096E042E07BE04FF4D171BBA04F
:102BF00003F055F8686810F00C0F07D06868C0F350
:102C00008100022809D16868C00306D428688007BB
:102C100014D5206901287DD110E02069B0B1C6F833
:102C200000A0FFF7E9FA074605E000BFFFF7E4FA66
:102C3000C01B0228B4D828688007F7D528686169C6
:102C400020F0F80040EAC10028600DE0C6F80080DE
:102C5000FFF7D2FA074604E0FFF7CEFAC01B0228BE
:102C60009ED828688007F7D42078000736D5A94F6A
:102C7000A06920B3012806D04FF4F17197A003F0AA
:102C80000EF8A069D8B1C7F800A0FFF7B5FA07465B
:102C900005E054E1FFF7B0FAC01B02288ED8686A3D
:102CA0008007F7D59C484FF4FA510068B0FBF1F06B
:102CB000009000BF0098411E0091FAD20EE0C7F8C4
:102CC0000080FFF799FA074605E000BFFFF794FA86
:102CD000C01B0228AED8686A8007F7D42078400766
:102CE0006ED5E068002740B1012806D0052804D041
:102CF00040F2112179A002F0D2FFE869C00008D4A7
:102D0000E86940F08050E861E869012700F08050F0
:102D1000009000E027E181480168C90512D40168EC
:102D200041F480710160FFF767FA834606E000BF57
:102D3000FFF762FAA0EB0B00642891D8774800688F
:102D4000C005F5D5E06801280AD008B1052811D0E2
:102D5000286A20F001002862286A20F0040002E0BE
:102D6000286A40F001002862E068A8B1FFF744FA41
:102D700083460DE0286A40F004002862F0E700BFB7
:102D8000FFF73AFAA0EB0B0141F28830814285D877
:102D9000286A8007F4D50EE0FFF72EFA834607E095
:102DA000FFF72AFAA0EB0B0141F28830814291D85B
:102DB000286A8007F4D41FB1E86920F08050E861E8
:102DC000E06900287ED0012809D0022807D040F20F
:102DD000AF2142A002F063FFE069002872D068686A
:102DE000C0F381000228E0696DD0022805D0C6F842
:102DF0006080FFF701FA0446A4E0206A30B148453C
:102E000004D04FF42E7135A002F049FF606A70B310
:102E1000B0F5802F2BD0B0F5002F28D0B0F5402F83
:102E200025D0B0F5801F22D0B0F5A01F1FD0B0F57F
:102E3000C01F1CD0B0F5E01F19D0B0F5001F16D090
:102E4000B0F5101F13D0B0F5201F10D0B0F5301F13
:102E50000DD0B0F5401F0AD0B0F5501F07D0B0F527
:102E6000601F04D040F2B9211CA002F018FFC6F880
:102E70006080FFF7C1F9074605E000BFFFF7BCF926
:102E8000C01B02285BD828688001F7D4206A484517
:102E90000FD1A06838B1B0F5003F04D040F2CF2187
:102EA0000EA002F0FCFE6868A16820F40030084320
:102EB0006860D4E908010843696821F47411084383
:102EC000686001E051E041E0C6F860A0FFF794F9C6
:102ED00004462AE000004242001002402E2E2F44F9
:102EE0007269766572732F53544D33324631787858
:102EF0005F48414C5F4472697665722F5372632F4D
:102F000073746D3332663178785F68616C5F7263B9
:102F1000632E6300800442420C00002000700040D9
:102F2000FFF76AF9001B022809D828688001F7D545
:102F30001BE000BFFFF760F9001B022802D9032045
:102F4000BDE8F88F28688001F4D40EE00128F7D09E
:102F50006868226A00F48031914204D1616A00F409
:102F60007010884201D00120EAE70020E8E77047AE
:102F7000704710B5044600680168C90717D041685A
:102F8000C90714D040684007204607D5FFF7F0FF77
:102F900021686FF004004860042002E0FFF7E7FFBB
:102FA000012060742068416821F00101416010BD7A
:102FB00080B1017C01290FD00121017402224274E9
:102FC0000268136843F00103136041740021017427
:102FD000084670470120704702207047F8B5050089
:102FE0004FF0000016460C4600900ED06CB136B182
:102FF000012E04D040F20E4110A002F050FE00223B
:103000006946284600F036F808B10120F8BD287B53
:103010002070E87BE070697B6170A97BA17056B17C
:1030200001F043FFE070607801F03FFF6070A0782E
:1030300001F03BFFA0700020F8BD00002E2E2F44B1
:103040007269766572732F53544D333246317878F6
:103050005F48414C5F4472697665722F5372632FEB
:1030600073746D3332663178785F68616C5F727447
:10307000632E63002DE9F04717460C465FEA00090E
:1030800052D0002C50D037B1012F04D040F22D3156
:1030900031A002F004FED9F800004068400743D494
:1030A000484601F0B4FF4FF461620546B0FBF2F10F
:1030B000B0FBF2F302FB13503C23B0FBF3F0B5FB83
:1030C000F2F6607002FB1650B0FBF3F203FB120045
:1030D000A070182930D31820B1FBF0F8B1FBF0F242
:1030E00000FB12102070484601F08AFF411C03D0FB
:1030F000A84201D9461B01E04FF0FF36A8EB0810AB
:1031000000EB4000C0EB001005EBC0152946484617
:1031100001F0CCFF40B9701C01D0711900E03146BC
:10312000484601F0AFFF10B10120BDE8F0874146ED
:10313000484601F0C5FE00E021705FB1207801F043
:10314000B4FE2070607801F0B0FE6070A07801F0ED
:10315000ACFEA0700020E8E72E2E2F447269766541
:1031600072732F53544D3332463178785F48414C57
:103170005F4472697665722F5372632F73746D3377
:1031800032663178785F68616C5F7274632E6300B9
:1031900070B5040026D036492068884204D040F239
:1031A0001D1134A002F07BFDA06860B180280AD018
:1031B000B0F5807F07D0B0F5407F04D04FF48F7119
:1031C0002CA002F06CFD6068B0F5801F06D3401C97
:1031D00004D040F21F1127A002F061FD607C0026A0
:1031E00010B105E0012070BD2674204600F060F8A3
:1031F00002206074204600F0F1F9042578BB2046D7
:1032000001F0B5FE58BB2068416821F0070141601C
:10321000A06820B12548016821F001010160234820
:10322000001F0168A26821F46071114301606068A9
:10323000411C04D10120FFF791F980B1401E2168A3
:103240008A6822F00F0242EA10428A602168CA6846
:1032500060F30F02CA60204601F0A4FE08B1657455
:10326000C0E7E67301206073A0736074002070BD36
:10327000002800402E2E2F447269766572732F53FA
:10328000544D3332463178785F48414C5F4472691F
:103290007665722F5372632F73746D333266317893
:1032A000785F68616C5F7274632E6300306C0040FD
:1032B00008B50068084988420DD1FFF7F7F80748BC
:1032C000C16941F00061C161C069054900F0006059
:1032D00000900120086008BD002800400010024056
:1032E0003C0442422DE9F04116460D4604006AD0E6
:1032F000002D68D036B1012E04D04FF467714EA076
:1033000002F0CDFC207C012860D04FF0010884F849
:10331000108002206074E878002E59D001F0BCFDC6
:10332000632804D94FF46C7143A002F0B8FC6878AC
:1033300001F0B2FD20B1687801F0AEFD0C2804D98F
:1033400040F2B1313CA002F0AAFCA87801F0A4FD43
:1033500020B1A87801F0A0FD1F2804D940F2B231B5
:1033600035A002F09CFCE87801F096FDE0736878E7
:1033700001F092FD6073A87801F08EFDA073C2B2D7
:10338000617BE07B01F053FE20732870204601F042
:103390003EFE4FF46161B0FBF1F10025182946D9DA
:1033A0001822B1FBF2F1A1EB011101EB4101C1EBDC
:1033B000011100EBC1163146204601F077FE0427CB
:1033C000002831D123E00120BDE8F0810220FBE795
:1033D000632804D940F2A53117A002F060FC687898
:1033E000401E0B2804D940F2A63113A002F057FC6E
:1033F000A878401E1E2804D940F2A7310EA002F082
:103400004EFCE878E07368786073A878B6E72046E9
:1034100001F0F6FD411C0AD0B04208D21449014423
:10342000204601F02FFE10B167742574CBE784F8B5
:10343000118025740020C7E72E2E2F44726976650F
:1034400072732F53544D3332463178785F48414C74
:103450005F4472697665722F5372632F73746D3394
:1034600032663178785F68616C5F7274632E6300D6
:10347000805101002DE9F04116460C4605004DD063
:10348000002C4BD036B1012E04D040F2CA2144A00A
:1034900002F005FC287C012843D04FF0010885F894
:1034A0001080022068742078002E3CD001F0F4FCDB
:1034B000172804D940F2DD2139A002F0F0FB607832
:1034C00001F0EAFC3B2804D940F2DE2134A002F0EE
:1034D000E6FBA07801F0E0FC3B2804D940F2DF21B4
:1034E0002FA002F0DCFB207801F0D6FC4FF46161E4
:1034F00000FB01F6607801F0CFFCC0EB001006EB9A
:103500008006A07801F0C8FC34182146284601F056
:10351000CDFD0026042700283AD127E00120BDE890
:10352000F0810220FBE7172804D940F2D3211CA028
:1035300002F0B5FB60783B2804D94FF4357118A030
:1035400002F0ADFBA0783B2804D940F2D52114A0AD
:1035500002F0A5FB20784FF4616148436178C1EB2C
:10356000011100EB8100A1784418CEE7286841687A
:1035700021F005014160284601F042FD411C0AD0BE
:10358000A04208D214490144284601F07BFD10B145
:103590006F742E74C2E785F811802E740020BEE788
:1035A0002E2E2F447269766572732F53544D333229
:1035B000463178785F48414C5F4472697665722F76
:1035C0005372632F73746D3332663178785F68613C
:1035D0006C5F7274632E63008051010070B504004B
:1035E0000AD02068416821F008014160FEF704FE1E
:1035F00005464FF47A7608E0012070BDFEF7FCFD29
:10360000401BB04201D9032070BD2068406800070C
:10361000F4D5002070BD10B5401EB0F1807F01D3FD
:10362000012010BD4FF0E02460610F21601702F00F
:103630001FFB0020A06107202061002010BD704703
:10364000704700002DE9F047044600682D4E2E4FCC
:10365000DFF8B8800D464FF08049B0420AD04845A7
:1036600008D0B84206D0404504D040F2867128A068
:1036700002F015FB286890B1102810D020280ED039
:1036800030280CD040280AD0502808D0602806D016
:10369000702804D040F287711DA002F000FB68681A
:1036A000802805D020B14FF4F16119A002F0F7FA9B
:1036B00094F83C00012823D0012284F83C20022009
:1036C00084F83D00216848688B6820F0700C2868F9
:1036D00040EA0C0048602068B04205D0484503D05D
:1036E000B84201D0404504D1696823F080031943F2
:1036F000816084F83D20002084F83C00BDE8F0871C
:103700000220FBE7002C01400004004000080040BC
:103710002E2E2F447269766572732F53544D3332B7
:10372000463178785F48414C5F4472697665722F04
:103730005372632F73746D3332663178785F6861CA
:103740006C5F74696D5F65782E63000010B50400CE
:103750003AD03049206888420DD0B0F1804F0AD06D
:103760002D49884207D02D49884204D040F21311D8
:103770002BA002F094FAA06860B110280AD020288B
:1037800008D0402806D0602804D04FF48A7124A0C5
:1037900002F085FA206950B1B0F5807F07D0B0F50E
:1037A000007F04D040F215111DA002F078FAA06944
:1037B00030B1802804D04FF48B7119A002F06FFA59
:1037C00094F83D0010B107E0012010BD002084F8FE
:1037D0003C00204600F040F8022084F83D00211D06
:1037E000206801F04DFE012084F8460084F83E0078
:1037F00084F83F0084F8400084F8410084F84200D7
:1038000084F8430084F8440084F8450084F83D00BF
:10381000002010BD002C01400004004000080040C2
:103820002E2E2F447269766572732F53544D3332A6
:10383000463178785F48414C5F4472697665722FF3
:103840005372632F73746D3332663178785F6861B9
:103850006C5F74696D2E630008B500680649884284
:1038600008D10648C16941F00401C161C06900F096
:103870000400009008BD0000000800400010024055
:103880002DE9F041074600681A4C1B4D1B4E4FF0C6
:103890008048A0420AD0404508D0A84206D0B04295
:1038A00004D040F2CF1116A002F0F9F997F83D00CC
:1038B000012802D00120BDE8F081022087F83D00F8
:1038C0003868C16841F00101C1603868A04205D084
:1038D000404503D0A84201D0B04204D1816801F034
:1038E0000701062903D0016841F0010101600020B1
:1038F000E1E70000002C0140000400400008004007
:103900002E2E2F447269766572732F53544D3332C5
:10391000463178785F48414C5F4472697665722F12
:103920005372632F73746D3332663178785F6861D8
:103930006C5F74696D2E63002DE9F047054690F8C1
:103940003C000C4601283CD04FF0010985F83C9022
:10395000022085F83D0020684FF480564FF400584F
:10396000B04215D0404513D090B1102810D0202877
:103970000ED030280CD040280AD0502808D060281B
:1039800006D0702804D041F23241A8A002F087F995
:103990002868816821F0770121F47F418160B24974
:1039A0002368B048B14ACF134FF0804C502B7CD0E5
:1039B0000FDC202B04D007DC002BFBD0102B4DD1CB
:1039C00022E10220BDE8F087302BF9D0402BF6D160
:1039D000EFE0602B6AD04FF4405A702B4ED0B342C8
:1039E0003DD04345EBD12B6883420AD0634508D0D4
:1039F0008B4206D0934204D041F25D418BA002F08D
:103A00004EF9A06850B1B04208D0404506D05045AC
:103A100004D04FF4A35185A002F041F96068B84288
:103A200009D040B1022806D00A2804D041F26141F1
:103A30007EA002F034F9E0680F2804D941F2624117
:103A40007AA002F02CF9D4E90121E368286801F09A
:103A50004DFD2868816841F480418160A3E02B68B6
:103A60008342FBD06345F9D08B42F7D09342F5D027
:103A700041F23E416DA002F012F994E02B688342BE
:103A80000AD0634508D08B4206D0934204D041F25D
:103A9000454166A002F003F9A06868B1B0420BD0BE
:103AA000404509D0504507D001E025E04FE041F204
:103AB00048415EA002F0F3F86068B84209D040B116
:103AC000022806D00A2804D041F2494157A002F04A
:103AD000E6F8E0680F2804D941F24A4153A002F009
:103AE000DEF8D4E90121E368286801F0FFFC2868CA
:103AF000816841F07701B0E72B6883420AD06345C3
:103B000008D08B4206D0934204D041F2714147A0C5
:103B100002F0C5F86068B84209D040B1022806D06A
:103B20000A2804D041F2744140A002F0B8F8E068DD
:103B30000F2804D941F275413CA002F0B0F8E268C8
:103B40006168286801F0E4FC5021286829E02B68AE
:103B500083420AD0634508D08B4206D0934204D0FA
:103B600041F2814131A002F09AF86068B84209D070
:103B700040B1022806D00A2804D041F284412BA08B
:103B800002F08DF8E0680F2804D941F2854127A0A2
:103B900002F085F8E2686168286801F0CAFC6021DB
:103BA000286801F0ADFC85F83D90002085F83C00C8
:103BB00008E72B6883420AD0634508D08B4206D0C1
:103BC000934204D041F2914118A002F068F8606875
:103BD000B84209D040B1022806D00A2804D041F2E8
:103BE000944112A002F05BF8E0680F2804D941F27A
:103BF00095410EA002F053F8E2686168286801F070
:103C000087FC40212868CCE72B6883420AD06345B3
:103C100008D08B4206D0934204D041F2A44103A0C5
:103C200002F03DF821682868BBE700002E2E2F44E3
:103C30007269766572732F53544D333246317878FA
:103C40005F48414C5F4472697665722F5372632FEF
:103C500073746D3332663178785F68616C5F746954
:103C60006D2E6300002C014000040040000800405D
:103C7000704770B50446006801694FF00005C943FC
:103C8000890715D4C168C943890711D4E91E0161A8
:103C900001202077206880698007204602D0FFF746
:103CA000E7FF04E000F098F8204600F096F825774A
:103CB00020680169C943490717D4C168C943490746
:103CC00013D46FF00401016102202077206880691D
:103CD00010F4407F204602D0FFF7CAFF04E000F056
:103CE0007BF8204600F079F8257720680169C94300
:103CF000090716D4C168C943090712D46FF0080137
:103D00000161042020772068C0698007204602D026
:103D1000FFF7AEFF04E000F05FF8204600F05DF82A
:103D2000257720680169C943C90617D4C168C9430A
:103D3000C90613D46FF010010161082020772068B4
:103D4000C06910F4407F204602D0FFF791FF04E0E5
:103D500000F042F8204600F040F82577206801691D
:103D6000C943C90708D1C168C943C90704D1891E1D
:103D70000161204600F032F820680169C943090654
:103D800009D4C168C943090605D46FF080010161F7
:103D90002046FFF754FC20680169C943490609D44D
:103DA000C168C943490605D46FF04001016120464E
:103DB00000F015F820680169C94389060BD4C16871
:103DC000C943890607D46FF0200101612046BDE890
:103DD0007040FFF735BC70BD704770477047704743
:103DE000704710B504460068416994F83D20C1F35E
:103DF000C011212A0BD151B1416921F080014161EB
:103E0000606B08B1FDF758FC204601F023FC2068E8
:103E1000416994F83E20C1F38011222A0BD151B19F
:103E2000416921F040014161A06B08B1FDF744FCFC
:103E3000204601F0F7FB002010BD000010B5040083
:103E400023D01349206888420AD01249884207D0FB
:103E50001149884204D040F2A32110A001F01FFFB5
:103E6000242084F83D002068C16821F40051C1601D
:103E7000204600F0C3F90020206484F83D0084F857
:103E80003E0044F8300F207310BD012010BD00002B
:103E90000038014000440040004800402E2E2F44CE
:103EA0007269766572732F53544D33324631787888
:103EB0005F48414C5F4472697665722F5372632F7D
:103EC00073746D3332663178785F68616C5F7561E9
:103ED00072742E630000000070470000F8B502689D
:103EE00004461068D168536910F00F0F4FF00005B9
:103EF00053D003F0010601F4907737435FD0C20737
:103F000005D0CA0503D5226C42F0010222644207A3
:103F100005D5DA0703D0226C42F002022264820740
:103F200005D5DA0703D0226C42F0040222640207AE
:103F300007D501F02002324303D0226C42F0080280
:103F40002264226C002A34D0800604D5880602D56B
:103F5000204601F088FB20684069216CC0F3801086
:103F6000090700D430B3204601F05CFB20684169AA
:103F700049061BD5416921F040014161A06BA8B100
:103F800058494163A06BFDF7BBFB002811D0A06B23
:103F9000416B01B0BDE8F040084783060FD58B06A2
:103FA0000DD52046BDE8F84001F05DBB2046FFF787
:103FB00093FFF8BD2046FFF78FFF2564F8BD266B01
:103FC0002023012E52D1C60650D5CE064ED51068FC
:103FD00050680090506940062AD5A16B0868406877
:103FE0000004000CEAD0A68D8642E7D9E0858869F6
:103FF000202818D0D06820F48070D06020684169F3
:1040000021F0010141612068416921F040014161D5
:1040100084F83E3025632068C16821F01001C1603A
:10402000A06BFDF749FBA08DE18D401A81B219E02C
:10403000A08DE18D401A81B2E08D0028BED000290C
:10404000BCD0D06820F49070D0602068426922F023
:104050000102426184F83E3025632068C26822F084
:104060001002C2602046FFF7BBFEF8BD05062BD547
:104070000D0629D594F83D002128F6D1A068B0F5A9
:10408000805F01D12069B0B1206A411C21622168A2
:1040900000784860E08C401E0004000CE084E4D10D
:1040A0002068C16821F08001C1602068C16841F0CA
:1040B0004001C160F8BD206A0088C0F3080050606C
:1040C000206A801C2062E5E74006F3D54806F1D55A
:1040D000D168204621F04001D16084F83D3000F0E5
:1040E0008FF9F8BD5755000870B5040020D0A069BD
:1040F00030490028304A314B20681BD088420AD012
:10410000904208D0984206D04FF4B6712CA001F02E
:10411000C6FDA069C8B1A069B0F5807F15D0B0F523
:10412000007F12D0B0F5407F0FD040F26D1109E052
:10413000012070BD884208D0904206D0984204D039
:1041400040F271111EA001F0AAFDA06838B1B0F5CF
:10415000805F04D040F2731119A001F0A0FD94F823
:104160003D00002520B984F83C50204600F068F856
:10417000242084F83D002068C16821F40051C1600A
:10418000204601F0CBFA2068016921F490410161D9
:104190002068416921F02A0141612068C16841F429
:1041A0000051C1602564202084F83D0084F83E0061
:1041B000002070BD0038014000440040004800402D
:1041C0002E2E2F447269766572732F53544D3332FD
:1041D000463178785F48414C5F4472697665722F4A
:1041E0005372632F73746D3332663178785F686110
:1041F0006C5F756172742E630000000010B5044698
:1042000000680C49884214D10B48816921F480412F
:1042100081614FF4C0610948FDF700FDA06BFDF717
:10422000BBFA606BFDF7B8FABDE810402520FEF739
:1042300045B810BD003801400010024000080140A0
:10424000F0B585B0002406460094019402940394CE
:1042500000682D49884254D12C48816941F480413D
:104260008161816901F480410491816941F0040117
:1042700081618069264D00F0040004904FF40070C5
:104280000090022001900320039069462846FDF724
:104290008FFD2815CDE90004694628460294FDF7F4
:1042A00087FD1D4D1B488027C5E90004C5E902476D
:1042B0002C616C61AC612846EC61FDF781FB08B1B3
:1042C000FDF784F9B5636E62134D12484435143816
:1042D00001C5102091C5104845F8104944306C6163
:1042E000AC61EC61FDF76CFB08B1FDF76FF975632C
:1042F0000022114625206E62FEF748F82520FEF7C1
:1043000013F805B0F0BD0000003801400010024075
:104310000008014058000240E000002090F83E30C4
:10432000202B0ED159B152B190F83C30012B08D05E
:10433000012380F83C300023036301F095BA01208B
:104340007047022070477047704700002DE9F8431E
:10435000044690F83D001F4616460D4620284CD1D5
:10436000C5B1BEB194F83C00012846D0012084F8C4
:104370003C004FF00008C4F84080212084F83D0044
:10438000FDF73AFFA6848146E684A068B0F5805F19
:1043900003D004E00120BDE8F883206928B12E464F
:1043A0005FF0000584F83C800EE00026FAE78021EB
:1043B000204601F091FAA0B9AEB116F8010B2168C0
:1043C0004860E08C401EE084E08C4B464FF00002D9
:1043D00000970028EBD14FF04001204601F07CFA15
:1043E00030B10320D7E735F8020BC0F30800E6E749
:1043F000202084F83D000020CDE70220CBE700001C
:10440000416B09680A6822F001020A6005490068E8
:104410000968884204D10448017821F00201017042
:10442000704700009C0000207601002070B500F06D
:104430007FFF802001F0B8FB154D20B3E72001F08D
:10444000B3FB00B300F074FF812001F0ADFBD0B1ED
:1044500000F040FE044600F03FFC00F069FF8020C1
:1044600001F0A2FB78B1E62001F09EFB58B104F008
:104470003800801C01F098FB28B100F07FFF00207D
:104480006870012070BD01206870002070BD0000C0
:10449000160000202DE9F04100F04AFF802001F0D5
:1044A00083FBDFF83081002708F1020400287DD06B
:1044B000E52001F079FB002878D000F039FF812059
:1044C00001F072FB00287AD01420FDF795FB00F074
:1044D00001FE4FF6FF7505EA0026FCF7BDFC00F073
:1044E000F9FD304486B200F0F7FB00F047FF26F0FC
:1044F000030001F017FD6FF00F06324601F0C6FF12
:104500000022354B01F022FD0022344B01F01CFE4D
:1045100001F026FC01F01EFF00EB800005EA4000E0
:1045200060800A20FDF768FB00F002FF802001F0A8
:104530003BFB002843D0E32001F036FB00283ED0AF
:1045400000F0F6FE812001F02FFB78B33C20FDF750
:1045500053FB00F0BFFD05EA0025FCF77DFC00F0F1
:10456000B9FD284485B200F0B7FB00F007FF25F045
:10457000030001F0D7FC324601F088FF184A194BBE
:1045800001F0E4FC184A194B01F0DEFD0022184B43
:1045900001F0DCFC01F0E4FB01F0C0FE208061884A
:1045A00014A0FBF71DFEB4F9001000E007E015A011
:1045B000FBF716FE88F801700120BDE8F081278026
:1045C000678013A0FBF70CFE012188F80110002082
:1045D000F3E700001600002000405F400000184094
:1045E000D7A3703D0AF76540CDCCCCCCCC6C47400E
:1045F000000024400D0A48756D693A202564200D9D
:104600000A00000054656D703A202564200D0A00F0
:104610000D0A54656D702074657374206661696C51
:104620002E200D0A0000000001484088704700005D
:10463000180000200148B0F9000070471800002061
:104640007FB580201124CDE90004234E0225694660
:1046500003953046FDF7ACFB4020CDE900046946E8
:1046600003953046FDF7A4FB012240213046FDF7BB
:104670008DFD012280213046FDF788FDFFF7D6FE33
:10468000C0B10A20FDF7B8FA00F052FE802001F018
:104690008BFA124CA0B1FE2001F086FA80B100F036
:1046A0006DFE0F20FDF7A8FA002060700CA0FBF74C
:1046B00097FD0AE004B00FA0BDE87040FBF790BD85
:1046C00011A0FBF78DFD012060706420FDF794FAC6
:1046D000BDE87F40FFF7DEBE000C01401600002061
:1046E0000D0A485455323144205265736574204F89
:1046F0004B0D0A000D0A48545532314420496E6969
:1047000074204E470D0A00000D0A485455323144BA
:10471000205265736574204E470D0A001FB5094A83
:10472000802148B10020CDE90010012002906946A7
:104730001046FDF73DFB1FBD1120CDE90010022002
:104740000390F4E7000C014070B50A4C0025607836
:1047500018B165702570FFF773FF2078401CC0B258
:104760002070092804D92570BDE87040FFF792BE7B
:1047700070BD00001600002030B581780A22B1FB20
:10478000F2F302FB131323490B728378B3FBF2F3AA
:10479000CB714378B3FBF2F402FB14338B72437892
:1047A000B3FBF2F34B720378B3FBF2F402FB143366
:1047B0000B730378B3FBF2F3CB72C378B3FBF2F461
:1047C00002FB14338B71C378B3FBF2F34B71437963
:1047D000B3FBF2F402FB14330B714379B3FBF2F336
:1047E000CB70C4886423B4FBF3F503FB1544B4FB1E
:1047F000F2F502FB15444C70C488B4FBF3F503FBDF
:104800001543B3FBF2F20A70007988700B204873ED
:1048100030BD0000680100200B4900200A78521CBE
:10482000D2B20A70022A05D900220A704B7803B965
:1048300001224A704A88002A05D0521E1204120C26
:104840004A8000D1012070471C0000201349488095
:10485000134918B10120C1F8AC0170470020C1F81C
:10486000AC01C1F8B401C1F8B801C1F8BC010D4AEE
:10487000C2F8A001C1F89001C1F88C01C2F8BC01D6
:10488000C2F89801C2F89401C2F89C01C1F88001F5
:10489000C1F88401C1F8A801704700001C00002085
:1048A000008021420000214210B58CB030216846C2
:1048B000FBF7E6FD114C694611482278FCF758FDDC
:1048C0002178082905D20A4669460D48FCF7BEFB47
:1048D00006E06846FCF768FC21786846FCF7C0FCF7
:1048E0002178684600F072FC2078401CC0B220702D
:1048F0000F2801D9002020700CB010BD3C00002012
:104900006801002001494880704700001C00002019
:10491000FEE70000F0B5C288DFF82CC143790CEB4C
:104920008204A4F50054C078D4F84C42C4F3411674
:1049300004F01F05012E0BD01E35444E401E06EB21
:10494000430636F8026C304480B2960703D006E086
:104950006D1EADB2F1E7022B01D9401C80B24FF4BD
:104960000023A84229D3401B85B201200027064618
:1049700014F4002F03D100BF4FF01D0E01E04FF0E3
:104980001E0E754516D3A5EB0E05761CC4F3035E0B
:10499000ADB2F6B2864503D1FF4317F0FF0701D150
:1049A000401CC0B2A6F1010E23FA0EFE14EA0E0F4F
:1049B000E5D1E1E76D1CEBB234E0281A521E92B249
:1049C0000CEB8204A4F5005486B2D4F84C520C20AF
:1049D00015F4700F02D00D24002717E00C24FBE71C
:1049E0004FF01D0E02E000BF4FF01E0E764515D9A8
:1049F000A6EB0E06641EB6B2E4B20FB9401EC0B2FA
:104A0000C5F3035E864501D1FF43FFB2A4F1010E59
:104A100023FA0EFE15EA0E0FE6D1E1E7AEEB060330
:104A20005B1CDBB20A7048708B700CEB8201A1F545
:104A30000051D1F84C12C1F30351814201D1012040
:104A4000F0BD0020F0BD0000806900089C6C0008EB
:104A50000D4808B5416941F00101416140690022FA
:104A600000F00100009011460E20FDF78FFC0E2093
:104A7000FDF75AFC002211460F20FDF787FCBDE828
:104A800008400F20FDF750BC001002402DE9F04F08
:104A900085B00024374800940194029403948169FE
:104AA00041F010018161816901F010010491816977
:104AB00041F020018161816901F020010491816947
:104AC00041F004018161816901F00401049181696F
:104AD00041F0080181618069DFF89CA000F00800C6
:104AE00048F2E0180490002241465046FDF74EFB84
:104AF000DFF888B04FF6FB49002249465846FDF7DB
:104B000045FB4FF400500325CDE9000569461C48DC
:104B1000FDF74EF91B480126CDE9006002276946E2
:104B200002975046FDF744F941F61E00CDE9000515
:104B300069465046FDF73CF9CDF800800397CDE972
:104B4000016469465046FDF733F9CDF800900397AC
:104B5000CDE9016469465846FDF72AF94FF44170E2
:104B6000CDE9000569465846FDF722F905B0BDE8D4
:104B7000F08F00000010024000080140000C0140CE
:104B8000001001400000111010B5002211461E2037
:104B9000FDF7FCFB1E20FDF7C7FB01221146032099
:104BA000FDF7F4FB0320FDF7BFFB022201210620E5
:104BB000FDF7ECFBBDE810400620FDF7B5BB00009B
:104BC0001CB500241A480194184900940160611E24
:104BD00041604FF480718160FEF7DAFA08B1FCF7AA
:104BE000F5FC08208DF804008DF805408DF806408E
:104BF000002201A90E48FEF73DFC08B1FCF7E6FCD7
:104C000002208DF8000001208DF801008DF80200CF
:104C100016208DF80300002269460548FEF762FB66
:104C2000002801D0FCF7D2FC1CBD00000028004089
:104C30004000002010B586B000241748009401946D
:104C40000294039404941349059401604FF42F7166
:104C5000C0E901146321C0E9031480218161FEF7DA
:104C600075FD08B1FCF7B2FC4FF480500090694626
:104C70000948FEF761FE08B1FCF7A8FC049404A9FA
:104C800005480594FEF7DEFC002801D0FCF79EFCE9
:104C900006B010BD00080040540000200C4810B5BC
:104CA0000A4901604FF4E1314160002181600C222A
:104CB000C160C0E904128161C161FFF715FA0028E3
:104CC00003D0BDE81040FCF781BC10BD00380140A6
:104CD0009C000020FEE7704710B50C4C012280219B
:104CE0002046FDF753FA0220FCF7ACF901224021DF
:104CF0002046FDF74BFA0220FCF7A4F920460022DB
:104D0000BDE810404021FDF741BA0000000C014011
:104D100020BF00BF704770472DE9F04F0446407B2D
:104D2000E18989B04EBA46EA004601251C2256495F
:104D300002A8FBF773FB0721002002AA52F82030DB
:104D4000B34203D0401CC0B28842F7D3029014F89B
:104D5000110F0104B4F8010040BA0843FCF790FCBD
:104D600080466079FCF7A6F806462079FCF7A2F8A1
:104D700000EB800006EB4000C6B2207AFCF79AF800
:104D80000746E079FCF796F800EB800007EB40005F
:104D900000F0FF0BE07AFCF78DF80746A07AFCF7ED
:104DA00089F800EB800007EB400000F0FF0AA07BD1
:104DB000FCF780F80746607BFCF77CF800EB80008E
:104DC00007EB400000F0FF09207CFCF773F84FF47C
:104DD0007A7100FB01F7607CFCF76CF800EBC00116
:104DE00001EB001007EB8007A07CFCF763F800EBF9
:104DF000800007EB4007E07CFCF75CF8384480B2A9
:104E0000224CA0F5E061B23914D01E39642911D2C8
:104E1000B8F1000F0ED0B8F10C0F0BD856B11F2E01
:104E200008D8BBF1170F05D8BAF13B0F02D8B9F17A
:104E30003B0F03D900250A20607021E0ADF8060081
:104E40008DF803608DF8058002988DF802B08DF81A
:104E500004008DF801A08DF800900D48FEF7EEFFDC
:104E600000202070024620210A48FDF78FF968468D
:104E700000F04CFA684600F05FF96846FCF760F80D
:104E800009B02846BDE8F08F30650008100000200A
:104E90009C000020000C0140010901EB810100F0A1
:104EA0000F0000EB4100C0B27047002102E00A3859
:104EB000C0B2491C0A28FAD2090740EA11607047BB
:104EC0002DE9F04104460025C07B627BA37B42E0D4
:104ED000012A16D0032A14D0052A12D0072A10D08E
:104EE000082A0ED00A2A0CD00C2A0AD0042A10D084
:104EF000062A0ED0092A0CD00B2A0AD0022A0DD07D
:104F000028E01F2B0CD30C2A05D101221346401C8C
:104F100020E01E2B04D30123521C1BE01C2B02D2C9
:104F200003F1010316E011D183B29E0710D164266C
:104F3000B3FBF6F706FB173636B94FF4C876B3FB6A
:104F4000F6F706FB17331BB91D2303E01D2B01D118
:104F5000032201236D1C8D42BAD3D1B2E073617379
:104F6000DAB2A27300F063F82073BDE8F08170B587
:104F70000446FDF741F905464FF47A7606E0FDF761
:104F80003BF9401BB04201D9032070BD2068406846
:104F90008006F4D52068416841F01001416000208E
:104FA00070BD000070B504460068416821F0100132
:104FB0004160FDF721F905464FF47A7607E000BF1E
:104FC000FDF71AF9401BB04201D9032070BD2068DB
:104FD00040688006F4D5002070BD000010B506487A
:104FE000FDF7C7FF4FF480510448FDF79FF8BDE877
:104FF0001040012000F09AB840000020000C014051
:105000000168086A496A89B241EA0040704700684D
:1050100081698AB2C1698BB2816989B28A4203D03F
:10502000C06961F31F40704743EA02407047F0B522
:105030006424C1EBC1030927A500072603EB011374
:105040000329B3FBF7F100F5FA60114401440AD2D9
:10505000401EB0FBF4F201EB9001B0FBF5F0891AB1
:105060000844001D08E0B0FBF4F201EB9001B0FB36
:10507000F5F0891A0844801CB0FBF6F106FB11001C
:10508000C0B2F0BD70B50D4606460024FFF76FFFB5
:1050900048B93168280C08623168A8B248623046C5
:1050A000FFF780FF00B10124204670BD70B50D46AA
:1050B00006460024FFF75BFF48B93168280C886179
:1050C0003168A8B2C8613046FFF76CFF00B1012417
:1050D000204670BD70B500240120FFF71FFB114E64
:1050E0000025012240213046FDF750F80220FBF751
:1050F000A9FF6006040E80213046FCF7EBFF012873
:1051000001D1641CE4B2002240213046FDF73EF894
:105110006D1CEDB2082DE4D30020FFF7FFFA204606
:1051200070BD0000000C014070470000014908708C
:10513000704700002400002010B586B004460078B7
:105140008DF8120060788DF81100A0788DF81000AD
:10515000E0788DF80E0060798DF80D0020798DF8DB
:105160000C00E0886421B0FBF1F201FB12008DF825
:105170000F00002204A90A48FEF77CF9002203A9C7
:105180000748FEF7AFF8A078227861788DE807002D
:10519000E3786279E18803A0FBF722F806B010BD3E
:1051A000400000200D0A54696D653A2025642D25C4
:1051B000642D2564202020253032643A2530326465
:1051C0003A25303264200D0A000000002DE9F04F2E
:1051D0004C4C8E460021C4F88C110122C4F8902159
:1051E0000B468B460025C2186BF30F0192F808C0DE
:1051F0005FEA0C6401D541F01001167E340601D53A
:1052000041F0200192F82840A246240601D541F041
:105210004001C45CA146240601D541F08001147C04
:10522000270601D541F4807192F820705FEA076883
:1052300001D541F400714FEA4C0C82F808C07600A9
:1052400016764FEA4A0682F828604FEA4906C654A5
:10525000640014747C0082F820402B4CC1F30016CB
:10526000C4F89861C1F34016C4F89461C1F3801684
:10527000C4F89C61234EC1F3C017C6F88071C1F316
:105280000027C6F88471C1F34027C6F8A87101262B
:10529000C4F8BC61C4F8BCB16D1CEDB2082DA3D339
:1052A0005B1CDBB2082B9DD35FEACE7001D041F0CE
:1052B00001015FEA8E7001D541F002015FEA4E7094
:1052C00001D541F004015FEA0E7001D541F00801FB
:1052D0000C4801F00102C0F8B421C1F34002C0F84B
:1052E000B821C1F38002C0F8BC21C1F3C002064955
:1052F000C1F8A0210121C0F88C11C0F890B1BDE81F
:10530000F08F00000080214200002142074902780E
:105310000A7042784A7082788A7002790A71C2787B
:10532000CA7042794A71C088C88070472600002040
:1053300010B5114C012280212046FCF727FF0220E6
:10534000FBF780FE012240212046FCF71FFF0220D0
:10535000FBF778FE002280212046FCF717FF022091
:10536000FBF770FE002240212046FCF70FFFBDE84E
:1053700010400220FBF766BE000C014010B50D4C3A
:10538000002280212046FCF701FF0220FBF75AFE95
:10539000012240212046FCF7F9FE0220FBF752FED5
:1053A000012280212046FCF7F1FEBDE810400220DA
:1053B000FBF748BE000C0140FCF724BF70B594B069
:1053C00028216846FBF75CF814210AA8FBF758F877
:1053D00000240F940520009001A9109411941294B8
:1053E0004FF48030012581E8310002260495CDE993
:1053F00007604FF4E01009906846FDF771FB0F203D
:10540000CDE90A06A802CDE90C4002210AA80E94B3
:10541000FDF7FAF92802CDE90F500FA8FDF72AF998
:1054200014B070BD0D48016841F001010160416890
:105430000B4A1140416001680A4A1140016001684D
:1054400021F480210160416821F4FE0141604FF4A4
:105450001F0181600449C0030860704700100240CA
:105460000000FFF8FFFFF6FE08ED00E010B503486E
:10547000FEF7FFFBBDE81040FFF716BA540000200E
:10548000F0B50268164B174C174D4FF08047984205
:1054900005D0B84203D0A04201D0A84203D122F0E7
:1054A00070064A683243984205D0B84203D0A04201
:1054B00001D0A84203D122F44074CA6822434C6947
:1054C00022F08002224302608A68C2620A68826215
:1054D000984201D10969016301214161F0BD0000D9
:1054E000002C0140000400400008004010B5846812
:1054F00042EA032224F47F440A432243826010BD1F
:10550000826822F070020A4342F00701816070470E
:1055100010B5036A046A24F001040462846924F06B
:10552000F00444EA021423F00A020A43846102628E
:1055300010BD10B5036A23F0100303628369046A87
:1055400023F4704343EA023224F0A00343EA01113A
:105550008261016210BD10B5406A0021C185C1841D
:10556000FEF7BAFC10BD70B5446A2068406994F833
:105570003D10C0F3C0100025212904D118B1E584E5
:10558000204600F067F82068406994F83E10C0F3A8
:105590008010222904D118B1E585204600F042F898
:1055A000206C40F0100020642046FEF795FC70BD92
:1055B00010B50146406A0968096889061BD40021B4
:1055C000C1850168CA6822F48072CA6001684A69AC
:1055D00022F001024A6101684A6922F040024A61F0
:1055E000202180F83E10016B012904D10168CA68AE
:1055F00022F01002CA60016B012902D0FEF7A3FE5F
:1056000010BD818DFEF7ECFB10BD10B5406A016B3B
:10561000012902D0FEF798FE10BD818D4908FEF7E2
:10562000DFFB10BD0168CA6822F49072CA6001688D
:105630004A6922F001024A61016B012904D1016823
:10564000CA6822F01002CA60202180F83E100021B2
:10565000016370470168CA6822F0C002CA60202155
:1056600080F83D10704708B590F83E10222901D00F
:10567000022008BD82684FF480539A4201D101692B
:1056800021B1816A9A421BD04AB10AE00268816A5C
:105690005268C2F308020A80816A891C08E0026924
:1056A00072B10268526802F07F020A70816A491C76
:1056B0008162C18D491E0904090CC18503D019E01E
:1056C00002685268F1E70168CA6822F02002CA60E5
:1056D0000168CA6822F48072CA6001684A6922F0CF
:1056E00001024A61202180F83E10016B012903D09C
:1056F000FEF729FE002008BD002101630168CA6889
:1057000022F01002CA6001680A68D20602D50A684F
:1057100049680091818DFEF763FBEBE770B50446A5
:1057200040684049884204D940F653613EA000F0E9
:10573000B6FAE06838B1B0F5005F04D040F65461C5
:1057400039A000F0ACFA206950B1B0F5806F07D0F5
:10575000B0F5C06F04D040F6556133A000F09FFA59
:1057600060694FF6F371084200D120B940F65661E6
:105770002DA000F094FA20680169E26821F44051FC
:10578000114301612169A0680843616908432168E8
:10579000CA6841F20C639A430243CA6020684169B7
:1057A000A26921F44071114341612E492068884269
:1057B00002D1FDF74FF901E0FDF73CF900EBC00124
:1057C00001EB0012606864218000B2FBF0F3B3FBD0
:1057D000F1F36FF018067343B2FBF0F5B2FBF0F68D
:1057E00005EB8305322303EB0515B5FBF1F5B6FB9D
:1057F000F1F605F0F00505EB0615B2FBF0F6B2FB8D
:10580000F0F0B0FBF1F06FF01802504306EB8000AF
:1058100003EB0010B0FBF1F0216800F00F0028440A
:10582000886070BD20AA44002E2E2F4472697665D0
:1058300072732F53544D3332463178785F48414C60
:105840005F4472697665722F5372632F73746D3380
:1058500032663178785F68616C5F756172742E634F
:10586000000000000038014038B5816282850025C3
:10587000134604460564222084F83E00A26B1348B8
:105880009062A26B1248D062A26B12481063A06BA8
:105890000A4645632168A06B091DFCF747F920689B
:1058A00001684168009184F83C50C16841F48071FE
:1058B000C1602068416941F001014161206841698E
:1058C00041F040014161002038BD0000B1550008A1
:1058D0000B560008675500082DE9F0419846174619
:1058E0000E460446069D1DE0681C1BD02DB1FCF73A
:1058F00083FCA0EB0800A84214D92068C16821F4F9
:10590000D071C1602068416921F00101416120200E
:1059100084F83D0084F83E00002084F83C00032019
:10592000BDE8F0812068006836EA000004D000205D
:10593000B842D9D00020F3E70120F9E70548017803
:10594000CA0705D021F0010100F8041B00F0E2B8FD
:10595000704700007601002010B50448FEF7BEFA3B
:10596000BDE81040014800F015B800009C00002080
:1059700010B5642205490648FEF7D0FC04480068CB
:10598000C16841F01001C16010BD00007A01002023
:105990009C00002038B5044600680168C943C90668
:1059A0001CD40168406800902046FEF71AFA0C48A3
:1059B00021680268914211D1806B006840680949F2
:1059C000C0F1640064224880087840F0010001F8CA
:1059D000040BBDE838400248FEF7A0BC38BD00000B
:1059E0009C00002076010020FEE7000010B51B4C53
:1059F000207830B1401E10F0FF00207001D100F07F
:105A00006BF8607880B1401EC0B260700A2805D083
:105A1000082807D0062805D020B105E010A0FAF725
:105A2000DFFB01E0FBF762FDA07848B1401E10F0FB
:105A3000FF00A07004D10220E070012000F04CF8BB
:105A4000E078002808D0401E10F0FF00E07003D17D
:105A5000BDE8104000F00EB810BD0000100000209E
:105A600041542B434950534E54504346473D312CEB
:105A7000380D0A0010B508A0FAF7B2FB6420FCF755
:105A8000BBF808A0FAF7ACFB6420FCF7B5F8BDE85A
:105A9000104008A0FAF7A4BB41542B5253540D0AEE
:105AA0000000000041542B43574D4F44453D310DFC
:105AB0000A00000041542B43574A41505F44454679
:105AC0003D2248534732222C22313335333730318F
:105AD00031363331220D0A0010B50C4B0C4C012825
